S01200002E2E2F464548526F626F742E7331397E
S32D0000C00000000020E5060100410A0100410A0100410A0100410A0100410A01000000000000000000000000008A
S32D0000C02800000000410A0100410A010000000000410A0100410A0100410A0100410A0100410A0100410A01008A
S32D0000C050410A0100410A0100410A0100410A0100410A0100410A0100410A0100410A0100410A0100410A0100CA
S32D0000C078410A0100410A0100410A0100410A0100410A0100410A0100410A0100410A0100410A0100410A0100A2
S32D0000C0A0410A0100410A0100410A0100410A0100410A0100410A0100410A0100410A0100410A0100410A01007A
S32D0000C0C8410A0100410A0100410A0100410A0100410A0100410A0100410A0100410A0100410A0100410A010052
S32D0000C0F0410A010065790100410A0100410A0100410A0100410A0100410A0100410A0100410A0100410A010097
S32D0000C118410A0100410A0100410A0100410A0100410A0100410A0100410A0100410A0100410A0100410A010001
S32D0000C140410A0100410A0100410A0100410A01009D400100410A0100410A0100410A0100410A0100410A010047
S32D0000C168410A0100410A0100410A0100410A0100410A0100410A0100410A0100410A0100410A0100410A0100B1
S32D0000C190410A0100410A0100410A0100FD3A010051390100253A0100910A0100D53B0100410A0100410A010035
S32D0000C1B8410A0100410A0100410A0100410A0100410A0100410A0100410A0100410A0100410A0100410A010061
S32D0000C41081F0004102E000BF83F0004330B54FEA41044FEA430594EA050F08BF90EA020F1FBF54EA000C55EAC6
S32D0000C438020C7FEA645C7FEA655C00F0E2804FEA5454D4EB5555B8BF6D420CDD2C4480EA020281EA030382EA0F
S32D0000C460000083EA010180EA020281EA0303362D88BF30BD11F0004F4FEA01314FF4801C4CEA113102D0404263
S32D0000C48861EB410113F0004F4FEA03334CEA133302D0524263EB430394EA050F00F0A780A4F10104D5F1200E8A
S32D0000C4B00DDB02FA0EFC22FA05F2801841F1000103FA0EF2801843FA05F359410EE0A5F120050EF1200E012A2D
S32D0000C4D803FA0EFC28BF4CF0020C43FA05F3C01851EBE37101F0004507D54FF0000EDCF1000C7EEB00006EEB67
S32D0000C5000101B1F5801F1BD3B1F5001F0CD349085FEA30004FEA3C0C04F101044FEA445212F5800F80F09A8000
S32D0000C528BCF1004F08BF5FEA500C50F1000041EB045141EA050130BD5FEA4C0C404141EB010111F4801FA4F114
S32D0000C5500104E9D191F0000F04BF01460020B1FA81F308BF2033A3F10B03B3F120020CDA0C3208DD02F1140C87
S32D0000C578C2F10C0201FA0CF021FA02F10CE002F11402D8BFC2F1200C01FA02F120FA0CFCDCBF41EA0C019040B1
S32D0000C5A0E41AA2BF01EB0451294330BD6FEA04041F3C1CDA0C340EDC04F11404C4F1200220FA04F001FA02F3B6
S32D0000C5C840EA030021FA04F345EA030130BDC4F10C04C4F1200220FA02F001FA04F340EA0300294630BD21FAA8
S32D0000C5F004F0294630BD94F0000F83F4801306BF81F480110134013D4EE77FEA645C18BF7FEA655C29D094EA1C
S32D0000C618050F08BF90EA020F05D054EA000C04BF1946104630BD91EA030F1EBF0021002030BD5FEA545C05D1A3
S32D0000C6404000494128BF41F0004130BD14F580043CBF01F5801130BD01F0004545F0FE4141F470014FF0000031
S32D0000C66830BD7FEA645C1ABF194610467FEA655C1CBF0B46024650EA013406BF52EA033591EA030F41F40021D7
S32D0000C69030BD00BF90F0000F04BF0021704730B54FF4806404F132044FF000054FF0000150E700BF90F0000F66
S32D0000C6B804BF0021704730B54FF4806404F1320410F0004548BF40424FF000013EE700BF42004FEAE2014FEAF9
S32D0000C6E031014FEA02701FBF12F07F4393F07F4F81F06051704792F0000F14BF93F07F4F704730B54FF460741B
S32D0000C70801F0004521F0004120E700BF50EA010208BF704730B54FF000050AE050EA010208BF704730B511F046
S32D0000C730004502D5404261EB41014FF4806404F132045FEA915C3FF4DCAE4FF003025FEADC0C18BF03325FEAA0
S32D0000C758DC0C18BF033202EBDC02C2F1200300FA03FC20FA02F001FA03FE40EA0E0021FA02F11444C1E600BF19
S32D0000C78070B54FF0FF0C4CF4E06C1CEA11541DBF1CEA135594EA0C0F95EA0C0F00F0DEF82C4481EA030621EAF3
S32D0000C7A84C5123EA4C5350EA013518BF52EA033541F4801143F4801338D0A0FB02CE4FF00005E1FB02E506F05F
S32D0000C7D00042E0FB03E54FF00006E1FB03569CF0000F18BF4EF0010EA4F1FF04B6F5007F64F5407404D25FEA0F
S32D0000C7F84E0E6D4146EB060642EAC62141EA55514FEAC52040EA5E504FEACE2EB4F1FD0C88BFBCF5E06F1ED8D2
S32D0000C820BEF1004F08BF5FEA500E50F1000041EB045170BD06F0004646EA010140EA020081EA0301B4EB5C0487
S32D0000C848C2BFD4EB0C0541EA045170BD41F480114FF0000E013C00F3AB8014F1360FDEBF002001F0004170BDF0
S32D0000C870C4F10004203C35DA0C341BDC04F11404C4F1200500FA05F320FA04F001FA05F240EA020001F0004207
S32D0000C89821F0004110EBD37021FA04F642EB06015EEA430E08BF20EAD37070BDC4F10C04C4F1200500FA04F32F
S32D0000C8C020FA05F001FA04F240EA020001F0004110EBD37041F100015EEA430E08BF20EAD37070BDC4F12005C7
S32D0000C8E800FA05F24EEA020E20FA04F301FA05F243EA020321FA04F001F0004121FA04F220EA020000EBD37028
S32D0000C9105EEA430E08BF20EAD37070BD94F0000F0FD101F00046400041EB010111F4801F08BF013CF7D041EA6D
S32D0000C938060195F0000F18BF704703F00046520043EB030313F4801F08BF013DF7D043EA0603704794EA0C0FF1
S32D0000C9600CEA135518BF95EA0C0F0CD050EA410618BF52EA4306D1D181EA030101F000414FF0000070BD50EA38
S32D0000C988410606BF1046194652EA430619D094EA0C0F02D150EA013613D195EA0C0F05D152EA03361CBF10467B
S32D0000C9B019460AD181EA030101F0004141F0FE4141F470014FF0000070BD41F0FE4141F4780170BD70B54FF04D
S32D0000C9D8FF0C4CF4E06C1CEA11541DBF1CEA135594EA0C0F95EA0C0F00F0A7F8A4EB050481EA030E52EA03359B
S32D0000CA004FEA013100F088804FEA03334FF0805545EA131343EA12634FEA022245EA111545EA10654FEA002676
S32D0000CA280EF000419D4208BF964244F1FD0404F5407402D25B084FEA3202B61A65EB03055B084FEA32024FF461
S32D0000CA5080104FF4002CB6EB020E75EB030E22BFB61A754640EA0C005B084FEA3202B6EB020E75EB030E22BF22
S32D0000CA78B61A754640EA5C005B084FEA3202B6EB020E75EB030E22BFB61A754640EA9C005B084FEA3202B6EBEA
S32D0000CAA0020E75EB030E22BFB61A754640EADC0055EA060E18D04FEA051545EA16754FEA06164FEAC30343EAAC
S32D0000CAC852734FEAC2025FEA1C1CC0D111F4801F0BD141EA00014FF000004FF0004CB6E711F4801F04BF0143AE
S32D0000CAF00020B4F1FD0C88BFBCF5E06F3FF6AFAEB5EB030C04BFB6EB020C5FEA500C50F1000041EB045170BDBC
S32D0000CB180EF0004E4EEA113114EB5C04C2BFD4EB0C0541EA045170BD41F480114FF0000E013C90E645EA060EC3
S32D0000CB408DE60CEA135594EA0C0F08BF95EA0C0F3FF43BAF94EA0C0F0AD150EA01347FF434AF95EA0C0F7FF499
S32D0000CB6825AF104619462CE795EA0C0F06D152EA03353FF4FDAE1046194622E750EA410618BF52EA43067FF432
S32D0000CB90C5AE50EA41047FF40DAF52EA43057FF4EBAE12E74FF0FF3C06E000BF4FF0010C02E000BF4FF0010C75
S32D0000CBB84DF804CD4FEA410C7FEA6C5C4FEA430C18BF7FEA6C5C1BD001B050EA410C0CBF52EA430C91EA030FEC
S32D0000CBE002BF90EA020F0020704710F1000F91EA030F58BF994208BF90422CBFD8176FEAE37040F0010070476E
S32D0000CC084FEA410C7FEA6C5C02D150EA013C07D14FEA430C7FEA6C5CD6D152EA033CD3D05DF8040B704700BFCD
S32D0000CC308446104662468C461946634600E000BF01B5FFF7B7FF002848BF10F1000F01BD4DF808EDFFF7F4FF13
S32D0000CC580CBF012000205DF808FB00BF4DF808EDFFF7EAFF34BF012000205DF808FB00BF4DF808EDFFF7E0FF18
S32D0000CC8094BF012000205DF808FB00BF4DF808EDFFF7CEFF94BF012000205DF808FB00BF4DF808EDFFF7C4FF40
S32D0000CCA834BF012000205DF808FB00BF4FEA410212F5001215D211D56FF47873B3EB625212D94FEAC12343F0D6
S32D0000CCD0004343EA505311F0004F23FA02F018BF404270474FF00000704750EA013005D111F0004008BF6FF016
S32D0000CCF8004070474FF00000704700BF4A0011D212F5001211D20DD56FF47873B3EB62520ED44FEAC12343F085
S32D0000CD20004343EA505323FA02F070474FF00000704750EA013002D14FF0FF3070474FF0000070474FEA410241
S32D0000CD48B2F1E04324BFB3F5001CDCF1FE5C0DD901F0004C4FEAC0024CEA5070B2F1004F40EB830008BF20F09E
S32D0000CD700100704711F0804F21D113F13872BCBF01F00040704741F480114FEA5252C2F11802C2F1200C10FAB1
S32D0000CD980CF320FA02F018BF40F001004FEAC1234FEAD32303FA0CFC40EA0C0023FA02F34FEA4303CCE77FEA26
S32D0000CDC0625307D150EA01331EBF4FF0FE4040F44000704701F0004040F0FE4040F40000704700BF80F00040CC
S32D0000CDE802E000BF81F0004142001FBF5FEA410392EA030F7FEA226C7FEA236C6AD04FEA1262D2EB1363C1BF06
S32D0000CE10D218414048404140B8BF5B42192B88BF704710F0004F40F4000020F07F4018BF404211F0004F41F4FA
S32D0000CE38000121F07F4118BF494292EA030F3FD0A2F1010241FA03FC10EB0C00C3F1200301FA03F100F000432B
S32D0000CE6002D5494260EB4000B0F5000F13D3B0F1807F06D340084FEA310102F10102FE2A51D2B1F1004F40EB94
S32D0000CE88C25008BF20F0010040EA03007047490040EB000010F4000FA2F10102EDD1B0FA80FCACF1080CB2EB5F
S32D0000CEB00C0200FA0CF0AABF00EBC25052421843BCBFD0401843704792F0000F81F4000106BF80F400000132EB
S32D0000CED8013BB5E74FEA41037FEA226C18BF7FEA236C21D092EA030F04D092F0000F08BF0846704790EA010FD7
S32D0000CF001CBF0020704712F07F4F04D1400028BF40F00040704712F100723CBF00F50000704700F0004343F0DC
S32D0000CF28FE4040F4000070477FEA226216BF08467FEA23630146420206BF5FEA412390EA010F40F480007047C1
S32D0000CF504FF0000304E000BF10F0004348BF40425FEA000C08BF704743F0964301464FF000001CE050EA010264
S32D0000CF7808BF70474FF000030AE000BF50EA010208BF704711F0004302D5404261EB41015FEA010C02BF84465B
S32D0000CFA00146002043F0B64308BFA3F18053A3F50003BCFA8CF2083AA3EBC25310DB01FA02FC634400FA02FC6B
S32D0000CFC8C2F12002BCF1004F20FA02F243EB020008BF20F00100704702F1200201FA02FCC2F1200250EA4C0034
S32D0000CFF021FA02F243EB020008BF20EADC7070474FF0FF0C1CEAD0521EBF1CEAD15392EA0C0F93EA0C0F6FD019
S32D0000D0181A4480EA010C400218BF5FEA41211ED04FF0006343EA501043EA5111A0FB01310CF00040B1F5000FE7
S32D0000D0403EBF490041EAD3715B0040EA010062F17F02FD2A1DD8B3F1004F40EBC25008BF20F00100704790F058
S32D0000D068000F0CF0004C08BF49024CEA502040EA51207F3AC2BFD2F1FF0340EAC250704740F400004FF0000388
S32D0000D090013A5DDC12F1190FDCBF00F000407047C2F10002410021FA02F1C2F1200200FA02FC5FEA310040F1D5
S32D0000D0B8000053EA4C0308BF20EADC70704792F0000F00F0004C02BF400010F4000F013AF9D040EA0C0093F04C
S32D0000D0E0000F01F0004C02BF490011F4000F013BF9D041EA0C018FE70CEAD15392EA0C0F18BF93EA0C0F0AD00B
S32D0000D10830F0004C18BF31F0004CD8D180EA010000F00040704790F0000F17BF90F0004F084691F0000F91F0BB
S32D0000D130004F14D092EA0C0F01D142020FD193EA0C0F03D14B0218BF084608D180EA010000F0004040F0FE4051
S32D0000D15840F40000704740F0FE4040F4400070474FF0FF0C1CEAD0521EBF1CEAD15392EA0C0F93EA0C0F69D044
S32D0000D180A2EB030280EA010C49024FEA402037D04FF0805343EA111143EA10130CF000408B4238BF5B0042F14E
S32D0000D1A87D024FF4000C8B4224BF5B1A40EA0C00B3EB510F24BFA3EB510340EA5C00B3EB910F24BFA3EB9103A4
S32D0000D1D040EA9C00B3EBD10F24BFA3EBD10340EADC001B0118BF5FEA1C1CE0D1FD2A3FF650AF8B4240EBC25018
S32D0000D1F808BF20F0010070470CF0004C4CEA50207F32C2BFD2F1FF0340EAC250704740F400004FF00003013AF1
S32D0000D22037E792F0000F00F0004C02BF400010F4000F013AF9D040EA0C0093F0000F01F0004C02BF490011F4C9
S32D0000D248000F013BF9D041EA0C0195E70CEAD15392EA0C0F08D142027FF47DAF93EA0C0F7FF470AF084676E7AE
S32D0000D27093EA0C0F04D14B023FF44CAF08466EE730F0004C18BF31F0004CCAD130F000427FF45CAF31F0004376
S32D0000D2987FF43CAF5FE700BF4FF0FF3C06E000BF4FF0010C02E000BF4FF0010C4DF804CD4FEA40024FEA41039F
S32D0000D2C07FEA226C18BF7FEA236C11D001B052EA530C18BF90EA010F58BFB2EB030088BFC81738BF6FEAE1706E
S32D0000D2E818BF40F0010070477FEA226C02D15FEA402C05D17FEA236CE4D15FEA412CE1D05DF8040B704700BF16
S32D0000D310844608466146FFE70FB5FFF7C9FF002848BF10F1000F0FBD4DF808EDFFF7F4FF0CBF012000205DF839
S32D0000D33808FB00BF4DF808EDFFF7EAFF34BF012000205DF808FB00BF4DF808EDFFF7E0FF94BF012000205DF8A9
S32D0000D36008FB00BF4DF808EDFFF7D2FF94BF012000205DF808FB00BF4DF808EDFFF7C8FF34BF012000205DF8B1
S32D0000D38808FB00BF4FEA4002B2F1FE4F0FD34FF09E03B3EB12620DD94FEA002343F0004310F0004F23FA02F060
S32D0000D3B018BF404270474FF00000704712F1610F01D1420205D110F0004008BF6FF0004070474FF00000704797
S32D0000D3D880B483B000AF78607B6823F00043184607F10C07BD4680BC704700BF80B483B000AF786039607B6878
S32D0000D4003A681A607B68184607F10C07BD4680BC704700BF90B587B000AFF860B9607A60B8687968FFF7E2FC96
S32D0000D42803463B61FB681B6818463969FFF7E4FD03467B617869FFF7CBFF03464FF00102144618461049FFF7DC
S32D0000D45093FF0346002B02D14FF000031C46E3B2002B0FD078690A49FFF7CAFD03461C467869FFF7B1FF034626
S32D0000D47820461946FFF774FE03467B617B69184607F11C07BD4690BD0000C84290B583B000AF41F23C40C1F6F0
S32D0000D4A0FF704FF0000107F09DFD41F23C40C1F6FF704AF26031C0F201014FF002024FF0000308F065F840F2BC
S32D0000D4C80043C1F6FF731B6841F23C40C1F6FF7019464FF002024FF0000308F075F841F23C40C1F6FF704AF218
S32D0000D4F06031C0F201014FF004024FF0000308F047F840F20443C1F6FF731B6841F23C40C1F6FF7019464FF073
S32D0000D51804024FF0000308F057F803E04FF00A0005F062FF07F104023B4641F23C40C1F6FF7011461A4607F0D2
S32D0000D540F3FE034683F00103DBB2002BEAD17B684FF00102144618463149FFF7EFFE0346002B02D14FF00003D6
S32D0000D5681C46E3B2002B18D040F20043C1F6FF731B6803F1FF3240F20043C1F6FF731A6040F20443C1F6FF738B
S32D0000D5901B6803F1FF3240F20443C1F6FF731A6017E040F20043C1F6FF731B6803F1010240F20043C1F6FF73FC
S32D0000D5B81A6040F20443C1F6FF731B6803F1010240F20443C1F6FF731A6040F20043C1F6FF731B681846FFF71E
S32D0000D5E0BBFC034641F22410C1F6FF70194606F097FF03E04FF00A0005F0FAFE07F104023B4641F23C40C1F6A7
S32D0000D608FF7011461A4607F08BFE0346002BEDD107F10C07BD4690BD0000204380B500AF41F23C40C1F6FF70A5
S32D0000D6304AF26C31C0F201014FF000024FF0000307F0A6FF41F2A440C1F6FF700BF048FC034641F23C40C1F6F5
S32D0000D658FF7019464FF000024FF0020307F0D4FF41F23C40C1F6FF704AF27831C0F201014FF002024FF0000394
S32D0000D68007F086FF41F2A440C1F6FF700BF038FC034641F23C40C1F6FF7019464FF002024FF0020307F0B4FFE6
S32D0000D6A841F23C40C1F6FF704AF28431C0F201014FF004024FF0000307F066FF41F2A440C1F6FF700BF028FC9B
S32D0000D6D0034641F23C40C1F6FF7019464FF004024FF0020307F094FF80BD00BF80B582B000AF7860396041F2E6
S32D0000D6F83C40C1F6FF704AF29031C0F201014FF008024FF0000307F03FFF41F24410C1F6FF7006F0C3FA034648
S32D0000D72041F23C40C1F6FF7019464FF008024FF0020307F04DFF41F23C40C1F6FF704AF29C31C0F201014FF006
S32D0000D7480A024FF0000307F01FFF41F24010C1F6FF7006F0A3FA034641F23C40C1F6FF7019464FF00A024FF00D
S32D0000D770020307F02DFF41F23C40C1F6FF704AF2A831C0F201014FF00C024FF0000307F0FFFE41F24810C1F600
S32D0000D798FF7006F0BDFA034641F23C40C1F6FF7019464FF00C024FF0020307F02DFF41F23C40C1F6FF704AF205
S32D0000D7C06031C0F201014FF00B024FF00C0307F0DFFE41F23C40C1F6FF7079684FF00B024FF00C0307F014FF2E
S32D0000D7E841F23C40C1F6FF704AF26031C0F201014FF00C024FF00C0307F0C6FE41F23C40C1F6FF7039684FF0B2
S32D0000D8100C024FF00C0307F0FBFE41F23C40C1F6FF704AF2B431C0F201014FF000024FF00C0307F0ADFE41F290
S32D0000D8388840C1F6FF7009F0EDFE034641F23C40C1F6FF7019464FF000024FF00C0307F0DBFE07F10807BD460A
S32D0000D86080BD00BF0000000090B58DB000AF786007F10C031846E049FFF7BCFD07F108031846DE49FFF7B6FD27
S32D0000D8884FF0000387F82F30DB4B3B62DA4BFB617B6818461946FFF7A7FA03467B6041F24410C1F6FF7006F010
S32D0000D8B00DFA41F24010C1F6FF7006F007FA7DE141F24010C1F6FF7006F0ECF903461846FFF742FB0346BB6182
S32D0000D8D807F10C0318467968BA69FFF797FD03467B6141F24410C1F6FF7006F0D7F9044641F24010C1F6FF70A4
S32D0000D90006F0D0F90346E31A1846FFF725FB034607F108021046BA491A46FFF77BFD03463B6178693969FFF7B0
S32D0000D92863FA0346BB6278693969FFF75BFA03467B62B86A396AFFF755FA03464FF0010214461846AD49FFF7E1
S32D0000D95013FD0346002B02D14FF000031C46E3B2002B06D0386AA749FFF742FA0346BB621AE0B86A396AFFF739
S32D0000D97839FA03464FF0010214461846A049FFF7D9FC0346002B02D14FF000031C46E3B2002B05D0386A994953
S32D0000D9A0FFF724FA0346BB62786AF969FFF71EFA03464FF00102144618469249FFF7DCFC0346002B02D14FF01B
S32D0000D9C800031C46E3B2002B06D0F8698B49FFF70BFA03467B621AE0786AF969FFF702FA03464FF001021446CB
S32D0000D9F018468549FFF7A2FC0346002B02D14FF000031C46E3B2002B05D0F8697D49FFF7EDF903467B62B86A7E
S32D0000DA187949FFF785FC0346002B48D1B86AFFF7D7FC03464FF00102144618467549FFF781FC0346002B02D174
S32D0000DA404FF000031C46E3B2002B10D0B86A6F49FFF7D6FA03461C46B86AFFF7BDFC034620461946FFF780FBD9
S32D0000DA680346BB6223E0B86AFFF7B2FC03464FF00102144618466449FFF77AFC0346002B02D14FF000031C461A
S32D0000DA90E3B2002B0FD0B86A5D49FFF7B1FA03461C46B86AFFF798FC034620461946FFF75BFB0346BB62786A67
S32D0000DAB85149FFF735FC0346002B48D1786AFFF787FC03464FF00102144618464D49FFF731FC0346002B02D154
S32D0000DAE04FF000031C46E3B2002B10D0786A4749FFF786FA03461C46786AFFF76DFC034620461946FFF730FBD1
S32D0000DB0803467B6223E0786AFFF762FC03464FF00102144618463C49FFF72AFC0346002B02D14FF000031C46C1
S32D0000DB30E3B2002B0FD0786A3549FFF761FA03461C46786AFFF748FC034620461946FFF70BFB03467B62BB6A5B
S32D0000DB5883F0004341F23010C1F6FF70194603F04FF841F23810C1F6FF70796A03F048F8BB6A3B627B6AFB61FD
S32D0000DB801BA1D1E9000105F04FFC7868B969FFF72DF903464FF00102144618461849FFF7CDFB0346002B02D1F9
S32D0000DBA84FF000031C46E3B2002B03D04FF0010387F82F3097F82F3083F00103DBB2002B7FF47AAE41F23010CC
S32D0000DBD0C1F6FF700A4903F017F841F23810C1F6FF70074903F010F807F13407BD4690BD7B14AE47E17A943F8B
S32D0000DBF8CDCCCC3E0000003F000000000000E0400000E0C00000204100007042AFF3008090B58DB000AF78601F
S32D0000DC2007F10C031846E049FFF7E4FB07F108031846DE49FFF7DEFB4FF0000387F82F30DB4B3B62DA4BFB61B8
S32D0000DC487B6818461946FFF7CFF803467B6041F24410C1F6FF7006F035F841F24010C1F6FF7006F02FF87DE139
S32D0000DC7041F24010C1F6FF7006F014F803461846FFF76AF90346BB6107F10C0318467968BA69FFF7BFFB034614
S32D0000DC987B6141F24410C1F6FF7005F0FFFF044641F24010C1F6FF7005F0F8FF0346E31A1846FFF74DF90346DA
S32D0000DCC007F108021046BA491A46FFF7A3FB03463B6178693969FFF78BF80346BB6278693969FFF783F8034663
S32D0000DCE87B62B86A396AFFF77DF803464FF0010214461846AD49FFF73BFB0346002B02D14FF000031C46E3B21C
S32D0000DD10002B06D0386AA749FFF76AF80346BB621AE0B86A396AFFF761F803464FF0010214461846A049FFF764
S32D0000DD3801FB0346002B02D14FF000031C46E3B2002B05D0386A9949FFF74CF80346BB62786AF969FFF746F8A5
S32D0000DD6003464FF00102144618469249FFF704FB0346002B02D14FF000031C46E3B2002B06D0F8698B49FFF7D6
S32D0000DD8833F803467B621AE0786AF969FFF72AF803464FF00102144618468549FFF7CAFA0346002B02D14FF075
S32D0000DDB000031C46E3B2002B05D0F8697D49FFF715F803467B62B86A7949FFF7ADFA0346002B48D1B86AFFF7D5
S32D0000DDD8FFFA03464FF00102144618467549FFF7A9FA0346002B02D14FF000031C46E3B2002B10D0B86A6F4925
S32D0000DE00FFF7FEF803461C46B86AFFF7E5FA034620461946FFF7A8F90346BB6223E0B86AFFF7DAFA03464FF0E4
S32D0000DE280102144618466449FFF7A2FA0346002B02D14FF000031C46E3B2002B0FD0B86A5D49FFF7D9F8034670
S32D0000DE501C46B86AFFF7C0FA034620461946FFF783F90346BB62786A5149FFF75DFA0346002B48D1786AFFF75C
S32D0000DE78AFFA03464FF00102144618464D49FFF759FA0346002B02D14FF000031C46E3B2002B10D0786A4749B4
S32D0000DEA0FFF7AEF803461C46786AFFF795FA034620461946FFF758F903467B6223E0786AFFF78AFA03464FF044
S32D0000DEC80102144618463C49FFF752FA0346002B02D14FF000031C46E3B2002B0FD0786A3549FFF789F8034600
S32D0000DEF01C46786AFFF770FA034620461946FFF733F903467B6241F23010C1F6FF70B96A02F07AFE7B6A83F08C
S32D0000DF18004341F23810C1F6FF70194602F070FEBB6A3B627B6AFB611BA1D1E9000105F077FA7868B969FEF761
S32D0000DF4055FF03464FF00102144618461849FFF7F5F90346002B02D14FF000031C46E3B2002B03D04FF0010316
S32D0000DF6887F82F3097F82F3083F00103DBB2002B7FF47AAE41F23010C1F6FF700A4902F03FFE41F23810C1F6A8
S32D0000DF90FF70074902F038FE07F13407BD4690BD7B14AE47E17A943FCDCCCC3E0000003F000000000000E04045
S32D0000DFB80000E0C00000204100007042AFF3008090B58DB000AF786007F10C031846E049FFF70CFA07F10803D0
S32D0000DFE01846DE49FFF706FA4FF0000387F82F30DB4B3B62DA4BFB617B6818461946FEF7F7FE03467B6041F253
S32D0000E0084410C1F6FF7005F05DFE41F24010C1F6FF7005F057FE7AE141F24010C1F6FF7005F03CFE0346184653
S32D0000E030FEF792FF0346BB6107F10C0318467968BA69FFF7E7F903467B6141F24410C1F6FF7005F027FE044662
S32D0000E05841F24010C1F6FF7005F020FE0346E31A1846FEF775FF034607F108021046BA491A46FFF7CBF90346CA
S32D0000E0803B6178693969FEF7B3FE0346BB6278693969FEF7ABFE03467B62B86A396AFEF7A5FE03464FF0010218
S32D0000E0A814461846AD49FFF763F90346002B02D14FF000031C46E3B2002B06D0386AA749FEF792FE0346BB624C
S32D0000E0D01AE0B86A396AFEF789FE03464FF0010214461846A049FFF729F90346002B02D14FF000031C46E3B223
S32D0000E0F8002B05D0386A9949FEF774FE0346BB62786AF969FEF76EFE03464FF00102144618469249FFF72CF9CB
S32D0000E1200346002B02D14FF000031C46E3B2002B06D0F8698B49FEF75BFE03467B621AE0786AF969FEF752FE24
S32D0000E14803464FF00102144618468549FFF7F2F80346002B02D14FF000031C46E3B2002B05D0F8697D49FEF71C
S32D0000E1703DFE03467B62B86A7949FFF7D5F80346002B48D1B86AFFF727F903464FF00102144618467549FFF7BD
S32D0000E198D1F80346002B02D14FF000031C46E3B2002B10D0B86A6F49FEF726FF03461C46B86AFFF70DF90346FF
S32D0000E1C020461946FEF7D0FF0346BB6223E0B86AFFF702F903464FF00102144618466449FFF7CAF80346002B10
S32D0000E1E802D14FF000031C46E3B2002B0FD0B86A5D49FEF701FF03461C46B86AFFF7E8F8034620461946FEF790
S32D0000E210ABFF0346BB62786A5149FFF785F80346002B48D1786AFFF7D7F803464FF00102144618464D49FFF7DE
S32D0000E23881F80346002B02D14FF000031C46E3B2002B10D0786A4749FEF7D6FE03461C46786AFFF7BDF80346F8
S32D0000E26020461946FEF780FF03467B6223E0786AFFF7B2F803464FF00102144618463C49FFF77AF80346002B08
S32D0000E28802D14FF000031C46E3B2002B0FD0786A3549FEF7B1FE03461C46786AFFF798F8034620461946FEF738
S32D0000E2B05BFF03467B6241F23010C1F6FF70B96A02F0A2FC41F23810C1F6FF70796A02F09BFCBB6A3B627B6AC0
S32D0000E2D8FB611DA1D1E9000105F0A2F87868B969FEF780FD03464FF00102144618461A49FFF720F80346002B18
S32D0000E30002D14FF000031C46E3B2002B03D04FF0010387F82F3097F82F3083F00103DBB2002B7FF47DAE41F2D6
S32D0000E3283010C1F6FF700C4902F06AFC41F23810C1F6FF70084902F063FC07F13407BD4690BD00BFAFF300800D
S32D0000E3507B14AE47E17A943FCDCCCC3E0000003F000000000000E0400000E0C00000804100007042AFF30080B6
S32D0000E37890B58DB000AF786007F10C031846E249FFF734F807F108031846E049FFF72EF84FF0000387F82F30F6
S32D0000E3A0DD4B3B62DC4BFB617B6818461946FEF71FFD03467B6041F24410C1F6FF7005F085FC41F24010C1F6D5
S32D0000E3C8FF7005F07FFC80E141F24010C1F6FF7005F064FC03461846FEF7BAFD0346BB6107F10C0318467968EB
S32D0000E3F0BA69FFF70FF803467B6141F24410C1F6FF7005F04FFC044641F24010C1F6FF7005F048FC0346E31A5B
S32D0000E4181846FEF79DFD034607F108021046BC491A46FEF7F3FF03463B6178693969FEF7DBFC0346BB62786981
S32D0000E4403969FEF7D3FC03467B62B86A396AFEF7CDFC03464FF0010214461846AF49FEF78BFF0346002B02D19E
S32D0000E4684FF000031C46E3B2002B06D0386AA949FEF7BAFC0346BB621AE0B86A396AFEF7B1FC03464FF00102BB
S32D0000E49014461846A249FEF751FF0346002B02D14FF000031C46E3B2002B05D0386A9B49FEF79CFC0346BB627D
S32D0000E4B8786AF969FEF796FC03464FF00102144618469449FEF754FF0346002B02D14FF000031C46E3B2002B58
S32D0000E4E006D0F8698D49FEF783FC03467B621AE0786AF969FEF77AFC03464FF00102144618468749FEF71AFF9D
S32D0000E5080346002B02D14FF000031C46E3B2002B05D0F8697F49FEF765FC03467B62B86A7B49FEF7FDFE0346A1
S32D0000E530002B48D1B86AFEF74FFF03464FF00102144618467749FEF7F9FE0346002B02D14FF000031C46E3B2A5
S32D0000E558002B10D0B86A7149FEF74EFD03461C46B86AFEF735FF034620461946FEF7F8FD0346BB6223E0B86AF5
S32D0000E580FEF72AFF03464FF00102144618466649FEF7F2FE0346002B02D14FF000031C46E3B2002B0FD0B86ACC
S32D0000E5A85F49FEF729FD03461C46B86AFEF710FF034620461946FEF7D3FD0346BB62786A5349FEF7ADFE034611
S32D0000E5D0002B48D1786AFEF7FFFE03464FF00102144618464F49FEF7A9FE0346002B02D14FF000031C46E3B20E
S32D0000E5F8002B10D0786A4949FEF7FEFC03461C46786AFEF7E5FE034620461946FEF7A8FD03467B6223E0786A6F
S32D0000E620FEF7DAFE03464FF00102144618463E49FEF7A2FE0346002B02D14FF000031C46E3B2002B0FD0786A34
S32D0000E6483749FEF7D9FC03461C46786AFEF7C0FE034620461946FEF783FD03467B62BB6A83F0004341F2301023
S32D0000E670C1F6FF70194602F0C7FA7B6A83F0004341F23810C1F6FF70194602F0BDFABB6A3B627B6AFB611CA140
S32D0000E698D1E9000104F0C4FE7868B969FEF7A2FB03464FF00102144618461949FEF742FE0346002B02D14FF0EF
S32D0000E6C000031C46E3B2002B03D04FF0010387F82F3097F82F3083F00103DBB2002B7FF477AE41F23010C1F634
S32D0000E6E8FF700B4902F08CFA41F23810C1F6FF70074902F085FA07F13407BD4690BD00BF7B14AE47E17A943F73
S32D0000E710CDCCCC3E0000003F000000000000E0400000E0C00000804100007042AFF3008090B589B000AF78609F
S32D0000E73807F10C0318467A49FEF758FE4FF00003FB77784B7B617B6818461946FEF74CFB03467B6041F240106A
S32D0000E760C1F6FF7005F0B2FAC1E041F24010C1F6FF7005F097FA03461846FEF7EDFB03463B6107F10C03184626
S32D0000E78879683A69FEF742FE0346BB61B8697969FEF728FB03464FF00102144618466249FEF7E6FD0346002BF0
S32D0000E7B002D14FF000031C46E3B2002B06D078695B49FEF715FB0346BB611AE0B8697969FEF70CFB03464FF0BE
S32D0000E7D80102144618465549FEF7ACFD0346002B02D14FF000031C46E3B2002B05D078694D49FEF7F7FA0346F6
S32D0000E800BB61B8694949FEF78FFD0346002B48D1B869FEF7E1FD03464FF00102144618464549FEF78BFD034682
S32D0000E828002B02D14FF000031C46E3B2002B10D0B8693F49FEF7E0FB03461C46B869FEF7C7FD03462046194674
S32D0000E850FEF78AFC0346BB6123E0B869FEF7BCFD03464FF00102144618463449FEF784FD0346002B02D14FF02C
S32D0000E87800031C46E3B2002B0FD0B8692D49FEF7BBFB03461C46B869FEF7A2FD034620461946FEF765FC03461F
S32D0000E8A0BB6141F23810C1F6FF70B96902F0ACF9BB697B611AA1D1E9000104F0B5FD78683969FEF793FA03466B
S32D0000E8C84FF00102144618461649FEF733FD0346002B02D14FF000031C46E3B2002B02D04FF00103FB77FB7FF8
S32D0000E8F083F00103DBB2002B7FF437AF41F23010C1F6FF70094902F07FF941F23810C1F6FF70064902F078F9CA
S32D0000E91807F12407BD4690BD7B14AE47E17A943F9A99193F000000000000E0400000E0C00000904100007042DE
S32D0000E94090B589B000AF786007F10C0318467A49FEF750FD4FF00003FB77784B7B617B6818461946FEF744FA14
S32D0000E96803467B6041F24410C1F6FF7005F0AAF9C1E041F24410C1F6FF7005F08FF903461846FEF7E5FA034689
S32D0000E9903B6107F10C03184679683A69FEF73AFD0346BB61B8697969FEF720FA03464FF0010214461846624943
S32D0000E9B8FEF7DEFC0346002B02D14FF000031C46E3B2002B06D078695B49FEF70DFA0346BB611AE0B8697969FE
S32D0000E9E0FEF704FA03464FF00102144618465549FEF7A4FC0346002B02D14FF000031C46E3B2002B05D078693F
S32D0000EA084D49FEF7EFF90346BB61B8694949FEF787FC0346002B48D1B869FEF7D9FC03464FF001021446184622
S32D0000EA304549FEF783FC0346002B02D14FF000031C46E3B2002B10D0B8693F49FEF7D8FA03461C46B869FEF7FA
S32D0000EA58BFFC034620461946FEF782FB0346BB6123E0B869FEF7B4FC03464FF00102144618463449FEF77CFCFA
S32D0000EA800346002B02D14FF000031C46E3B2002B0FD0B8692D49FEF7B3FA03461C46B869FEF79AFC034620469F
S32D0000EAA81946FEF75DFB0346BB6141F23010C1F6FF70B96902F0A4F8BB697B611AA1D1E9000104F0ADFC7868F3
S32D0000EAD03969FEF78BF903464FF00102144618461649FEF72BFC0346002B02D14FF000031C46E3B2002B02D0C2
S32D0000EAF84FF00103FB77FB7F83F00103DBB2002B7FF437AF41F23010C1F6FF70094902F077F841F23810C1F6BB
S32D0000EB20FF70064902F070F807F12407BD4690BD7B14AE47E17A943F9A99193F000000000000E0400000E0C03F
S32D0000EB48000090410000C841B0B58EB000AF786007F110031846FC49FEF748FC07F10C031846FA49FEF742FCD9
S32D0000EB704FF0000387F83730F74BBB62F64B7B6204F07EFC02460B4610461946FEF7DAF803463B627B68184628
S32D0000EB981946FEF729F903467B6041F24410C1F6FF7005F08FF841F24010C1F6FF7005F089F8A9E141F2401060
S32D0000EBC0C1F6FF7005F06EF803461846FEF7C4F90346FB6107F1100318467968FA69FEF719FC0346BB6141F259
S32D0000EBE84410C1F6FF7005F059F8044641F24010C1F6FF7005F052F80346E31A1846FEF7A7F9034607F10C0285
S32D0000EC101046D1491A46FEF7FDFB03467B61B8697969FEF7E5F803463B63B8697969FEF7DDF80346FB62386B22
S32D0000EC38B96AFEF7D7F803464FF0010214461846C449FEF795FB0346002B02D14FF000031C46E3B2002B06D071
S32D0000EC60B86ABE49FEF7C4F803463B631AE0386BB96AFEF7BBF803464FF0010214461846B749FEF75BFB034686
S32D0000EC88002B02D14FF000031C46E3B2002B05D0B86AB049FEF7A6F803463B63F86A796AFEF7A0F803464FF038
S32D0000ECB0010214461846A949FEF75EFB0346002B02D14FF000031C46E3B2002B06D0786AA249FEF78DF803462A
S32D0000ECD8FB621AE0F86A796AFEF784F803464FF00102144618469C49FEF724FB0346002B02D14FF000031C46DA
S32D0000ED00E3B2002B05D0786A9449FEF76FF80346FB62386B9049FEF707FB0346002B48D1386BFEF759FB03465A
S32D0000ED284FF00102144618468C49FEF703FB0346002B02D14FF000031C46E3B2002B10D0386B8649FEF758F9B8
S32D0000ED5003461C46386BFEF73FFB034620461946FEF702FA03463B6323E0386BFEF734FB03464FF00102144683
S32D0000ED7818467B49FEF7FCFA0346002B02D14FF000031C46E3B2002B0FD0386B7449FEF733F903461C46386B07
S32D0000EDA0FEF71AFB034620461946FEF7DDF903463B63F86A6849FEF7B7FA0346002B48D1F86AFEF709FB034691
S32D0000EDC84FF00102144618466449FEF7B3FA0346002B02D14FF000031C46E3B2002B10D0F86A5E49FEF708F94A
S32D0000EDF003461C46F86AFEF7EFFA034620461946FEF7B2F90346FB6223E0F86AFEF7E4FA03464FF00102144699
S32D0000EE1818465349FEF7ACFA0346002B02D14FF000031C46E3B2002B0FD0F86A4C49FEF7E3F803461C46F86AD9
S32D0000EE40FEF7CAFA034620461946FEF78DF90346FB623B6B83F0004341F23010C1F6FF70194601F0D1FE41F275
S32D0000EE683810C1F6FF70F96A01F0CAFE3B6BBB62FB6A7B6232A1D1E9000104F0D1FA7868F969FDF7AFFF034673
S32D0000EE904FF00102144618462F49FEF74FFA0346002B02D14FF000031C46E3B2002B24D104F0E6FA04460D4693
S32D0000EEB8386AFDF70DFC02460B4620462946FDF7A7FA02460B464FF001010C46104619464FF000024FF07E5358
S32D0000EEE003F5F003FDF7DCFE0346002B02D14FF000031C46E3B2002B02D04FF0010301E04FF00003002B03D06A
S32D0000EF084FF0010387F8373097F8373083F00103DBB2002B7FF44EAE41F23010C1F6FF700B4901F06DFE41F2A2
S32D0000EF303810C1F6FF70084901F066FE07F13807BD46B0BDAFF300807B14AE47E17A943FCDCCCC3E0000003F42
S32D0000EF58000000000000E0400000E0C0000070410000F041AFF3008090B58DB000AF786007F10C031846E04930
S32D0000EF80FEF738FA07F108031846DE49FEF732FA4FF0000387F82F30DB4B3B62DA4BFB617B6818461946FDF79B
S32D0000EFA823FF03467B6041F24410C1F6FF7004F089FE41F24010C1F6FF7004F083FE7DE141F24010C1F6FF70A8
S32D0000EFD004F068FE03461846FDF7BEFF0346BB6107F10C0318467968BA69FEF713FA03467B6141F24410C1F62E
S32D0000EFF8FF7004F053FE044641F24010C1F6FF7004F04CFE0346E31A1846FDF7A1FF034607F108021046BA492A
S32D0000F0201A46FEF7F7F903463B6178693969FDF7DFFE0346BB6278693969FDF7D7FE03467B62B86A396AFDF7B3
S32D0000F048D1FE03464FF0010214461846AD49FEF78FF90346002B02D14FF000031C46E3B2002B06D0386AA74902
S32D0000F070FDF7BEFE0346BB621AE0B86A396AFDF7B5FE03464FF0010214461846A049FEF755F90346002B02D140
S32D0000F0984FF000031C46E3B2002B05D0386A9949FDF7A0FE0346BB62786AF969FDF79AFE03464FF001021446E0
S32D0000F0C018469249FEF758F90346002B02D14FF000031C46E3B2002B06D0F8698B49FDF787FE03467B621AE054
S32D0000F0E8786AF969FDF77EFE03464FF00102144618468549FEF71EF90346002B02D14FF000031C46E3B2002B7E
S32D0000F11005D0F8697D49FDF769FE03467B62B86A7949FEF701F90346002B48D1B86AFEF753F903464FF0010206
S32D0000F138144618467549FEF7FDF80346002B02D14FF000031C46E3B2002B10D0B86A6F49FDF752FF03461C46F4
S32D0000F160B86AFEF739F9034620461946FDF7FCFF0346BB6223E0B86AFEF72EF903464FF00102144618466449A4
S32D0000F188FEF7F6F80346002B02D14FF000031C46E3B2002B0FD0B86A5D49FDF72DFF03461C46B86AFEF714F935
S32D0000F1B0034620461946FDF7D7FF0346BB62786A5149FEF7B1F80346002B48D1786AFEF703F903464FF00102EE
S32D0000F1D8144618464D49FEF7ADF80346002B02D14FF000031C46E3B2002B10D0786A4749FDF702FF03461C4684
S32D0000F200786AFEF7E9F8034620461946FDF7ACFF03467B6223E0786AFEF7DEF803464FF00102144618463C49DD
S32D0000F228FEF7A6F80346002B02D14FF000031C46E3B2002B0FD0786A3549FDF7DDFE03461C46786AFEF7C4F82E
S32D0000F250034620461946FDF787FF03467B6241F23010C1F6FF70B96A01F0CEFC7B6A83F0004341F23810C1F69E
S32D0000F278FF70194601F0C4FCBB6A3B627B6AFB611BA1D1E9000104F0CBF87868B969FDF7A9FD03464FF0010291
S32D0000F2A0144618461849FEF749F80346002B02D14FF000031C46E3B2002B03D04FF0010387F82F3097F82F3064
S32D0000F2C883F00103DBB2002B7FF47AAE41F23010C1F6FF700A4901F093FC41F23810C1F6FF70074901F08CFC78
S32D0000F2F007F13407BD4690BD7B14AE47E17A943FCDCCCC3E0000003F000000000000E0400000E0C000002041B8
S32D0000F3180000C841AFF3008090B58DB000AF786007F10C031846E049FEF760F807F108031846DE49FEF75AF8E9
S32D0000F3404FF0000387F82F30DB4B3B62DA4BFB617B6818461946FDF74BFD03467B6041F24410C1F6FF7004F09A
S32D0000F368B1FC41F24010C1F6FF7004F0ABFC7DE141F24010C1F6FF7004F090FC03461846FDF7E6FD0346BB611C
S32D0000F39007F10C0318467968BA69FEF73BF803467B6141F24410C1F6FF7004F07BFC044641F24010C1F6FF708E
S32D0000F3B804F074FC0346E31A1846FDF7C9FD034607F108021046BA491A46FEF71FF803463B6178693969FDF7F9
S32D0000F3E007FD0346BB6278693969FDF7FFFC03467B62B86A396AFDF7F9FC03464FF0010214461846AD49FDF722
S32D0000F408B7FF0346002B02D14FF000031C46E3B2002B06D0386AA749FDF7E6FC0346BB621AE0B86A396AFDF71E
S32D0000F430DDFC03464FF0010214461846A049FDF77DFF0346002B02D14FF000031C46E3B2002B05D0386A994935
S32D0000F458FDF7C8FC0346BB62786AF969FDF7C2FC03464FF00102144618469249FDF780FF0346002B02D14FF05B
S32D0000F48000031C46E3B2002B06D0F8698B49FDF7AFFC03467B621AE0786AF969FDF7A6FC03464FF001021446B0
S32D0000F4A818468549FDF746FF0346002B02D14FF000031C46E3B2002B05D0F8697D49FDF791FC03467B62B86A61
S32D0000F4D07949FDF729FF0346002B48D1B86AFDF77BFF03464FF00102144618467549FDF725FF0346002B02D1B3
S32D0000F4F84FF000031C46E3B2002B10D0B86A6F49FDF77AFD03461C46B86AFDF761FF034620461946FDF724FE18
S32D0000F5200346BB6223E0B86AFDF756FF03464FF00102144618466449FDF71EFF0346002B02D14FF000031C46FD
S32D0000F548E3B2002B0FD0B86A5D49FDF755FD03461C46B86AFDF73CFF034620461946FDF7FFFD0346BB62786AA6
S32D0000F5705149FDF7D9FE0346002B48D1786AFDF72BFF03464FF00102144618464D49FDF7D5FE0346002B02D194
S32D0000F5984FF000031C46E3B2002B10D0786A4749FDF72AFD03461C46786AFDF711FF034620461946FDF7D4FD10
S32D0000F5C003467B6223E0786AFDF706FF03464FF00102144618463C49FDF7CEFE0346002B02D14FF000031C46A6
S32D0000F5E8E3B2002B0FD0786A3549FDF705FD03461C46786AFDF7ECFE034620461946FDF7AFFD03467B6241F28E
S32D0000F6103010C1F6FF70B96A01F0F6FA7B6A83F0004341F23810C1F6FF70194601F0ECFABB6A3B627B6AFB61ED
S32D0000F6381BA1D1E9000103F0F3FE7868B969FDF7D1FB03464FF00102144618461849FDF771FE0346002B02D139
S32D0000F6604FF000031C46E3B2002B03D04FF0010387F82F3097F82F3083F00103DBB2002B7FF47AAE41F23010F9
S32D0000F688C1F6FF700A4901F0BBFA41F23810C1F6FF70074901F0B4FA07F13407BD4690BD7B14AE47E17A943F70
S32D0000F6B0CDCCCC3E0000003F000000000000E0400000E0C0000020410000B442AFF3008080B582B000AF786023
S32D0000F6D87B68C3F100031846FDF73AFC034641F23010C1F6FF70194601F08AFA7868FDF72FFC034641F2381069
S32D0000F700C1F6FF70194601F07FFA07F10807BD4680BD00BF80B582B000AF78607B68C3F100031846FDF718FCF8
S32D0000F728034641F23010C1F6FF70194601F068FA7B68C3F100031846FDF70AFC034641F23810C1F6FF701946E4
S32D0000F75001F05AFA07F10807BD4680BD80B582B000AF786039607868FFF7B2FF386803F03FFE4FF00000FFF7EC
S32D0000F778ABFF07F10807BD4680BD00BF90B583B000AF78607B6818461946FDF72DFB03467B6041F24410C1F696
S32D0000F7A0FF7004F093FA41F24010C1F6FF7004F08DFA4FF0190003F01BFE4FF01400FFF787FF03E04FF00A00C8
S32D0000F7C803F012FE41F24410C1F6FF7004F066FA03461846FDF7BCFB03464FF00102144618467968FDF7A6FD02
S32D0000F7F00346002B02D14FF000031C46E3B2002BE0D14FF00000FFF763FF4FF0FA0003F0EFFD07F10C07BD46D2
S32D0000F81890BD00BF90B587B000AF78604FF00003FB7541F25413C1F6FF731B6878681946FDF7D8FA0346FB6012
S32D0000F8405FE041F2A440C1F6FF7009F069FB03461846F968FDF7CAFA03463B614FF001031C4638692C49FDF76D
S32D0000F86887FD0346002B02D14FF000031C46E3B2002B05D038692749FDF7B4FA03463B613869FDF7A5FD034656
S32D0000F8904FF00102144618462149FDF74FFD0346002B02D14FF000031C46E3B2002B03D04FF00103FB7520E075
S32D0000F8B84FF001031C4638691849FDF759FD0346002B02D14FF000031C46E3B2002B04D04FF01400FFF71AFF50
S32D0000F8E003E06FF01300FFF715FF4FF0190003F07FFD4FF00000FFF70DFF4FF0640003F077FDFB7D83F001039A
S32D0000F908DBB2002B99D107F11C07BD4690BD00BF000034430000B4430000003F0000000090B587B000AF7860D5
S32D0000F9304FF00003FB7541F25413C1F6FF731B6878681946FDF752FA03463B6149E041F2A440C1F6FF7009F0EE
S32D0000F958E3FA034618463969FDF744FA0346FB60F868FDF735FD03464FF00102144618461F49FDF7DFFC03463C
S32D0000F980002B02D14FF000031C46E3B2002B03D04FF00103FB7520E04FF001031C46F8681649FDF7E9FC0346EB
S32D0000F9A8002B02D14FF000031C46E3B2002B04D04FF00F00FFF7AAFE03E06FF00E00FFF7A5FE4FF0190003F0DB
S32D0000F9D00FFD4FF00000FFF79DFE4FF0640003F007FDFB7D83F00103DBB2002BAFD107F11C07BD4690BD00BF42
S32D0000F9F80000003F0000000098B500AF41F24810C1F6FF7004F084F903461846FCF760FE02460B464FF00101B2
S32D0000FA200C46104619461CA3D3E90023FDF738F90346002B02D14FF000031C46E3B2002B02D04FF0000323E02C
S32D0000FA4841F24810C1F6FF7004F062F903461846FCF73EFE02460B464FF001010C46104619460DA3D3E900234A
S32D0000FA70FDF716F90346002B02D14FF000031C46E3B2002B02D04FF0010301E04FF00203184698BDAFF30080AB
S32D0000FA98333333333333FB3F666666666666EE3F80B500AF0448FFF75FFA0448FEF744FF0348FFF731FC80BD95
S32D0000FAC09A998940CDCCAC400000404180B500AF0648FDF7C9FE0648FFF726FF0548FEF773FA0548FDF7C0FE12
S32D0000FAE880BD00BF00003C41000030436666A6400000704180B500AFFFF77EFF0346012B24D0022B2CD141F284
S32D0000FB103C40C1F6FF704AF2BC31C0F2010105F04BFE1A48FEF778F81948FEF701FE6FF0130041F27661FFF77C
S32D0000FB3811FE1648FDF794FE1548FEF719FC1548FDF78EFE1448FEF7EFFD19E041F23C40C1F6FF704AF2C83128
S32D0000FB60C0F2010105F028FE0E48FEF755F80848FEF7DEFD6FF0130041F27661FFF7EEFD0948FDF771FE00BF20
S32D0000FB8880BD00BF0000D0409A9931410000803F000040400000A0403333C3400000C03F6666E6400000000025
S32D0000FBB090B585B000AFC248FFF730FE41F23010C1F6FF70BF4901F01FF841F23810C1F6FF70BD4901F018F87F
S32D0000FBD84FF4FA7003F008FC6FF04503FB604FF05A03BB60B44B7B6003F07EFC03463B602CE041F2A440C1F69D
S32D0000FC00FF7009F08DF903461846B049FDF7F8F903467B60F868FDF79FF9034618467968FDF7E4F80346184654
S32D0000FC28FDF7B0FB0346FB60B868FDF791F9034618467968FDF7D6F803461846FDF7A2FB0346BB604FF0320076
S32D0000FC5003F0CEFB03F04CFC02463B68D21A40F2CF739A428CBF00230123DBB2002BC4D14FF01900FFF72CFD12
S32D0000FC784FF4FA7003F0B8FB6FF01800FFF724FD03E04FF0320003F0AFFB41F2A440C1F6FF7009F031F90346E3
S32D0000FCA04FF00102144618468549FDF747FB0346002B02D14FF000031C46E3B2002BE4D103E04FF0320003F091
S32D0000FCC893FB41F2A440C1F6FF7009F015F903464FF00102144618467749FDF72BFB0346002B02D14FF0000396
S32D0000FCF01C46E3B2002BE4D14FF00000FFF7E8FC6F48FFF78BFD6FF00E00FFF7E1FC41F2A440C1F6FF7009F04B
S32D0000FD18E3F803461846FCF7DBFC02460B461046194661A3D3E90023FCF772FB02460B4610461946FDF702F8A4
S32D0000FD40024641F24C13C1F6FF731A602EE06FF00E00FFF7BDFC4FF0320003F049FB4FF00000FFF7B5FC4FF021
S32D0000FD68320003F041FB41F2A440C1F6FF7009F0B3F803461846FCF7ABFC02460B461046194649A3D3E90023D1
S32D0000FD90FCF742FB02460B4610461946FCF7D2FF024641F24C13C1F6FF731A6041F24C13C1F6FF731B681846EA
S32D0000FDB8FCF78EFC02460B464FF001010C46104619463BA3D3E90023FCF748FF0346002B02D14FF000031C46DD
S32D0000FDE0E3B2002BB3D14FF4FA7003F001FB4FF00000FFF76DFC41F2A440C1F6FF7009F07FF8034618463249A8
S32D0000FE08FCF7F0FF03461A4641F25013C1F6FF731A6041F25013C1F6FF731B6841F23C40C1F6FF70194605F09D
S32D0000FE30D7FC21E06FF00E00FFF74AFC4FF0320003F0D6FA4FF00000FFF742FC4FF0320003F0CEFA41F2A4403D
S32D0000FE58C1F6FF7009F050F8034618461A49FCF7C1FF03461A4641F25013C1F6FF731A6041F25013C1F6FF73B7
S32D0000FE801B684FF00102144618461249FDF756FA0346002B02D14FF000031C46E3B2002BC8D107F11407BD46DE
S32D0000FEA890BD00BFAFF30080CDCCCCCCCCCC3D40CDCCCCCCCCCC3DC000000000000048C200004842000080409E
S32D0000FED000005042000050C280B582B000AF78600A487968FCF782FF03461846FFF74AFC0748FEF769F80748F4
S32D0000FEF8FFF744FC0648FEF763F807F10807BD4680BD00BF0000B0406666E63F3333074152B83E4090B583B073
S32D0000FF2000AF78604FF001031C4678681049FDF723FA0346002B02D14FF000031C46E3B2002B07D07868FDF7E7
S32D0000FF488FFC4FF0190003F04FFA09E07B6883F000431846FDF75CFE4FF0190003F044FA07F10C07BD4690BD5A
S32D0000FF700000000080B582B000AF4FF000037B604FF000033B6040F20443C1F6FF731B681846FCF7E1FF0346B4
S32D0000FF9841F22410C1F6FF70194604F0BDFA4FF0FA0003F021FA5448FEF7CEFD41F24410C1F6FF7003F072FEF1
S32D0000FFC003467B6041F24010C1F6FF7003F06AFE03463B6040F20043C1F6FF731B681846FCF7BAFF034641F260
S32D0000FFE82410C1F6FF70194604F096FA4FF0FA0003F0FAF941F24410C1F6FF7003F062FE41F24010C1F6FF70E6
S32D0001001003F05CFE4FF0190003F0EAF97A683B689A422EDD41F23010C1F6FF70354900F0EBFD03E04FF00A00BF
S32D0001003803F0DAF941F24410C1F6FF7003F02EFE024679683B68CB1A9A42ACBF00230123DBB2002BEAD141F222
S32D000100603010C1F6FF70284900F0CEFD41F24410C1F6FF7003F016FE03467A68D31A7B602DE041F23810C1F6F9
S32D00010088FF70204900F0BCFD03E04FF00A0003F0ABF941F24010C1F6FF7003F0FFFD024639687B68CB1A9A42E0
S32D000100B0ACBF00230123DBB2002BEAD141F23810C1F6FF70104900F09FFD41F24010C1F6FF7003F0E7FD0346AD
S32D000100D83A68D31A3B6041F24410C1F6FF7003F0F1FD41F24010C1F6FF7003F0EBFD07F10807BD4680BD00BFB7
S32D000101009A991D410000904100000000000090C180B500AF0448FDF7A7FB0448FEF708FB0348FDF7A1FB80BDFB
S32D00010128000020400000D0403333F33F80B500AF40F20443C1F6FF731B681846FCF708FF034641F22410C1F6D8
S32D00010150FF70194604F0E4F94FF0FA0003F048F940F20043C1F6FF731B681846FCF7F4FE034641F22410C1F6A9
S32D00010178FF70194604F0D0F980BD00BF80B500AF0948FDF76DFB0948FEF7CEFA0848FDF767FB0848FFF7C4FB87
S32D000101A04FF00F0040F2E241FFF7D8FA80BD00BF00004040000080400000404100003443B0B586B000AF41F214
S32D000101C82410C1F6FF7040F2E22104F067F941F22410C1F6FF7040F6C41104F07DF940F20043C1F6FF731B6802
S32D000101F01846FCF7B1FE034641F22410C1F6FF70194604F08DF941F2A440C1F6FF7008F097F9FB4B7B61FA4B05
S32D000102183B6141F23C40C1F6FF704FF0000104F0DDFE41F23C40C1F6FF704FF0010104F033FF4FF0FA0003F0CF
S32D00010240D7F84FF00003FB734FF00003BB731CE107F104023B4641F23C40C1F6FF7011461A4605F061F8034601
S32D00010268002B7CD041F28440C1F6FF7007F074F902460B464FF001010C46104619464FF000024FF07E5303F545
S32D00010290A003FCF705FD0346002B02D14FF000031C46E3B2002B1DD141F28440C1F6FF7007F056F902460B4612
S32D000102B84FF001010C46104619464FF000024FF03F4303F55003FCF7C9FC0346002B02D14FF000031C46E3B24A
S32D000102E0002B02D04FF0010301E04FF00003002B21D001E0FDF7CEF841F28440C1F6FF7007F02EF902460B4601
S32D000103084FF001010C46104619464FF000024FF07E5303F5A003FCF7BFFC0346002B02D14FF000031C46E3B264
S32D00010330002BDFD117E07B684FF0010214461846B049FDF719F80346002B02D14FF000031C46E3B2002B03D073
S32D000103584FF00103BB7302E04FF00103FB73BB7B002B75D041F23C40C1F6FF704FF0000104F034FE41F23C40E2
S32D00010380C1F6FF704AF2D431C0F2010105F014FA4FF000037B7350E0FDF744F907F104023B4641F23C40C1F6BA
S32D000103A8FF7011461A4604F0BBFF0346002B3CD04FF001037B7341F2A440C1F6FF7008F08BFD03461846FCF74A
S32D000103D083F902460B461046194685A3D3E90023FCF71AF802460B4610461946FCF7AAFC03467B6141F2A44005
S32D000103F8C1F6FF7008F080FD034618468049FCF7F1FC03463B6141F2A440C1F6FF7008F083FD034618467B49E6
S32D00010420FCF7E4FC03461A4641F25413C1F6FF731A604FF0640002F0DBFF7B7B83F00103DBB2002BA8D14FF0A8
S32D000104480003BB7304E04FF00A0002F0CDFF00E000BF07F104023B4641F23C40C1F6FF7011461A4604F05CFF70
S32D000104700346002BEBD1FDF7D5F878693969FDF735F94FF0320002F0B3FFFB7B83F00103DBB2002B7FF4DCAE10
S32D0001049841F23C40C1F6FF704FF0000104F09EFD41F23C40C1F6FF704FF0010104F0F4FD41F23C40C1F6FF70C1
S32D000104C04AF2E031C0F201014FF00D024FF0000305F05EF802F0D4FF02460B4610461946FCF730FC0346BB609B
S32D000104E803E04FF0320002F07FFF02F0C5FF04460D46B868FCF7ECF802460B4620462946FBF786FF02460B4659
S32D000105104FF001010C46104619464FF000024FF0804303F57813FCF79DFB0346002B02D14FF000031C46E3B2A3
S32D00010538002B21D041F24810C1F6FF7003F0E8FB03461846FCF7C4F802460B464FF001010C461046194626A3F1
S32D00010560D3E90023FCF79CFB0346002B02D14FF000031C46E3B2002B02D04FF0010301E04FF00003002BB0D174
S32D00010588FFF78EFAFFF79EFAFFF7B4FAFFF70CFB41F25013C1F6FF731B6818463969FCF721FC03461846FFF7A8
S32D000105B093FC41F24C13C1F6FF731B6818467969FCF714FC03461846FFF7A8FCFFF7D2FCFFF79EFDFFF7AEFDD5
S32D000105D8FFF7D4FD4FF00003184607F11807BD46B0BD00BFAFF300806666666666E63F40333333333333FB3F56
S32D000106000000000000002043000050420000344380B582B000AF786039607B68012B36D13A684FF6FF739A428D
S32D0001062831D141F22410C1F6FF704FF0000103F017FF41F23010C1F6FF704FF00001144A00F056FA41F23810D9
S32D00010650C1F6FF704FF001010F4A00F04DFA41F24010C1F6FF704FF0000102F063FF41F24410C1F6FF704FF05B
S32D00010678080102F05BFF41F24810C1F6FF704FF0070103F033FB07F10807BD4680BD00BF0000104180B500AFAA
S32D000106A04FF001004FF6FF71FFF7B2FF80BD00BF80B500AF41F20872C1F6FF7241F22413C1F6FF73D31A1946FB
S32D000106C841F22413C1F6FF731A460B4610464FF000011A4608F0B5FD80BD00BF09F02AFE00F0B0F9FFF7E0FF94
S32D000106F009F0FCFD09F098FD09F030FE00F00CF84FF0000041F25811C1F6FF71FFF758FD0346184608F074FDE3
S32D0001071880B500AF4FF4E043C4F204034FF4E042C4F2040202F5805202F13802126842F4785203F5805303F15B
S32D0001074038031A6000F02EF900F094F841F28833C1F6FF734FF058021A6041F28833C1F6FF731B684FF47A724F
S32D0001076802FB03F241F28433C1F6FF731A6041F28433C1F6FF731B681A464FF4E043C4F2040303F5825303F109
S32D0001079004031B6803F070634FEA136303F10103B2FBF3F31A4641F28C33C1F6FF731A604FF4E043C4F2040398
S32D000107B84FF4E042C4F2040202F5805202F13C02126842F0225203F5805303F13C031A604FF4E043C4F204033C
S32D000107E04FF4E042C4F2040202F5805202F13002126842F0006203F5805303F130031A604FF45043C4F20303CF
S32D000108084FF480721A614FF0640002F081FC4FF45043C4F203034FF45042C4F20302526922F010025A614FF400
S32D000108305043C4F203034FF000021A604FF45043C4F203034FF010025A6103F097FB03F03FFC41F28030C1F6A4
S32D00010858FF7002F0E1FC41F23C40C1F6FF7004F01FFA41F2883002F0BFFD80BD80B400AF4FF48043C4F20603D3
S32D000108804FF000025A704FF48043C4F206034FF098021A704FF48043C4F206039B79DBB203F01003002B0CBFB4
S32D000108A800230123DBB2002BF0D14FF48043C4F206039B79DBB203F00C034FEA9303022B0CBF00230123DBB25E
S32D000108D0002BEED14FF48043C4F206034FF018021A714FF48043C4F206034FF000025A714FF4E043C4F2040372
S32D000108F803F5825303F104034FF00002C0F213121A604FF48043C4F206034FF054025A7100BF4FF48043C4F2D7
S32D0001092006039B79DBB203F02003002B14BF00230123DBB2002BF0D100BF4FF48043C4F206039B79DBB203F012
S32D000109484003002B14BF00230123DBB2002BF0D14FF48043C4F206034FF48042C4F206021278D2B202F03F02B6
S32D00010970D2B21A704FF48043C4F206039B79DBB203F00C034FEA9303032B0CBF00230123DBB2002BEED14FF01D
S32D0001099800031846BD4680BC704700BF80B400AF4FF44043C4F204034FF480725A634FF2C003C4F20F034FF2B5
S32D000109C0C002C4F20F02526942F400525A614FF2C003C4F20F034FF2C002C4F20F02126842F400521A604FF42C
S32D000109E84043C4F2040340F20312C0F20A021A634FF46143CEF200034FF46142CEF20002D2F8882142F0806245
S32D00010A10C3F888214FF46143CEF200034FF46142CEF20002926842F080629A60BD4680BC704700BF80B483B0DD
S32D00010A3800AF7860FEE700BF80B400AF00BEBD4680BC704780B400AF4FF0E0224CF20003C0F20003C2F8083DB4
S32D00010A604FF40053C4F205034CF22052DA814FF40053C4F205034DF62812DA814FF40053C4F205034FF0D20275
S32D00010A881A80BD4680BC704780B500AF4FF44043C4F20403D3F8A03003F48053002B0CBF00230123DBB2002BEE
S32D00010AB01FD04FF44043C4F204034FF44042C4F20402D2F8A02022F48052C3F8A02041F2C440C1F6FF7008F0E2
S32D00010AD819FB4FF2C003C4F20F034FF2C002C4F20F02126822F400521A6080BD0000000090B585B000AFF8602B
S32D00010B000B467A60FB72FB68FA7A1A71FB684FF000025A714FF001031C4678682049FCF72BFC0346002B02D10E
S32D00010B284FF000031C46E3B2002B02D01A4B7B6011E04FF001031C4678681849FCF704FC0346002B02D14FF0D8
S32D00010B5000031C46E3B2002B01D0124B7B607868FBF7BAFD02460B46104619460AA3D3E90023FBF705FE0246A8
S32D00010B780B4610461946FCF7E1F80246FB681A60FB68184607F11407BD4690BDAFF30080ABAAAAAAAAAA2040B4
S32D00010BA0000040410000803F80B584B000AF786039603B687F2B03DD4FF07F03FB7309E03B6813F1800F03DA05
S32D00010BC84FF08003FB7301E03B68FB737B685B79FA7B9A420FD07B68FA7B5A717B681A79FB7B41F28030C1F64C
S32D00010BF0FF7011461A464FF01E0302F05BFB07F11007BD4680BD00BFB0B584B000AF786039604FF001031C469C
S32D00010C1838684D49FCF78EFB0346002B02D14FF000031C46E3B2002B02D0474B3B6011E04FF001031C4638681B
S32D00010C404449FCF799FB0346002B02D14FF000031C46E3B2002B01D03E4B3B603868FBF73BFD04460D467B6887
S32D00010C681B681846FBF734FD02460B46104619464FF000024FF0804303F5B203FBF7A6FE02460B462046294617
S32D00010C90FBF776FD02460B4610461946FCF752F803463B604FF001031C4638682A49FCF759FB0346002B02D11B
S32D00010CB84FF000031C46E3B2002B14D03868FBF707FD02460B46104619461DA3D3E90023FBF752FD02460B4668
S32D00010CE010461946FBF7E6FF0346FB6022E03868FBF7F2FC02460B46104619464FF000024FF0804303F5C003E7
S32D00010D08FBF73AFD02460B46104619464FF000024FF0804303F5B203FBF758FE02460B4610461946FBF7C2FF0C
S32D00010D300346FB607868F968FFF736FF07F11007BD46B0BDAFF3008052B81E85EB51F43F0000C8C20000C84233
S32D00010D5800000000AFF3008080B485B000AF02460B46FA71BB71BB79002B07D141F25C13C1F6FF734FF00002BF
S32D00010D801A7006E041F25C13C1F6FF734FF001021A704FF03803FB7341F25C13C1F6FF731A78FB7B1343FB73BE
S32D00010DA84FF4C043C4F206034FF4C042C4F206029278D2B242F01002D2B29A704FF4C043C4F206034FF4C0426A
S32D00010DD0C4F206029278D2B242F02002D2B29A704FF4C043C4F20603FA7B1A7107F11407BD4680BC704700BFF9
S32D00010DF880B483B000AF4FF001037B6004E000BF7B6803F101037B607B68312BCCBF00230123DBB2002BF2D1B3
S32D00010E2007F10C07BD4680BC704700BF80B584B000AF0346FB7141F25D13C1F6FF731B7818464FF00001FFF723
S32D00010E488BFF4FF4C043C4F20603DB78DBB203F00203002B14BF00230123DBB2002BF0D14FF4C043C4F2060351
S32D00010E704FF4C042C4F20602D278D2B242F00202D2B2DA704FF4C043C4F20603FA791A714FF4C043C4F2060376
S32D00010E98DB78DBB203F00203002B14BF00230123DBB2002BF0D14FF4C043C4F206034FF4C042C4F20602D27843
S32D00010EC0D2B242F00202D2B2DA704FF4C043C4F206034FF4C042C4F206029278D2B242F00402D2B29A704FF4DC
S32D00010EE8C043C4F206034FF039021A714FF4C043C4F20603DB78DBB203F00203002B14BF00230123DBB2002B3A
S32D00010F10F0D14FF4C043C4F206034FF4C042C4F20602D278D2B242F00202D2B2DA704FF4C043C4F206034FF4CF
S32D00010F38C042C4F206029278D2B222F01002D2B29A704FF4C043C4F206034FF4C042C4F206029278D2B242F0C2
S32D00010F600802D2B29A704FF4C043C4F206031B79FB724FF00003FB6003E0FB6803F10103FB60FA6841F287333F
S32D00010F889A428CBF00230123DBB2002BF1D14FF4C043C4F20603DB78DBB203F00203002B14BF00230123DBB2A3
S32D00010FB0002BF0D14FF4C043C4F206034FF4C042C4F20602D278D2B242F00202D2B2DA704FF4C043C4F2060347
S32D00010FD84FF4C042C4F206029278D2B222F02002D2B29A704FF4C043C4F206034FF4C042C4F206029278D2B201
S32D0001100022F01002D2B29A704FF4C043C4F206031B79FB72FFF7F0FEFB7A184607F11007BD4680BD80B582B09C
S32D0001102800AF02460B46FA71BB7141F25D13C1F6FF731B7818464FF00001FFF78DFE4FF4C043C4F20603DB78E4
S32D00011050DBB203F00203002B14BF00230123DBB2002BF0D14FF4C043C4F206034FF4C042C4F20602D278D2B258
S32D0001107842F00202D2B2DA704FF4C043C4F20603FA791A714FF4C043C4F20603DB78DBB203F00203002B14BF67
S32D000110A000230123DBB2002BF0D14FF4C043C4F206034FF4C042C4F20602D278D2B242F00202D2B2DA704FF444
S32D000110C8C043C4F20603BA791A714FF4C043C4F20603DB78DBB203F00203002B14BF00230123DBB2002BF0D1DE
S32D000110F04FF4C043C4F206034FF4C042C4F20602D278D2B242F00202D2B2DA704FF4C043C4F206034FF4C042AD
S32D00011118C4F206029278D2B222F02002D2B29A704FF4C043C4F206034FF4C042C4F206029278D2B222F01002E0
S32D00011140D2B29A70FFF758FE07F10807BD4680BD80B582B000AF0346FB71FB79184600F06BF807F10807BD4665
S32D0001116880BD00BF80B582B000AF02460B46FA71BB7100F039F8FB794FEA4303DBB21846FFF7E2FFBB791846AE
S32D00011190FFF7DEFF00F03EF807F10807BD4680BD80B500AF4FF0FF0000F046F80346184680BD00BF80B584B094
S32D000111B800AF0346FB7100F017F8FB794FEA4303DBB243F00103DBB2DBB21846FFF7BCFFFFF7E2FF0346FB7337
S32D000111E000F018F8FB7B184607F11007BD4680BD80B400AF4FF24003C4F20F034FF24002C4F20F02926842F414
S32D0001120880129A60BD4680BC704700BF80B400AF4FF24003C4F20F034FF24002C4F20F02526842F480125A60C1
S32D00011230BD4680BC704700BF80B485B000AF0346FB714FF00003BB7303E0FB7B03F10103FB734FF44043C4F262
S32D000112580A03DB6A4FF00003002BF2D14FF44043C4F20A034FF44042C4F20A02D26A42F00042DA624FF4404323
S32D00011280C4F20A03FA795A6300BF4FF44043C4F20A03DB6A03F40033002B14BF00230123DBB2002BF1D14FF493
S32D000112A84043C4F20A039B6BBB73BB7B184607F11407BD4680BC704780B582B000AF4FF4E043C4F204034FF484
S32D000112D0E042C4F2040202F5805202F13002126842F4805203F5805303F130031A604FF42043C4F204034FF48F
S32D000112F880721A654FF24003C4F20F034FF24002C4F20F02526942F480125A61FFF77EFF4FF42043C4F20403AC
S32D000113204FF400725A654FF42043C4F204034FF400729A654FF42043C4F204034FF40072DA654FF44043C4F240
S32D000113480A034FF44062C8F200021A604FF44043C4F20A034FF00502C3F60062DA604FF000037B6007E04FF0E7
S32D00011370FF00FFF7EDFE7B6803F101037B607B68092BCCBF00230123DBB2002BEFD104A1D1E9000102F048F8C5
S32D0001139807F10807BD4680BD9A9999999999B93F90B486B000AFF860B9607A60FA684FF42043C4F206039A4239
S32D000113C014D14FF4E043C4F204034FF4E042C4F2040202F5805202F13402126842F4806203F5805303F134035B
S32D000113E81A6083E0FA684FF43043C4F206039A4214D14FF4E043C4F204034FF4E042C4F2040202F5805202F161
S32D000114103402126842F4006203F5805303F134031A6067E0FA684FF44043C4F206039A4214D14FF4E043C4F2EA
S32D0001143804034FF4E042C4F2040202F5805202F13402126842F4805203F5805303F134031A604BE0FA684FF4A9
S32D000114605043C4F206039A4214D14FF4E043C4F204034FF4E042C4F2040202F5805202F13402126842F4005212
S32D0001148803F5805303F134031A602FE0FA684FF42043C4F20E039A4214D14FF4E043C4F204034FF4E042C4F2E8
S32D000114B0040202F5805202F12802126842F4806203F5805303F128031A6013E04FF4E043C4F204034FF4E042B0
S32D000114D8C4F2040202F5805202F12802126842F4006203F5805303F128031A60FB68DB78DBB223F00C03DAB2DC
S32D00011500FB68DA70FB684FF000029A70BB684FF47A7202FB03F27B684FEA031392FBF3F39CB2FB681B78DBB2A7
S32D0001152823F01F03FB75234603F4F8534FEA2323DBB203F01F03DAB2FB7D1343DAB2FB681A70E2B2FB685A708F
S32D00011550BB684FF4FA4202FB03F27B684FEA031392FBF3F39AB2234619464FEAC121CB1A4FEA43139BB2D31858
S32D000115789CB2FB689B7ADBB223F01F03FB75E3B203F01F03DAB2FB7D1343DAB2FB689A72FB68DB78DBB243F0D7
S32D000115A00C03DAB2FB68DA7007F11807BD4690BC704700BF80B483B000AF786000BF7B681B79DBB203F0200331
S32D000115C8002B14BF00230123DBB2002BF3D17B68DB79DBB2184607F10C07BD4680BC704780B483B000AF786022
S32D000115F00B46FB7000BF7B681B79DBB2DBB26FEA0303DBB24FEAD313DBB2002BF3D17B68FA78DA7107F10C078E
S32D00011618BD4680BC704700BF80B487B000AFF860B9607A60FB687B6107E0BB68DAB27B691A707B6903F101036A
S32D000116407B617B68002B0CBF00230123DBB27A6802F1FF327A60002BEBD107F11C07BD4680BC704780B584B0B1
S32D0001166800AF786039607B681B6BFB60FA683B689A4264D07B681B79002B43D07B685A787B6803F1340310468C
S32D000116901946FA684FF0010301F0ACFB0346002B0CBF00230123DBB2002B02D04FF001034BE07B684FF00002ED
S32D000116B81A717B685A6A7B681B6AD218FB689A4220D97B68DB78FB7214E07B681B6AFA68D318FB607B685A78EB
S32D000116E07B6803F1340310461946FA684FF0010301F080FBFB7A03F1FF33FB72FB7A012B94BF00230123DBB237
S32D00011708002BE2D13B68002B19D07B685A787B6803F13403104619463A684FF0010301F057FA0346002B0CBF3F
S32D0001173000230123DBB2002B02D04FF0010304E07B683A681A634FF00003184607F11007BD4680BD80B584B038
S32D0001175800AF786078684FF00001FFF77FFF0346FB73FB7B002B40F0AE807B681B78032B40F095807B685B79F1
S32D00011780002B00F090807B684FF000021A637B6803F1340318464FF000014FF40072FFF73FFF7B684FF0550260
S32D000117A883F832227B684FF0AA0283F833227B684FF0520283F834207B684FF0520283F835207B684FF0610295
S32D000117D083F836207B684FF0410283F837207B684FF0720283F818227B684FF0720283F819227B684FF04102E6
S32D000117F883F81A227B684FF0610283F81B227B681B69DAB27B6883F81C227B681B699BB24FEA2323DAB27B689D
S32D0001182083F81D227B681B694FEA1343DAB27B6883F81E227B681B694FEA1363DAB27B6883F81F227B68DB6858
S32D00011848DAB27B6883F820227B68DB689BB24FEA2323DAB27B6883F821227B68DB684FEA1343DAB27B6883F887
S32D0001187022227B68DB684FEA1363DAB27B6883F823227B6859787B6803F134027B685B69084611461A464FF055
S32D00011898010301F0ABFA7B684FF000025A717B685B7818464FF000014FF0000201F084FB0346002B0CBF002331
S32D000118C00123DBB2002B02D04FF00103FB73FB7B184607F11007BD4680BD00BF80B582B000AF78600B467B807E
S32D000118E87B68002B08D07B681B78002B04D07B68DB887A889A4202D04FF009030FE07B685B78184601F0ECFB5A
S32D00011910034603F00103DBB2002B02D04FF0030301E04FF00003184607F10807BD4680BD80B586B000AF7860DF
S32D000119387B681A687B689B8810461946FFF7CAFF0346FB75FB7D002B40F0C8807B689B7903F02003002B00F0A5
S32D00011960C1807B689B7903F04003002B20D07B681B6859787B6803F128027B689B69084611461A464FF0010368
S32D0001198801F034FA0346002B0CBF00230123DBB2002B02D04FF00103A1E07B689B7923F04003DAB27B689A7176
S32D000119B07B681A687B68DB6910461946FFF752FE0346FB75FB7D002B40F08C807B681B6A3B613B6903F10B033F
S32D000119D83A6902F10B02127842F02002D2B21A703B6903F11C037A68D268D2B21A703B6903F11D037A68D2689C
S32D00011A0092B24FEA2222D2B21A703B6903F11E037A68D2684FEA1242D2B21A703B6903F11F037A68D2684FEA69
S32D00011A281262D2B21A703B6903F11A037A681269D2B21A703B6903F11B037A68126992B24FEA2222D2B21A700B
S32D00011A503B6903F114037A6812694FEA1242D2B21A703B6903F115037A6812694FEA124292B24FEA2222D2B2E1
S32D00011A781A704FF00003FB603B6903F11603FA68D2B21A703B6903F11703FA6892B24FEA2222D2B21A703B6970
S32D00011AA003F11803FA684FEA1242D2B21A703B6903F11903FA684FEA1262D2B21A707B689B7923F02003DAB281
S32D00011AC87B689A717B681B684FF001021A717B681B681846FFF73AFE0346FB75FB7D184607F11807BD4680BDF6
S32D00011AF080B584B000AF78607868FFF719FF0346FB73FB7B002B03D17B684FF000021A60FB7B184607F110073C
S32D00011B18BD4680BD80B588B000AF786039604FF080033B614FF00F03FB604FF0FF337B614FF00203FB612AE0D0
S32D00011B404FF00103BB611AE0FB69BA6902FB03F33A6802FB03F27B68D31ABB60BB68002B09DBBA687B699A4210
S32D00011B6805D2BB687B61FB693B61BB69FB60BB6903F10103BB61BB69102B8CBF00230123DBB2002BDCD1FB6907
S32D00011B904FEA4303FB61FB69B3F5807F8CBF00230123DBB2002BCBD14FF48053C4F20B034FF48052C4F20B02A8
S32D00011BB8D26A22F00802DA624FF48053C4F20B03DB6A1A464FF00F03CFF6F0731340BB614FF48053C4F20B0329
S32D00011BE03A694FEA52024FEA02224FEA02424FEA1242F96801F1FF314FEA0111C9B21143BA690A4342F460227A
S32D00011C08DA6203E04FF00A0001F0EEFB4FF48053C4F20B035B6A03F00803002B14BF00230123DBB2002BEDD113
S32D00011C304FF48053C4F20B034FF48052C4F20B02D26A42F00802DA624FF48053C4F20B034FF48052C4F20B026D
S32D00011C58126B42F480121A6307F12007BD4680BD80B582B000AF786039607B684FF000021A604FF48053C4F24B
S32D00011C800B034FF40042C0F20012DA624FF48053C4F20B03DB6A03F08073002B0CBF00230123DBB2002BF1D1E6
S32D00011CA84FF48053C4F20B034FF00002C3F8C0204FF48053C4F20B034FF481325A604FF48053C4F20B034FF0B4
S32D00011CD028029A624FF48053C4F20B034FF001125A643B689B6818464CF66041C0F20501FFF714FF4FF4805317
S32D00011CF8C4F20B035B6A03F00303002B0CBF00230123DBB2002BF1D14FF45043C4F2040340F243421A604FF47D
S32D00011D205043C4F2040340F243425A604FF45043C4F204034FF488629A604FF45043C4F2040340F24342DA6095
S32D00011D484FF45043C4F2040340F243421A614FF45043C4F2040340F243425A614FF4E043C4F204034FF4E0421A
S32D00011D70C4F2040202F5805202F13002126842F4003203F5805303F130031A604FF48053C4F20B034FF6FF72BC
S32D00011D981A634FF48053C4F20B034FF0B302C0F27F025A634FF48053C4F20B034FF48052C4F20B02D26A42F0C1
S32D00011DC00062DA624FF48053C4F20B03DB6A03F00063002B0CBF00230123DBB2002BF1D14FF48053C4F20B0350
S32D00011DE85B6A03F48033002B0CBF00230123DBB2002B03D07B684FF001021A604FF48053C4F20B034FF4805207
S32D00011E10C4F20B02126B42F080021A634FF00003184607F10807BD4680BD00BF80B400AF4FF48053C4F20B03CF
S32D00011E385B6A1A4640F207331340002B0CBF00230123DBB21846BD4680BC704780B485B000AF78604FF4805373
S32D00011E60C4F20B031B6B1A467B681340FB60FB68002B14BF00230123DBB2002BEED1FB68184607F11407BD4622
S32D00011E8880BC704780B584B000AF78607B681B7803F03F024AF2DC63C0F2010353F82230FB60FB68002B06D110
S32D00011EB07B681B78002B02D04FF0010330E14FF48053C4F20B034FF48052C4F20B02126B42F080021A634FF499
S32D00011ED88053C4F20B035B6A03F00103DBB2002BF5D14FF48053C4F20B037A6852689A60FB6823F44003FB6082
S32D00011F007B685B784FEA835303F44003FA681343FB607B685B78022B03D1FB6843F40013FB607B685B78042BFC
S32D00011F2816D1FB6803F44033B3F5003F08D1FB6823F44033FB60FB6843F44033FB6007E0FB6823F44033FB6037
S32D00011F50FB6843F40033FB604FF48053C4F20B034FF48052C4F20B0252684FEA02424FEA12425A607B68DB68E4
S32D00011F78002B32D0FB6803F44033B3F5403F03D0FB6843F40013FB607B681B7A002B03D0FB6843F01003FB60C4
S32D00011FA07B68DB68012B03D9FB6843F02003FB607B68DB68B3F1FF3F13D04FF48053C4F20B034FF48052C4F240
S32D00011FC80B02526811467A68D2684FEA02420A435A60FB6843F00203FB604FF48053C4F20B034FF000021A60A1
S32D00011FF04FF48053C4F20B03FA68DA604FF00100C0F20E00FFF726FF0346012B0CBF00230123DBB2002B10D012
S32D000120184FF48053C4F20B034FF48052C4F20B02126B42F4702242F001021A634FF0010372E04FF48053C4F28F
S32D000120400B031B6B03F08003002B0CBF00230123DBB2002B0ED04FF48053C4F20B034FF48052C4F20B02126B65
S32D0001206842F001121A634FF0010355E04FF48053C4F20B031B6B03F48033002B0CBF00230123DBB2002B0ED032
S32D000120904FF48053C4F20B034FF48052C4F20B02126B42F001121A634FF0FF3338E0FB6803F44033002B25D0BA
S32D000120B84FF48053C4F20B031B691A467B681A61FB6803F44033B3F5803F17D14FF48053C4F20B035B691A46C3
S32D000120E07B685A614FF48053C4F20B039B691A467B689A614FF48053C4F20B03DB691A467B68DA614FF4805365
S32D00012108C4F20B034FF48052C4F20B02126B42F001021A634FF00003184607F11007BD4680BD00BF80B592B0B8
S32D0001213000AF786039604FF00003FB633B68BB6341F27413C1F6FF737B637B6B002B03D140F6012300F0A0BCB3
S32D0001215841F27833C1F6FF733B633B6B002B03D140F60B2300F094BC3B6B1B68FB62FB6A002B03D140F60B231C
S32D0001218000F08ABC7B6841F20432934200F0388241F2043293421BD841F20132934238D041F20132934207D8A1
S32D000121A8032B00F03D84092B00F0298400F066BC41F20232934200F0128241F20332934200F0BE8300F05ABC12
S32D000121D041F20732934200F04B8341F2073293420BD841F20532934200F0348241F20632934200F0108300F025
S32D000121F845BC41F20832934200F0B68241F20932934200F0C48200F039BC786B4AF2D061C0F20101FFF724FDD4
S32D000122200346FB63FB6B002B40F030844FF0000387F847304FF0000387F82B304FF0000387F82A304FF00003C2
S32D0001224887F829304FF0000387F846304FF0000387F828304FF000033B724FF000037B724FF00003FB604FF045
S32D0001227000033B744FF000037B6107F108031846FFF704FE0346002B0CBF00230123DBB2002B03D04FF00103C2
S32D00012298FB63FCE340F24C4001F0A6F84FF008033B724FF000037B724FF4D573FB604FF000033B744FF000034E
S32D000122C07B6107F108031846FFF7E0FD03463B643B6C002B0BD1BA69FB689A4203D04FF00103FB63D7E34FF07A
S32D000122E8010387F846304FF0010387F8283097F82830002B00F0C6804FF037033B724FF000037B724FF00003D5
S32D00012310FB604FF000033B744FF000037B6107F108031846FFF7B2FD03463B643B6C002B03D04FF00103FB6300
S32D00012338ADE34FF069033B724FF000037B724FF00003FB604FF000033B744FF000037B6107F108031846FFF75C
S32D0001236095FD0346002B0CBF00230123DBB2002B03D04FF00103FB638DE3BB6903F44013002B00F083804FF0CF
S32D0001238800033B644FF00A0001F02EF83B6C03F101033B644FF037033B724FF000037B724FF00003FB604FF0B5
S32D000123B000033B744FF000037B6107F108031846FFF764FD0346002B0CBF00230123DBB2002B03D04FF0010322
S32D000123D8FB6336E04FF069033B724FF000037B7297F84630002B05D04FF00003C4F23003FB6002E04FF44013D8
S32D00012400FB604FF000033B744FF000037B6107F108031846FFF73AFD0346002B0CBF00230123DBB2002B03D0A4
S32D000124284FF00103FB630CE0BB69002B05DB3B6C632B02D84FF0010301E04FF00003002BA0D1FB6B002B40F0F7
S32D000124501F833B6C632B04D94FF0000387F8463014E04FF0010387F8473097F84630002B0CD04FF0000387F878
S32D000124784630BB6903F08043002B03D04FF0010387F8463097F82A30002B03D07B6B4FF007021A6097F8293038
S32D000124A0002B03D07B6B4FF008021A6097F82B30002B03D07B6B4FF004021A6097F84730002B0BD07B6B4FF0A8
S32D000124C802021A6097F84630002B03D07B6B4FF003021A6097F82B30002B0FD097F84730002B0BD07B6B4FF09B
S32D000124F005021A6097F84630002B03D07B6B4FF006021A604FF45043C4F204034FF000021A604FF45043C4F2B8
S32D0001251804034FF000025A604FF45043C4F204034FF000029A604FF45043C4F204034FF00002DA604FF45043E0
S32D00012540C4F204034FF000021A614FF45043C4F204034FF000025A61FB6A9A68FB6A5B6810461946FFF7DAFA56
S32D000125684FF45043C4F2040340F243421A604FF45043C4F2040340F243425A604FF45043C4F204034FF48862BC
S32D000125909A604FF45043C4F2040340F24342DA604FF45043C4F2040340F243421A614FF45043C4F2040340F214
S32D000125B843425A614FF4E043C4F204034FF4E042C4F2040202F5805202F13002126842F4003203F5805303F1E1
S32D000125E030031A6057E2B86BFFF750FC03463B643B6C002B00F04E824FF00203FB6349E2BB6B002B03D14FF0D6
S32D000126080C03FB6343E24FF48053C4F20B03DB6A03F47F434FEA13234FEA43033B644FF48053C4F20B03DB6A8D
S32D0001263003F0F0034FEA131303F101023B6C02FB03F33B64FB6A9A683B6CB2FBF3F2BB6B1A6020E2BB6B002B73
S32D0001265803D14FF00C03FB6319E2BB6B1B68002B03D14FF00C03FB6311E2FFF7DBFB0346002B14BF0023012337
S32D00012680DBB2002B70D04FF45043C4F204034FF000021A604FF45043C4F204034FF000025A604FF45043C4F2CB
S32D000126A804034FF000029A604FF45043C4F204034FF00002DA604FF45043C4F204034FF000021A614FF450438E
S32D000126D0C4F204034FF000025A61FB6A9A68BB6B1B6810461946FFF719FA4FF45043C4F2040340F243421A6090
S32D000126F84FF45043C4F2040340F243425A604FF45043C4F204034FF488629A604FF45043C4F2040340F24342AB
S32D00012720DA604FF45043C4F2040340F243421A614FF45043C4F2040340F243425A614FF4E043C4F204034FF420
S32D00012748E042C4F2040202F5805202F13002126842F4003203F5805303F130031A6096E140F60A23FB6392E19D
S32D00012770BB6B002B03D14FF00C03FB638BE14FF48053C4F20B035B684FEAC3434FEAD343BA6B13607FE1BB6BB4
S32D00012798002B03D14FF00C03FB6378E1FFF742FB0346002B14BF00230123DBB2002B2AD0BB6B1A6840F6FF734B
S32D000127C09A4203D94FF00C03FB6364E14FF48053C4F20B034FF48052C4F20B02526822F4FE5222F03F025A6062
S32D000127E84FF48053C4F20B034FF48052C4F20B0252681146BA6B12684FEAC2424FEAD2420A435A6043E140F675
S32D000128100A23FB633FE1BB6B002B03D14FF00C03FB6338E14FF48053C4F20B039B6A03F006034FEA53033B64FB
S32D000128383B6C002B04D1BB6B4FF000021A6026E13B6C012B04D1BB6B4FF001021A601EE13B6C102B04D1BB6B7C
S32D000128604FF002021A6016E14FF00503FB6312E1BB6B002B03D14FF00C03FB630BE1FFF7D5FA0346002B14BF34
S32D0001288800230123DBB2002B56D0BB6B1B68002B16D14FF48053C4F20B034FF48052C4F20B02926A22F0060279
S32D000128B09A624FF48053C4F20B034FF48052C4F20B02926A9A62E6E0BB6B1B68012B18D14FF48053C4F20B03F5
S32D000128D84FF48052C4F20B02926A22F006029A624FF48053C4F20B034FF48052C4F20B02926A42F002029A6207
S32D00012900C9E0BB6B1B68022B16D14FF48053C4F20B034FF48052C4F20B02926A22F006029A624FF48053C4F2B2
S32D000129280B034FF48052C4F20B02926A9A62AEE04FF00503FB63AAE040F60A23FB63A6E0BB6B002B03D14FF03A
S32D000129500C03FB639FE04FF48053C4F20B034FF48052C4F20B02D26A42F00062DA624FF48053C4F20B03DB6A8F
S32D0001297803F00063002B0CBF00230123DBB2002BF1D14FF48053C4F20B031B6B03F08003002B0CBF0023012310
S32D000129A0DBB2002B0FD04FF48053C4F20B034FF48052C4F20B02126B42F080021A637B6B4FF000021A604FF42D
S32D000129C88053C4F20B035B6A03F48033002B0CBF00230123DBB2002B08D07B6B1B68002B08D17B6B4FF0010278
S32D000129F01A6003E07B6B4FF000021A607B6B1A68BB6B1A6047E0BB6B4FF01C021A60BB6B03F104034FF0040228
S32D00012A181A60BB6B03F108034FF41E721A6036E04FF00200FFF712FA4FF48053C4F20B031B6B03F4E003002BE5
S32D00012A400CBF00230123DBB2002B0ED04FF48053C4F20B034FF48052C4F20B02126B42F4E0021A634FF00403B5
S32D00012A68FB634FF48053C4F20B034FF48052C4F20B02126B42F032021A6308E040F60923FB6304E000BF02E0A2
S32D00012A9000BF00E000BFFB6B184607F14807BD4680BD00BF80B489B000AF786039607B687B6141F27413C1F6F2
S32D00012AB8FF733B613B69002B02D14FF0000381E03B691B68022B0BD03B691B68032B07D03B691B68072B03D015
S32D00012AE03B691B68082B0DD14FF48053C4F20B035B6A03F00403002B0CBF00230123DBB2002BF1D13B68FB6140
S32D00012B0856E0FB69B3F5007F28BF4FF40073FB60FB6803F103034FEA9303BB613CE04FF48053C4F20B031B6B21
S32D00012B3003F4E003002B0CBF00230123DBB2002B10D04FF48053C4F20B034FF48052C4F20B02126B42F4E00280
