S01200002E2E2F464548526F626F742E7331397E
S32D0000C00000000020B50501001109010011090100110901001109010011090100000000000000000000000000B0
S32D0000C0280000000011090100110901000000000011090100110901001109010011090100110901001109010012
S32D0000C05011090100110901001109010011090100110901001109010011090100110901001109010011090100B4
S32D0000C078110901001109010011090100110901001109010011090100110901001109010011090100110901008C
S32D0000C0A01109010011090100110901001109010011090100110901001109010011090100110901001109010064
S32D0000C0C8110901001109010011090100110901001109010011090100110901001109010011090100110901003C
S32D0000C0F0110901008D780100110901001109010011090100110901001109010011090100110901001109010029
S32D0000C11811090100110901001109010011090100110901001109010011090100110901001109010011090100EB
S32D0000C140110901001109010011090100110901006D3F0100110901001109010011090100110901001109010031
S32D0000C168110901001109010011090100110901001109010011090100110901001109010011090100110901009B
S32D0000C190110901001109010011090100CD39010021380100F538010061090100A53A0100110901001109010020
S32D0000C1B8110901001109010011090100110901001109010011090100110901001109010011090100110901004B
S32D0000C41081F0004102E000BF83F0004330B54FEA41044FEA430594EA050F08BF90EA020F1FBF54EA000C55EAC6
S32D0000C438020C7FEA645C7FEA655C00F0E2804FEA5454D4EB5555B8BF6D420CDD2C4480EA020281EA030382EA0F
S32D0000C460000083EA010180EA020281EA0303362D88BF30BD11F0004F4FEA01314FF4801C4CEA113102D0404263
S32D0000C48861EB410113F0004F4FEA03334CEA133302D0524263EB430394EA050F00F0A780A4F10104D5F1200E8A
S32D0000C4B00DDB02FA0EFC22FA05F2801841F1000103FA0EF2801843FA05F359410EE0A5F120050EF1200E012A2D
S32D0000C4D803FA0EFC28BF4CF0020C43FA05F3C01851EBE37101F0004507D54FF0000EDCF1000C7EEB00006EEB67
S32D0000C5000101B1F5801F1BD3B1F5001F0CD349085FEA30004FEA3C0C04F101044FEA445212F5800F80F09A8000
S32D0000C528BCF1004F08BF5FEA500C50F1000041EB045141EA050130BD5FEA4C0C404141EB010111F4801FA4F114
S32D0000C5500104E9D191F0000F04BF01460020B1FA81F308BF2033A3F10B03B3F120020CDA0C3208DD02F1140C87
S32D0000C578C2F10C0201FA0CF021FA02F10CE002F11402D8BFC2F1200C01FA02F120FA0CFCDCBF41EA0C019040B1
S32D0000C5A0E41AA2BF01EB0451294330BD6FEA04041F3C1CDA0C340EDC04F11404C4F1200220FA04F001FA02F3B6
S32D0000C5C840EA030021FA04F345EA030130BDC4F10C04C4F1200220FA02F001FA04F340EA0300294630BD21FAA8
S32D0000C5F004F0294630BD94F0000F83F4801306BF81F480110134013D4EE77FEA645C18BF7FEA655C29D094EA1C
S32D0000C618050F08BF90EA020F05D054EA000C04BF1946104630BD91EA030F1EBF0021002030BD5FEA545C05D1A3
S32D0000C6404000494128BF41F0004130BD14F580043CBF01F5801130BD01F0004545F0FE4141F470014FF0000031
S32D0000C66830BD7FEA645C1ABF194610467FEA655C1CBF0B46024650EA013406BF52EA033591EA030F41F40021D7
S32D0000C69030BD00BF90F0000F04BF0021704730B54FF4806404F132044FF000054FF0000150E700BF90F0000F66
S32D0000C6B804BF0021704730B54FF4806404F1320410F0004548BF40424FF000013EE700BF42004FEAE2014FEAF9
S32D0000C6E031014FEA02701FBF12F07F4393F07F4F81F06051704792F0000F14BF93F07F4F704730B54FF460741B
S32D0000C70801F0004521F0004120E700BF50EA010208BF704730B54FF000050AE050EA010208BF704730B511F046
S32D0000C730004502D5404261EB41014FF4806404F132045FEA915C3FF4DCAE4FF003025FEADC0C18BF03325FEAA0
S32D0000C758DC0C18BF033202EBDC02C2F1200300FA03FC20FA02F001FA03FE40EA0E0021FA02F11444C1E600BF19
S32D0000C78070B54FF0FF0C4CF4E06C1CEA11541DBF1CEA135594EA0C0F95EA0C0F00F0DEF82C4481EA030621EAF3
S32D0000C7A84C5123EA4C5350EA013518BF52EA033541F4801143F4801338D0A0FB02CE4FF00005E1FB02E506F05F
S32D0000C7D00042E0FB03E54FF00006E1FB03569CF0000F18BF4EF0010EA4F1FF04B6F5007F64F5407404D25FEA0F
S32D0000C7F84E0E6D4146EB060642EAC62141EA55514FEAC52040EA5E504FEACE2EB4F1FD0C88BFBCF5E06F1ED8D2
S32D0000C820BEF1004F08BF5FEA500E50F1000041EB045170BD06F0004646EA010140EA020081EA0301B4EB5C0487
S32D0000C848C2BFD4EB0C0541EA045170BD41F480114FF0000E013C00F3AB8014F1360FDEBF002001F0004170BDF0
S32D0000C870C4F10004203C35DA0C341BDC04F11404C4F1200500FA05F320FA04F001FA05F240EA020001F0004207
S32D0000C89821F0004110EBD37021FA04F642EB06015EEA430E08BF20EAD37070BDC4F10C04C4F1200500FA04F32F
S32D0000C8C020FA05F001FA04F240EA020001F0004110EBD37041F100015EEA430E08BF20EAD37070BDC4F12005C7
S32D0000C8E800FA05F24EEA020E20FA04F301FA05F243EA020321FA04F001F0004121FA04F220EA020000EBD37028
S32D0000C9105EEA430E08BF20EAD37070BD94F0000F0FD101F00046400041EB010111F4801F08BF013CF7D041EA6D
S32D0000C938060195F0000F18BF704703F00046520043EB030313F4801F08BF013DF7D043EA0603704794EA0C0FF1
S32D0000C9600CEA135518BF95EA0C0F0CD050EA410618BF52EA4306D1D181EA030101F000414FF0000070BD50EA38
S32D0000C988410606BF1046194652EA430619D094EA0C0F02D150EA013613D195EA0C0F05D152EA03361CBF10467B
S32D0000C9B019460AD181EA030101F0004141F0FE4141F470014FF0000070BD41F0FE4141F4780170BD70B54FF04D
S32D0000C9D8FF0C4CF4E06C1CEA11541DBF1CEA135594EA0C0F95EA0C0F00F0A7F8A4EB050481EA030E52EA03359B
S32D0000CA004FEA013100F088804FEA03334FF0805545EA131343EA12634FEA022245EA111545EA10654FEA002676
S32D0000CA280EF000419D4208BF964244F1FD0404F5407402D25B084FEA3202B61A65EB03055B084FEA32024FF461
S32D0000CA5080104FF4002CB6EB020E75EB030E22BFB61A754640EA0C005B084FEA3202B6EB020E75EB030E22BF22
S32D0000CA78B61A754640EA5C005B084FEA3202B6EB020E75EB030E22BFB61A754640EA9C005B084FEA3202B6EBEA
S32D0000CAA0020E75EB030E22BFB61A754640EADC0055EA060E18D04FEA051545EA16754FEA06164FEAC30343EAAC
S32D0000CAC852734FEAC2025FEA1C1CC0D111F4801F0BD141EA00014FF000004FF0004CB6E711F4801F04BF0143AE
S32D0000CAF00020B4F1FD0C88BFBCF5E06F3FF6AFAEB5EB030C04BFB6EB020C5FEA500C50F1000041EB045170BDBC
S32D0000CB180EF0004E4EEA113114EB5C04C2BFD4EB0C0541EA045170BD41F480114FF0000E013C90E645EA060EC3
S32D0000CB408DE60CEA135594EA0C0F08BF95EA0C0F3FF43BAF94EA0C0F0AD150EA01347FF434AF95EA0C0F7FF499
S32D0000CB6825AF104619462CE795EA0C0F06D152EA03353FF4FDAE1046194622E750EA410618BF52EA43067FF432
S32D0000CB90C5AE50EA41047FF40DAF52EA43057FF4EBAE12E74FF0FF3C06E000BF4FF0010C02E000BF4FF0010C75
S32D0000CBB84DF804CD4FEA410C7FEA6C5C4FEA430C18BF7FEA6C5C1BD001B050EA410C0CBF52EA430C91EA030FEC
S32D0000CBE002BF90EA020F0020704710F1000F91EA030F58BF994208BF90422CBFD8176FEAE37040F0010070476E
S32D0000CC084FEA410C7FEA6C5C02D150EA013C07D14FEA430C7FEA6C5CD6D152EA033CD3D05DF8040B704700BFCD
S32D0000CC308446104662468C461946634600E000BF01B5FFF7B7FF002848BF10F1000F01BD4DF808EDFFF7F4FF13
S32D0000CC580CBF012000205DF808FB00BF4DF808EDFFF7EAFF34BF012000205DF808FB00BF4DF808EDFFF7E0FF18
S32D0000CC8094BF012000205DF808FB00BF4DF808EDFFF7CEFF94BF012000205DF808FB00BF4DF808EDFFF7C4FF40
S32D0000CCA834BF012000205DF808FB00BF4FEA410212F5001215D211D56FF47873B3EB625212D94FEAC12343F0D6
S32D0000CCD0004343EA505311F0004F23FA02F018BF404270474FF00000704750EA013005D111F0004008BF6FF016
S32D0000CCF8004070474FF00000704700BF4A0011D212F5001211D20DD56FF47873B3EB62520ED44FEAC12343F085
S32D0000CD20004343EA505323FA02F070474FF00000704750EA013002D14FF0FF3070474FF0000070474FEA410241
S32D0000CD48B2F1E04324BFB3F5001CDCF1FE5C0DD901F0004C4FEAC0024CEA5070B2F1004F40EB830008BF20F09E
S32D0000CD700100704711F0804F21D113F13872BCBF01F00040704741F480114FEA5252C2F11802C2F1200C10FAB1
S32D0000CD980CF320FA02F018BF40F001004FEAC1234FEAD32303FA0CFC40EA0C0023FA02F34FEA4303CCE77FEA26
S32D0000CDC0625307D150EA01331EBF4FF0FE4040F44000704701F0004040F0FE4040F40000704700BF80F00040CC
S32D0000CDE802E000BF81F0004142001FBF5FEA410392EA030F7FEA226C7FEA236C6AD04FEA1262D2EB1363C1BF06
S32D0000CE10D218414048404140B8BF5B42192B88BF704710F0004F40F4000020F07F4018BF404211F0004F41F4FA
S32D0000CE38000121F07F4118BF494292EA030F3FD0A2F1010241FA03FC10EB0C00C3F1200301FA03F100F000432B
S32D0000CE6002D5494260EB4000B0F5000F13D3B0F1807F06D340084FEA310102F10102FE2A51D2B1F1004F40EB94
S32D0000CE88C25008BF20F0010040EA03007047490040EB000010F4000FA2F10102EDD1B0FA80FCACF1080CB2EB5F
S32D0000CEB00C0200FA0CF0AABF00EBC25052421843BCBFD0401843704792F0000F81F4000106BF80F400000132EB
S32D0000CED8013BB5E74FEA41037FEA226C18BF7FEA236C21D092EA030F04D092F0000F08BF0846704790EA010FD7
S32D0000CF001CBF0020704712F07F4F04D1400028BF40F00040704712F100723CBF00F50000704700F0004343F0DC
S32D0000CF28FE4040F4000070477FEA226216BF08467FEA23630146420206BF5FEA412390EA010F40F480007047C1
S32D0000CF504FF0000304E000BF10F0004348BF40425FEA000C08BF704743F0964301464FF000001CE050EA010264
S32D0000CF7808BF70474FF000030AE000BF50EA010208BF704711F0004302D5404261EB41015FEA010C02BF84465B
S32D0000CFA00146002043F0B64308BFA3F18053A3F50003BCFA8CF2083AA3EBC25310DB01FA02FC634400FA02FC6B
S32D0000CFC8C2F12002BCF1004F20FA02F243EB020008BF20F00100704702F1200201FA02FCC2F1200250EA4C0034
S32D0000CFF021FA02F243EB020008BF20EADC7070474FF0FF0C1CEAD0521EBF1CEAD15392EA0C0F93EA0C0F6FD019
S32D0000D0181A4480EA010C400218BF5FEA41211ED04FF0006343EA501043EA5111A0FB01310CF00040B1F5000FE7
S32D0000D0403EBF490041EAD3715B0040EA010062F17F02FD2A1DD8B3F1004F40EBC25008BF20F00100704790F058
S32D0000D068000F0CF0004C08BF49024CEA502040EA51207F3AC2BFD2F1FF0340EAC250704740F400004FF0000388
S32D0000D090013A5DDC12F1190FDCBF00F000407047C2F10002410021FA02F1C2F1200200FA02FC5FEA310040F1D5
S32D0000D0B8000053EA4C0308BF20EADC70704792F0000F00F0004C02BF400010F4000F013AF9D040EA0C0093F04C
S32D0000D0E0000F01F0004C02BF490011F4000F013BF9D041EA0C018FE70CEAD15392EA0C0F18BF93EA0C0F0AD00B
S32D0000D10830F0004C18BF31F0004CD8D180EA010000F00040704790F0000F17BF90F0004F084691F0000F91F0BB
S32D0000D130004F14D092EA0C0F01D142020FD193EA0C0F03D14B0218BF084608D180EA010000F0004040F0FE4051
S32D0000D15840F40000704740F0FE4040F4400070474FF0FF0C1CEAD0521EBF1CEAD15392EA0C0F93EA0C0F69D044
S32D0000D180A2EB030280EA010C49024FEA402037D04FF0805343EA111143EA10130CF000408B4238BF5B0042F14E
S32D0000D1A87D024FF4000C8B4224BF5B1A40EA0C00B3EB510F24BFA3EB510340EA5C00B3EB910F24BFA3EB9103A4
S32D0000D1D040EA9C00B3EBD10F24BFA3EBD10340EADC001B0118BF5FEA1C1CE0D1FD2A3FF650AF8B4240EBC25018
S32D0000D1F808BF20F0010070470CF0004C4CEA50207F32C2BFD2F1FF0340EAC250704740F400004FF00003013AF1
S32D0000D22037E792F0000F00F0004C02BF400010F4000F013AF9D040EA0C0093F0000F01F0004C02BF490011F4C9
S32D0000D248000F013BF9D041EA0C0195E70CEAD15392EA0C0F08D142027FF47DAF93EA0C0F7FF470AF084676E7AE
S32D0000D27093EA0C0F04D14B023FF44CAF08466EE730F0004C18BF31F0004CCAD130F000427FF45CAF31F0004376
S32D0000D2987FF43CAF5FE700BF4FF0FF3C06E000BF4FF0010C02E000BF4FF0010C4DF804CD4FEA40024FEA41039F
S32D0000D2C07FEA226C18BF7FEA236C11D001B052EA530C18BF90EA010F58BFB2EB030088BFC81738BF6FEAE1706E
S32D0000D2E818BF40F0010070477FEA226C02D15FEA402C05D17FEA236CE4D15FEA412CE1D05DF8040B704700BF16
S32D0000D310844608466146FFE70FB5FFF7C9FF002848BF10F1000F0FBD4DF808EDFFF7F4FF0CBF012000205DF839
S32D0000D33808FB00BF4DF808EDFFF7EAFF34BF012000205DF808FB00BF4DF808EDFFF7E0FF94BF012000205DF8A9
S32D0000D36008FB00BF4DF808EDFFF7D2FF94BF012000205DF808FB00BF4DF808EDFFF7C8FF34BF012000205DF8B1
S32D0000D38808FB00BF4FEA4002B2F1FE4F0FD34FF09E03B3EB12620DD94FEA002343F0004310F0004F23FA02F060
S32D0000D3B018BF404270474FF00000704712F1610F01D1420205D110F0004008BF6FF0004070474FF00000704797
S32D0000D3D880B483B000AF78607B6823F00043184607F10C07BD4680BC704700BF80B483B000AF786039607B6878
S32D0000D4003A681A607B68184607F10C07BD4680BC704700BF90B587B000AFF860B9607A60B8687968FFF7E2FC96
S32D0000D42803463B61FB681B6818463969FFF7E4FD03467B617869FFF7CBFF03464FF00102144618461049FFF7DC
S32D0000D45093FF0346002B02D14FF000031C46E3B2002B0FD078690A49FFF7CAFD03461C467869FFF7B1FF034626
S32D0000D47820461946FFF774FE03467B617B69184607F11C07BD4690BD0000C8420000000090B58DB000AF786074
S32D0000D4A007F10C031846EC49FFF7A4FF07F108031846EA49FFF79EFF4FF0000387F82F30E74B3B62E64BFB6188
S32D0000D4C87868E649FFF798FD03467B6041F24410C1F6FF7006F05EFB41F24010C1F6FF7006F058FB90E141F2E6
S32D0000D4F04010C1F6FF7006F03DFB03461846FFF72BFD0346BB6107F10C0318467968BA69FFF780FF03467B613D
S32D0000D51841F24410C1F6FF7006F028FB044641F24010C1F6FF7006F021FB0346E31A1846FFF70EFD034607F134
S32D0000D54008021046C6491A46FFF764FF03463B6178693969FFF74CFC0346BB6278693969FFF744FC03467B62AA
S32D0000D568B86A396AFFF73EFC03464FF0010214461846BB49FFF7FCFE0346002B02D14FF000031C46E3B2002BBE
S32D0000D59006D0386AB449FFF72BFC0346BB621AE0B86A396AFFF722FC03464FF0010214461846AE49FFF7C2FEB2
S32D0000D5B80346002B02D14FF000031C46E3B2002B05D0386AA649FFF70DFC0346BB62786AF969FFF707FC034649
S32D0000D5E04FF00102144618469F49FFF7C5FE0346002B02D14FF000031C46E3B2002B06D0F8699949FFF7F4FBD9
S32D0000D60803467B621AE0786AF969FFF7EBFB03464FF00102144618469249FFF78BFE0346002B02D14FF000038E
S32D0000D6301C46E3B2002B05D0F8698B49FFF7D6FB03467B62B86A8649FFF76EFE0346002B48D1B86AFFF7C0FEFD
S32D0000D65803464FF00102144618468349FFF76AFE0346002B02D14FF000031C46E3B2002B10D0B86A7C49FFF7CF
S32D0000D680BFFC03461C46B86AFFF7A6FE034620461946FFF769FD0346BB6223E0B86AFFF79BFE03464FF001024B
S32D0000D6A8144618467149FFF763FE0346002B02D14FF000031C46E3B2002B0FD0B86A6B49FFF79AFC03461C46F4
S32D0000D6D0B86AFFF781FE034620461946FFF744FD0346BB62786A5E49FFF71EFE0346002B48D1786AFFF770FE7C
S32D0000D6F803464FF00102144618465B49FFF71AFE0346002B02D14FF000031C46E3B2002B10D0786A5449FFF70F
S32D0000D7206FFC03461C46786AFFF756FE034620461946FFF719FD03467B6223E0786AFFF74BFE03464FF00102AA
S32D0000D748144618464949FFF713FE0346002B02D14FF000031C46E3B2002B0FD0786A4349FFF74AFC03461C4683
S32D0000D770786AFFF731FE034620461946FFF7F4FC03467B62BB6A83F000431846FEF7A4FF02460B46104619464B
S32D0000D7982BA3D3E90023FEF7EFFF02460B4610461946FFF7CBFA034641F23010C1F6FF70194603F08DF941F2DD
S32D0000D7C03810C1F6FF70796A03F086F9BB6A3B627B6AFB611EA1D1E9000105F08DFD7868B969FFF703FB03463D
S32D0000D7E84FF00102144618461B49FFF7A3FD0346002B02D14FF000031C46E3B2002B03D04FF0010387F82F3080
S32D0000D81097F82F3083F00103DBB2002B7FF467AE41F23010C1F6FF700D4903F055F941F23810C1F6FF700A4921
S32D0000D83803F04EF907F13407BD4690BDAFF30080666666666666EE3F7B14AE47E17A943FCDCCCC3E0000003FBE
S32D0000D860000000000000E0410000E0400000E0C0000020410000704290B58DB000AF786007F10C031846EC4903
S32D0000D888FFF7B4FD07F108031846EA49FFF7AEFD4FF0000387F82F30E74B3B62E64BFB617868E649FFF7A8FB72
S32D0000D8B003467B6041F24410C1F6FF7006F06EF941F24010C1F6FF7006F068F990E141F24010C1F6FF7006F00C
S32D0000D8D84DF903461846FFF73BFB0346BB6107F10C0318467968BA69FFF790FD03467B6141F24410C1F6FF70E6
S32D0000D90006F038F9044641F24010C1F6FF7006F031F90346E31A1846FFF71EFB034607F108021046C6491A46FC
S32D0000D928FFF774FD03463B6178693969FFF75CFA0346BB6278693969FFF754FA03467B62B86A396AFFF74EFA60
S32D0000D95003464FF0010214461846BB49FFF70CFD0346002B02D14FF000031C46E3B2002B06D0386AB449FFF74D
S32D0000D9783BFA0346BB621AE0B86A396AFFF732FA03464FF0010214461846AE49FFF7D2FC0346002B02D14FF081
S32D0000D9A000031C46E3B2002B05D0386AA649FFF71DFA0346BB62786AF969FFF717FA03464FF0010214461846CD
S32D0000D9C89F49FFF7D5FC0346002B02D14FF000031C46E3B2002B06D0F8699949FFF704FA03467B621AE0786AC8
S32D0000D9F0F969FFF7FBF903464FF00102144618469249FFF79BFC0346002B02D14FF000031C46E3B2002B05D092
S32D0000DA18F8698B49FFF7E6F903467B62B86A8649FFF77EFC0346002B48D1B86AFFF7D0FC03464FF001021446F9
S32D0000DA4018468349FFF77AFC0346002B02D14FF000031C46E3B2002B10D0B86A7C49FFF7CFFA03461C46B86A24
S32D0000DA68FFF7B6FC034620461946FFF779FB0346BB6223E0B86AFFF7ABFC03464FF00102144618467149FFF755
S32D0000DA9073FC0346002B02D14FF000031C46E3B2002B0FD0B86A6B49FFF7AAFA03461C46B86AFFF791FC034666
S32D0000DAB820461946FFF754FB0346BB62786A5E49FFF72EFC0346002B48D1786AFFF780FC03464FF00102144661
S32D0000DAE018465B49FFF72AFC0346002B02D14FF000031C46E3B2002B10D0786A5449FFF77FFA03461C46786AF4
S32D0000DB08FFF766FC034620461946FFF729FB03467B6223E0786AFFF75BFC03464FF00102144618464949FFF74C
S32D0000DB3023FC0346002B02D14FF000031C46E3B2002B0FD0786A4349FFF75AFA03461C46786AFFF741FC03465D
S32D0000DB5820461946FFF704FB03467B62B86AFEF7B7FD02460B46104619462DA3D3E90023FEF702FE02460B4669
S32D0000DB8010461946FFF7DEF8034641F23010C1F6FF70194602F0A0FF7B6A83F0004341F23810C1F6FF70194689
S32D0000DBA802F096FFBB6A3B627B6AFB611EA1D1E9000105F09DFB7868B969FFF713F903464FF001021446184677
S32D0000DBD01B49FFF7B3FB0346002B02D14FF000031C46E3B2002B03D04FF0010387F82F3097F82F3083F001031B
S32D0000DBF8DBB2002B7FF467AE41F23010C1F6FF700D4902F065FF41F23810C1F6FF700A4902F05EFF07F1340704
S32D0000DC20BD4690BDAFF30080666666666666EE3F7B14AE47E17A943FCDCCCC3E0000003F000000000000E0411E
S32D0000DC480000E0400000E0C0000020410000704290B58DB000AF786007F10C031846EA49FFF7C4FB07F1080382
S32D0000DC701846E849FFF7BEFB4FF0000387F82F30E54B3B62E44BFB617868E449FFF7B8F903467B6041F2441071
S32D0000DC98C1F6FF7005F07EFF41F24010C1F6FF7005F078FF8DE141F24010C1F6FF7005F05DFF03461846FFF7AC
S32D0000DCC04BF90346BB6107F10C0318467968BA69FFF7A0FB03467B6141F24410C1F6FF7005F048FF044641F208
S32D0000DCE84010C1F6FF7005F041FF0346E31A1846FFF72EF9034607F108021046C4491A46FFF784FB03463B613A
S32D0000DD1078693969FFF76CF80346BB6278693969FFF764F803467B62B86A396AFFF75EF803464FF001021446B1
S32D0000DD381846B949FFF71CFB0346002B02D14FF000031C46E3B2002B06D0386AB249FFF74BF80346BB621AE099
S32D0000DD60B86A396AFFF742F803464FF0010214461846AC49FFF7E2FA0346002B02D14FF000031C46E3B2002BEB
S32D0000DD8805D0386AA449FFF72DF80346BB62786AF969FFF727F803464FF00102144618469D49FFF7E5FA0346E8
S32D0000DDB0002B02D14FF000031C46E3B2002B06D0F8699749FFF714F803467B621AE0786AF969FFF70BF8034624
S32D0000DDD84FF00102144618469049FFF7ABFA0346002B02D14FF000031C46E3B2002B05D0F8698949FEF7F6FF12
S32D0000DE0003467B62B86A8449FFF78EFA0346002B48D1B86AFFF7E0FA03464FF00102144618468149FFF78AFA5B
S32D0000DE280346002B02D14FF000031C46E3B2002B10D0B86A7A49FFF7DFF803461C46B86AFFF7C6FA034620465D
S32D0000DE501946FFF789F90346BB6223E0B86AFFF7BBFA03464FF00102144618466F49FFF783FA0346002B02D1E2
S32D0000DE784FF000031C46E3B2002B0FD0B86A6949FFF7BAF803461C46B86AFFF7A1FA034620461946FFF764F9FE
S32D0000DEA00346BB62786A5C49FFF73EFA0346002B48D1786AFFF790FA03464FF00102144618465949FFF73AFA3B
S32D0000DEC80346002B02D14FF000031C46E3B2002B10D0786A5249FFF78FF803461C46786AFFF776FA0346204605
S32D0000DEF01946FFF739F903467B6223E0786AFFF76BFA03464FF00102144618464749FFF733FA0346002B02D1DA
S32D0000DF184FF000031C46E3B2002B0FD0786A4149FFF76AF803461C46786AFFF751FA034620461946FFF714F9F5
S32D0000DF4003467B62B86AFEF7C7FB02460B46104619462BA3D3E90023FEF712FC02460B4610461946FEF7EEFE87
S32D0000DF68034641F23010C1F6FF70194602F0B0FD41F23810C1F6FF70796A02F0A9FDBB6A3B627B6AFB611EA1CD
S32D0000DF90D1E9000105F0B0F97868B969FEF726FF03464FF00102144618461B49FFF7C6F90346002B02D14FF00C
S32D0000DFB800031C46E3B2002B03D04FF0010387F82F3097F82F3083F00103DBB2002B7FF46AAE41F23010C1F650
S32D0000DFE0FF700D4902F078FD41F23810C1F6FF70094902F071FD07F13407BD4690BD00BF666666666666EE3FC1
S32D0000E0087B14AE47E17A943FCDCCCC3E0000003F000000000000E0410000E0400000E0C0000080410000704202
S32D0000E03090B58DB000AF786007F10C031846EE49FFF7D8F907F108031846EC49FFF7D2F94FF0000387F82F30DF
S32D0000E058E94B3B62E84BFB617868E849FEF7CCFF03467B6041F24410C1F6FF7005F092FD41F24010C1F6FF706B
S32D0000E08005F08CFD93E141F24010C1F6FF7005F071FD03461846FEF75FFF0346BB6107F10C0318467968BA69AC
S32D0000E0A8FFF7B4F903467B6141F24410C1F6FF7005F05CFD044641F24010C1F6FF7005F055FD0346E31A1846A9
S32D0000E0D0FEF742FF034607F108021046C8491A46FFF798F903463B6178693969FEF780FE0346BB62786939698F
S32D0000E0F8FEF778FE03467B62B86A396AFEF772FE03464FF0010214461846BD49FFF730F90346002B02D14FF051
S32D0000E12000031C46E3B2002B06D0386AB649FEF75FFE0346BB621AE0B86A396AFEF756FE03464FF00102144690
S32D0000E1481846B049FFF7F6F80346002B02D14FF000031C46E3B2002B05D0386AA849FEF741FE0346BB62786ADF
S32D0000E170F969FEF73BFE03464FF0010214461846A149FFF7F9F80346002B02D14FF000031C46E3B2002B06D05C
S32D0000E198F8699B49FEF728FE03467B621AE0786AF969FEF71FFE03464FF00102144618469449FFF7BFF803466D
S32D0000E1C0002B02D14FF000031C46E3B2002B05D0F8698D49FEF70AFE03467B62B86A8849FFF7A2F80346002BA9
S32D0000E1E848D1B86AFFF7F4F803464FF00102144618468549FFF79EF80346002B02D14FF000031C46E3B2002BA4
S32D0000E21010D0B86A7E49FEF7F3FE03461C46B86AFFF7DAF8034620461946FEF79DFF0346BB6223E0B86AFFF77C
S32D0000E238CFF803464FF00102144618467349FFF797F80346002B02D14FF000031C46E3B2002B0FD0B86A6D490B
S32D0000E260FEF7CEFE03461C46B86AFFF7B5F8034620461946FEF778FF0346BB62786A6049FFF752F80346002B40
S32D0000E28848D1786AFFF7A4F803464FF00102144618465D49FFF74EF80346002B02D14FF000031C46E3B2002B0B
S32D0000E2B010D0786A5649FEF7A3FE03461C46786AFFF78AF8034620461946FEF74DFF03467B6223E0786AFFF7F4
S32D0000E2D87FF803464FF00102144618464B49FFF747F80346002B02D14FF000031C46E3B2002B0FD0786A45499B
S32D0000E300FEF77EFE03461C46786AFFF765F8034620461946FEF728FF03467B62BB6A83F000431846FEF7D8F94F
S32D0000E32802460B46104619462DA3D3E90023FEF723FA02460B4610461946FEF7FFFC034641F23010C1F6FF7098
S32D0000E350194602F0C1FB7B6A83F0004341F23810C1F6FF70194602F0B7FBBB6A3B627B6AFB611FA1D1E90001D5
S32D0000E37804F0BEFF7868B969FEF734FD03464FF00102144618461C49FEF7D4FF0346002B02D14FF000031C4643
S32D0000E3A0E3B2002B03D04FF0010387F82F3097F82F3083F00103DBB2002B7FF464AE41F23010C1F6FF700E4909
S32D0000E3C802F086FB41F23810C1F6FF700A4902F07FFB07F13407BD4690BD00BFAFF30080666666666666EE3F5F
S32D0000E3F07B14AE47E17A943FCDCCCC3E0000003F000000000000E0410000E0400000E0C0000080410000704217
S32D0000E41890B589B000AF786007F10C0318467A49FEF7E4FF4FF00003FB77784B7B6178687749FEF7E1FD0346C2
S32D0000E4407B6041F24010C1F6FF7005F0A7FBC1E041F24010C1F6FF7005F08CFB03461846FEF77AFD03463B61D5
S32D0000E46807F10C03184679683A69FEF7CFFF0346BB61B8697969FEF7B5FC03464FF00102144618466349FEF7E8
S32D0000E49073FF0346002B02D14FF000031C46E3B2002B06D078695D49FEF7A2FC0346BB611AE0B8697969FEF7FA
S32D0000E4B899FC03464FF00102144618465649FEF739FF0346002B02D14FF000031C46E3B2002B05D078694F4999
S32D0000E4E0FEF784FC0346BB61B8694A49FEF71CFF0346002B48D1B869FEF76EFF03464FF001021446184647498D
S32D0000E508FEF718FF0346002B02D14FF000031C46E3B2002B10D0B8694049FEF76DFD03461C46B869FEF754FF31
S32D0000E530034620461946FEF717FE0346BB6123E0B869FEF749FF03464FF00102144618463549FEF711FF0346D0
S32D0000E558002B02D14FF000031C46E3B2002B0FD0B8692F49FEF748FD03461C46B869FEF72FFF03462046194684
S32D0000E580FEF7F2FD0346BB6141F23810C1F6FF70B96902F0A1FABB697B611BA1D1E9000104F0AAFE786839693F
S32D0000E5A8FEF720FC03464FF00102144618461749FEF7C0FE0346002B02D14FF000031C46E3B2002B02D04FF022
S32D0000E5D00103FB77FB7F83F00103DBB2002B7FF437AF41F23010C1F6FF700A4902F074FA41F23810C1F6FF70B8
S32D0000E5F8064902F06DFA07F12407BD4690BD00BF7B14AE47E17A943F9A99193F000000000000E0410000E0409D
S32D0000E6200000E0C00000904100007042AFF3008090B589B000AF786007F10C0318467A49FEF7D8FE4FF000034D
S32D0000E648FB77784B7B6178687749FEF7D5FC03467B6041F24410C1F6FF7005F09BFAC1E041F24410C1F6FF7084
S32D0000E67005F080FA03461846FEF76EFC03463B6107F10C03184679683A69FEF7C3FE0346BB61B8697969FEF726
S32D0000E698A9FB03464FF00102144618466349FEF767FE0346002B02D14FF000031C46E3B2002B06D078695D495F
S32D0000E6C0FEF796FB0346BB611AE0B8697969FEF78DFB03464FF00102144618465649FEF72DFE0346002B02D17E
S32D0000E6E84FF000031C46E3B2002B05D078694F49FEF778FB0346BB61B8694A49FEF710FE0346002B48D1B86920
S32D0000E710FEF762FE03464FF00102144618464749FEF70CFE0346002B02D14FF000031C46E3B2002B10D0B86908
S32D0000E7384049FEF761FC03461C46B869FEF748FE034620461946FEF70BFD0346BB6123E0B869FEF73DFE0346C4
S32D0000E7604FF00102144618463549FEF705FE0346002B02D14FF000031C46E3B2002B0FD0B8692F49FEF73CFCCB
S32D0000E78803461C46B869FEF723FE034620461946FEF7E6FC0346BB6141F23010C1F6FF70B96902F095F9BB69D8
S32D0000E7B07B611BA1D1E9000104F09EFD78683969FEF714FB03464FF00102144618461749FEF7B4FD0346002B16
S32D0000E7D802D14FF000031C46E3B2002B02D04FF00103FB77FB7F83F00103DBB2002B7FF437AF41F23010C1F629
S32D0000E800FF700A4902F068F941F23810C1F6FF70064902F061F907F12407BD4690BD00BF7B14AE47E17A943FB5
S32D0000E8289A99193F000000000000E0410000E0400000E0C0000090410000C841AFF3008090B58DB000AF786051
S32D0000E85007F10C031846EC49FEF7CCFD07F108031846EA49FEF7C6FD4FF0000387F82F30E74B3B62E64BFB617A
S32D0000E8787868E649FEF7C0FB03467B6041F24410C1F6FF7005F086F941F24010C1F6FF7005F080F990E141F2B3
S32D0000E8A04010C1F6FF7005F065F903461846FEF753FB0346BB6107F10C0318467968BA69FEF7A8FD03467B610A
S32D0000E8C841F24410C1F6FF7005F050F9044641F24010C1F6FF7005F049F90346E31A1846FEF736FB034607F102
S32D0000E8F008021046C6491A46FEF78CFD03463B6178693969FEF774FA0346BB6278693969FEF76CFA03467B6278
S32D0000E918B86A396AFEF766FA03464FF0010214461846BB49FEF724FD0346002B02D14FF000031C46E3B2002BAF
S32D0000E94006D0386AB449FEF753FA0346BB621AE0B86A396AFEF74AFA03464FF0010214461846AE49FEF7EAFC7F
S32D0000E9680346002B02D14FF000031C46E3B2002B05D0386AA649FEF735FA0346BB62786AF969FEF72FFA03463B
S32D0000E9904FF00102144618469F49FEF7EDFC0346002B02D14FF000031C46E3B2002B06D0F8699949FEF71CFACA
S32D0000E9B803467B621AE0786AF969FEF713FA03464FF00102144618469249FEF7B3FC0346002B02D14FF0000380
S32D0000E9E01C46E3B2002B05D0F8698B49FEF7FEF903467B62B86A8649FEF796FC0346002B48D1B86AFEF7E8FCCB
S32D0000EA0803464FF00102144618468349FEF792FC0346002B02D14FF000031C46E3B2002B10D0B86A7C49FEF7E7
S32D0000EA30E7FA03461C46B86AFEF7CEFC034620461946FEF791FB0346BB6223E0B86AFEF7C3FC03464FF00102F2
S32D0000EA58144618467149FEF78BFC0346002B02D14FF000031C46E3B2002B0FD0B86A6B49FEF7C2FA03461C46E6
S32D0000EA80B86AFEF7A9FC034620461946FEF76CFB0346BB62786A5E49FEF746FC0346002B48D1786AFEF798FC24
S32D0000EAA803464FF00102144618465B49FEF742FC0346002B02D14FF000031C46E3B2002B10D0786A5449FEF727
S32D0000EAD097FA03461C46786AFEF77EFC034620461946FEF741FB03467B6223E0786AFEF773FC03464FF0010252
S32D0000EAF8144618464949FEF73BFC0346002B02D14FF000031C46E3B2002B0FD0786A4349FEF772FA03461C4676
S32D0000EB20786AFEF759FC034620461946FEF71CFB03467B62B86AFDF7CFFD02460B46104619462DA3D3E900237C
S32D0000EB48FDF71AFE02460B4610461946FEF7F6F8034641F23010C1F6FF70194601F0B8FF7B6A83F0004341F2AB
S32D0000EB703810C1F6FF70194601F0AEFFBB6A3B627B6AFB611EA1D1E9000104F0B5FB7868B969FEF72BF9034687
S32D0000EB984FF00102144618461B49FEF7CBFB0346002B02D14FF000031C46E3B2002B03D04FF0010387F82F3097
S32D0000EBC097F82F3083F00103DBB2002B7FF467AE41F23010C1F6FF700D4901F07DFF41F23810C1F6FF700A4932
S32D0000EBE801F076FF07F13407BD4690BDAFF30080666666666666EE3F7B14AE47E17A943FCDCCCC3E0000003FCF
S32D0000EC10000000000000E0410000E0400000E0C0000020410000B442B0B58EB000AF786007F110031846DFF834
S32D0000EC382014FEF7DBFB07F10C031846DFF81414FEF7D4FB4FF0000387F83730DFF80834BB62DFF804347B6243
S32D0000EC6004F076FB02460B4610461946FEF76AF803463B627868FB49FEF7C2F903467B6041F24410C1F6FF70F1
S32D0000EC8804F088FF41F24010C1F6FF7004F082FFBCE141F24010C1F6FF7004F067FF03461846FEF755F90346F2
S32D0000ECB0FB6107F1100318467968FA69FEF7AAFB0346BB6141F24410C1F6FF7004F052FF044641F24010C1F6B8
S32D0000ECD8FF7004F04BFF0346E31A1846FEF738F9034607F10C021046DB491A46FEF78EFB03467B61B8697969C8
S32D0000ED00FEF776F803463B63B8697969FEF76EF80346FB62386BB96AFEF768F803464FF0010214461846D04920
S32D0000ED28FEF726FB0346002B02D14FF000031C46E3B2002B06D0B86AC949FEF755F803463B631AE0386BB96A09
S32D0000ED50FEF74CF803464FF0010214461846C349FEF7ECFA0346002B02D14FF000031C46E3B2002B05D0B86A90
S32D0000ED78BB49FEF737F803463B63F86A796AFEF731F803464FF0010214461846B449FEF7EFFA0346002B02D196
S32D0000EDA04FF000031C46E3B2002B06D0786AAE49FEF71EF80346FB621AE0F86A796AFEF715F803464FF00102B5
S32D0000EDC814461846A749FEF7B5FA0346002B02D14FF000031C46E3B2002B05D0786AA049FEF700F80346FB62F3
S32D0000EDF0386B9B49FEF798FA0346002B48D1386BFEF7EAFA03464FF00102144618469849FEF794FA0346002BC3
S32D0000EE1802D14FF000031C46E3B2002B10D0386B9149FEF7E9F803461C46386BFEF7D0FA034620461946FEF752
S32D0000EE4093F903463B6323E0386BFEF7C5FA03464FF00102144618468649FEF78DFA0346002B02D14FF00003C0
S32D0000EE681C46E3B2002B0FD0386B8049FEF7C4F803461C46386BFEF7ABFA034620461946FEF76EF903463B6325
S32D0000EE90F86A7349FEF748FA0346002B48D1F86AFEF79AFA03464FF00102144618467049FEF744FA0346002BE4
S32D0000EEB802D14FF000031C46E3B2002B10D0F86A6949FEF799F803461C46F86AFEF780FA034620461946FEF7FC
S32D0000EEE043F90346FB6223E0F86AFEF775FA03464FF00102144618465E49FEF73DFA0346002B02D14FF00003BA
S32D0000EF081C46E3B2002B0FD0F86A5849FEF774F803461C46F86AFEF75BFA034620461946FEF71EF90346FB625F
S32D0000EF303B6B83F000431846FDF7CEFB02460B461046194640A3D3E90023FDF719FC02460B4610461946FDF7E1
S32D0000EF58F5FE034641F23010C1F6FF70194601F0B7FD41F23810C1F6FF70F96A01F0B0FD3B6BBB62FB6A7B620B
S32D0000EF8033A1D1E9000104F0B7F97868F969FDF72DFF03464FF00102144618463049FEF7CDF90346002B02D110
S32D0000EFA84FF000031C46E3B2002B24D104F0CCF904460D46386AFDF78BFB02460B4620462946FDF725FA0246A7
S32D0000EFD00B464FF001010C46104619464FF000024FF07E5303F5F003FDF75AFE0346002B02D14FF000031C4607
S32D0000EFF8E3B2002B02D04FF0010301E04FF00003002B03D04FF0010387F8373097F8373083F00103DBB2002BA7
S32D0000F0207FF43BAE41F23010C1F6FF700C4901F053FD41F23810C1F6FF70094901F04CFD07F13807BD46B0BD63
S32D0000F048666666666666EE3F7B14AE47E17A943FCDCCCC3E0000003F000000000000E0410000E0400000E0C094
S32D0000F070000070410000F04190B58DB000AF786007F10C031846EC49FEF7B4F907F108031846EA49FEF7AEF91B
S32D0000F0984FF0000387F82F30E74B3B62E64BFB617868E649FDF7A8FF03467B6041F24410C1F6FF7004F06EFDF4
S32D0000F0C041F24010C1F6FF7004F068FD90E141F24010C1F6FF7004F04DFD03461846FDF73BFF0346BB6107F196
S32D0000F0E80C0318467968BA69FEF790F903467B6141F24410C1F6FF7004F038FD044641F24010C1F6FF7004F029
S32D0000F11031FD0346E31A1846FDF71EFF034607F108021046C6491A46FEF774F903463B6178693969FDF75CFEC6
S32D0000F1380346BB6278693969FDF754FE03467B62B86A396AFDF74EFE03464FF0010214461846BB49FEF70CF90E
S32D0000F1600346002B02D14FF000031C46E3B2002B06D0386AB449FDF73BFE0346BB621AE0B86A396AFDF732FEEB
S32D0000F18803464FF0010214461846AE49FEF7D2F80346002B02D14FF000031C46E3B2002B05D0386AA649FDF75B
S32D0000F1B01DFE0346BB62786AF969FDF717FE03464FF00102144618469F49FEF7D5F80346002B02D14FF00003ED
S32D0000F1D81C46E3B2002B06D0F8699949FDF704FE03467B621AE0786AF969FDF7FBFD03464FF001021446184645
S32D0000F2009249FEF79BF80346002B02D14FF000031C46E3B2002B05D0F8698B49FDF7E6FD03467B62B86A8649DA
S32D0000F228FEF77EF80346002B48D1B86AFEF7D0F803464FF00102144618468349FEF77AF80346002B02D14FF0E5
S32D0000F25000031C46E3B2002B10D0B86A7C49FDF7CFFE03461C46B86AFEF7B6F8034620461946FDF779FF0346B0
S32D0000F278BB6223E0B86AFEF7ABF803464FF00102144618467149FEF773F80346002B02D14FF000031C46E3B2B1
S32D0000F2A0002B0FD0B86A6B49FDF7AAFE03461C46B86AFEF791F8034620461946FDF754FF0346BB62786A5E4935
S32D0000F2C8FEF72EF80346002B48D1786AFEF780F803464FF00102144618465B49FEF72AF80346002B02D14FF09D
S32D0000F2F000031C46E3B2002B10D0786A5449FDF77FFE03461C46786AFEF766F8034620461946FDF729FF0346A8
S32D0000F3187B6223E0786AFEF75BF803464FF00102144618464949FEF723F80346002B02D14FF000031C46E3B258
S32D0000F340002B0FD0786A4349FDF75AFE03461C46786AFEF741F8034620461946FDF704FF03467B62B86AFDF7DF
S32D0000F368B7F902460B46104619462DA3D3E90023FDF702FA02460B4610461946FDF7DEFC034641F23010C1F64B
S32D0000F390FF70194601F0A0FB7B6A83F0004341F23810C1F6FF70194601F096FBBB6A3B627B6AFB611EA1D1E95C
S32D0000F3B8000103F09DFF7868B969FDF713FD03464FF00102144618461B49FDF7B3FF0346002B02D14FF00003BB
S32D0000F3E01C46E3B2002B03D04FF0010387F82F3097F82F3083F00103DBB2002B7FF467AE41F23010C1F6FF70AB
S32D0000F4080D4901F065FB41F23810C1F6FF700A4901F05EFB07F13407BD4690BDAFF30080666666666666EE3FBB
S32D0000F4307B14AE47E17A943FCDCCCC3E0000003F000000000000E0410000E0400000E0C0000020410000C841CF
S32D0000F45880B582B000AF78607B68C3F100031846FDF776FD034641F23010C1F6FF70194601F02EFB7868FDF70A
S32D0000F4806BFD034641F23810C1F6FF70194601F023FB07F10807BD4680BD00BF80B582B000AF786039607B682E
S32D0000F4A8C3F100031846FDF753FD034641F23010C1F6FF70194601F00BFB3868FDF748FD034641F23810C1F651
S32D0000F4D0FF70194601F000FB07F10807BD4680BD80B582B000AF78607B68C3F100031846FDF732FD034641F288
S32D0000F4F83010C1F6FF70194601F0EAFA7B68C3F100031846FDF724FD034641F23810C1F6FF70194601F0DCFA2F
S32D0000F52007F10807BD4680BD80B582B000AF786039607868FFF790FF386803F0C1FE4FF00000FFF789FF07F183
S32D0000F5480807BD4680BD00BF80B582B000AF786039607B6803F10A0318467968FFF79AFF386803F0A9FE4FF0D5
S32D0000F5700000FFF771FF07F10807BD4680BD00BF80B500AF0448FFF777FD0448FFF750F80348FFF759F980BD0D
S32D0000F5989A9989406666AE400000404190B585B000AF78604FF00003FB735FE041F2A440C1F6FF7009F044FCA8
S32D0000F5C0034618467968FDF711FC0346BB604FF001031C46B8682C49FDF7CEFE0346002B02D14FF000031C464B
S32D0000F5E8E3B2002B05D0B8682649FDF7FBFB0346BB60B868FDF7ECFE03464FF00102144618462149FDF796FE50
S32D0000F6100346002B02D14FF000031C46E3B2002B03D04FF00103FB7320E04FF001031C46B8681849FDF7A0FEE5
S32D0000F6380346002B02D14FF000031C46E3B2002B04D04FF01400FFF747FF03E06FF01300FFF742FF4FF01900B2
S32D0000F66003F02EFE4FF00000FFF73AFF4FF0640003F026FEFB7B83F00103DBB2002B99D107F11407BD4690BDC3
S32D0000F688000034430000B4430000003F0000000090B585B000AF4FF00003FB7341F25413C1F6FF731B682D4813
S32D0000F6B01946FDF79BFB0346BB6049E041F2A440C1F6FF7009F0C0FB03461846B968FDF78DFB03467B6078687D
S32D0000F6D8FDF77EFE03464FF00102144618462049FDF728FE0346002B02D14FF000031C46E3B2002B03D04FF011
S32D0000F7000103FB7320E04FF001031C4678681749FDF732FE0346002B02D14FF000031C46E3B2002B04D04FF0A2
S32D0000F7280F00FFF7D9FE03E06FF00E00FFF7D4FE4FF0190003F0C0FD4FF00000FFF7CCFE4FF0640003F0B8FD6D
S32D0000F750FB7B83F00103DBB2002BAFD107F11407BD4690BD000034430000003F0000000090B587B000AF41F2EF
S32D0000F7783010C1F6FF70AE4901F0AAF941F23810C1F6FF70AB4901F0A3F94FF4FA7003F093FD6FF04A037B6198
S32D0000F7A04FF04B033B61A64BFB6003F009FE0346BB6003F005FE03467B6043E041F2A440C1F6FF7009F040FBBA
S32D0000F7C8034618469D49FDF717FC0346FB609C48F968FDF707FB03461846FDF7D3FD03467B619848F968FDF7DB
S32D0000F7F0FDFA03461846FDF7C9FD03463B6141F28440C1F6FF7007F03FFE02460B464FF001010C46104619467C
S32D0000F81885A3D3E90023FDF73FFA0346002B02D14FF000031C46E3B2002B03D003F0C4FD03467B604FF03200C7
S32D0000F84003F03EFD03F0BCFD0246BB68D21A40F2CF739A428CBF00230123DBB2002BADD14FF01900FFF7F8FD0E
S32D0000F8684FF4FA7003F028FD6FF01800FFF7F0FD03E04FF0320003F01FFD41F2A440C1F6FF7009F0CDFA0346AA
S32D0000F8904FF00102144618466949FDF74FFD0346002B02D14FF000031C46E3B2002BE4D103E04FF0320003F0B7
S32D0000F8B803FD41F2A440C1F6FF7009F0B1FA03464FF00102144618465B49FDF733FD0346002B02D14FF00003AD
S32D0000F8E01C46E3B2002BE4D14FF00000FFF7B4FD41F25413C1F6FF731B681846FFF752FE6FF00E00FFF7A8FD4B
S32D0000F90841F2A440C1F6FF7009F07AFA034618464D49FDF767FA03461A4641F24C13C1F6FF731A601BE06FF05D
S32D0000F9300E00FFF791FD4FF0320003F0C1FC4FF00000FFF789FD4FF0320003F0B9FC41F2A440C1F6FF7009F0EC
S32D0000F95857FA024641F24C13C1F6FF731A6041F24C13C1F6FF731B684FF00102144618463649FDF7DFFC0346E4
S32D0000F980002B02D14FF000031C46E3B2002BCED14FF4FA7003F094FC4FF00000FFF75CFD41F2A440C1F6FF705D
S32D0000F9A809F03EFA034618462949FDF71BFA03461A4641F25013C1F6FF731A601BE06FF00E00FFF745FD4FF01D
S32D0000F9D0320003F075FC4FF00000FFF73DFD4FF0320003F06DFC41F2A440C1F6FF7009F01BFA024641F250130E
S32D0000F9F8C1F6FF731A6041F25013C1F6FF731B684FF00102144618461049FDF793FC0346002B02D14FF000039D
S32D0000FA201C46E3B2002BCED107F11C07BD4690BD9A9999999999C93F000048C200004842000000000000804099
S32D0000FA48000096C2000096420000EC41000050C200005042AFF3008098B500AF41F24810C1F6FF7004F0BCF818
S32D0000FA7003461846FCF730FE02460B464FF001010C46104619461CA3D3E90023FDF708F90346002B02D14FF0A6
S32D0000FA9800031C46E3B2002B02D04FF0000323E041F24810C1F6FF7004F09AF803461846FCF70EFE02460B468E
S32D0000FAC04FF001010C46104619460DA3D3E90023FDF7E6F80346002B02D14FF000031C46E3B2002B02D04FF0B3
S32D0000FAE8010301E04FF00203184698BDAFF300809A9999999999F93F666666666666EE3F80B582B000AF4FF03D
S32D0000FB1000037B604FF000033B6040F20443C1F6FF731B681846FDF717FA034641F22410C1F6FF70194604F05B
S32D0000FB385BFC4FF0FA0003F0BFFB4B48FFF770F841F24410C1F6FF7004F010F803467B6041F24010C1F6FF70FB
S32D0000FB6004F008F803463B6041F23C40C1F6FF70796805F0B7FD41F23C40C1F6FF70396805F0B0FD40F20043B3
S32D0000FB88C1F6FF731B681846FDF7E2F9034641F22410C1F6FF70194604F026FC4FF0FA0003F08AFB41F24410F3
S32D0000FBB0C1F6FF7003F0F2FF41F24010C1F6FF7003F0ECFF4FF0190003F07AFB7A683B689A4224DD41F23810F9
S32D0000FBD8C1F6FF70254900F07BFF03E04FF00A0003F06AFB41F24010C1F6FF7003F0BEFF024679683B68CB1A73
S32D0000FC009A42ACBF00230123DBB2002BEAD141F23810C1F6FF70184900F05EFF23E041F23010C1F6FF7013498E
S32D0000FC2800F056FF03E04FF00A0003F045FB41F24410C1F6FF7003F099FF024639687B68CB1A9A42ACBF0023B7
S32D0000FC500123DBB2002BEAD141F23010C1F6FF70054900F039FF07F10807BD4680BD00BF00001C4100009041AC
S32D0000FC780000000000000000B0B588B000AF41F22410C1F6FF7040F2E22104F06FFB41F22410C1F6FF7040F62F
S32D0000FCA0C41104F085FB41F22410C1F6FF70DFF8081504F09DFB41F2A440C1F6FF7008F0D3FBDFF8F834FB617E
S32D0000FCC8DFF8F034BB6141F23C40C1F6FF704FF0000105F0EBF841F23C40C1F6FF704FF0010105F041F94FF086
S32D0000FCF0FA0003F0E5FA4FF00003FB754FF00003BB7523E207F104023B4641F23C40C1F6FF7011461A4605F0F1
S32D0000FD186FFA0346002B17D07B684FF0010214461846DFF89414FDF723FB0346002B02D14FF000031C46E3B20B
S32D0000FD40002B02D0FFF7E0FE02E04FF00103FB75BB7D002B00F0D58041F23C40C1F6FF704FF0000105F0A6F8DF
S32D0000FD6841F23C40C1F6FF704AF28821C0F2010105F0A0FC4FF000037B75AEE041F23C40C1F6FF704AF29421E8
S32D0000FD90C0F201014FF002024FF0000305F060FB41F2A440C1F6FF7009F02EF8034641F23C40C1F6FF701946E3
S32D0000FDB84FF002024FF0020305F08EFB41F23C40C1F6FF704AF2A021C0F201014FF004024FF0000305F040FBDB
S32D0000FDE041F2A440C1F6FF7009F01EF8034641F23C40C1F6FF7019464FF004024FF0020305F06EFB41F23C4096
S32D0000FE08C1F6FF704AF2A021C0F201014FF006024FF0000305F020FB41F2A440C1F6FF7008F0FEFF034641F2AE
S32D0000FE303C40C1F6FF7019464FF006024FF0020305F04EFB07F104023B4641F23C40C1F6FF7011461A4605F0DA
S32D0000FE58CFF90346002B3CD04FF001037B7541F2A440C1F6FF7008F0CBFF03461846FCF72FFC02460B4610464E
S32D0000FE801946CBA3D3E90023FCF7C6FA02460B4610461946FCF756FF0346FB6141F2A440C1F6FF7008F0C0FFC6
S32D0000FEA803461846C549FCF79DFF0346BB6141F2A440C1F6FF7008F0C3FF03461846C049FCF790FF03461A46B1
S32D0000FED041F25413C1F6FF731A604FF0640003F0EFF97B7D83F00103DBB2002B7FF44AAF4FF00003BB7504E060
S32D0000FEF84FF00A0003F0E0F900E000BF07F104023B4641F23C40C1F6FF7011461A4605F06FF90346002BEBD190
S32D0000FF2041F23C40C1F6FF704AF29421C0F201014FF000024FF0000305F092FA41F2A440C1F6FF7008F060FFA1
S32D0000FF48034641F23C40C1F6FF7019464FF000024FF0020305F0C0FA41F23C40C1F6FF704AF2A021C0F2010154
S32D0000FF704FF002024FF0000305F072FA41F2A440C1F6FF7008F050FF034641F23C40C1F6FF7019464FF0020239
S32D0000FF984FF0020305F0A0FA41F23C40C1F6FF704AF2AC21C0F201014FF004024FF0000305F052FA41F2A440F7
S32D0000FFC0C1F6FF7008F040FF034641F23C40C1F6FF7019464FF004024FF0020305F080FA41F23C40C1F6FF706C
S32D0000FFE84AF2B821C0F201014FF008024FF0000305F032FA41F24410C1F6FF7003F0B6FD034641F23C40C1F674
S32D00010010FF7019464FF008024FF0020305F040FA41F23C40C1F6FF704AF2C421C0F201014FF00A024FF0000300
S32D0001003805F012FA41F24010C1F6FF7003F096FD034641F23C40C1F6FF7019464FF00A024FF0020305F020FA4E
S32D0001006041F23C40C1F6FF704AF2D021C0F201014FF00C024FF0000305F0F2F941F24810C1F6FF7003F0B0FDFB
S32D00010088034641F23C40C1F6FF7019464FF00C024FF0020305F020FA41F23C40C1F6FF704AF2DC21C0F201016A
S32D000100B04FF00B024FF00C0305F0D2F941F23C40C1F6FF70F9694FF00B024FF00C0305F007FA41F23C40C1F69A
S32D000100D8FF704AF2DC21C0F201014FF00C024FF00C0305F0B9F941F23C40C1F6FF70B9694FF00C024FF00C03C9
S32D0001010005F0EEF941F23C40C1F6FF704AF2E821C0F201014FF000024FF00C0305F0A0F941F28840C1F6FF70E8
S32D0001012807F00CFA034641F23C40C1F6FF7019464FF000024FF00C0305F0CEF94FF0320003F0BAF8FB7D83F0E2
S32D000101500103DBB2002B7FF4D5AD41F23C40C1F6FF704FF0000104F0A5FE41F23C40C1F6FF704FF0010104F019
S32D00010178FBFE41F23C40C1F6FF704AF2F021C0F201014FF00D024FF0000305F065F903F0DBF802460B461046F1
S32D000101A01946FCF7CFFD03463B6113E0AFF300809A999999991940400000A842000000000000204300005042A2
S32D000101C8000034434FF0320003F076F803F0BCF804460D463869FCF77BFA02460B4620462946FCF715F90246BB
S32D000101F00B464FF001010C46104619464FF000024FF0804303F57813FCF72CFD0346002B02D14FF000031C467A
S32D00010218E3B2002B21D041F24810C1F6FF7003F0DFFC03461846FCF753FA02460B464FF001010C4610461946BF
S32D000102408FA3D3E90023FCF72BFD0346002B02D14FF000031C46E3B2002B02D04FF0010301E04FF00003002B55
S32D00010268B0D1FFF789F98648FDF712F9FFF710FA8448FDF7EDFC8448FDF70AF9FFF7ECFB0346012B24D0022BC2
S32D000102902CD141F23C40C1F6FF704AF2FC21C0F2010105F00BFA7B48FDF7E6FA7A48FEF7B3F86FF0130041F6C4
S32D000102B86A01FFF735F97748FDF7EAF87648FDF7B3FE7648FDF7E4F87548FEF7A1F819E041F23C40C1F6FF70E9
S32D000102E04AF20831C0F2010105F0E8F96F48FDF7C3FA6948FEF790F86FF0130041F66A01FFF712F96A48FDF79F
S32D00010308C7F800BF41F25413C1F6FF731B681846FFF744F9FFF728FA41F25013C1F6FF731B681846B969FCF7A4
S32D000103305DFD0346FB605F48F968FCF757FD03461846FDF7A9F85C48FDF786FC5B48FDF7A3F85B48FDF780FCB6
S32D0001035841F24C13C1F6FF731B681846F969FCF741FD0346BB604FF0190002F0A5FF4FF001031C46B868514996
S32D00010380FCF7FAFF0346002B02D14FF000031C46E3B2002B18D041F23C40C1F6FF704AF21431C0F2010105F0D0
S32D000103A889F941F23C40C1F6FF70B96805F0AAF9B868FDF76DF84FF0190002F07DFF1AE041F23C40C1F6FF7008
S32D000103D04AF21C31C0F2010105F070F941F23C40C1F6FF70B96805F091F9BB6883F000431846FDF741FA4FF049
S32D000103F8190002F061FFFFF783FB3148FDF748F83048FEF705F83048FDF742F841F22410C1F6FF702D4903F044
S32D00010420E7FF4FF0FA0002F04BFF41F22410C1F6FF70294903F0DCFF2548FDF7EDFF2748FDF72AF8FFF728F99C
S32D000104484FF00F0040F2E241FFF76AF84FF032004FF4FA71FFF764F84FF0500040F6B831FFF772F84FF00003C9
S32D00010470184607F12007BD46B0BD00BFAFF300809A9999999999F93F00003C413333A340000070410000D04039
S32D00010498CDCC2C410000803FCDCC4C406666A640CDCCBC400000C03F6666E6400000B8406666E63F33330B4178
S32D000104C03333534000000000000000406666B6403333B34000002B430000A8420000404180B582B000AF7860F2
S32D000104E839607B68012B36D13A684FF6FF739A4231D141F22410C1F6FF704FF0000103F017FF41F23010C1F6FF
S32D00010510FF704FF00001144A00F056FA41F23810C1F6FF704FF001010F4A00F04DFA41F24010C1F6FF704FF015
S32D00010538000102F063FF41F24410C1F6FF704FF0080102F05BFF41F24810C1F6FF704FF0070103F033FB07F1ED
S32D000105600807BD4680BD00BF0000104180B500AF4FF001004FF6FF71FFF7B2FF80BD00BF80B500AF41F2087200
S32D00010588C1F6FF7241F22413C1F6FF73D31A194641F22413C1F6FF731A460B4610464FF000011A4608F0E1FD2D
S32D000105B080BD00BF09F056FE00F0B0F9FFF7E0FF09F028FE09F0C4FD09F05CFE00F00CF84FF0000041F258116A
S32D000105D8C1F6FF71FFF750FB0346184608F0A0FD80B500AF4FF4E043C4F204034FF4E042C4F2040202F580525F
S32D0001060002F13802126842F4785203F5805303F138031A6000F02EF900F094F841F28833C1F6FF734FF058026D
S32D000106281A6041F28833C1F6FF731B684FF47A7202FB03F241F28433C1F6FF731A6041F28433C1F6FF731B684B
S32D000106501A464FF4E043C4F2040303F5825303F104031B6803F070634FEA136303F10103B2FBF3F31A4641F21A
S32D000106788C33C1F6FF731A604FF4E043C4F204034FF4E042C4F2040202F5805202F13C02126842F0225203F59B
S32D000106A0805303F13C031A604FF4E043C4F204034FF4E042C4F2040202F5805202F13002126842F0006203F573
S32D000106C8805303F130031A604FF45043C4F203034FF480721A614FF0640002F081FC4FF45043C4F203034FF466
S32D000106F05042C4F20302526922F010025A614FF45043C4F203034FF000021A604FF45043C4F203034FF01002C4
S32D000107185A6103F097FB03F03FFC41F28030C1F6FF7002F0E1FC41F23C40C1F6FF7004F01FFA41F2883002F0AD
S32D00010740BFFD80BD80B400AF4FF48043C4F206034FF000025A704FF48043C4F206034FF098021A704FF48043B0
S32D00010768C4F206039B79DBB203F01003002B0CBF00230123DBB2002BF0D14FF48043C4F206039B79DBB203F0ED
S32D000107900C034FEA9303022B0CBF00230123DBB2002BEED14FF48043C4F206034FF018021A714FF48043C4F241
S32D000107B806034FF000025A714FF4E043C4F2040303F5825303F104034FF00002C0F213121A604FF48043C4F2C4
S32D000107E006034FF054025A7100BF4FF48043C4F206039B79DBB203F02003002B14BF00230123DBB2002BF0D188
S32D0001080800BF4FF48043C4F206039B79DBB203F04003002B14BF00230123DBB2002BF0D14FF48043C4F20603E3
S32D000108304FF48042C4F206021278D2B202F03F02D2B21A704FF48043C4F206039B79DBB203F00C034FEA930350
S32D00010858032B0CBF00230123DBB2002BEED14FF000031846BD4680BC704700BF80B400AF4FF44043C4F20403FF
S32D000108804FF480725A634FF2C003C4F20F034FF2C002C4F20F02526942F400525A614FF2C003C4F20F034FF2B6
S32D000108A8C002C4F20F02126842F400521A604FF44043C4F2040340F20312C0F20A021A634FF46143CEF200036D
S32D000108D04FF46142CEF20002D2F8882142F08062C3F888214FF46143CEF200034FF46142CEF20002926842F0E8
S32D000108F880629A60BD4680BC704700BF80B483B000AF7860FEE700BF80B400AF00BEBD4680BC704780B400AF34
S32D000109204FF0E0224CF20003C0F20003C2F8083D4FF40053C4F205034CF22052DA814FF40053C4F205034DF67C
S32D000109482812DA814FF40053C4F205034FF0D2021A80BD4680BC704780B500AF4FF44043C4F20403D3F8A030F2
S32D0001097003F48053002B0CBF00230123DBB2002B1FD04FF44043C4F204034FF44042C4F20402D2F8A02022F406
S32D000109988052C3F8A02041F2C440C1F6FF7008F045FB4FF2C003C4F20F034FF2C002C4F20F02126822F40052D6
S32D000109C01A6080BD0000000090B585B000AFF8600B467A60FB72FB68FA7A1A71FB684FF000025A714FF0010324
S32D000109E81C4678682049FCF7C3FC0346002B02D14FF000031C46E3B2002B02D01A4B7B6011E04FF001031C4630
S32D00010A1078681849FCF79CFC0346002B02D14FF000031C46E3B2002B01D0124B7B607868FBF752FE02460B467C
S32D00010A38104619460AA3D3E90023FBF79DFE02460B4610461946FCF779F90246FB681A60FB68184607F1140715
S32D00010A60BD4690BDAFF30080ABAAAAAAAAAA2040000040410000803F80B584B000AF786039603B687F2B03DDA2
S32D00010A884FF07F03FB7309E03B6813F1800F03DA4FF08003FB7301E03B68FB737B685B79FA7B9A420FD07B6828
S32D00010AB0FA7B5A717B681A79FB7B41F28030C1F6FF7011461A464FF01E0302F05BFB07F11007BD4680BD00BF75
S32D00010AD8B0B584B000AF786039604FF001031C4638684D49FCF726FC0346002B02D14FF000031C46E3B2002B9B
S32D00010B0002D0474B3B6011E04FF001031C4638684449FCF731FC0346002B02D14FF000031C46E3B2002B01D068
S32D00010B283E4B3B603868FBF7D3FD04460D467B681B681846FBF7CCFD02460B46104619464FF000024FF080436B
S32D00010B5003F5B203FBF73EFF02460B4620462946FBF70EFE02460B4610461946FCF7EAF803463B604FF00103E4
S32D00010B781C4638682A49FCF7F1FB0346002B02D14FF000031C46E3B2002B14D03868FBF79FFD02460B4610464E
S32D00010BA019461DA3D3E90023FBF7EAFD02460B4610461946FCF77EF80346FB6022E03868FBF78AFD02460B4640
S32D00010BC8104619464FF000024FF0804303F5C003FBF7D2FD02460B46104619464FF000024FF0804303F5B2034C
S32D00010BF0FBF7F0FE02460B4610461946FCF75AF80346FB607868F968FFF736FF07F11007BD46B0BDAFF30080B2
S32D00010C1852B81E85EB51F43F0000C8C20000C84200000000AFF3008080B485B000AF02460B46FA71BB71BB795F
S32D00010C40002B07D141F25C13C1F6FF734FF000021A7006E041F25C13C1F6FF734FF001021A704FF03803FB7387
S32D00010C6841F25C13C1F6FF731A78FB7B1343FB734FF4C043C4F206034FF4C042C4F206029278D2B242F01002EC
S32D00010C90D2B29A704FF4C043C4F206034FF4C042C4F206029278D2B242F02002D2B29A704FF4C043C4F206032A
S32D00010CB8FA7B1A7107F11407BD4680BC704700BF80B483B000AF4FF001037B6004E000BF7B6803F101037B60B8
S32D00010CE07B68312BCCBF00230123DBB2002BF2D107F10C07BD4680BC704700BF80B584B000AF0346FB7141F299
S32D00010D085D13C1F6FF731B7818464FF00001FFF78BFF4FF4C043C4F20603DB78DBB203F00203002B14BF002374
S32D00010D300123DBB2002BF0D14FF4C043C4F206034FF4C042C4F20602D278D2B242F00202D2B2DA704FF4C043D7
S32D00010D58C4F20603FA791A714FF4C043C4F20603DB78DBB203F00203002B14BF00230123DBB2002BF0D14FF4D1
S32D00010D80C043C4F206034FF4C042C4F20602D278D2B242F00202D2B2DA704FF4C043C4F206034FF4C042C4F2AD
S32D00010DA806029278D2B242F00402D2B29A704FF4C043C4F206034FF039021A714FF4C043C4F20603DB78DBB2D1
S32D00010DD003F00203002B14BF00230123DBB2002BF0D14FF4C043C4F206034FF4C042C4F20602D278D2B242F036
S32D00010DF80202D2B2DA704FF4C043C4F206034FF4C042C4F206029278D2B222F01002D2B29A704FF4C043C4F2B6
S32D00010E2006034FF4C042C4F206029278D2B242F00802D2B29A704FF4C043C4F206031B79FB724FF00003FB609C
S32D00010E4803E0FB6803F10103FB60FA6841F287339A428CBF00230123DBB2002BF1D14FF4C043C4F20603DB7853
S32D00010E70DBB203F00203002B14BF00230123DBB2002BF0D14FF4C043C4F206034FF4C042C4F20602D278D2B23A
S32D00010E9842F00202D2B2DA704FF4C043C4F206034FF4C042C4F206029278D2B222F02002D2B29A704FF4C04389
S32D00010EC0C4F206034FF4C042C4F206029278D2B222F01002D2B29A704FF4C043C4F206031B79FB72FFF7F0FE17
S32D00010EE8FB7A184607F11007BD4680BD80B582B000AF02460B46FA71BB7141F25D13C1F6FF731B7818464FF077
S32D00010F100001FFF78DFE4FF4C043C4F20603DB78DBB203F00203002B14BF00230123DBB2002BF0D14FF4C0434F
S32D00010F38C4F206034FF4C042C4F20602D278D2B242F00202D2B2DA704FF4C043C4F20603FA791A714FF4C043AD
S32D00010F60C4F20603DB78DBB203F00203002B14BF00230123DBB2002BF0D14FF4C043C4F206034FF4C042C4F20D
S32D00010F880602D278D2B242F00202D2B2DA704FF4C043C4F20603BA791A714FF4C043C4F20603DB78DBB203F0C5
S32D00010FB00203002B14BF00230123DBB2002BF0D14FF4C043C4F206034FF4C042C4F20602D278D2B242F0020243
S32D00010FD8D2B2DA704FF4C043C4F206034FF4C042C4F206029278D2B222F02002D2B29A704FF4C043C4F20603BF
S32D000110004FF4C042C4F206029278D2B222F01002D2B29A70FFF758FE07F10807BD4680BD80B582B000AF03468C
S32D00011028FB71FB79184600F06BF807F10807BD4680BD00BF80B582B000AF02460B46FA71BB7100F039F8FB7927
S32D000110504FEA4303DBB21846FFF7E2FFBB791846FFF7DEFF00F03EF807F10807BD4680BD80B500AF4FF0FF003C
S32D0001107800F046F80346184680BD00BF80B584B000AF0346FB7100F017F8FB794FEA4303DBB243F00103DBB268
S32D000110A0DBB21846FFF7BCFFFFF7E2FF0346FB7300F018F8FB7B184607F11007BD4680BD80B400AF4FF240036D
S32D000110C8C4F20F034FF24002C4F20F02926842F480129A60BD4680BC704700BF80B400AF4FF24003C4F20F0347
S32D000110F04FF24002C4F20F02526842F480125A60BD4680BC704700BF80B485B000AF0346FB714FF00003BB7359
S32D0001111803E0FB7B03F10103FB734FF44043C4F20A03DB6A4FF00003002BF2D14FF44043C4F20A034FF440429D
S32D00011140C4F20A02D26A42F00042DA624FF44043C4F20A03FA795A6300BF4FF44043C4F20A03DB6A03F4003362
S32D00011168002B14BF00230123DBB2002BF1D14FF44043C4F20A039B6BBB73BB7B184607F11407BD4680BC70473F
S32D0001119080B582B000AF4FF4E043C4F204034FF4E042C4F2040202F5805202F13002126842F4805203F580539B
S32D000111B803F130031A604FF42043C4F204034FF480721A654FF24003C4F20F034FF24002C4F20F02526942F4C9
S32D000111E080125A61FFF77EFF4FF42043C4F204034FF400725A654FF42043C4F204034FF400729A654FF420438C
S32D00011208C4F204034FF40072DA654FF44043C4F20A034FF44062C8F200021A604FF44043C4F20A034FF0050293
S32D00011230C3F60062DA604FF000037B6007E04FF0FF00FFF7EDFE7B6803F101037B607B68092BCCBF0023012378
S32D00011258DBB2002BEFD104A1D1E9000102F048F807F10807BD4680BD9A9999999999B93F90B486B000AFF86006
S32D00011280B9607A60FA684FF42043C4F206039A4214D14FF4E043C4F204034FF4E042C4F2040202F5805202F1C4
S32D000112A83402126842F4806203F5805303F134031A6083E0FA684FF43043C4F206039A4214D14FF4E043C4F2C8
S32D000112D004034FF4E042C4F2040202F5805202F13402126842F4006203F5805303F134031A6067E0FA684FF467
S32D000112F84043C4F206039A4214D14FF4E043C4F204034FF4E042C4F2040202F5805202F13402126842F480520C
S32D0001132003F5805303F134031A604BE0FA684FF45043C4F206039A4214D14FF4E043C4F204034FF4E042C4F20D
S32D00011348040202F5805202F13402126842F4005203F5805303F134031A602FE0FA684FF42043C4F20E039A4252
S32D0001137014D14FF4E043C4F204034FF4E042C4F2040202F5805202F12802126842F4806203F5805303F12803C3
S32D000113981A6013E04FF4E043C4F204034FF4E042C4F2040202F5805202F12802126842F4006203F5805303F1BE
S32D000113C028031A60FB68DB78DBB223F00C03DAB2FB68DA70FB684FF000029A70BB684FF47A7202FB03F27B68E6
S32D000113E84FEA031392FBF3F39CB2FB681B78DBB223F01F03FB75234603F4F8534FEA2323DBB203F01F03DAB246
S32D00011410FB7D1343DAB2FB681A70E2B2FB685A70BB684FF4FA4202FB03F27B684FEA031392FBF3F39AB22346B7
S32D0001143819464FEAC121CB1A4FEA43139BB2D3189CB2FB689B7ADBB223F01F03FB75E3B203F01F03DAB2FB7DB9
S32D000114601343DAB2FB689A72FB68DB78DBB243F00C03DAB2FB68DA7007F11807BD4690BC704700BF80B483B00B
S32D0001148800AF786000BF7B681B79DBB203F02003002B14BF00230123DBB2002BF3D17B68DB79DBB2184607F1FA
S32D000114B00C07BD4680BC704780B483B000AF78600B46FB7000BF7B681B79DBB2DBB26FEA0303DBB24FEAD313FF
S32D000114D8DBB2002BF3D17B68FA78DA7107F10C07BD4680BC704700BF80B487B000AFF860B9607A60FB687B6165
S32D0001150007E0BB68DAB27B691A707B6903F101037B617B68002B0CBF00230123DBB27A6802F1FF327A60002B48
S32D00011528EBD107F11C07BD4680BC704780B584B000AF786039607B681B6BFB60FA683B689A4264D07B681B79EE
S32D00011550002B43D07B685A787B6803F1340310461946FA684FF0010301F0ACFB0346002B0CBF00230123DBB266
S32D00011578002B02D04FF001034BE07B684FF000021A717B685A6A7B681B6AD218FB689A4220D97B68DB78FB7256
S32D000115A014E07B681B6AFA68D318FB607B685A787B6803F1340310461946FA684FF0010301F080FBFB7A03F126
S32D000115C8FF33FB72FB7A012B94BF00230123DBB2002BE2D13B68002B19D07B685A787B6803F134031046194680
S32D000115F03A684FF0010301F057FA0346002B0CBF00230123DBB2002B02D04FF0010304E07B683A681A634FF02D
S32D000116180003184607F11007BD4680BD80B584B000AF786078684FF00001FFF77FFF0346FB73FB7B002B40F0E7
S32D00011640AE807B681B78032B40F095807B685B79002B00F090807B684FF000021A637B6803F1340318464FF036
S32D0001166800014FF40072FFF73FFF7B684FF0550283F832227B684FF0AA0283F833227B684FF0520283F834203E
S32D000116907B684FF0520283F835207B684FF0610283F836207B684FF0410283F837207B684FF0720283F818220D
S32D000116B87B684FF0720283F819227B684FF0410283F81A227B684FF0610283F81B227B681B69DAB27B6883F80D
S32D000116E01C227B681B699BB24FEA2323DAB27B6883F81D227B681B694FEA1343DAB27B6883F81E227B681B69BA
S32D000117084FEA1363DAB27B6883F81F227B68DB68DAB27B6883F820227B68DB689BB24FEA2323DAB27B6883F8AA
S32D0001173021227B68DB684FEA1343DAB27B6883F822227B68DB684FEA1363DAB27B6883F823227B6859787B68C9
S32D0001175803F134027B685B69084611461A464FF0010301F0ABFA7B684FF000025A717B685B7818464FF0000170
S32D000117804FF0000201F084FB0346002B0CBF00230123DBB2002B02D04FF00103FB73FB7B184607F11007BD46E2
S32D000117A880BD00BF80B582B000AF78600B467B807B68002B08D07B681B78002B04D07B68DB887A889A4202D08B
S32D000117D04FF009030FE07B685B78184601F0ECFB034603F00103DBB2002B02D04FF0030301E04FF00003184634
S32D000117F807F10807BD4680BD80B586B000AF78607B681A687B689B8810461946FFF7CAFF0346FB75FB7D002B4E
S32D0001182040F0C8807B689B7903F02003002B00F0C1807B689B7903F04003002B20D07B681B6859787B6803F162
S32D0001184828027B689B69084611461A464FF0010301F034FA0346002B0CBF00230123DBB2002B02D04FF00103A6
S32D00011870A1E07B689B7923F04003DAB27B689A717B681A687B68DB6910461946FFF752FE0346FB75FB7D002B1E
S32D0001189840F08C807B681B6A3B613B6903F10B033A6902F10B02127842F02002D2B21A703B6903F11C037A6813
S32D000118C0D268D2B21A703B6903F11D037A68D26892B24FEA2222D2B21A703B6903F11E037A68D2684FEA1242AC
S32D000118E8D2B21A703B6903F11F037A68D2684FEA1262D2B21A703B6903F11A037A681269D2B21A703B6903F17A
S32D000119101B037A68126992B24FEA2222D2B21A703B6903F114037A6812694FEA1242D2B21A703B6903F1150307
S32D000119387A6812694FEA124292B24FEA2222D2B21A704FF00003FB603B6903F11603FA68D2B21A703B6903F171
S32D000119601703FA6892B24FEA2222D2B21A703B6903F11803FA684FEA1242D2B21A703B6903F11903FA684FEA0E
S32D000119881262D2B21A707B689B7923F02003DAB27B689A717B681B684FF001021A717B681B681846FFF73AFEE2
S32D000119B00346FB75FB7D184607F11807BD4680BD80B584B000AF78607868FFF719FF0346FB73FB7B002B03D118
S32D000119D87B684FF000021A60FB7B184607F11007BD4680BD80B588B000AF786039604FF080033B614FF00F03E3
S32D00011A00FB604FF0FF337B614FF00203FB612AE04FF00103BB611AE0FB69BA6902FB03F33A6802FB03F27B681B
S32D00011A28D31ABB60BB68002B09DBBA687B699A4205D2BB687B61FB693B61BB69FB60BB6903F10103BB61BB69C2
S32D00011A50102B8CBF00230123DBB2002BDCD1FB694FEA4303FB61FB69B3F5807F8CBF00230123DBB2002BCBD105
S32D00011A784FF48053C4F20B034FF48052C4F20B02D26A22F00802DA624FF48053C4F20B03DB6A1A464FF00F0329
S32D00011AA0CFF6F0731340BB614FF48053C4F20B033A694FEA52024FEA02224FEA02424FEA1242F96801F1FF318C
S32D00011AC84FEA0111C9B21143BA690A4342F46022DA6203E04FF00A0001F0EEFB4FF48053C4F20B035B6A03F0D9
S32D00011AF00803002B14BF00230123DBB2002BEDD14FF48053C4F20B034FF48052C4F20B02D26A42F00802DA629B
S32D00011B184FF48053C4F20B034FF48052C4F20B02126B42F480121A6307F12007BD4680BD80B582B000AF7860DD
S32D00011B4039607B684FF000021A604FF48053C4F20B034FF40042C0F20012DA624FF48053C4F20B03DB6A03F0CE
S32D00011B688073002B0CBF00230123DBB2002BF1D14FF48053C4F20B034FF00002C3F8C0204FF48053C4F20B0314
S32D00011B904FF481325A604FF48053C4F20B034FF028029A624FF48053C4F20B034FF001125A643B689B68184649
S32D00011BB84CF66041C0F20501FFF714FF4FF48053C4F20B035B6A03F00303002B0CBF00230123DBB2002BF1D10B
S32D00011BE04FF45043C4F2040340F243421A604FF45043C4F2040340F243425A604FF45043C4F204034FF488624E
S32D00011C089A604FF45043C4F2040340F24342DA604FF45043C4F2040340F243421A614FF45043C4F2040340F2A5
S32D00011C3043425A614FF4E043C4F204034FF4E042C4F2040202F5805202F13002126842F4003203F5805303F172
S32D00011C5830031A604FF48053C4F20B034FF6FF721A634FF48053C4F20B034FF0B302C0F27F025A634FF48053CF
S32D00011C80C4F20B034FF48052C4F20B02D26A42F00062DA624FF48053C4F20B03DB6A03F00063002B0CBF0023FF
S32D00011CA80123DBB2002BF1D14FF48053C4F20B035B6A03F48033002B0CBF00230123DBB2002B03D07B684FF03C
S32D00011CD001021A604FF48053C4F20B034FF48052C4F20B02126B42F080021A634FF00003184607F10807BD465E
S32D00011CF880BD00BF80B400AF4FF48053C4F20B035B6A1A4640F207331340002B0CBF00230123DBB21846BD46F5
S32D00011D2080BC704780B485B000AF78604FF48053C4F20B031B6B1A467B681340FB60FB68002B14BF00230123B8
S32D00011D48DBB2002BEED1FB68184607F11407BD4680BC704780B584B000AF78607B681B7803F03F024AF21863DA
S32D00011D70C0F2010353F82230FB60FB68002B06D17B681B78002B02D04FF0010330E14FF48053C4F20B034FF44D
S32D00011D988052C4F20B02126B42F080021A634FF48053C4F20B035B6A03F00103DBB2002BF5D14FF48053C4F2F9
S32D00011DC00B037A6852689A60FB6823F44003FB607B685B784FEA835303F44003FA681343FB607B685B78022B43
S32D00011DE803D1FB6843F40013FB607B685B78042B16D1FB6803F44033B3F5003F08D1FB6823F44033FB60FB68EC
S32D00011E1043F44033FB6007E0FB6823F44033FB60FB6843F40033FB604FF48053C4F20B034FF48052C4F20B0295
S32D00011E3852684FEA02424FEA12425A607B68DB68002B32D0FB6803F44033B3F5403F03D0FB6843F40013FB60DB
S32D00011E607B681B7A002B03D0FB6843F01003FB607B68DB68012B03D9FB6843F02003FB607B68DB68B3F1FF3F8F
S32D00011E8813D04FF48053C4F20B034FF48052C4F20B02526811467A68D2684FEA02420A435A60FB6843F002034A
S32D00011EB0FB604FF48053C4F20B034FF000021A604FF48053C4F20B03FA68DA604FF00100C0F20E00FFF726FF82
S32D00011ED80346012B0CBF00230123DBB2002B10D04FF48053C4F20B034FF48052C4F20B02126B42F4702242F093
S32D00011F0001021A634FF0010372E04FF48053C4F20B031B6B03F08003002B0CBF00230123DBB2002B0ED04FF4B1
S32D00011F288053C4F20B034FF48052C4F20B02126B42F001121A634FF0010355E04FF48053C4F20B031B6B03F40D
S32D00011F508033002B0CBF00230123DBB2002B0ED04FF48053C4F20B034FF48052C4F20B02126B42F001121A63EB
S32D00011F784FF0FF3338E0FB6803F44033002B25D04FF48053C4F20B031B691A467B681A61FB6803F44033B3F533
S32D00011FA0803F17D14FF48053C4F20B035B691A467B685A614FF48053C4F20B039B691A467B689A614FF480539D
S32D00011FC8C4F20B03DB691A467B68DA614FF48053C4F20B034FF48052C4F20B02126B42F001021A634FF0000341
S32D00011FF0184607F11007BD4680BD00BF80B592B000AF786039604FF00003FB633B68BB6341F27413C1F6FF737B
S32D000120187B637B6B002B03D140F6012300F0A0BC41F27833C1F6FF733B633B6B002B03D140F60B2300F094BC42
S32D000120403B6B1B68FB62FB6A002B03D140F60B2300F08ABC7B6841F20432934200F0388241F2043293421BD8F1
S32D0001206841F20132934238D041F20132934207D8032B00F03D84092B00F0298400F066BC41F20232934200F0FE
S32D00012090128241F20332934200F0BE8300F05ABC41F20732934200F04B8341F2073293420BD841F205329342B7
S32D000120B800F0348241F20632934200F0108300F045BC41F20832934200F0B68241F20932934200F0C48200F0CC
S32D000120E039BC786B4AF20C61C0F20101FFF724FD0346FB63FB6B002B40F030844FF0000387F847304FF00003EF
S32D0001210887F82B304FF0000387F82A304FF0000387F829304FF0000387F846304FF0000387F828304FF0000307
S32D000121303B724FF000037B724FF00003FB604FF000033B744FF000037B6107F108031846FFF704FE0346002B2B
S32D000121580CBF00230123DBB2002B03D04FF00103FB63FCE340F24C4001F0A6F84FF008033B724FF000037B72C8
S32D000121804FF4D573FB604FF000033B744FF000037B6107F108031846FFF7E0FD03463B643B6C002B0BD1BA694E
S32D000121A8FB689A4203D04FF00103FB63D7E34FF0010387F846304FF0010387F8283097F82830002B00F0C68001
S32D000121D04FF037033B724FF000037B724FF00003FB604FF000033B744FF000037B6107F108031846FFF7B2FDD9
S32D000121F803463B643B6C002B03D04FF00103FB63ADE34FF069033B724FF000037B724FF00003FB604FF0000394
S32D000122203B744FF000037B6107F108031846FFF795FD0346002B0CBF00230123DBB2002B03D04FF00103FB6327
S32D000122488DE3BB6903F44013002B00F083804FF000033B644FF00A0001F02EF83B6C03F101033B644FF0370373
S32D000122703B724FF000037B724FF00003FB604FF000033B744FF000037B6107F108031846FFF764FD0346002B8B
S32D000122980CBF00230123DBB2002B03D04FF00103FB6336E04FF069033B724FF000037B7297F84630002B05D037
S32D000122C04FF00003C4F23003FB6002E04FF44013FB604FF000033B744FF000037B6107F108031846FFF73AFDF9
S32D000122E80346002B0CBF00230123DBB2002B03D04FF00103FB630CE0BB69002B05DB3B6C632B02D84FF00103A8
S32D0001231001E04FF00003002BA0D1FB6B002B40F01F833B6C632B04D94FF0000387F8463014E04FF0010387F87D
S32D00012338473097F84630002B0CD04FF0000387F84630BB6903F08043002B03D04FF0010387F8463097F82A30C3
S32D00012360002B03D07B6B4FF007021A6097F82930002B03D07B6B4FF008021A6097F82B30002B03D07B6B4FF00C
S32D0001238804021A6097F84730002B0BD07B6B4FF002021A6097F84630002B03D07B6B4FF003021A6097F82B3066
S32D000123B0002B0FD097F84730002B0BD07B6B4FF005021A6097F84630002B03D07B6B4FF006021A604FF45043C2
S32D000123D8C4F204034FF000021A604FF45043C4F204034FF000025A604FF45043C4F204034FF000029A604FF4BF
S32D000124005043C4F204034FF00002DA604FF45043C4F204034FF000021A614FF45043C4F204034FF000025A6104
S32D00012428FB6A9A68FB6A5B6810461946FFF7DAFA4FF45043C4F2040340F243421A604FF45043C4F2040340F2EE
S32D0001245043425A604FF45043C4F204034FF488629A604FF45043C4F2040340F24342DA604FF45043C4F204034D
S32D0001247840F243421A614FF45043C4F2040340F243425A614FF4E043C4F204034FF4E042C4F2040202F58052F1
S32D000124A002F13002126842F4003203F5805303F130031A6057E2B86BFFF750FC03463B643B6C002B00F04E8282
S32D000124C84FF00203FB6349E2BB6B002B03D14FF00C03FB6343E24FF48053C4F20B03DB6A03F47F434FEA1323DB
S32D000124F04FEA43033B644FF48053C4F20B03DB6A03F0F0034FEA131303F101023B6C02FB03F33B64FB6A9A68A4
S32D000125183B6CB2FBF3F2BB6B1A6020E2BB6B002B03D14FF00C03FB6319E2BB6B1B68002B03D14FF00C03FB6399
S32D0001254011E2FFF7DBFB0346002B14BF00230123DBB2002B70D04FF45043C4F204034FF000021A604FF4504303
S32D00012568C4F204034FF000025A604FF45043C4F204034FF000029A604FF45043C4F204034FF00002DA604FF46D
S32D000125905043C4F204034FF000021A614FF45043C4F204034FF000025A61FB6A9A68BB6B1B6810461946FFF7C6
S32D000125B819FA4FF45043C4F2040340F243421A604FF45043C4F2040340F243425A604FF45043C4F204034FF443
S32D000125E088629A604FF45043C4F2040340F24342DA604FF45043C4F2040340F243421A614FF45043C4F204030C
S32D0001260840F243425A614FF4E043C4F204034FF4E042C4F2040202F5805202F13002126842F4003203F5805352
S32D0001263003F130031A6096E140F60A23FB6392E1BB6B002B03D14FF00C03FB638BE14FF48053C4F20B035B6855
S32D000126584FEAC3434FEAD343BA6B13607FE1BB6B002B03D14FF00C03FB6378E1FFF742FB0346002B14BF002306
S32D000126800123DBB2002B2AD0BB6B1A6840F6FF739A4203D94FF00C03FB6364E14FF48053C4F20B034FF480526D
S32D000126A8C4F20B02526822F4FE5222F03F025A604FF48053C4F20B034FF48052C4F20B0252681146BA6B1268B1
S32D000126D04FEAC2424FEAD2420A435A6043E140F60A23FB633FE1BB6B002B03D14FF00C03FB6338E14FF4805345
S32D000126F8C4F20B039B6A03F006034FEA53033B643B6C002B04D1BB6B4FF000021A6026E13B6C012B04D1BB6B63
S32D000127204FF001021A601EE13B6C102B04D1BB6B4FF002021A6016E14FF00503FB6312E1BB6B002B03D14FF042
S32D000127480C03FB630BE1FFF7D5FA0346002B14BF00230123DBB2002B56D0BB6B1B68002B16D14FF48053C4F251
S32D000127700B034FF48052C4F20B02926A22F006029A624FF48053C4F20B034FF48052C4F20B02926A9A62E6E0D2
S32D00012798BB6B1B68012B18D14FF48053C4F20B034FF48052C4F20B02926A22F006029A624FF48053C4F20B03B6
S32D000127C04FF48052C4F20B02926A42F002029A62C9E0BB6B1B68022B16D14FF48053C4F20B034FF48052C4F2D9
S32D000127E80B02926A22F006029A624FF48053C4F20B034FF48052C4F20B02926A9A62AEE04FF00503FB63AAE03C
S32D0001281040F60A23FB63A6E0BB6B002B03D14FF00C03FB639FE04FF48053C4F20B034FF48052C4F20B02D26A14
S32D0001283842F00062DA624FF48053C4F20B03DB6A03F00063002B0CBF00230123DBB2002BF1D14FF48053C4F2A9
S32D000128600B031B6B03F08003002B0CBF00230123DBB2002B0FD04FF48053C4F20B034FF48052C4F20B02126B3C
S32D0001288842F080021A637B6B4FF000021A604FF48053C4F20B035B6A03F48033002B0CBF00230123DBB2002B11
S32D000128B008D07B6B1B68002B08D17B6B4FF001021A6003E07B6B4FF000021A607B6B1A68BB6B1A6047E0BB6B39
S32D000128D84FF01C021A60BB6B03F104034FF004021A60BB6B03F108034FF41E721A6036E04FF00200FFF712FA4F
S32D000129004FF48053C4F20B031B6B03F4E003002B0CBF00230123DBB2002B0ED04FF48053C4F20B034FF48052AC
S32D00012928C4F20B02126B42F4E0021A634FF00403FB634FF48053C4F20B034FF48052C4F20B02126B42F0320272
S32D000129501A6308E040F60923FB6304E000BF02E000BF00E000BFFB6B184607F14807BD4680BD00BF80B489B0D9
S32D0001297800AF786039607B687B6141F27413C1F6FF733B613B69002B02D14FF0000381E03B691B68022B0BD05E
S32D000129A03B691B68032B07D03B691B68072B03D03B691B68082B0DD14FF48053C4F20B035B6A03F00403002BB4
S32D000129C80CBF00230123DBB2002BF1D13B68FB6156E0FB69B3F5007F28BF4FF40073FB60FB6803F103034FEA06
S32D000129F09303BB613CE04FF48053C4F20B031B6B03F4E003002B0CBF00230123DBB2002B10D04FF48053C4F20F
S32D00012A180B034FF48052C4F20B02126B42F4E00242F020021A634FF0000333E04FF48053C4F20B035B6A03F458
S32D00012A400063002B14BF00230123DBB2002BF1D14FF48053C4F20B031B6A1A467B691A607B6903F104037B616D
S32D00012A68BB6903F1FF33BB61BB69002B0CBF00230123DBB2002BBAD1FA69FB68D31AFB61FB69002B0CBF0023A9
S32D00012A900123DBB2002BA0D14FF00103184607F12407BD4680BC704780B58EB000AFB9607A600246FA73BB7318
S32D00012AB841F26013C1F6FF737B63FB7B002B02D1BB7B002B02D14FF0040381E040F20843C1F6FF731B78DBB22D
S32D00012AE003F00103DBB2002B02D04FF0030373E0BB68002B02D14FF000036DE07B6B1B7B002B03D17B684FEA67
S32D00012B0843237B60BB7B012B2CD14FF011033B754FF000037B757B68BB614FF001033B77BB7B3B6207F11403F3
S32D00012B3041F202301946FFF761FA0346002B14BF00230123DBB2002B3ED0B8684FF40071FFF710FF0346002BC0
