S01200002E2E2F464548526F626F742E7331397E
S32D0000C00000000020650A0100C10D0100C10D0100C10D0100C10D0100C10D010000000000000000000000000077
S32D0000C02800000000C10D0100C10D010000000000C10D0100C10D0100C10D0100C10D0100C10D0100C10D010072
S32D0000C050C10D0100C10D0100C10D0100C10D0100C10D0100C10D0100C10D0100C10D0100C10D0100C10D0100AC
S32D0000C078C10D0100C10D0100C10D0100C10D0100C10D0100C10D0100C10D0100C10D0100C10D0100C10D010084
S32D0000C0A0C10D0100C10D0100C10D0100C10D0100C10D0100C10D0100C10D0100C10D0100C10D0100C10D01005C
S32D0000C0C8C10D0100C10D0100C10D0100C10D0100C10D0100C10D0100C10D0100C10D0100C10D0100C10D010034
S32D0000C0F0C10D01003D7D0100C10D0100C10D0100C10D0100C10D0100C10D0100C10D0100C10D0100C10D010020
S32D0000C118C10D0100C10D0100C10D0100C10D0100C10D0100C10D0100C10D0100C10D0100C10D0100C10D0100E3
S32D0000C140C10D0100C10D0100C10D0100C10D01001D440100C10D0100C10D0100C10D0100C10D0100C10D010028
S32D0000C168C10D0100C10D0100C10D0100C10D0100C10D0100C10D0100C10D0100C10D0100C10D0100C10D010093
S32D0000C190C10D0100C10D0100C10D01007D3E0100D13C0100A53D0100110E0100553F0100C10D0100C10D010014
S32D0000C1B8C10D0100C10D0100C10D0100C10D0100C10D0100C10D0100C10D0100C10D0100C10D0100C10D010043
S32D0000C41081F0004102E000BF83F0004330B54FEA41044FEA430594EA050F08BF90EA020F1FBF54EA000C55EAC6
S32D0000C438020C7FEA645C7FEA655C00F0E2804FEA5454D4EB5555B8BF6D420CDD2C4480EA020281EA030382EA0F
S32D0000C460000083EA010180EA020281EA0303362D88BF30BD11F0004F4FEA01314FF4801C4CEA113102D0404263
S32D0000C48861EB410113F0004F4FEA03334CEA133302D0524263EB430394EA050F00F0A780A4F10104D5F1200E8A
S32D0000C4B00DDB02FA0EFC22FA05F2801841F1000103FA0EF2801843FA05F359410EE0A5F120050EF1200E012A2D
S32D0000C4D803FA0EFC28BF4CF0020C43FA05F3C01851EBE37101F0004507D54FF0000EDCF1000C7EEB00006EEB67
S32D0000C5000101B1F5801F1BD3B1F5001F0CD349085FEA30004FEA3C0C04F101044FEA445212F5800F80F09A8000
S32D0000C528BCF1004F08BF5FEA500C50F1000041EB045141EA050130BD5FEA4C0C404141EB010111F4801FA4F114
S32D0000C5500104E9D191F0000F04BF01460020B1FA81F308BF2033A3F10B03B3F120020CDA0C3208DD02F1140C87
S32D0000C578C2F10C0201FA0CF021FA02F10CE002F11402D8BFC2F1200C01FA02F120FA0CFCDCBF41EA0C019040B1
S32D0000C5A0E41AA2BF01EB0451294330BD6FEA04041F3C1CDA0C340EDC04F11404C4F1200220FA04F001FA02F3B6
S32D0000C5C840EA030021FA04F345EA030130BDC4F10C04C4F1200220FA02F001FA04F340EA0300294630BD21FAA8
S32D0000C5F004F0294630BD94F0000F83F4801306BF81F480110134013D4EE77FEA645C18BF7FEA655C29D094EA1C
S32D0000C618050F08BF90EA020F05D054EA000C04BF1946104630BD91EA030F1EBF0021002030BD5FEA545C05D1A3
S32D0000C6404000494128BF41F0004130BD14F580043CBF01F5801130BD01F0004545F0FE4141F470014FF0000031
S32D0000C66830BD7FEA645C1ABF194610467FEA655C1CBF0B46024650EA013406BF52EA033591EA030F41F40021D7
S32D0000C69030BD00BF90F0000F04BF0021704730B54FF4806404F132044FF000054FF0000150E700BF90F0000F66
S32D0000C6B804BF0021704730B54FF4806404F1320410F0004548BF40424FF000013EE700BF42004FEAE2014FEAF9
S32D0000C6E031014FEA02701FBF12F07F4393F07F4F81F06051704792F0000F14BF93F07F4F704730B54FF460741B
S32D0000C70801F0004521F0004120E700BF50EA010208BF704730B54FF000050AE050EA010208BF704730B511F046
S32D0000C730004502D5404261EB41014FF4806404F132045FEA915C3FF4DCAE4FF003025FEADC0C18BF03325FEAA0
S32D0000C758DC0C18BF033202EBDC02C2F1200300FA03FC20FA02F001FA03FE40EA0E0021FA02F11444C1E600BF19
S32D0000C78070B54FF0FF0C4CF4E06C1CEA11541DBF1CEA135594EA0C0F95EA0C0F00F0DEF82C4481EA030621EAF3
S32D0000C7A84C5123EA4C5350EA013518BF52EA033541F4801143F4801338D0A0FB02CE4FF00005E1FB02E506F05F
S32D0000C7D00042E0FB03E54FF00006E1FB03569CF0000F18BF4EF0010EA4F1FF04B6F5007F64F5407404D25FEA0F
S32D0000C7F84E0E6D4146EB060642EAC62141EA55514FEAC52040EA5E504FEACE2EB4F1FD0C88BFBCF5E06F1ED8D2
S32D0000C820BEF1004F08BF5FEA500E50F1000041EB045170BD06F0004646EA010140EA020081EA0301B4EB5C0487
S32D0000C848C2BFD4EB0C0541EA045170BD41F480114FF0000E013C00F3AB8014F1360FDEBF002001F0004170BDF0
S32D0000C870C4F10004203C35DA0C341BDC04F11404C4F1200500FA05F320FA04F001FA05F240EA020001F0004207
S32D0000C89821F0004110EBD37021FA04F642EB06015EEA430E08BF20EAD37070BDC4F10C04C4F1200500FA04F32F
S32D0000C8C020FA05F001FA04F240EA020001F0004110EBD37041F100015EEA430E08BF20EAD37070BDC4F12005C7
S32D0000C8E800FA05F24EEA020E20FA04F301FA05F243EA020321FA04F001F0004121FA04F220EA020000EBD37028
S32D0000C9105EEA430E08BF20EAD37070BD94F0000F0FD101F00046400041EB010111F4801F08BF013CF7D041EA6D
S32D0000C938060195F0000F18BF704703F00046520043EB030313F4801F08BF013DF7D043EA0603704794EA0C0FF1
S32D0000C9600CEA135518BF95EA0C0F0CD050EA410618BF52EA4306D1D181EA030101F000414FF0000070BD50EA38
S32D0000C988410606BF1046194652EA430619D094EA0C0F02D150EA013613D195EA0C0F05D152EA03361CBF10467B
S32D0000C9B019460AD181EA030101F0004141F0FE4141F470014FF0000070BD41F0FE4141F4780170BD70B54FF04D
S32D0000C9D8FF0C4CF4E06C1CEA11541DBF1CEA135594EA0C0F95EA0C0F00F0A7F8A4EB050481EA030E52EA03359B
S32D0000CA004FEA013100F088804FEA03334FF0805545EA131343EA12634FEA022245EA111545EA10654FEA002676
S32D0000CA280EF000419D4208BF964244F1FD0404F5407402D25B084FEA3202B61A65EB03055B084FEA32024FF461
S32D0000CA5080104FF4002CB6EB020E75EB030E22BFB61A754640EA0C005B084FEA3202B6EB020E75EB030E22BF22
S32D0000CA78B61A754640EA5C005B084FEA3202B6EB020E75EB030E22BFB61A754640EA9C005B084FEA3202B6EBEA
S32D0000CAA0020E75EB030E22BFB61A754640EADC0055EA060E18D04FEA051545EA16754FEA06164FEAC30343EAAC
S32D0000CAC852734FEAC2025FEA1C1CC0D111F4801F0BD141EA00014FF000004FF0004CB6E711F4801F04BF0143AE
S32D0000CAF00020B4F1FD0C88BFBCF5E06F3FF6AFAEB5EB030C04BFB6EB020C5FEA500C50F1000041EB045170BDBC
S32D0000CB180EF0004E4EEA113114EB5C04C2BFD4EB0C0541EA045170BD41F480114FF0000E013C90E645EA060EC3
S32D0000CB408DE60CEA135594EA0C0F08BF95EA0C0F3FF43BAF94EA0C0F0AD150EA01347FF434AF95EA0C0F7FF499
S32D0000CB6825AF104619462CE795EA0C0F06D152EA03353FF4FDAE1046194622E750EA410618BF52EA43067FF432
S32D0000CB90C5AE50EA41047FF40DAF52EA43057FF4EBAE12E74FF0FF3C06E000BF4FF0010C02E000BF4FF0010C75
S32D0000CBB84DF804CD4FEA410C7FEA6C5C4FEA430C18BF7FEA6C5C1BD001B050EA410C0CBF52EA430C91EA030FEC
S32D0000CBE002BF90EA020F0020704710F1000F91EA030F58BF994208BF90422CBFD8176FEAE37040F0010070476E
S32D0000CC084FEA410C7FEA6C5C02D150EA013C07D14FEA430C7FEA6C5CD6D152EA033CD3D05DF8040B704700BFCD
S32D0000CC308446104662468C461946634600E000BF01B5FFF7B7FF002848BF10F1000F01BD4DF808EDFFF7F4FF13
S32D0000CC580CBF012000205DF808FB00BF4DF808EDFFF7EAFF34BF012000205DF808FB00BF4DF808EDFFF7E0FF18
S32D0000CC8094BF012000205DF808FB00BF4DF808EDFFF7CEFF94BF012000205DF808FB00BF4DF808EDFFF7C4FF40
S32D0000CCA834BF012000205DF808FB00BF4FEA410212F5001215D211D56FF47873B3EB625212D94FEAC12343F0D6
S32D0000CCD0004343EA505311F0004F23FA02F018BF404270474FF00000704750EA013005D111F0004008BF6FF016
S32D0000CCF8004070474FF00000704700BF4A0011D212F5001211D20DD56FF47873B3EB62520ED44FEAC12343F085
S32D0000CD20004343EA505323FA02F070474FF00000704750EA013002D14FF0FF3070474FF0000070474FEA410241
S32D0000CD48B2F1E04324BFB3F5001CDCF1FE5C0DD901F0004C4FEAC0024CEA5070B2F1004F40EB830008BF20F09E
S32D0000CD700100704711F0804F21D113F13872BCBF01F00040704741F480114FEA5252C2F11802C2F1200C10FAB1
S32D0000CD980CF320FA02F018BF40F001004FEAC1234FEAD32303FA0CFC40EA0C0023FA02F34FEA4303CCE77FEA26
S32D0000CDC0625307D150EA01331EBF4FF0FE4040F44000704701F0004040F0FE4040F40000704700BF80F00040CC
S32D0000CDE802E000BF81F0004142001FBF5FEA410392EA030F7FEA226C7FEA236C6AD04FEA1262D2EB1363C1BF06
S32D0000CE10D218414048404140B8BF5B42192B88BF704710F0004F40F4000020F07F4018BF404211F0004F41F4FA
S32D0000CE38000121F07F4118BF494292EA030F3FD0A2F1010241FA03FC10EB0C00C3F1200301FA03F100F000432B
S32D0000CE6002D5494260EB4000B0F5000F13D3B0F1807F06D340084FEA310102F10102FE2A51D2B1F1004F40EB94
S32D0000CE88C25008BF20F0010040EA03007047490040EB000010F4000FA2F10102EDD1B0FA80FCACF1080CB2EB5F
S32D0000CEB00C0200FA0CF0AABF00EBC25052421843BCBFD0401843704792F0000F81F4000106BF80F400000132EB
S32D0000CED8013BB5E74FEA41037FEA226C18BF7FEA236C21D092EA030F04D092F0000F08BF0846704790EA010FD7
S32D0000CF001CBF0020704712F07F4F04D1400028BF40F00040704712F100723CBF00F50000704700F0004343F0DC
S32D0000CF28FE4040F4000070477FEA226216BF08467FEA23630146420206BF5FEA412390EA010F40F480007047C1
S32D0000CF504FF0000304E000BF10F0004348BF40425FEA000C08BF704743F0964301464FF000001CE050EA010264
S32D0000CF7808BF70474FF000030AE000BF50EA010208BF704711F0004302D5404261EB41015FEA010C02BF84465B
S32D0000CFA00146002043F0B64308BFA3F18053A3F50003BCFA8CF2083AA3EBC25310DB01FA02FC634400FA02FC6B
S32D0000CFC8C2F12002BCF1004F20FA02F243EB020008BF20F00100704702F1200201FA02FCC2F1200250EA4C0034
S32D0000CFF021FA02F243EB020008BF20EADC7070474FF0FF0C1CEAD0521EBF1CEAD15392EA0C0F93EA0C0F6FD019
S32D0000D0181A4480EA010C400218BF5FEA41211ED04FF0006343EA501043EA5111A0FB01310CF00040B1F5000FE7
S32D0000D0403EBF490041EAD3715B0040EA010062F17F02FD2A1DD8B3F1004F40EBC25008BF20F00100704790F058
S32D0000D068000F0CF0004C08BF49024CEA502040EA51207F3AC2BFD2F1FF0340EAC250704740F400004FF0000388
S32D0000D090013A5DDC12F1190FDCBF00F000407047C2F10002410021FA02F1C2F1200200FA02FC5FEA310040F1D5
S32D0000D0B8000053EA4C0308BF20EADC70704792F0000F00F0004C02BF400010F4000F013AF9D040EA0C0093F04C
S32D0000D0E0000F01F0004C02BF490011F4000F013BF9D041EA0C018FE70CEAD15392EA0C0F18BF93EA0C0F0AD00B
S32D0000D10830F0004C18BF31F0004CD8D180EA010000F00040704790F0000F17BF90F0004F084691F0000F91F0BB
S32D0000D130004F14D092EA0C0F01D142020FD193EA0C0F03D14B0218BF084608D180EA010000F0004040F0FE4051
S32D0000D15840F40000704740F0FE4040F4400070474FF0FF0C1CEAD0521EBF1CEAD15392EA0C0F93EA0C0F69D044
S32D0000D180A2EB030280EA010C49024FEA402037D04FF0805343EA111143EA10130CF000408B4238BF5B0042F14E
S32D0000D1A87D024FF4000C8B4224BF5B1A40EA0C00B3EB510F24BFA3EB510340EA5C00B3EB910F24BFA3EB9103A4
S32D0000D1D040EA9C00B3EBD10F24BFA3EBD10340EADC001B0118BF5FEA1C1CE0D1FD2A3FF650AF8B4240EBC25018
S32D0000D1F808BF20F0010070470CF0004C4CEA50207F32C2BFD2F1FF0340EAC250704740F400004FF00003013AF1
S32D0000D22037E792F0000F00F0004C02BF400010F4000F013AF9D040EA0C0093F0000F01F0004C02BF490011F4C9
S32D0000D248000F013BF9D041EA0C0195E70CEAD15392EA0C0F08D142027FF47DAF93EA0C0F7FF470AF084676E7AE
S32D0000D27093EA0C0F04D14B023FF44CAF08466EE730F0004C18BF31F0004CCAD130F000427FF45CAF31F0004376
S32D0000D2987FF43CAF5FE700BF4FF0FF3C06E000BF4FF0010C02E000BF4FF0010C4DF804CD4FEA40024FEA41039F
S32D0000D2C07FEA226C18BF7FEA236C11D001B052EA530C18BF90EA010F58BFB2EB030088BFC81738BF6FEAE1706E
S32D0000D2E818BF40F0010070477FEA226C02D15FEA402C05D17FEA236CE4D15FEA412CE1D05DF8040B704700BF16
S32D0000D310844608466146FFE70FB5FFF7C9FF002848BF10F1000F0FBD4DF808EDFFF7F4FF0CBF012000205DF839
S32D0000D33808FB00BF4DF808EDFFF7EAFF34BF012000205DF808FB00BF4DF808EDFFF7E0FF94BF012000205DF8A9
S32D0000D36008FB00BF4DF808EDFFF7D2FF94BF012000205DF808FB00BF4DF808EDFFF7C8FF34BF012000205DF8B1
S32D0000D38808FB00BF4FEA4002B2F1FE4F0FD34FF09E03B3EB12620DD94FEA002343F0004310F0004F23FA02F060
S32D0000D3B018BF404270474FF00000704712F1610F01D1420205D110F0004008BF6FF0004070474FF00000704797
S32D0000D3D880B483B000AF78607B6823F00043184607F10C07BD4680BC704700BF80B483B000AF786039607B6878
S32D0000D4003A681A607B68184607F10C07BD4680BC704700BF90B587B000AFF860B9607A60B8687968FFF7E2FC96
S32D0000D42803463B61FB681B6818463969FFF7E4FD03467B617869FFF7CBFF03464FF00102144618461049FFF7DC
S32D0000D45093FF0346002B02D14FF000031C46E3B2002B0FD078690A49FFF7CAFD03461C467869FFF7B1FF034626
S32D0000D47820461946FFF774FE03467B617B69184607F11C07BD4690BD0000C8420000000090B58DB000AF786074
S32D0000D4A007F10C031846E049FFF7A4FF07F108031846DE49FFF79EFF4FF0000387F82F30DB4B3B62DA4BFB61B8
S32D0000D4C87868DA49FFF798FD03467B6041F24410C1F6FF7006F0B6FD41F24010C1F6FF7006F0B0FD7DE141F251
S32D0000D4F04010C1F6FF7006F095FD03461846FFF72BFD0346BB6107F10C0318467968BA69FFF780FF03467B61E3
S32D0000D51841F24410C1F6FF7006F080FD044641F24010C1F6FF7006F079FD0346E31A1846FFF70EFD034607F180
S32D0000D54008021046BA491A46FFF764FF03463B6178693969FFF74CFC0346BB6278693969FFF744FC03467B62B6
S32D0000D568B86A396AFFF73EFC03464FF0010214461846AF49FFF7FCFE0346002B02D14FF000031C46E3B2002BCA
S32D0000D59006D0386AA849FFF72BFC0346BB621AE0B86A396AFFF722FC03464FF0010214461846A249FFF7C2FECA
S32D0000D5B80346002B02D14FF000031C46E3B2002B05D0386A9A49FFF70DFC0346BB62786AF969FFF707FC034655
S32D0000D5E04FF00102144618469349FFF7C5FE0346002B02D14FF000031C46E3B2002B06D0F8698D49FFF7F4FBF1
S32D0000D60803467B621AE0786AF969FFF7EBFB03464FF00102144618468649FFF78BFE0346002B02D14FF000039A
S32D0000D6301C46E3B2002B05D0F8697F49FFF7D6FB03467B62B86A7A49FFF76EFE0346002B48D1B86AFFF7C0FE15
S32D0000D65803464FF00102144618467749FFF76AFE0346002B02D14FF000031C46E3B2002B10D0B86A7049FFF7E7
S32D0000D680BFFC03461C46B86AFFF7A6FE034620461946FFF769FD0346BB6223E0B86AFFF79BFE03464FF001024B
S32D0000D6A8144618466549FFF763FE0346002B02D14FF000031C46E3B2002B0FD0B86A5F49FFF79AFC03461C460C
S32D0000D6D0B86AFFF781FE034620461946FFF744FD0346BB62786A5249FFF71EFE0346002B48D1786AFFF770FE88
S32D0000D6F803464FF00102144618464F49FFF71AFE0346002B02D14FF000031C46E3B2002B10D0786A4849FFF727
S32D0000D7206FFC03461C46786AFFF756FE034620461946FFF719FD03467B6223E0786AFFF74BFE03464FF00102AA
S32D0000D748144618463D49FFF713FE0346002B02D14FF000031C46E3B2002B0FD0786A3749FFF74AFC03461C469B
S32D0000D770786AFFF731FE034620461946FFF7F4FC03467B62BB6A83F0004341F23010C1F6FF70194603F0F8FBB1
S32D0000D79841F23810C1F6FF70796A03F0F1FBBB6A3B627B6AFB611CA1D1E9000105F0F8FF7868B969FFF716FB90
S32D0000D7C003464FF00102144618461949FFF7B6FD0346002B02D14FF000031C46E3B2002B03D04FF0010387F8AD
S32D0000D7E82F3097F82F3083F00103DBB2002B7FF47AAE41F23010C1F6FF700B4903F0C0FB41F23810C1F6FF70C0
S32D0000D810074903F0B9FB07F13407BD4690BD00BF7B14AE47E17A943FCDCCCC3E0000003F000000000000E041FC
S32D0000D8380000E0400000E0C0000020410000704290B58DB000AF786007F10C031846E049FFF7CCFD07F1080396
S32D0000D8601846DE49FFF7C6FD4FF0000387F82F30DB4B3B62DA4BFB617868DA49FFF7C0FB03467B6041F2441099
S32D0000D888C1F6FF7006F0DEFB41F24010C1F6FF7006F0D8FB7DE141F24010C1F6FF7006F0BDFB03461846FFF7B9
S32D0000D8B053FB0346BB6107F10C0318467968BA69FFF7A8FD03467B6141F24410C1F6FF7006F0A8FB044641F2AB
S32D0000D8D84010C1F6FF7006F0A1FB0346E31A1846FFF736FB034607F108021046BA491A46FFF78CFD03463B61E7
S32D0000D90078693969FFF774FA0346BB6278693969FFF76CFA03467B62B86A396AFFF766FA03464FF001021446A7
S32D0000D9281846AF49FFF724FD0346002B02D14FF000031C46E3B2002B06D0386AA849FFF753FA0346BB621AE0AD
S32D0000D950B86A396AFFF74AFA03464FF0010214461846A249FFF7EAFC0346002B02D14FF000031C46E3B2002BF5
S32D0000D97805D0386A9A49FFF735FA0346BB62786AF969FFF72FFA03464FF00102144618469349FFF7EDFC0346F2
S32D0000D9A0002B02D14FF000031C46E3B2002B06D0F8698D49FFF71CFA03467B621AE0786AF969FFF713FA03462E
S32D0000D9C84FF00102144618468649FFF7B3FC0346002B02D14FF000031C46E3B2002B05D0F8697F49FFF7FEF92D
S32D0000D9F003467B62B86A7A49FFF796FC0346002B48D1B86AFFF7E8FC03464FF00102144618467749FFF792FC66
S32D0000DA180346002B02D14FF000031C46E3B2002B10D0B86A7049FFF7E7FA03461C46B86AFFF7CEFC0346204667
S32D0000DA401946FFF791FB0346BB6223E0B86AFFF7C3FC03464FF00102144618466549FFF78BFC0346002B02D1E2
S32D0000DA684FF000031C46E3B2002B0FD0B86A5F49FFF7C2FA03461C46B86AFFF7A9FC034620461946FFF76CFBFE
S32D0000DA900346BB62786A5249FFF746FC0346002B48D1786AFFF798FC03464FF00102144618464F49FFF742FC45
S32D0000DAB80346002B02D14FF000031C46E3B2002B10D0786A4849FFF797FA03461C46786AFFF77EFC034620460F
S32D0000DAE01946FFF741FB03467B6223E0786AFFF773FC03464FF00102144618463D49FFF73BFC0346002B02D1DA
S32D0000DB084FF000031C46E3B2002B0FD0786A3749FFF772FA03461C46786AFFF759FC034620461946FFF71CFBF5
S32D0000DB3003467B6241F23010C1F6FF70B96A03F023FA7B6A83F0004341F23810C1F6FF70194603F019FABB6A0F
S32D0000DB583B627B6AFB611CA1D1E9000105F020FE7868B969FFF73EF903464FF00102144618461949FFF7DEFB93
S32D0000DB800346002B02D14FF000031C46E3B2002B03D04FF0010387F82F3097F82F3083F00103DBB2002B7FF448
S32D0000DBA87AAE41F23010C1F6FF700B4903F0E8F941F23810C1F6FF70074903F0E1F907F13407BD4690BD00BF66
S32D0000DBD07B14AE47E17A943FCDCCCC3E0000003F000000000000E0410000E0400000E0C000002041000070429F
S32D0000DBF890B58DB000AF786007F10C031846DE49FFF7F4FB07F108031846DC49FFF7EEFB4FF0000387F82F3000
S32D0000DC20D94B3B62D84BFB617868D849FFF7E8F903467B6041F24410C1F6FF7006F006FA41F24010C1F6FF704E
S32D0000DC4806F000FA7AE141F24010C1F6FF7006F0E5F903461846FFF77BF90346BB6107F10C0318467968BA6907
S32D0000DC70FFF7D0FB03467B6141F24410C1F6FF7006F0D0F9044641F24010C1F6FF7006F0C9F90346E31A1846E5
S32D0000DC98FFF75EF9034607F108021046B8491A46FFF7B4FB03463B6178693969FFF79CF80346BB62786939698F
S32D0000DCC0FFF794F803467B62B86A396AFFF78EF803464FF0010214461846AD49FFF74CFB0346002B02D14FF051
S32D0000DCE800031C46E3B2002B06D0386AA649FFF77BF80346BB621AE0B86A396AFFF772F803464FF001021446AF
S32D0000DD101846A049FFF712FB0346002B02D14FF000031C46E3B2002B05D0386A9849FFF75DF80346BB62786A05
S32D0000DD38F969FFF757F803464FF00102144618469149FFF715FB0346002B02D14FF000031C46E3B2002B06D072
S32D0000DD60F8698B49FFF744F803467B621AE0786AF969FFF73BF803464FF00102144618468449FFF7DBFA03467D
S32D0000DD88002B02D14FF000031C46E3B2002B05D0F8697D49FFF726F803467B62B86A7849FFF7BEFA0346002BD0
S32D0000DDB048D1B86AFFF710FB03464FF00102144618467549FFF7BAFA0346002B02D14FF000031C46E3B2002BB3
S32D0000DDD810D0B86A6E49FFF70FF903461C46B86AFFF7F6FA034620461946FFF7B9F90346BB6223E0B86AFFF77C
S32D0000DE00EBFA03464FF00102144618466349FFF7B3FA0346002B02D14FF000031C46E3B2002B0FD0B86A5D492B
S32D0000DE28FFF7EAF803461C46B86AFFF7D1FA034620461946FFF794F90346BB62786A5049FFF76EFA0346002B22
S32D0000DE5048D1786AFFF7C0FA03464FF00102144618464D49FFF76AFA0346002B02D14FF000031C46E3B2002B1B
S32D0000DE7810D0786A4649FFF7BFF803461C46786AFFF7A6FA034620461946FFF769F903467B6223E0786AFFF7F4
S32D0000DEA09BFA03464FF00102144618463B49FFF763FA0346002B02D14FF000031C46E3B2002B0FD0786A3549BB
S32D0000DEC8FFF79AF803461C46786AFFF781FA034620461946FFF744F903467B6241F23010C1F6FF70B96A03F090
S32D0000DEF04BF841F23810C1F6FF70796A03F044F8BB6A3B627B6AFB611BA1D1E9000105F04BFC7868B969FEF761
S32D0000DF1869FF03464FF00102144618461849FFF709FA0346002B02D14FF000031C46E3B2002B03D04FF0010315
S32D0000DF4087F82F3097F82F3083F00103DBB2002B7FF47DAE41F23010C1F6FF700A4903F013F841F23810C1F6FE
S32D0000DF68FF70074903F00CF807F13407BD4690BD7B14AE47E17A943FCDCCCC3E0000003F000000000000E0419D
S32D0000DF900000E0400000E0C0000080410000704290B58DB000AF786007F10C031846E249FFF720FA07F1080384
S32D0000DFB81846E049FFF71AFA4FF0000387F82F30DD4B3B62DC4BFB617868DC49FFF714F803467B6041F2441090
S32D0000DFE0C1F6FF7006F032F841F24010C1F6FF7006F02CF880E141F24010C1F6FF7006F011F803461846FEF765
S32D0000E008A7FF0346BB6107F10C0318467968BA69FFF7FCF903467B6141F24410C1F6FF7005F0FCFF044641F24C
S32D0000E0304010C1F6FF7005F0F5FF0346E31A1846FEF78AFF034607F108021046BC491A46FFF7E0F903463B6187
S32D0000E05878693969FEF7C8FE0346BB6278693969FEF7C0FE03467B62B86A396AFEF7BAFE03464FF00102144643
S32D0000E0801846B149FFF778F90346002B02D14FF000031C46E3B2002B06D0386AAA49FEF7A7FE0346BB621AE0A3
S32D0000E0A8B86A396AFEF79EFE03464FF0010214461846A449FFF73EF90346002B02D14FF000031C46E3B2002BEC
S32D0000E0D005D0386A9C49FEF789FE0346BB62786AF969FEF783FE03464FF00102144618469549FFF741F9034690
S32D0000E0F8002B02D14FF000031C46E3B2002B06D0F8698F49FEF770FE03467B621AE0786AF969FEF767FE03461F
S32D0000E1204FF00102144618468849FFF707F90346002B02D14FF000031C46E3B2002B05D0F8698149FEF752FE20
S32D0000E14803467B62B86A7C49FFF7EAF80346002B48D1B86AFFF73CF903464FF00102144618467949FFF7E6F811
S32D0000E1700346002B02D14FF000031C46E3B2002B10D0B86A7249FEF73BFF03461C46B86AFFF722F9034620465D
S32D0000E1981946FEF7E5FF0346BB6223E0B86AFFF717F903464FF00102144618466749FFF7DFF80346002B02D189
S32D0000E1C04FF000031C46E3B2002B0FD0B86A6149FEF716FF03461C46B86AFFF7FDF8034620461946FEF7C0FF9E
S32D0000E1E80346BB62786A5449FFF79AF80346002B48D1786AFFF7ECF803464FF00102144618465149FFF796F8F2
S32D0000E2100346002B02D14FF000031C46E3B2002B10D0786A4A49FEF7EBFE03461C46786AFFF7D2F80346204606
S32D0000E2381946FEF795FF03467B6223E0786AFFF7C7F803464FF00102144618463F49FFF78FF80346002B02D181
S32D0000E2604FF000031C46E3B2002B0FD0786A3949FEF7C6FE03461C46786AFFF7ADF8034620461946FEF770FF96
S32D0000E28803467B62BB6A83F0004341F23010C1F6FF70194602F074FE7B6A83F0004341F23810C1F6FF70194670
S32D0000E2B002F06AFEBB6A3B627B6AFB611CA1D1E9000105F071FA7868B969FEF78FFD03464FF001021446184645
S32D0000E2D81949FFF72FF80346002B02D14FF000031C46E3B2002B03D04FF0010387F82F3097F82F3083F0010395
S32D0000E300DBB2002B7FF477AE41F23010C1F6FF700B4902F039FE41F23810C1F6FF70084902F032FE07F1340742
S32D0000E328BD4690BDAFF300807B14AE47E17A943FCDCCCC3E0000003F000000000000E0410000E0400000E0C0E0
S32D0000E350000080410000704290B589B000AF786007F10C0318467A49FFF744F84FF00003FB77784B7B6178689A
S32D0000E3787749FEF741FE03467B6041F24010C1F6FF7005F05FFEC1E041F24010C1F6FF7005F044FE034618463C
S32D0000E3A0FEF7DAFD03463B6107F10C03184679683A69FFF72FF80346BB61B8697969FEF715FD03464FF001029E
S32D0000E3C8144618466349FEF7D3FF0346002B02D14FF000031C46E3B2002B06D078695D49FEF702FD0346BB619B
S32D0000E3F01AE0B8697969FEF7F9FC03464FF00102144618465649FEF799FF0346002B02D14FF000031C46E3B229
S32D0000E418002B05D078694F49FEF7E4FC0346BB61B8694A49FEF77CFF0346002B48D1B869FEF7CEFF03464FF007
S32D0000E4400102144618464749FEF778FF0346002B02D14FF000031C46E3B2002B10D0B8694049FEF7CDFD0346BA
S32D0000E4681C46B869FEF7B4FF034620461946FEF777FE0346BB6123E0B869FEF7A9FF03464FF00102144618467A
S32D0000E4903549FEF771FF0346002B02D14FF000031C46E3B2002B0FD0B8692F49FEF7A8FD03461C46B869FEF7FD
S32D0000E4B88FFF034620461946FEF752FE0346BB6141F23810C1F6FF70B96902F059FDBB697B611BA1D1E900016E
S32D0000E4E005F062F978683969FEF780FC03464FF00102144618461749FEF720FF0346002B02D14FF000031C4629
S32D0000E508E3B2002B02D04FF00103FB77FB7F83F00103DBB2002B7FF437AF41F23010C1F6FF700A4902F02CFD95
S32D0000E53041F23810C1F6FF70064902F025FD07F12407BD4690BD00BF7B14AE47E17A943F9A99193F000000004A
S32D0000E5580000E0410000E0400000E0C00000904100007042AFF3008090B589B000AF786007F10C0318467A49E2
S32D0000E580FEF738FF4FF00003FB77784B7B6178687749FEF735FD03467B6041F24410C1F6FF7005F053FDC1E070
S32D0000E5A841F24410C1F6FF7005F038FD03461846FEF7CEFC03463B6107F10C03184679683A69FEF723FF0346DA
S32D0000E5D0BB61B8697969FEF709FC03464FF00102144618466349FEF7C7FE0346002B02D14FF000031C46E3B2DB
S32D0000E5F8002B06D078695D49FEF7F6FB0346BB611AE0B8697969FEF7EDFB03464FF00102144618465649FEF771
S32D0000E6208DFE0346002B02D14FF000031C46E3B2002B05D078694F49FEF7D8FB0346BB61B8694A49FEF770FE04
S32D0000E6480346002B48D1B869FEF7C2FE03464FF00102144618464749FEF76CFE0346002B02D14FF000031C4624
S32D0000E670E3B2002B10D0B8694049FEF7C1FC03461C46B869FEF7A8FE034620461946FEF76BFD0346BB6123E046
S32D0000E698B869FEF79DFE03464FF00102144618463549FEF765FE0346002B02D14FF000031C46E3B2002B0FD000
S32D0000E6C0B8692F49FEF79CFC03461C46B869FEF783FE034620461946FEF746FD0346BB6141F23010C1F6FF7080
S32D0000E6E8B96902F04DFCBB697B611BA1D1E9000105F056F878683969FEF774FB03464FF0010214461846174964
S32D0000E710FEF714FE0346002B02D14FF000031C46E3B2002B02D04FF00103FB77FB7F83F00103DBB2002B7FF486
S32D0000E73837AF41F23010C1F6FF700A4902F020FC41F23810C1F6FF70064902F019FC07F12407BD4690BD00BFAA
S32D0000E7607B14AE47E17A943F9A99193F000000000000E0410000E0400000E0C0000090410000C841AFF3008071
S32D0000E78890B58DB000AF786007F10C031846E049FEF72CFE07F108031846DE49FEF726FE4FF0000387F82F30EC
S32D0000E7B0DB4B3B62DA4BFB617868DA49FEF720FC03467B6041F24410C1F6FF7005F03EFC41F24010C1F6FF703A
S32D0000E7D805F038FC7DE141F24010C1F6FF7005F01DFC03461846FEF7B3FB0346BB6107F10C0318467968BA69BD
S32D0000E800FEF708FE03467B6141F24410C1F6FF7005F008FC044641F24010C1F6FF7005F001FC0346E31A18469B
S32D0000E828FEF796FB034607F108021046BA491A46FEF7ECFD03463B6178693969FEF7D4FA0346BB627869396946
S32D0000E850FEF7CCFA03467B62B86A396AFEF7C6FA03464FF0010214461846AF49FEF784FD0346002B02D14FF008
S32D0000E87800031C46E3B2002B06D0386AA849FEF7B3FA0346BB621AE0B86A396AFEF7AAFA03464FF0010214469F
S32D0000E8A01846A249FEF74AFD0346002B02D14FF000031C46E3B2002B05D0386A9A49FEF795FA0346BB62786AF4
S32D0000E8C8F969FEF78FFA03464FF00102144618469349FEF74DFD0346002B02D14FF000031C46E3B2002B06D063
S32D0000E8F0F8698D49FEF77CFA03467B621AE0786AF969FEF773FA03464FF00102144618468649FEF713FD034632
S32D0000E918002B02D14FF000031C46E3B2002B05D0F8697F49FEF75EFA03467B62B86A7A49FEF7F6FC0346002BBE
S32D0000E94048D1B86AFEF748FD03464FF00102144618467749FEF7F2FC0346002B02D14FF000031C46E3B2002BA3
S32D0000E96810D0B86A7049FEF747FB03461C46B86AFEF72EFD034620461946FEF7F1FB0346BB6223E0B86AFEF733
S32D0000E99023FD03464FF00102144618466549FEF7EBFC0346002B02D14FF000031C46E3B2002B0FD0B86A5F4918
S32D0000E9B8FEF722FB03461C46B86AFEF709FD034620461946FEF7CCFB0346BB62786A5249FEF7A6FC0346002B9F
S32D0000E9E048D1786AFEF7F8FC03464FF00102144618464F49FEF7A2FC0346002B02D14FF000031C46E3B2002B0C
S32D0000EA0810D0786A4849FEF7F7FA03461C46786AFEF7DEFC034620461946FEF7A1FB03467B6223E0786AFEF7AC
S32D0000EA30D3FC03464FF00102144618463D49FEF79BFC0346002B02D14FF000031C46E3B2002B0FD0786A3749A8
S32D0000EA58FEF7D2FA03461C46786AFEF7B9FC034620461946FEF77CFB03467B6241F23010C1F6FF70B96A02F04A
S32D0000EA8083FA7B6A83F0004341F23810C1F6FF70194602F079FABB6A3B627B6AFB611CA1D1E9000104F080FEFE
S32D0000EAA87868B969FEF79EF903464FF00102144618461949FEF73EFC0346002B02D14FF000031C46E3B2002B33
S32D0000EAD003D04FF0010387F82F3097F82F3083F00103DBB2002B7FF47AAE41F23010C1F6FF700B4902F048FA4B
S32D0000EAF841F23810C1F6FF70074902F041FA07F13407BD4690BD00BF7B14AE47E17A943FCDCCCC3E0000003FFC
S32D0000EB20000000000000E0410000E0400000E0C0000020410000B442B0B58EB000AF786007F110031846FC49B7
S32D0000EB48FEF754FC07F10C031846FA49FEF74EFC4FF0000387F83730F74BBB62F64B7B6204F04AFE02460B46F9
S32D0000EB7010461946FEF7E6F803463B627868F149FEF73EFA03467B6041F24410C1F6FF7005F05CFA41F2401023
S32D0000EB98C1F6FF7005F056FAA9E141F24010C1F6FF7005F03BFA03461846FEF7D1F90346FB6107F11003184613
S32D0000EBC07968FA69FEF726FC0346BB6141F24410C1F6FF7005F026FA044641F24010C1F6FF7005F01FFA03465B
S32D0000EBE8E31A1846FEF7B4F9034607F10C021046D1491A46FEF70AFC03467B61B8697969FEF7F2F803463B63FA
S32D0000EC10B8697969FEF7EAF80346FB62386BB96AFEF7E4F803464FF0010214461846C649FEF7A2FB0346002B67
S32D0000EC3802D14FF000031C46E3B2002B06D0B86ABF49FEF7D1F803463B631AE0386BB96AFEF7C8F803464FF0D5
S32D0000EC60010214461846B949FEF768FB0346002B02D14FF000031C46E3B2002B05D0B86AB149FEF7B3F80346EC
S32D0000EC883B63F86A796AFEF7ADF803464FF0010214461846AA49FEF76BFB0346002B02D14FF000031C46E3B2D0
S32D0000ECB0002B06D0786AA449FEF79AF80346FB621AE0F86A796AFEF791F803464FF00102144618469D49FEF75E
S32D0000ECD831FB0346002B02D14FF000031C46E3B2002B05D0786A9649FEF77CF80346FB62386B9149FEF714FB11
S32D0000ED000346002B48D1386BFEF766FB03464FF00102144618468E49FEF710FB0346002B02D14FF000031C465A
S32D0000ED28E3B2002B10D0386B8749FEF765F903461C46386BFEF74CFB034620461946FEF70FFA03463B6323E0D7
S32D0000ED50386BFEF741FB03464FF00102144618467C49FEF709FB0346002B02D14FF000031C46E3B2002B0FD036
S32D0000ED78386B7649FEF740F903461C46386BFEF727FB034620461946FEF7EAF903463B63F86A6949FEF7C4FAE4
S32D0000EDA00346002B48D1F86AFEF716FB03464FF00102144618466649FEF7C0FA0346002B02D14FF000031C46C4
S32D0000EDC8E3B2002B10D0F86A5F49FEF715F903461C46F86AFEF7FCFA034620461946FEF7BFF90346FB6223E014
S32D0000EDF0F86AFEF7F1FA03464FF00102144618465449FEF7B9FA0346002B02D14FF000031C46E3B2002B0FD0A1
S32D0000EE18F86A4E49FEF7F0F803461C46F86AFEF7D7FA034620461946FEF79AF90346FB623B6B83F0004341F258
S32D0000EE403010C1F6FF70194602F09EF841F23810C1F6FF70F96A02F097F83B6BBB62FB6A7B6233A1D1E900013E
S32D0000EE6804F09EFC7868F969FDF7BCFF03464FF00102144618463049FEF75CFA0346002B02D14FF000031C460B
S32D0000EE90E3B2002B24D104F0B3FC04460D46386AFDF71AFC02460B4620462946FDF7B4FA02460B464FF00101C9
S32D0000EEB80C46104619464FF000024FF07E5303F5F003FDF7E9FE0346002B02D14FF000031C46E3B2002B02D091
S32D0000EEE04FF0010301E04FF00003002B03D04FF0010387F8373097F8373083F00103DBB2002B7FF44EAE41F2B0
S32D0000EF083010C1F6FF700C4902F03AF841F23810C1F6FF70084902F033F807F13807BD46B0BD00BFAFF3008065
S32D0000EF307B14AE47E17A943FCDCCCC3E0000003F000000000000E0410000E0400000E0C0000070410000F0415C
S32D0000EF5890B58DB000AF786007F10C031846E049FEF744FA07F108031846DE49FEF73EFA4FF0000387F82F30EC
S32D0000EF80DB4B3B62DA4BFB617868DA49FEF738F803467B6041F24410C1F6FF7005F056F841F24010C1F6FF703A
S32D0000EFA805F050F87DE141F24010C1F6FF7005F035F803461846FDF7CBFF0346BB6107F10C0318467968BA69A2
S32D0000EFD0FEF720FA03467B6141F24410C1F6FF7005F020F8044641F24010C1F6FF7005F019F80346E31A184688
S32D0000EFF8FDF7AEFF034607F108021046BA491A46FEF704FA03463B6178693969FDF7ECFE0346BB627869396924
S32D0000F020FDF7E4FE03467B62B86A396AFDF7DEFE03464FF0010214461846AF49FEF79CF90346002B02D14FF0E6
S32D0000F04800031C46E3B2002B06D0386AA849FDF7CBFE0346BB621AE0B86A396AFDF7C2FE03464FF00102144691
S32D0000F0701846A249FEF762F90346002B02D14FF000031C46E3B2002B05D0386A9A49FDF7ADFE0346BB62786AED
S32D0000F098F969FDF7A7FE03464FF00102144618469349FEF765F90346002B02D14FF000031C46E3B2002B06D05C
S32D0000F0C0F8698D49FDF794FE03467B621AE0786AF969FDF78BFE03464FF00102144618468649FEF72BF9034610
S32D0000F0E8002B02D14FF000031C46E3B2002B05D0F8697F49FDF776FE03467B62B86A7A49FEF70EF90346002BB7
S32D0000F11048D1B86AFEF760F903464FF00102144618467749FEF70AF90346002B02D14FF000031C46E3B2002BA2
S32D0000F13810D0B86A7049FDF75FFF03461C46B86AFEF746F9034620461946FEF709F80346BB6223E0B86AFEF717
S32D0000F1603BF903464FF00102144618466549FEF703F90346002B02D14FF000031C46E3B2002B0FD0B86A5F4917
S32D0000F188FDF73AFF03461C46B86AFEF721F9034620461946FDF7E4FF0346BB62786A5249FEF7BEF80346002B69
S32D0000F1B048D1786AFEF710F903464FF00102144618464F49FEF7BAF80346002B02D14FF000031C46E3B2002B0B
S32D0000F1D810D0786A4849FDF70FFF03461C46786AFEF7F6F8034620461946FDF7B9FF03467B6223E0786AFEF78A
S32D0000F200EBF803464FF00102144618463D49FEF7B3F80346002B02D14FF000031C46E3B2002B0FD0786A3749A8
S32D0000F228FDF7EAFE03461C46786AFEF7D1F8034620461946FDF794FF03467B6241F23010C1F6FF70B96A01F029
S32D0000F2509BFE7B6A83F0004341F23810C1F6FF70194601F091FEBB6A3B627B6AFB611CA1D1E9000104F098FADB
S32D0000F2787868B969FDF7B6FD03464FF00102144618461949FEF756F80346002B02D14FF000031C46E3B2002B2C
S32D0000F2A003D04FF0010387F82F3097F82F3083F00103DBB2002B7FF47AAE41F23010C1F6FF700B4901F060FE58
S32D0000F2C841F23810C1F6FF70074901F059FE07F13407BD4690BD00BF7B14AE47E17A943FCDCCCC3E0000003F09
S32D0000F2F0000000000000E0410000E0400000E0C0000020410000C84180B582B000AF78607B68C3F100031846BF
S32D0000F318FDF71EFE034641F23010C1F6FF70194601F02EFE7868FDF713FE034641F23810C1F6FF70194601F03A
S32D0000F34023FE07F10807BD4680BD00BF80B582B000AF786039607B68C3F100031846FDF7FBFD034641F2301051
S32D0000F368C1F6FF70194601F00BFE3868FDF7F0FD034641F23810C1F6FF70194601F000FE07F10807BD4680BDF8
S32D0000F39080B582B000AF78607B68C3F100031846FDF7DAFD034641F23010C1F6FF70194601F0EAFD7B68C3F1EE
S32D0000F3B800031846FDF7CCFD034641F23810C1F6FF70194601F0DCFD07F10807BD4680BD80B582B000AF7860C1
S32D0000F3E039607868FFF790FF386804F0C1F94FF00000FFF789FF07F10807BD4680BD00BF80B582B000AF786002
S32D0000F40839607B68C3F1000318467968FFF79AFF386804F0A9F94FF00000FFF771FF07F10807BD4680BD00BFF4
S32D0000F43080B500AF0448FFF78FFD0448FFF798F80348FFF7A1F980BD9A998940CDCCAC400000404190B585B096
S32D0000F45800AF78604FF00003FB735FE041F2A440C1F6FF7009F044FF034618467968FDF7B9FC0346BB604FF0C3
S32D0000F48001031C46B8682C49FDF776FF0346002B02D14FF000031C46E3B2002B05D0B8682649FDF7A3FC03460F
S32D0000F4A8BB60B868FDF794FF03464FF00102144618462149FDF73EFF0346002B02D14FF000031C46E3B2002BEB
S32D0000F4D003D04FF00103FB7320E04FF001031C46B8681849FDF748FF0346002B02D14FF000031C46E3B2002B7E
S32D0000F4F804D04FF01400FFF747FF03E06FF01300FFF742FF4FF0190004F02EF94FF00000FFF73AFF4FF0640073
S32D0000F52004F026F9FB7B83F00103DBB2002B99D107F11407BD4690BD000034430000B4430000003F000000008B
S32D0000F54890B587B000AF78604FF00003FB7541F25413C1F6FF731B6878681946FDF742FC03463B6149E041F2E8
S32D0000F570A440C1F6FF7009F0BFFE034618463969FDF734FC0346FB60F868FDF725FF03464FF0010214461846E1
S32D0000F5981F49FDF7CFFE0346002B02D14FF000031C46E3B2002B03D04FF00103FB7520E04FF001031C46F868E6
S32D0000F5C01649FDF7D9FE0346002B02D14FF000031C46E3B2002B04D04FF00F00FFF7D8FE03E06FF00E00FFF714
S32D0000F5E8D3FE4FF0190004F0BFF84FF00000FFF7CBFE4FF0640004F0B7F8FB7D83F00103DBB2002BAFD107F1BE
S32D0000F6101C07BD4690BD00BF0000003F0000000090B587B000AF41F23010C1F6FF70C44901F0AAFC41F2381078
S32D0000F638C1F6FF70C14901F0A3FC4FF4FA7004F093F86FF045037B614FF05A033B61BC4BFB6004F009F903465C
S32D0000F660BB6004F005F903467B6043E041F2A440C1F6FF7009F040FE03461846B349FDF7BFFC0346FB60B248C4
S32D0000F688F968FDF7AFFB03461846FDF77BFE03467B61AE48F968FDF7A5FB03461846FDF771FE03463B6141F20F
S32D0000F6B08440C1F6FF7008F03FF902460B464FF001010C461046194699A3D3E90023FDF7E7FA0346002B02D1FA
S32D0000F6D84FF000031C46E3B2002B03D004F0C4F803467B604FF0320004F03EF804F0BCF80246BB68D21A40F22D
S32D0000F700CF739A428CBF00230123DBB2002BADD14FF01900FFF7F8FD4FF4FA7004F028F86FF01800FFF7F0FD97
S32D0000F72803E04FF0320004F01FF841F2A440C1F6FF7009F0CDFD03464FF00102144618467F49FDF7F7FD034618
S32D0000F750002B02D14FF000031C46E3B2002BE4D103E04FF0320004F003F841F2A440C1F6FF7009F0B1FD034604
S32D0000F7784FF00102144618467149FDF7DBFD0346002B02D14FF000031C46E3B2002BE4D14FF00000FFF7B4FD9D
S32D0000F7A041F25413C1F6FF731B681846FFF752FE6FF00E00FFF7A8FD41F2A440C1F6FF7009F07AFD03461846F5
S32D0000F7C8FCF786FF02460B461046194658A3D3E90023FCF71DFE02460B4610461946FDF7ADFA024641F24C13A2
S32D0000F7F0C1F6FF731A602EE06FF00E00FFF784FD4FF0320003F0B4FF4FF00000FFF77CFD4FF0320003F0ACFF82
S32D0000F81841F2A440C1F6FF7009F04AFD03461846FCF756FF02460B461046194640A3D3E90023FCF7EDFD024621
S32D0000F8400B4610461946FDF77DFA024641F24C13C1F6FF731A6041F24C13C1F6FF731B684FF001021446184674
S32D0000F8683B49FDF767FD0346002B02D14FF000031C46E3B2002BBBD14FF4FA7003F074FF4FF00000FFF73CFDDE
S32D0000F89041F2A440C1F6FF7009F01EFD034618462E49FDF7A3FA03461A4641F25013C1F6FF731A6021E06FF008
S32D0000F8B80E00FFF725FD4FF0320003F055FF4FF00000FFF71DFD4FF0320003F04DFF41F2A440C1F6FF7009F00F
S32D0000F8E0FBFC034618461D49FDF780FA03461A4641F25013C1F6FF731A6041F25013C1F6FF731B684FF0010222
S32D0000F908144618461449FDF715FD0346002B02D14FF000031C46E3B2002BC8D107F11C07BD4690BDAFF30080E5
S32D0000F9309A9999999999C93FCDCCCCCCCCCC3D40000048C200004842000000000000804000008CC20000B4422C
S32D0000F9580000F0C100005042000050C2AFF3008098B500AF41F24810C1F6FF7004F090FB03461846FCF7ACFE9A
S32D0000F98002460B464FF001010C46104619461CA3D3E90023FDF784F90346002B02D14FF000031C46E3B2002BBE
S32D0000F9A802D04FF0000323E041F24810C1F6FF7004F06EFB03461846FCF78AFE02460B464FF001010C46104668
S32D0000F9D019460DA3D3E90023FDF762F90346002B02D14FF000031C46E3B2002B02D04FF0010301E04FF00203E7
S32D0000F9F8184698BDAFF300809A9999999999F93F666666666666EE3F80B582B000AF4FF000037B604FF0000337
S32D0000FA203B6040F20443C1F6FF731B681846FDF793FA034641F22410C1F6FF70194604F02FFF4FF0FA0003F096
S32D0000FA4893FE4B48FFF774F841F24410C1F6FF7004F0E4FA03467B6041F24010C1F6FF7004F0DCFA03463B6010
S32D0000FA7041F23C40C1F6FF70796806F08BF841F23C40C1F6FF70396806F084F840F20043C1F6FF731B681846D2
S32D0000FA98FDF75EFA034641F22410C1F6FF70194604F0FAFE4FF0FA0003F05EFE41F24410C1F6FF7004F0C6FAEA
S32D0000FAC041F24010C1F6FF7004F0C0FA4FF0190003F04EFE7A683B689A4224DD41F23810C1F6FF70254901F0C8
S32D0000FAE84FFA03E04FF00A0003F03EFE41F24010C1F6FF7004F092FA024679683B68CB1A9A42ACBF00230123E4
S32D0000FB10DBB2002BEAD141F23810C1F6FF70184901F032FA23E041F23010C1F6FF70134901F02AFA03E04FF006
S32D0000FB380A0003F019FE41F24410C1F6FF7004F06DFA024639687B68CB1A9A42ACBF00230123DBB2002BEAD1D1
S32D0000FB6041F23010C1F6FF70054901F00DFA07F10807BD4680BD00BF00001C4100009041000000000000000064
S32D0000FB88B0B58CB000AF41F22410C1F6FF7040F2E22104F043FE41F22410C1F6FF7040F6C41104F059FE40F2F3
S32D0000FBB00043C1F6FF731B681846FDF7CDF9034641F22410C1F6FF70194604F069FE41F2A440C1F6FF7008F05B
S32D0000FBD89FFEDFF85437FB62DFF84C37BB6241F23C40C1F6FF704FF0000105F0B7FB41F23C40C1F6FF704FF05C
S32D0000FC00010105F00DFC4FF0FA0003F0B1FD4FF0000387F827304FF0000387F8263051E307F104023B4641F2E7
S32D0000FC283C40C1F6FF7011461A4605F039FD0346002B00F0408141F28440C1F6FF7007F077FE02460B464FF0A4
S32D0000FC5001010C46104619464FF000024FF07E5303F5A003FDF71CF80346002B02D14FF000031C46E3B2002BDE
S32D0000FC781DD141F28440C1F6FF7007F059FE02460B464FF001010C46104619464FF000024FF03F4303F55003D7
S32D0000FCA0FCF7E0FF0346002B02D14FF000031C46E3B2002B02D04FF0010301E04FF00003002B00F0E180BFE066
S32D0000FCC841F23C40C1F6FF704FF0000105F046FB41F23C40C1F6FF704AF23871C0F201014FF002024FF00003D0
S32D0000FCF005F00EFE40F20043C1F6FF731B6841F23C40C1F6FF7019464FF002024FF0000305F01EFE41F23C404B
S32D0000FD18C1F6FF704AF23871C0F201014FF004024FF0000305F0F0FD40F20443C1F6FF731B6841F23C40C1F60A
S32D0000FD40FF7019464FF004024FF0000305F000FE03E04FF00A0003F00BFD07F104023B4641F23C40C1F6FF70D2
S32D0000FD6811461A4605F09CFC034683F00103DBB2002BEAD17B684FF0010214461846DFF8AC15FDF7D7FA034673
S32D0000FD90002B02D14FF000031C46E3B2002B18D040F20043C1F6FF731B6803F1FF3240F20043C1F6FF731A609D
S32D0000FDB840F20443C1F6FF731B6803F1FF3240F20443C1F6FF731A6017E040F20043C1F6FF731B6803F10102A8
S32D0000FDE040F20043C1F6FF731A6040F20443C1F6FF731B6803F1010240F20443C1F6FF731A6040F20043C1F679
S32D0000FE08FF731B681846FDF7A3F8034641F22410C1F6FF70194604F03FFD03E04FF00A0003F0A2FC07F10402CA
S32D0000FE303B4641F23C40C1F6FF7011461A4605F033FC0346002BEDD141F28440C1F6FF7007F072FD02460B4625
S32D0000FE584FF001010C46104619464FF000024FF07E5303F5A003FCF717FF0346002B02D14FF000031C46E3B2BF
S32D0000FE80002B7FF421AF1AE07B684FF0010214461846DFF8A014FDF76FFA0346002B02D14FF000031C46E3B2A7
S32D0000FEA8002B04D04FF0010387F8263003E04FF0010387F8273097F82630002B00F0D98041F23C40C1F6FF70EB
S32D0000FED04FF0000105F046FA41F23C40C1F6FF704AF24471C0F2010105F040FE4FF0000387F82530AFE041F20A
S32D0000FEF83C40C1F6FF704AF25071C0F201014FF002024FF0000305F0FFFC41F2A440C1F6FF7009F0CDF90346CF
S32D0000FF2041F23C40C1F6FF7019464FF002024FF0020305F02DFD41F23C40C1F6FF704AF25C71C0F201014FF008
S32D0000FF4804024FF0000305F0DFFC41F2A440C1F6FF7009F0BDF9034641F23C40C1F6FF7019464FF004024FF086
S32D0000FF70020305F00DFD41F23C40C1F6FF704AF25C71C0F201014FF006024FF0000305F0BFFC41F2A440C1F6C6
S32D0000FF98FF7009F09DF9034641F23C40C1F6FF7019464FF006024FF0020305F0EDFC07F104023B4641F23C4029
S32D0000FFC0C1F6FF7011461A4605F06EFB0346002B3DD04FF0010387F8253041F2A440C1F6FF7009F069F903465F
S32D0000FFE81846FCF775FB02460B4610461946CCA3D3E90023FCF70CFA02460B4610461946FCF79CFE0346FB6214
S32D0001001041F2A440C1F6FF7009F05EF903461846C549FCF7E3FE0346BB6241F2A440C1F6FF7009F061F903466C
S32D000100381846C049FCF7D6FE03461A4641F25413C1F6FF731A604FF0640003F08DFB97F8253083F00103DBB27F
S32D00010060002B7FF448AF4FF0000387F8263004E04FF00A0003F07CFB00E000BF07F104023B4641F23C40C1F6AA
S32D00010088FF7011461A4605F00BFB0346002BEBD141F23C40C1F6FF704AF25071C0F201014FF000024FF00003EF
S32D000100B005F02EFC41F2A440C1F6FF7009F0FCF8034641F23C40C1F6FF7019464FF000024FF0020305F05CFC89
S32D000100D841F23C40C1F6FF704AF25C71C0F201014FF002024FF0000305F00EFC41F2A440C1F6FF7009F0ECF8C9
S32D00010100034641F23C40C1F6FF7019464FF002024FF0020305F03CFC41F23C40C1F6FF704AF26871C0F2010101
S32D000101284FF004024FF0000305F0EEFB41F2A440C1F6FF7009F0DCF8034641F23C40C1F6FF7019464FF0040277
S32D000101504FF0020305F01CFC41F23C40C1F6FF704AF27471C0F201014FF008024FF0000305F0CEFB41F24410B5
S32D00010178C1F6FF7003F052FF034641F23C40C1F6FF7019464FF008024FF0020305F0DCFB41F23C40C1F6FF7043
S32D000101A04AF28071C0F201014FF00A024FF0000305F0AEFB41F24010C1F6FF7003F032FF034641F23C40C1F6A8
S32D000101C8FF7019464FF00A024FF0020305F0BCFB41F23C40C1F6FF704AF28C71C0F201014FF00C024FF00003AE
S32D000101F005F08EFB41F24810C1F6FF7003F04CFF034641F23C40C1F6FF7019464FF00C024FF0020305F0BCFBB9
S32D0001021841F23C40C1F6FF704AF23871C0F201014FF00B024FF00C0305F06EFB41F23C40C1F6FF70F96A4FF0DA
S32D000102400B024FF00C0305F0A3FB41F23C40C1F6FF704AF23871C0F201014FF00C024FF00C0305F055FB41F220
S32D000102683C40C1F6FF70B96A4FF00C024FF00C0305F08AFB41F23C40C1F6FF704AF29871C0F201014FF000027E
S32D000102904FF00C0305F03CFB41F28840C1F6FF7007F0A8FB034641F23C40C1F6FF7019464FF000024FF00C03FE
S32D000102B805F06AFB4FF0320003F056FA97F8273083F00103DBB2002B7FF4A6AC41F23C40C1F6FF704FF000011A
S32D000102E005F040F841F23C40C1F6FF704FF0010105F096F841F23C40C1F6FF704AF2A071C0F201014FF00D0205
S32D000103084FF0000305F000FB03F076FA02460B4610461946FCF712FD0346FB6110E000BF6666666666E63F402A
S32D00010330000000000000204300005042000034434FF0320003F014FA03F05AFA04460D46F869FCF7C1F9024686
S32D000103580B4620462946FCF75BF802460B464FF001010C46104619464FF000024FF0804303F57813FCF772FC02
S32D000103800346002B02D14FF000031C46E3B2002B21D041F24810C1F6FF7003F07DFE03461846FCF799F902461F
S32D000103A80B464FF001010C4610461946ACA3D3E90023FCF771FC0346002B02D14FF000031C46E3B2002B02D082
S32D000103D04FF0010301E04FF00003002BB0D1FFF727F8A548FDF758F8A448FFF7ADF8A448FDF702FCA348FDF762
S32D000103F84FF8FFF7B5FA0346012B24D0022B2CD141F23C40C1F6FF704AF2AC71C0F2010105F0A8FB9A48FDF707
S32D0001042013FA9A48FDF798FF6FF0130041F27661FEF7D2FF9648FDF72FF89648FDF7B0FD9548FDF729F89548AA
S32D00010448FDF786FF19E041F23C40C1F6FF704AF2B871C0F2010105F085FB8F48FDF7F0F98848FDF775FF6FF065
S32D00010470130041F27661FEF7AFFF8A48FDF70CF800BF41F25413C1F6FF731B681846FEF7E1FFFFF7C5F841F2B5
S32D000104985013C1F6FF731B681846B96AFCF7A2FC0346BB614FF0320003F05EF94FF0000387F824304FF000039D
S32D000104C087F82330B869FCF707F902460B4668A1D1E90001FBF7A0FF02460B46104619464FF000024FF08043A8
S32D000104E803F57013FCF748F902460B4610461946FCF724FC03467B6141F24410C1F6FF7003F0A0FD41F24010F0
S32D00010510C1F6FF7003F09AFD4FF0190003F028F941F23010C1F6FF705F4900F02DFD41F23810C1F6FF705D49FE
S32D0001053800F026FD34E041F24410C1F6FF7003F06DFD03461846FCF703FD03464FF00102144618467969FCF7B1
S32D000105600BFF0346002B02D14FF000031C46E3B2002B15D041F23010C1F6FF704C4900F003FD4FF0010387F8F2
S32D00010588243041F23810C1F6FF70474900F0F8FC4FF0010387F823304FF00A0003F0E4F897F8243083F0010354
S32D000105B0DBB2002B09D097F8233083F00103DBB2002B02D04FF0010301E04FF00003002BB5D14FF0FA0003F065
S32D000105D8CBF841F24410C1F6FF7003F01FFD03463B6141F24010C1F6FF7003F017FD0346FB604FF0320003F0D8
S32D00010600B7F83A69FB689A4224DD41F23810C1F6FF70284900F0B8FC03E04FF00A0003F0A7F841F24010C1F68B
S32D00010628FF7003F0FBFC02463969FB68CB1A9A42ACBF00230123DBB2002BEAD141F23810C1F6FF70184900F025
S32D000106509BFC4DE041F23010C1F6FF70154900F093FC2DE0AFF300809A9999999999F93FCDCCCCCCCCCC154025
S32D0001067800003C41000030436666A640000070410000D0409A9931410000803F000040400000A0403333C340C3
S32D000106A00000C03F6666E6400000A0C10000A04100000000000090414FF00A0003F058F841F24410C1F6FF70EE
S32D000106C803F0ACFC0246F9683B69CB1A9A42ACBF00230123DBB2002BEAD141F23010C1F6FF709B4900F04CFC80
S32D000106F09A48FDF781FA4FF0320003F039F84FF0000387F824304FF0000387F82330944B7B6141F24410C1F6D3
S32D00010718FF7003F097FC41F24010C1F6FF7003F091FC4FF0190003F01FF841F23010C1F6FF708A4900F024FCB6
S32D0001074041F23810C1F6FF70874900F01DFC34E041F24410C1F6FF7003F064FC03461846FCF7FAFB03464FF0E5
S32D000107680102144618467969FCF702FE0346002B02D14FF000031C46E3B2002B15D041F23010C1F6FF707249EE
S32D0001079000F0FAFB4FF0010387F8243041F23810C1F6FF706C4900F0EFFB4FF0010387F823304FF00A0002F0BF
S32D000107B8DBFF97F8243083F00103DBB2002B09D097F8233083F00103DBB2002B02D04FF0010301E04FF0000304
S32D000107E0002BB5D14FF0FA0002F0C2FF5F48FDF703FA41F24C13C1F6FF731B681846F96AFCF7F4FA0346BB6071
S32D000108084FF0190002F0B0FF4FF001031C46B8684F49FCF7ADFD0346002B02D14FF000031C46E3B2002B18D03B
S32D0001083041F23C40C1F6FF704AF2C471C0F2010105F094F941F23C40C1F6FF70B96805F0B5F9B868FCF720FE53
S32D000108584FF0190002F088FF1AE041F23C40C1F6FF704AF2CC71C0F2010105F07BF941F23C40C1F6FF70B96845
S32D0001088005F09CF9BB6883F000431846FCF7DCFF4FF0190002F06CFFFFF7BAF83448FCF7FBFD3448FDF758FD31
S32D000108A83348FCF7F5FD40F20443C1F6FF731B681846FCF74DFB034641F22410C1F6FF70194603F0E9FF4FF0B4
S32D000108D0FA0002F04DFF40F20043C1F6FF731B681846FCF739FB034641F22410C1F6FF70194603F0D5FF2148B6
S32D000108F8FCF7CEFD2048FDF72BFD2048FCF7C8FD1F48FEF71DFE4FF00F0040F2E241FEF75FFD4FF032004FF450
S32D00010920FA71FEF759FD4FF050004FF4FA61FEF753FD6FF031004FF4FA71FEF74DFD6FF013004FF0FA01FEF762
S32D000109485BFD4FF032004FF47A71FEF741FDECE7000000006666E63F9A996C430000A0C10000A04152B83E40E6
S32D00010970000020400000D0400000803F00004040333383400000404100003443AFF3008080B582B000AF786078
S32D0001099839607B68012B36D13A684FF6FF739A4231D141F22410C1F6FF704FF0000103F017FF41F23010C1F64A
S32D000109C0FF704FF00001144A00F056FA41F23810C1F6FF704FF001010F4A00F04DFA41F24010C1F6FF704FF061
S32D000109E8000102F063FF41F24410C1F6FF704FF0080102F05BFF41F24810C1F6FF704FF0070103F033FB07F139
S32D00010A100807BD4680BD00BF0000104180B500AF4FF001004FF6FF71FFF7B2FF80BD00BF80B500AF41F208724B
S32D00010A38C1F6FF7241F22413C1F6FF73D31A194641F22413C1F6FF731A460B4610464FF000011A4608F0E1FD78
S32D00010A6080BD00BF09F056FE00F0B0F9FFF7E0FF09F028FE09F0C4FD09F05CFE00F00CF84FF0000041F25811B5
S32D00010A88C1F6FF71FFF77CF80346184608F0A0FD80B500AF4FF4E043C4F204034FF4E042C4F2040202F5805281
S32D00010AB002F13802126842F4785203F5805303F138031A6000F02EF900F094F841F28833C1F6FF734FF05802B9
S32D00010AD81A6041F28833C1F6FF731B684FF47A7202FB03F241F28433C1F6FF731A6041F28433C1F6FF731B6897
S32D00010B001A464FF4E043C4F2040303F5825303F104031B6803F070634FEA136303F10103B2FBF3F31A4641F265
S32D00010B288C33C1F6FF731A604FF4E043C4F204034FF4E042C4F2040202F5805202F13C02126842F0225203F5E6
S32D00010B50805303F13C031A604FF4E043C4F204034FF4E042C4F2040202F5805202F13002126842F0006203F5BE
S32D00010B78805303F130031A604FF45043C4F203034FF480721A614FF0640002F081FC4FF45043C4F203034FF4B1
S32D00010BA05042C4F20302526922F010025A614FF45043C4F203034FF000021A604FF45043C4F203034FF010020F
S32D00010BC85A6103F097FB03F03FFC41F28030C1F6FF7002F0E1FC41F23C40C1F6FF7004F01FFA41F2883002F0F9
S32D00010BF0BFFD80BD80B400AF4FF48043C4F206034FF000025A704FF48043C4F206034FF098021A704FF48043FC
S32D00010C18C4F206039B79DBB203F01003002B0CBF00230123DBB2002BF0D14FF48043C4F206039B79DBB203F038
S32D00010C400C034FEA9303022B0CBF00230123DBB2002BEED14FF48043C4F206034FF018021A714FF48043C4F28C
S32D00010C6806034FF000025A714FF4E043C4F2040303F5825303F104034FF00002C0F213121A604FF48043C4F20F
S32D00010C9006034FF054025A7100BF4FF48043C4F206039B79DBB203F02003002B14BF00230123DBB2002BF0D1D3
S32D00010CB800BF4FF48043C4F206039B79DBB203F04003002B14BF00230123DBB2002BF0D14FF48043C4F206032F
S32D00010CE04FF48042C4F206021278D2B202F03F02D2B21A704FF48043C4F206039B79DBB203F00C034FEA93039C
S32D00010D08032B0CBF00230123DBB2002BEED14FF000031846BD4680BC704700BF80B400AF4FF44043C4F204034A
S32D00010D304FF480725A634FF2C003C4F20F034FF2C002C4F20F02526942F400525A614FF2C003C4F20F034FF201
S32D00010D58C002C4F20F02126842F400521A604FF44043C4F2040340F20312C0F20A021A634FF46143CEF20003B8
S32D00010D804FF46142CEF20002D2F8882142F08062C3F888214FF46143CEF200034FF46142CEF20002926842F033
S32D00010DA880629A60BD4680BC704700BF80B483B000AF7860FEE700BF80B400AF00BEBD4680BC704780B400AF7F
S32D00010DD04FF0E0224CF20003C0F20003C2F8083D4FF40053C4F205034CF22052DA814FF40053C4F205034DF6C8
S32D00010DF82812DA814FF40053C4F205034FF0D2021A80BD4680BC704780B500AF4FF44043C4F20403D3F8A0303E
S32D00010E2003F48053002B0CBF00230123DBB2002B1FD04FF44043C4F204034FF44042C4F20402D2F8A02022F451
S32D00010E488052C3F8A02041F2C440C1F6FF7008F045FB4FF2C003C4F20F034FF2C002C4F20F02126822F4005221
S32D00010E701A6080BD0000000090B585B000AFF8600B467A60FB72FB68FA7A1A71FB684FF000025A714FF001036F
S32D00010E981C4678682049FCF76BFA0346002B02D14FF000031C46E3B2002B02D01A4B7B6011E04FF001031C46D5
S32D00010EC078681849FCF744FA0346002B02D14FF000031C46E3B2002B01D0124B7B607868FBF7FAFB02460B467D
S32D00010EE8104619460AA3D3E90023FBF745FC02460B4610461946FBF721FF0246FB681A60FB68184607F114070E
S32D00010F10BD4690BDAFF30080ABAAAAAAAAAA2040000040410000803F80B584B000AF786039603B687F2B03DDED
S32D00010F384FF07F03FB7309E03B6813F1800F03DA4FF08003FB7301E03B68FB737B685B79FA7B9A420FD07B6873
S32D00010F60FA7B5A717B681A79FB7B41F28030C1F6FF7011461A464FF01E0302F05BFB07F11007BD4680BD00BFC0
S32D00010F88B0B584B000AF786039604FF001031C4638684D49FCF7CEF90346002B02D14FF000031C46E3B2002B41
S32D00010FB002D0474B3B6011E04FF001031C4638684449FCF7D9F90346002B02D14FF000031C46E3B2002B01D00F
S32D00010FD83E4B3B603868FBF77BFB04460D467B681B681846FBF774FB02460B46104619464FF000024FF080436B
S32D0001100003F5B203FBF7E6FC02460B4620462946FBF7B6FB02460B4610461946FBF792FE03463B604FF0010338
S32D000110281C4638682A49FCF799F90346002B02D14FF000031C46E3B2002B14D03868FBF747FB02460B4610464D
S32D0001105019461DA3D3E90023FBF792FB02460B4610461946FBF726FE0346FB6022E03868FBF732FB02460B4692
S32D00011078104619464FF000024FF0804303F5C003FBF77AFB02460B46104619464FF000024FF0804303F5B203F1
S32D000110A0FBF798FC02460B4610461946FBF702FE0346FB607868F968FFF736FF07F11007BD46B0BDAFF30080AA
S32D000110C852B81E85EB51F43F0000C8C20000C84200000000AFF3008080B485B000AF02460B46FA71BB71BB79AB
S32D000110F0002B07D141F25C13C1F6FF734FF000021A7006E041F25C13C1F6FF734FF001021A704FF03803FB73D3
S32D0001111841F25C13C1F6FF731A78FB7B1343FB734FF4C043C4F206034FF4C042C4F206029278D2B242F0100237
S32D00011140D2B29A704FF4C043C4F206034FF4C042C4F206029278D2B242F02002D2B29A704FF4C043C4F2060375
S32D00011168FA7B1A7107F11407BD4680BC704700BF80B483B000AF4FF001037B6004E000BF7B6803F101037B6003
S32D000111907B68312BCCBF00230123DBB2002BF2D107F10C07BD4680BC704700BF80B584B000AF0346FB7141F2E4
S32D000111B85D13C1F6FF731B7818464FF00001FFF78BFF4FF4C043C4F20603DB78DBB203F00203002B14BF0023C0
S32D000111E00123DBB2002BF0D14FF4C043C4F206034FF4C042C4F20602D278D2B242F00202D2B2DA704FF4C04323
S32D00011208C4F20603FA791A714FF4C043C4F20603DB78DBB203F00203002B14BF00230123DBB2002BF0D14FF41C
S32D00011230C043C4F206034FF4C042C4F20602D278D2B242F00202D2B2DA704FF4C043C4F206034FF4C042C4F2F8
S32D0001125806029278D2B242F00402D2B29A704FF4C043C4F206034FF039021A714FF4C043C4F20603DB78DBB21C
S32D0001128003F00203002B14BF00230123DBB2002BF0D14FF4C043C4F206034FF4C042C4F20602D278D2B242F081
S32D000112A80202D2B2DA704FF4C043C4F206034FF4C042C4F206029278D2B222F01002D2B29A704FF4C043C4F201
S32D000112D006034FF4C042C4F206029278D2B242F00802D2B29A704FF4C043C4F206031B79FB724FF00003FB60E8
S32D000112F803E0FB6803F10103FB60FA6841F287339A428CBF00230123DBB2002BF1D14FF4C043C4F20603DB789F
S32D00011320DBB203F00203002B14BF00230123DBB2002BF0D14FF4C043C4F206034FF4C042C4F20602D278D2B285
S32D0001134842F00202D2B2DA704FF4C043C4F206034FF4C042C4F206029278D2B222F02002D2B29A704FF4C043D4
S32D00011370C4F206034FF4C042C4F206029278D2B222F01002D2B29A704FF4C043C4F206031B79FB72FFF7F0FE62
S32D00011398FB7A184607F11007BD4680BD80B582B000AF02460B46FA71BB7141F25D13C1F6FF731B7818464FF0C2
S32D000113C00001FFF78DFE4FF4C043C4F20603DB78DBB203F00203002B14BF00230123DBB2002BF0D14FF4C0439B
S32D000113E8C4F206034FF4C042C4F20602D278D2B242F00202D2B2DA704FF4C043C4F20603FA791A714FF4C043F9
S32D00011410C4F20603DB78DBB203F00203002B14BF00230123DBB2002BF0D14FF4C043C4F206034FF4C042C4F258
S32D000114380602D278D2B242F00202D2B2DA704FF4C043C4F20603BA791A714FF4C043C4F20603DB78DBB203F010
S32D000114600203002B14BF00230123DBB2002BF0D14FF4C043C4F206034FF4C042C4F20602D278D2B242F002028E
S32D00011488D2B2DA704FF4C043C4F206034FF4C042C4F206029278D2B222F02002D2B29A704FF4C043C4F206030A
S32D000114B04FF4C042C4F206029278D2B222F01002D2B29A70FFF758FE07F10807BD4680BD80B582B000AF0346D8
S32D000114D8FB71FB79184600F06BF807F10807BD4680BD00BF80B582B000AF02460B46FA71BB7100F039F8FB7973
S32D000115004FEA4303DBB21846FFF7E2FFBB791846FFF7DEFF00F03EF807F10807BD4680BD80B500AF4FF0FF0087
S32D0001152800F046F80346184680BD00BF80B584B000AF0346FB7100F017F8FB794FEA4303DBB243F00103DBB2B3
S32D00011550DBB21846FFF7BCFFFFF7E2FF0346FB7300F018F8FB7B184607F11007BD4680BD80B400AF4FF24003B8
S32D00011578C4F20F034FF24002C4F20F02926842F480129A60BD4680BC704700BF80B400AF4FF24003C4F20F0392
S32D000115A04FF24002C4F20F02526842F480125A60BD4680BC704700BF80B485B000AF0346FB714FF00003BB73A4
S32D000115C803E0FB7B03F10103FB734FF44043C4F20A03DB6A4FF00003002BF2D14FF44043C4F20A034FF44042E9
S32D000115F0C4F20A02D26A42F00042DA624FF44043C4F20A03FA795A6300BF4FF44043C4F20A03DB6A03F40033AE
S32D00011618002B14BF00230123DBB2002BF1D14FF44043C4F20A039B6BBB73BB7B184607F11407BD4680BC70478A
S32D0001164080B582B000AF4FF4E043C4F204034FF4E042C4F2040202F5805202F13002126842F4805203F58053E6
S32D0001166803F130031A604FF42043C4F204034FF480721A654FF24003C4F20F034FF24002C4F20F02526942F414
S32D0001169080125A61FFF77EFF4FF42043C4F204034FF400725A654FF42043C4F204034FF400729A654FF42043D7
S32D000116B8C4F204034FF40072DA654FF44043C4F20A034FF44062C8F200021A604FF44043C4F20A034FF00502DF
S32D000116E0C3F60062DA604FF000037B6007E04FF0FF00FFF7EDFE7B6803F101037B607B68092BCCBF00230123C4
S32D00011708DBB2002BEFD104A1D1E9000102F048F807F10807BD4680BD9A9999999999B93F90B486B000AFF86051
S32D00011730B9607A60FA684FF42043C4F206039A4214D14FF4E043C4F204034FF4E042C4F2040202F5805202F10F
S32D000117583402126842F4806203F5805303F134031A6083E0FA684FF43043C4F206039A4214D14FF4E043C4F213
S32D0001178004034FF4E042C4F2040202F5805202F13402126842F4006203F5805303F134031A6067E0FA684FF4B2
S32D000117A84043C4F206039A4214D14FF4E043C4F204034FF4E042C4F2040202F5805202F13402126842F4805257
S32D000117D003F5805303F134031A604BE0FA684FF45043C4F206039A4214D14FF4E043C4F204034FF4E042C4F259
S32D000117F8040202F5805202F13402126842F4005203F5805303F134031A602FE0FA684FF42043C4F20E039A429E
S32D0001182014D14FF4E043C4F204034FF4E042C4F2040202F5805202F12802126842F4806203F5805303F128030E
S32D000118481A6013E04FF4E043C4F204034FF4E042C4F2040202F5805202F12802126842F4006203F5805303F109
S32D0001187028031A60FB68DB78DBB223F00C03DAB2FB68DA70FB684FF000029A70BB684FF47A7202FB03F27B6831
S32D000118984FEA031392FBF3F39CB2FB681B78DBB223F01F03FB75234603F4F8534FEA2323DBB203F01F03DAB291
S32D000118C0FB7D1343DAB2FB681A70E2B2FB685A70BB684FF4FA4202FB03F27B684FEA031392FBF3F39AB2234603
S32D000118E819464FEAC121CB1A4FEA43139BB2D3189CB2FB689B7ADBB223F01F03FB75E3B203F01F03DAB2FB7D05
S32D000119101343DAB2FB689A72FB68DB78DBB243F00C03DAB2FB68DA7007F11807BD4690BC704700BF80B483B056
S32D0001193800AF786000BF7B681B79DBB203F02003002B14BF00230123DBB2002BF3D17B68DB79DBB2184607F145
S32D000119600C07BD4680BC704780B483B000AF78600B46FB7000BF7B681B79DBB2DBB26FEA0303DBB24FEAD3134A
S32D00011988DBB2002BF3D17B68FA78DA7107F10C07BD4680BC704700BF80B487B000AFF860B9607A60FB687B61B0
S32D000119B007E0BB68DAB27B691A707B6903F101037B617B68002B0CBF00230123DBB27A6802F1FF327A60002B94
S32D000119D8EBD107F11C07BD4680BC704780B584B000AF786039607B681B6BFB60FA683B689A4264D07B681B793A
S32D00011A00002B43D07B685A787B6803F1340310461946FA684FF0010301F0ACFB0346002B0CBF00230123DBB2B1
S32D00011A28002B02D04FF001034BE07B684FF000021A717B685A6A7B681B6AD218FB689A4220D97B68DB78FB72A1
S32D00011A5014E07B681B6AFA68D318FB607B685A787B6803F1340310461946FA684FF0010301F080FBFB7A03F171
S32D00011A78FF33FB72FB7A012B94BF00230123DBB2002BE2D13B68002B19D07B685A787B6803F1340310461946CB
S32D00011AA03A684FF0010301F057FA0346002B0CBF00230123DBB2002B02D04FF0010304E07B683A681A634FF078
S32D00011AC80003184607F11007BD4680BD80B584B000AF786078684FF00001FFF77FFF0346FB73FB7B002B40F033
S32D00011AF0AE807B681B78032B40F095807B685B79002B00F090807B684FF000021A637B6803F1340318464FF082
S32D00011B1800014FF40072FFF73FFF7B684FF0550283F832227B684FF0AA0283F833227B684FF0520283F8342089
S32D00011B407B684FF0520283F835207B684FF0610283F836207B684FF0410283F837207B684FF0720283F8182258
S32D00011B687B684FF0720283F819227B684FF0410283F81A227B684FF0610283F81B227B681B69DAB27B6883F858
S32D00011B901C227B681B699BB24FEA2323DAB27B6883F81D227B681B694FEA1343DAB27B6883F81E227B681B6905
S32D00011BB84FEA1363DAB27B6883F81F227B68DB68DAB27B6883F820227B68DB689BB24FEA2323DAB27B6883F8F6
S32D00011BE021227B68DB684FEA1343DAB27B6883F822227B68DB684FEA1363DAB27B6883F823227B6859787B6815
S32D00011C0803F134027B685B69084611461A464FF0010301F0ABFA7B684FF000025A717B685B7818464FF00001BB
S32D00011C304FF0000201F084FB0346002B0CBF00230123DBB2002B02D04FF00103FB73FB7B184607F11007BD462D
S32D00011C5880BD00BF80B582B000AF78600B467B807B68002B08D07B681B78002B04D07B68DB887A889A4202D0D6
S32D00011C804FF009030FE07B685B78184601F0ECFB034603F00103DBB2002B02D04FF0030301E04FF0000318467F
S32D00011CA807F10807BD4680BD80B586B000AF78607B681A687B689B8810461946FFF7CAFF0346FB75FB7D002B99
S32D00011CD040F0C8807B689B7903F02003002B00F0C1807B689B7903F04003002B20D07B681B6859787B6803F1AE
S32D00011CF828027B689B69084611461A464FF0010301F034FA0346002B0CBF00230123DBB2002B02D04FF00103F2
S32D00011D20A1E07B689B7923F04003DAB27B689A717B681A687B68DB6910461946FFF752FE0346FB75FB7D002B69
S32D00011D4840F08C807B681B6A3B613B6903F10B033A6902F10B02127842F02002D2B21A703B6903F11C037A685E
S32D00011D70D268D2B21A703B6903F11D037A68D26892B24FEA2222D2B21A703B6903F11E037A68D2684FEA1242F7
S32D00011D98D2B21A703B6903F11F037A68D2684FEA1262D2B21A703B6903F11A037A681269D2B21A703B6903F1C5
S32D00011DC01B037A68126992B24FEA2222D2B21A703B6903F114037A6812694FEA1242D2B21A703B6903F1150353
S32D00011DE87A6812694FEA124292B24FEA2222D2B21A704FF00003FB603B6903F11603FA68D2B21A703B6903F1BD
S32D00011E101703FA6892B24FEA2222D2B21A703B6903F11803FA684FEA1242D2B21A703B6903F11903FA684FEA59
S32D00011E381262D2B21A707B689B7923F02003DAB27B689A717B681B684FF001021A717B681B681846FFF73AFE2D
S32D00011E600346FB75FB7D184607F11807BD4680BD80B584B000AF78607868FFF719FF0346FB73FB7B002B03D163
S32D00011E887B684FF000021A60FB7B184607F11007BD4680BD80B588B000AF786039604FF080033B614FF00F032E
S32D00011EB0FB604FF0FF337B614FF00203FB612AE04FF00103BB611AE0FB69BA6902FB03F33A6802FB03F27B6867
S32D00011ED8D31ABB60BB68002B09DBBA687B699A4205D2BB687B61FB693B61BB69FB60BB6903F10103BB61BB690E
S32D00011F00102B8CBF00230123DBB2002BDCD1FB694FEA4303FB61FB69B3F5807F8CBF00230123DBB2002BCBD150
S32D00011F284FF48053C4F20B034FF48052C4F20B02D26A22F00802DA624FF48053C4F20B03DB6A1A464FF00F0374
S32D00011F50CFF6F0731340BB614FF48053C4F20B033A694FEA52024FEA02224FEA02424FEA1242F96801F1FF31D7
S32D00011F784FEA0111C9B21143BA690A4342F46022DA6203E04FF00A0001F0EEFB4FF48053C4F20B035B6A03F024
S32D00011FA00803002B14BF00230123DBB2002BEDD14FF48053C4F20B034FF48052C4F20B02D26A42F00802DA62E6
S32D00011FC84FF48053C4F20B034FF48052C4F20B02126B42F480121A6307F12007BD4680BD80B582B000AF786029
S32D00011FF039607B684FF000021A604FF48053C4F20B034FF40042C0F20012DA624FF48053C4F20B03DB6A03F01A
S32D000120188073002B0CBF00230123DBB2002BF1D14FF48053C4F20B034FF00002C3F8C0204FF48053C4F20B035F
S32D000120404FF481325A604FF48053C4F20B034FF028029A624FF48053C4F20B034FF001125A643B689B68184694
S32D000120684CF66041C0F20501FFF714FF4FF48053C4F20B035B6A03F00303002B0CBF00230123DBB2002BF1D156
S32D000120904FF45043C4F2040340F243421A604FF45043C4F2040340F243425A604FF45043C4F204034FF4886299
S32D000120B89A604FF45043C4F2040340F24342DA604FF45043C4F2040340F243421A614FF45043C4F2040340F2F1
S32D000120E043425A614FF4E043C4F204034FF4E042C4F2040202F5805202F13002126842F4003203F5805303F1BE
S32D0001210830031A604FF48053C4F20B034FF6FF721A634FF48053C4F20B034FF0B302C0F27F025A634FF480531A
S32D00012130C4F20B034FF48052C4F20B02D26A42F00062DA624FF48053C4F20B03DB6A03F00063002B0CBF00234A
S32D000121580123DBB2002BF1D14FF48053C4F20B035B6A03F48033002B0CBF00230123DBB2002B03D07B684FF087
S32D0001218001021A604FF48053C4F20B034FF48052C4F20B02126B42F080021A634FF00003184607F10807BD46A9
S32D000121A880BD00BF80B400AF4FF48053C4F20B035B6A1A4640F207331340002B0CBF00230123DBB21846BD4640
S32D000121D080BC704780B485B000AF78604FF48053C4F20B031B6B1A467B681340FB60FB68002B14BF0023012304
S32D000121F8DBB2002BEED1FB68184607F11407BD4680BC704780B584B000AF78607B681B7803F03F024AF6C823B2
S32D00012220C0F2010353F82230FB60FB68002B06D17B681B78002B02D04FF0010330E14FF48053C4F20B034FF498
S32D000122488052C4F20B02126B42F080021A634FF48053C4F20B035B6A03F00103DBB2002BF5D14FF48053C4F244
S32D000122700B037A6852689A60FB6823F44003FB607B685B784FEA835303F44003FA681343FB607B685B78022B8E
S32D0001229803D1FB6843F40013FB607B685B78042B16D1FB6803F44033B3F5003F08D1FB6823F44033FB60FB6837
S32D000122C043F44033FB6007E0FB6823F44033FB60FB6843F40033FB604FF48053C4F20B034FF48052C4F20B02E1
S32D000122E852684FEA02424FEA12425A607B68DB68002B32D0FB6803F44033B3F5403F03D0FB6843F40013FB6027
S32D000123107B681B7A002B03D0FB6843F01003FB607B68DB68012B03D9FB6843F02003FB607B68DB68B3F1FF3FDA
S32D0001233813D04FF48053C4F20B034FF48052C4F20B02526811467A68D2684FEA02420A435A60FB6843F0020395
S32D00012360FB604FF48053C4F20B034FF000021A604FF48053C4F20B03FA68DA604FF00100C0F20E00FFF726FFCD
S32D000123880346012B0CBF00230123DBB2002B10D04FF48053C4F20B034FF48052C4F20B02126B42F4702242F0DE
S32D000123B001021A634FF0010372E04FF48053C4F20B031B6B03F08003002B0CBF00230123DBB2002B0ED04FF4FD
S32D000123D88053C4F20B034FF48052C4F20B02126B42F001121A634FF0010355E04FF48053C4F20B031B6B03F459
S32D000124008033002B0CBF00230123DBB2002B0ED04FF48053C4F20B034FF48052C4F20B02126B42F001121A6336
S32D000124284FF0FF3338E0FB6803F44033002B25D04FF48053C4F20B031B691A467B681A61FB6803F44033B3F57E
S32D00012450803F17D14FF48053C4F20B035B691A467B685A614FF48053C4F20B039B691A467B689A614FF48053E8
S32D00012478C4F20B03DB691A467B68DA614FF48053C4F20B034FF48052C4F20B02126B42F001021A634FF000038C
S32D000124A0184607F11007BD4680BD00BF80B592B000AF786039604FF00003FB633B68BB6341F27413C1F6FF73C6
S32D000124C87B637B6B002B03D140F6012300F0A0BC41F27833C1F6FF733B633B6B002B03D140F60B2300F094BC8E
S32D000124F03B6B1B68FB62FB6A002B03D140F60B2300F08ABC7B6841F20432934200F0388241F2043293421BD83D
S32D0001251841F20132934238D041F20132934207D8032B00F03D84092B00F0298400F066BC41F20232934200F049
S32D00012540128241F20332934200F0BE8300F05ABC41F20732934200F04B8341F2073293420BD841F20532934202
S32D0001256800F0348241F20632934200F0108300F045BC41F20832934200F0B68241F20932934200F0C48200F017
S32D0001259039BC786B4AF6BC21C0F20101FFF724FD0346FB63FB6B002B40F030844FF0000387F847304FF00003C6
S32D000125B887F82B304FF0000387F82A304FF0000387F829304FF0000387F846304FF0000387F828304FF0000353
S32D000125E03B724FF000037B724FF00003FB604FF000033B744FF000037B6107F108031846FFF704FE0346002B77
S32D000126080CBF00230123DBB2002B03D04FF00103FB63FCE340F24C4001F0A6F84FF008033B724FF000037B7213
S32D000126304FF4D573FB604FF000033B744FF000037B6107F108031846FFF7E0FD03463B643B6C002B0BD1BA6999
S32D00012658FB689A4203D04FF00103FB63D7E34FF0010387F846304FF0010387F8283097F82830002B00F0C6804C
S32D000126804FF037033B724FF000037B724FF00003FB604FF000033B744FF000037B6107F108031846FFF7B2FD24
S32D000126A803463B643B6C002B03D04FF00103FB63ADE34FF069033B724FF000037B724FF00003FB604FF00003DF
S32D000126D03B744FF000037B6107F108031846FFF795FD0346002B0CBF00230123DBB2002B03D04FF00103FB6373
S32D000126F88DE3BB6903F44013002B00F083804FF000033B644FF00A0001F02EF83B6C03F101033B644FF03703BF
S32D000127203B724FF000037B724FF00003FB604FF000033B744FF000037B6107F108031846FFF764FD0346002BD6
S32D000127480CBF00230123DBB2002B03D04FF00103FB6336E04FF069033B724FF000037B7297F84630002B05D082
S32D000127704FF00003C4F23003FB6002E04FF44013FB604FF000033B744FF000037B6107F108031846FFF73AFD44
S32D000127980346002B0CBF00230123DBB2002B03D04FF00103FB630CE0BB69002B05DB3B6C632B02D84FF00103F3
S32D000127C001E04FF00003002BA0D1FB6B002B40F01F833B6C632B04D94FF0000387F8463014E04FF0010387F8C9
S32D000127E8473097F84630002B0CD04FF0000387F84630BB6903F08043002B03D04FF0010387F8463097F82A300F
S32D00012810002B03D07B6B4FF007021A6097F82930002B03D07B6B4FF008021A6097F82B30002B03D07B6B4FF057
S32D0001283804021A6097F84730002B0BD07B6B4FF002021A6097F84630002B03D07B6B4FF003021A6097F82B30B1
S32D00012860002B0FD097F84730002B0BD07B6B4FF005021A6097F84630002B03D07B6B4FF006021A604FF450430D
S32D00012888C4F204034FF000021A604FF45043C4F204034FF000025A604FF45043C4F204034FF000029A604FF40A
S32D000128B05043C4F204034FF00002DA604FF45043C4F204034FF000021A614FF45043C4F204034FF000025A6150
S32D000128D8FB6A9A68FB6A5B6810461946FFF7DAFA4FF45043C4F2040340F243421A604FF45043C4F2040340F23A
S32D0001290043425A604FF45043C4F204034FF488629A604FF45043C4F2040340F24342DA604FF45043C4F2040398
S32D0001292840F243421A614FF45043C4F2040340F243425A614FF4E043C4F204034FF4E042C4F2040202F580523C
S32D0001295002F13002126842F4003203F5805303F130031A6057E2B86BFFF750FC03463B643B6C002B00F04E82CD
S32D000129784FF00203FB6349E2BB6B002B03D14FF00C03FB6343E24FF48053C4F20B03DB6A03F47F434FEA132326
S32D000129A04FEA43033B644FF48053C4F20B03DB6A03F0F0034FEA131303F101023B6C02FB03F33B64FB6A9A68EF
S32D000129C83B6CB2FBF3F2BB6B1A6020E2BB6B002B03D14FF00C03FB6319E2BB6B1B68002B03D14FF00C03FB63E5
S32D000129F011E2FFF7DBFB0346002B14BF00230123DBB2002B70D04FF45043C4F204034FF000021A604FF450434F
S32D00012A18C4F204034FF000025A604FF45043C4F204034FF000029A604FF45043C4F204034FF00002DA604FF4B8
S32D00012A405043C4F204034FF000021A614FF45043C4F204034FF000025A61FB6A9A68BB6B1B6810461946FFF711
S32D00012A6819FA4FF45043C4F2040340F243421A604FF45043C4F2040340F243425A604FF45043C4F204034FF48E
S32D00012A9088629A604FF45043C4F2040340F24342DA604FF45043C4F2040340F243421A614FF45043C4F2040357
S32D00012AB840F243425A614FF4E043C4F204034FF4E042C4F2040202F5805202F13002126842F4003203F580539E
S32D00012AE003F130031A6096E140F60A23FB6392E1BB6B002B03D14FF00C03FB638BE14FF48053C4F20B035B68A1
S32D00012B084FEAC3434FEAD343BA6B13607FE1BB6B002B03D14FF00C03FB6378E1FFF742FB0346002B14BF002351
S32D00012B300123DBB2002B2AD0BB6B1A6840F6FF739A4203D94FF00C03FB6364E14FF48053C4F20B034FF48052B8
