S01200002E2E2F464548526F626F742E7331397E
S32D0000C0000000002045010100A1040100A1040100A1040100A1040100A10401000000000000000000000000006D
S32D0000C02800000000A1040100A104010000000000A1040100A1040100A1040100A1040100A1040100A1040100BA
S32D0000C050A1040100A1040100A1040100A1040100A1040100A1040100A1040100A1040100A1040100A104010046
S32D0000C078A1040100A1040100A1040100A1040100A1040100A1040100A1040100A1040100A1040100A10401001E
S32D0000C0A0A1040100A1040100A1040100A1040100A1040100A1040100A1040100A1040100A1040100A1040100F6
S32D0000C0C8A1040100A1040100A1040100A1040100A1040100A1040100A1040100A1040100A1040100A1040100CE
S32D0000C0F0A104010015700100A1040100A1040100A1040100A1040100A1040100A1040100A1040100A1040100C6
S32D0000C118A1040100A1040100A1040100A1040100A1040100A1040100A1040100A1040100A1040100A10401007D
S32D0000C140A1040100A1040100A1040100A104010005390100A1040100A1040100A1040100A1040100A1040100BC
S32D0000C168A1040100A1040100A1040100A1040100A1040100A1040100A1040100A1040100A1040100A10401002D
S32D0000C190A1040100A1040100A104010065330100B93101008D320100F10401003D340100A1040100A104010097
S32D0000C1B8A1040100A1040100A1040100A1040100A1040100A1040100A1040100A1040100A1040100A1040100DD
S32D0000C41081F0004102E000BF83F0004330B54FEA41044FEA430594EA050F08BF90EA020F1FBF54EA000C55EAC6
S32D0000C438020C7FEA645C7FEA655C00F0E2804FEA5454D4EB5555B8BF6D420CDD2C4480EA020281EA030382EA0F
S32D0000C460000083EA010180EA020281EA0303362D88BF30BD11F0004F4FEA01314FF4801C4CEA113102D0404263
S32D0000C48861EB410113F0004F4FEA03334CEA133302D0524263EB430394EA050F00F0A780A4F10104D5F1200E8A
S32D0000C4B00DDB02FA0EFC22FA05F2801841F1000103FA0EF2801843FA05F359410EE0A5F120050EF1200E012A2D
S32D0000C4D803FA0EFC28BF4CF0020C43FA05F3C01851EBE37101F0004507D54FF0000EDCF1000C7EEB00006EEB67
S32D0000C5000101B1F5801F1BD3B1F5001F0CD349085FEA30004FEA3C0C04F101044FEA445212F5800F80F09A8000
S32D0000C528BCF1004F08BF5FEA500C50F1000041EB045141EA050130BD5FEA4C0C404141EB010111F4801FA4F114
S32D0000C5500104E9D191F0000F04BF01460020B1FA81F308BF2033A3F10B03B3F120020CDA0C3208DD02F1140C87
S32D0000C578C2F10C0201FA0CF021FA02F10CE002F11402D8BFC2F1200C01FA02F120FA0CFCDCBF41EA0C019040B1
S32D0000C5A0E41AA2BF01EB0451294330BD6FEA04041F3C1CDA0C340EDC04F11404C4F1200220FA04F001FA02F3B6
S32D0000C5C840EA030021FA04F345EA030130BDC4F10C04C4F1200220FA02F001FA04F340EA0300294630BD21FAA8
S32D0000C5F004F0294630BD94F0000F83F4801306BF81F480110134013D4EE77FEA645C18BF7FEA655C29D094EA1C
S32D0000C618050F08BF90EA020F05D054EA000C04BF1946104630BD91EA030F1EBF0021002030BD5FEA545C05D1A3
S32D0000C6404000494128BF41F0004130BD14F580043CBF01F5801130BD01F0004545F0FE4141F470014FF0000031
S32D0000C66830BD7FEA645C1ABF194610467FEA655C1CBF0B46024650EA013406BF52EA033591EA030F41F40021D7
S32D0000C69030BD00BF90F0000F04BF0021704730B54FF4806404F132044FF000054FF0000150E700BF90F0000F66
S32D0000C6B804BF0021704730B54FF4806404F1320410F0004548BF40424FF000013EE700BF42004FEAE2014FEAF9
S32D0000C6E031014FEA02701FBF12F07F4393F07F4F81F06051704792F0000F14BF93F07F4F704730B54FF460741B
S32D0000C70801F0004521F0004120E700BF50EA010208BF704730B54FF000050AE050EA010208BF704730B511F046
S32D0000C730004502D5404261EB41014FF4806404F132045FEA915C3FF4DCAE4FF003025FEADC0C18BF03325FEAA0
S32D0000C758DC0C18BF033202EBDC02C2F1200300FA03FC20FA02F001FA03FE40EA0E0021FA02F11444C1E600BF19
S32D0000C78070B54FF0FF0C4CF4E06C1CEA11541DBF1CEA135594EA0C0F95EA0C0F00F0DEF82C4481EA030621EAF3
S32D0000C7A84C5123EA4C5350EA013518BF52EA033541F4801143F4801338D0A0FB02CE4FF00005E1FB02E506F05F
S32D0000C7D00042E0FB03E54FF00006E1FB03569CF0000F18BF4EF0010EA4F1FF04B6F5007F64F5407404D25FEA0F
S32D0000C7F84E0E6D4146EB060642EAC62141EA55514FEAC52040EA5E504FEACE2EB4F1FD0C88BFBCF5E06F1ED8D2
S32D0000C820BEF1004F08BF5FEA500E50F1000041EB045170BD06F0004646EA010140EA020081EA0301B4EB5C0487
S32D0000C848C2BFD4EB0C0541EA045170BD41F480114FF0000E013C00F3AB8014F1360FDEBF002001F0004170BDF0
S32D0000C870C4F10004203C35DA0C341BDC04F11404C4F1200500FA05F320FA04F001FA05F240EA020001F0004207
S32D0000C89821F0004110EBD37021FA04F642EB06015EEA430E08BF20EAD37070BDC4F10C04C4F1200500FA04F32F
S32D0000C8C020FA05F001FA04F240EA020001F0004110EBD37041F100015EEA430E08BF20EAD37070BDC4F12005C7
S32D0000C8E800FA05F24EEA020E20FA04F301FA05F243EA020321FA04F001F0004121FA04F220EA020000EBD37028
S32D0000C9105EEA430E08BF20EAD37070BD94F0000F0FD101F00046400041EB010111F4801F08BF013CF7D041EA6D
S32D0000C938060195F0000F18BF704703F00046520043EB030313F4801F08BF013DF7D043EA0603704794EA0C0FF1
S32D0000C9600CEA135518BF95EA0C0F0CD050EA410618BF52EA4306D1D181EA030101F000414FF0000070BD50EA38
S32D0000C988410606BF1046194652EA430619D094EA0C0F02D150EA013613D195EA0C0F05D152EA03361CBF10467B
S32D0000C9B019460AD181EA030101F0004141F0FE4141F470014FF0000070BD41F0FE4141F4780170BD70B54FF04D
S32D0000C9D8FF0C4CF4E06C1CEA11541DBF1CEA135594EA0C0F95EA0C0F00F0A7F8A4EB050481EA030E52EA03359B
S32D0000CA004FEA013100F088804FEA03334FF0805545EA131343EA12634FEA022245EA111545EA10654FEA002676
S32D0000CA280EF000419D4208BF964244F1FD0404F5407402D25B084FEA3202B61A65EB03055B084FEA32024FF461
S32D0000CA5080104FF4002CB6EB020E75EB030E22BFB61A754640EA0C005B084FEA3202B6EB020E75EB030E22BF22
S32D0000CA78B61A754640EA5C005B084FEA3202B6EB020E75EB030E22BFB61A754640EA9C005B084FEA3202B6EBEA
S32D0000CAA0020E75EB030E22BFB61A754640EADC0055EA060E18D04FEA051545EA16754FEA06164FEAC30343EAAC
S32D0000CAC852734FEAC2025FEA1C1CC0D111F4801F0BD141EA00014FF000004FF0004CB6E711F4801F04BF0143AE
S32D0000CAF00020B4F1FD0C88BFBCF5E06F3FF6AFAEB5EB030C04BFB6EB020C5FEA500C50F1000041EB045170BDBC
S32D0000CB180EF0004E4EEA113114EB5C04C2BFD4EB0C0541EA045170BD41F480114FF0000E013C90E645EA060EC3
S32D0000CB408DE60CEA135594EA0C0F08BF95EA0C0F3FF43BAF94EA0C0F0AD150EA01347FF434AF95EA0C0F7FF499
S32D0000CB6825AF104619462CE795EA0C0F06D152EA03353FF4FDAE1046194622E750EA410618BF52EA43067FF432
S32D0000CB90C5AE50EA41047FF40DAF52EA43057FF4EBAE12E74FF0FF3C06E000BF4FF0010C02E000BF4FF0010C75
S32D0000CBB84DF804CD4FEA410C7FEA6C5C4FEA430C18BF7FEA6C5C1BD001B050EA410C0CBF52EA430C91EA030FEC
S32D0000CBE002BF90EA020F0020704710F1000F91EA030F58BF994208BF90422CBFD8176FEAE37040F0010070476E
S32D0000CC084FEA410C7FEA6C5C02D150EA013C07D14FEA430C7FEA6C5CD6D152EA033CD3D05DF8040B704700BFCD
S32D0000CC308446104662468C461946634600E000BF01B5FFF7B7FF002848BF10F1000F01BD4DF808EDFFF7F4FF13
S32D0000CC580CBF012000205DF808FB00BF4DF808EDFFF7EAFF34BF012000205DF808FB00BF4DF808EDFFF7E0FF18
S32D0000CC8094BF012000205DF808FB00BF4DF808EDFFF7CEFF94BF012000205DF808FB00BF4DF808EDFFF7C4FF40
S32D0000CCA834BF012000205DF808FB00BF4FEA410212F5001215D211D56FF47873B3EB625212D94FEAC12343F0D6
S32D0000CCD0004343EA505311F0004F23FA02F018BF404270474FF00000704750EA013005D111F0004008BF6FF016
S32D0000CCF8004070474FF00000704700BF4A0011D212F5001211D20DD56FF47873B3EB62520ED44FEAC12343F085
S32D0000CD20004343EA505323FA02F070474FF00000704750EA013002D14FF0FF3070474FF0000070474FEA410241
S32D0000CD48B2F1E04324BFB3F5001CDCF1FE5C0DD901F0004C4FEAC0024CEA5070B2F1004F40EB830008BF20F09E
S32D0000CD700100704711F0804F21D113F13872BCBF01F00040704741F480114FEA5252C2F11802C2F1200C10FAB1
S32D0000CD980CF320FA02F018BF40F001004FEAC1234FEAD32303FA0CFC40EA0C0023FA02F34FEA4303CCE77FEA26
S32D0000CDC0625307D150EA01331EBF4FF0FE4040F44000704701F0004040F0FE4040F40000704700BF80F00040CC
S32D0000CDE802E000BF81F0004142001FBF5FEA410392EA030F7FEA226C7FEA236C6AD04FEA1262D2EB1363C1BF06
S32D0000CE10D218414048404140B8BF5B42192B88BF704710F0004F40F4000020F07F4018BF404211F0004F41F4FA
S32D0000CE38000121F07F4118BF494292EA030F3FD0A2F1010241FA03FC10EB0C00C3F1200301FA03F100F000432B
S32D0000CE6002D5494260EB4000B0F5000F13D3B0F1807F06D340084FEA310102F10102FE2A51D2B1F1004F40EB94
S32D0000CE88C25008BF20F0010040EA03007047490040EB000010F4000FA2F10102EDD1B0FA80FCACF1080CB2EB5F
S32D0000CEB00C0200FA0CF0AABF00EBC25052421843BCBFD0401843704792F0000F81F4000106BF80F400000132EB
S32D0000CED8013BB5E74FEA41037FEA226C18BF7FEA236C21D092EA030F04D092F0000F08BF0846704790EA010FD7
S32D0000CF001CBF0020704712F07F4F04D1400028BF40F00040704712F100723CBF00F50000704700F0004343F0DC
S32D0000CF28FE4040F4000070477FEA226216BF08467FEA23630146420206BF5FEA412390EA010F40F480007047C1
S32D0000CF504FF0000304E000BF10F0004348BF40425FEA000C08BF704743F0964301464FF000001CE050EA010264
S32D0000CF7808BF70474FF000030AE000BF50EA010208BF704711F0004302D5404261EB41015FEA010C02BF84465B
S32D0000CFA00146002043F0B64308BFA3F18053A3F50003BCFA8CF2083AA3EBC25310DB01FA02FC634400FA02FC6B
S32D0000CFC8C2F12002BCF1004F20FA02F243EB020008BF20F00100704702F1200201FA02FCC2F1200250EA4C0034
S32D0000CFF021FA02F243EB020008BF20EADC7070474FF0FF0C1CEAD0521EBF1CEAD15392EA0C0F93EA0C0F6FD019
S32D0000D0181A4480EA010C400218BF5FEA41211ED04FF0006343EA501043EA5111A0FB01310CF00040B1F5000FE7
S32D0000D0403EBF490041EAD3715B0040EA010062F17F02FD2A1DD8B3F1004F40EBC25008BF20F00100704790F058
S32D0000D068000F0CF0004C08BF49024CEA502040EA51207F3AC2BFD2F1FF0340EAC250704740F400004FF0000388
S32D0000D090013A5DDC12F1190FDCBF00F000407047C2F10002410021FA02F1C2F1200200FA02FC5FEA310040F1D5
S32D0000D0B8000053EA4C0308BF20EADC70704792F0000F00F0004C02BF400010F4000F013AF9D040EA0C0093F04C
S32D0000D0E0000F01F0004C02BF490011F4000F013BF9D041EA0C018FE70CEAD15392EA0C0F18BF93EA0C0F0AD00B
S32D0000D10830F0004C18BF31F0004CD8D180EA010000F00040704790F0000F17BF90F0004F084691F0000F91F0BB
S32D0000D130004F14D092EA0C0F01D142020FD193EA0C0F03D14B0218BF084608D180EA010000F0004040F0FE4051
S32D0000D15840F40000704740F0FE4040F4400070474FF0FF0C1CEAD0521EBF1CEAD15392EA0C0F93EA0C0F69D044
S32D0000D180A2EB030280EA010C49024FEA402037D04FF0805343EA111143EA10130CF000408B4238BF5B0042F14E
S32D0000D1A87D024FF4000C8B4224BF5B1A40EA0C00B3EB510F24BFA3EB510340EA5C00B3EB910F24BFA3EB9103A4
S32D0000D1D040EA9C00B3EBD10F24BFA3EBD10340EADC001B0118BF5FEA1C1CE0D1FD2A3FF650AF8B4240EBC25018
S32D0000D1F808BF20F0010070470CF0004C4CEA50207F32C2BFD2F1FF0340EAC250704740F400004FF00003013AF1
S32D0000D22037E792F0000F00F0004C02BF400010F4000F013AF9D040EA0C0093F0000F01F0004C02BF490011F4C9
S32D0000D248000F013BF9D041EA0C0195E70CEAD15392EA0C0F08D142027FF47DAF93EA0C0F7FF470AF084676E7AE
S32D0000D27093EA0C0F04D14B023FF44CAF08466EE730F0004C18BF31F0004CCAD130F000427FF45CAF31F0004376
S32D0000D2987FF43CAF5FE700BF4FF0FF3C06E000BF4FF0010C02E000BF4FF0010C4DF804CD4FEA40024FEA41039F
S32D0000D2C07FEA226C18BF7FEA236C11D001B052EA530C18BF90EA010F58BFB2EB030088BFC81738BF6FEAE1706E
S32D0000D2E818BF40F0010070477FEA226C02D15FEA402C05D17FEA236CE4D15FEA412CE1D05DF8040B704700BF16
S32D0000D310844608466146FFE70FB5FFF7C9FF002848BF10F1000F0FBD4DF808EDFFF7F4FF0CBF012000205DF839
S32D0000D33808FB00BF4DF808EDFFF7EAFF34BF012000205DF808FB00BF4DF808EDFFF7E0FF94BF012000205DF8A9
S32D0000D36008FB00BF4DF808EDFFF7D2FF94BF012000205DF808FB00BF4DF808EDFFF7C8FF34BF012000205DF8B1
S32D0000D38808FB00BF4FEA4002B2F1FE4F0FD34FF09E03B3EB12620DD94FEA002343F0004310F0004F23FA02F060
S32D0000D3B018BF404270474FF00000704712F1610F01D1420205D110F0004008BF6FF0004070474FF00000704797
S32D0000D3D880B483B000AF78607B6823F00043184607F10C07BD4680BC704700BF80B584B000AFF860B9607A607F
S32D0000D4003B6005F071FC02460B4610461946FFF799FC0246FB681A60FB68BA685A60FB687A689A60FB683A6880
S32D0000D428DA60FB68BA691A61FB68054A5A61FB68034A9A61FB68184607F11007BD4680BD000000000000000073
S32D0000D45080B582B000AF786005F046FC02460B46104619460CA3D3E90023FEF7D5FF02460B4610461946FFF7A0
S32D0000D47865FC02467B681A607B68074A5A617B68054A9A6107F10807BD4680BDAFF300807B14AE47E17A943F49
S32D0000D4A000000000AFF3008090B58BB000AFF860B9607A603B6005F017FC02460B4610461946FFF73FFC034657
S32D0000D4C8FB61FB681B68F8691946FFF78BFC03467B62FB68FA691A60786AFFF7F9F802460B464FF001010C465C
S32D0000D4F01046194660A3D3E90023FFF7B3FB0346002B02D14FF000031C46E3B2002B01D05B4B7B62B8687968D3
S32D0000D518FFF768FC0346BB61FB689C69B869796AFFF76AFD034620461946FFF75DFC03461A46FB689A61B869D8
S32D0000D540FFF74AFF03464FF00102144618463968FFF712FF0346002B02D14FF000031C46E3B2002B1CD14FF0BC
S32D0000D56801031C46B8684549FFF702FF0346002B02D14FF000031C46E3B2002B06D0B8693E49FFF7D7FE03464D
S32D0000D590002B05E0B8693B49FFF7EEFE0346002BFB685B6978681946FFF720FC03461846796AFFF7D9FD03464B
S32D0000D5B87B61FB687A685A61FB685B681846B969FFF71AFD03461C46FB689A68FB689B6910461946FFF710FD87
S32D0000D5E0034620461946FFF703FC03461C46FB68DB6818467969FFF703FD034620461946FFF7F6FB03461C46F3
S32D0000D608FB681B691846B968FFF7F6FC034620461946FFF7E9FB03463B62386AFFF7D8FE03464FF00102144685
S32D0000D63018461549FFF7A0FE0346002B02D14FF000031C46E3B2002B0FD0386A0E49FFF7D7FC03461C46386AE3
S32D0000D658FFF7BEFE034620461946FFF781FD03463B623B6A184607F12C07BD4690BD00BF7B14AE47E17A843FAB
S32D0000D6800AD7A33C000000000000C842AFF3008090B59BB002AF786007F12403EA4A00921846EA49EA4AE84B9A
S32D0000D6A8FFF7A4FE07F10803E54A00921846E749E34AE34BFFF79AFE4FF0000387F85F30DF4B3B65DE4BFB64DF
S32D0000D6D07868E149FFF794FC03467B6007F124031846FFF7B5FE07F108031846FFF7B0FE41F23C10C1F6FF70A8
S32D0000D6F805F01CFF41F23810C1F6FF7005F016FF7FE141F23810C1F6FF7005F0FBFE03461846FFF71DFC03465B
S32D0000D720BB6407F1240318467968BA6CCB4BFFF7BBFE03467B6441F23C10C1F6FF7005F0E5FE044641F2381009
S32D0000D748C1F6FF7005F0DEFE0346E31A1846FFF7FFFB034607F108021046B9491A46BD4BFFF79EFE03463B64A3
S32D0000D770786C396CFFF73CFB0346BB65786C396CFFF734FB03467B65B86D396DFFF72EFB03464FF001021446C6
S32D0000D7981846B149FFF7ECFD0346002B02D14FF000031C46E3B2002B06D0386DAA49FFF71BFB0346BB651AE0A4
S32D0000D7C0B86D396DFFF712FB03464FF0010214461846A449FFF7B2FD0346002B02D14FF000031C46E3B2002BED
S32D0000D7E805D0386D9C49FFF7FDFA0346BB65786DF96CFFF7F7FA03464FF00102144618469549FFF7B5FD03461B
S32D0000D810002B02D14FF000031C46E3B2002B06D0F86C8F49FFF7E4FA03467B651AE0786DF96CFFF7DBFA034621
S32D0000D8384FF00102144618468849FFF77BFD0346002B02D14FF000031C46E3B2002B05D0F86C8149FFF7C6FA25
S32D0000D86003467B65B86D7849FFF75EFD0346002B48D1B86DFFF7B0FD03464FF00102144618467949FFF75AFD93
S32D0000D8880346002B02D14FF000031C46E3B2002B10D0B86D7249FFF7AFFB03461C46B86DFFF796FD034620465F
S32D0000D8B01946FFF759FC0346BB6523E0B86DFFF78BFD03464FF00102144618466749FFF753FD0346002B02D111
S32D0000D8D84FF000031C46E3B2002B0FD0B86D6149FFF78AFB03461C46B86DFFF771FD034620461946FFF734FC2D
S32D0000D9000346BB65786D5049FFF70EFD0346002B48D1786DFFF760FD03464FF00102144618465149FFF70AFD72
S32D0000D9280346002B02D14FF000031C46E3B2002B10D0786D4A49FFF75FFB03461C46786DFFF746FD0346204606
S32D0000D9501946FFF709FC03467B6523E0786DFFF73BFD03464FF00102144618463F49FFF703FD0346002B02D108
S32D0000D9784FF000031C46E3B2002B0FD0786D3949FFF73AFB03461C46786DFFF721FD034620461946FFF7E4FB25
S32D0000D9A003467B65BB6D83F0004341F22810C1F6FF70194602F058FE41F23010C1F6FF70796D02F051FEBB6D32
S32D0000D9C83B657B6DFB641CA1D1E9000105F05CF97868B96CFFF706FA03464FF00102144618461749FFF7A6FC52
S32D0000D9F00346002B02D14FF000031C46E3B2002B03D04FF0010387F85F3097F85F3083F00103DBB2002B7FF47A
S32D0000DA1878AE41F22810C1F6FF70094902F020FE41F23010C1F6FF70054902F019FE07F16407BD4690BD00BF65
S32D0000DA407B14AE47E17A943F00000000CDCCCC3E0AD7233C0000803F0000E04100401C460000E0400000E0C0E1
S32D0000DA68000000410000704290B59BB002AF786007F12403EA4A00921846EA49EA4AE84BFFF7B4FC07F10803FE
S32D0000DA90E54A00921846E749E34AE34BFFF7AAFC4FF0000387F85F30DF4B3B65DE4BFB647868E149FFF7A4FAE2
S32D0000DAB803467B6007F124031846FFF7C5FC07F108031846FFF7C0FC41F23C10C1F6FF7005F02CFD41F2381097
S32D0000DAE0C1F6FF7005F026FD7FE141F23810C1F6FF7005F00BFD03461846FFF72DFA0346BB6407F12403184633
S32D0000DB087968BA6CCB4BFFF7CBFC03467B6441F23C10C1F6FF7005F0F5FC044641F23810C1F6FF7005F0EEFC98
S32D0000DB300346E31A1846FFF70FFA034607F108021046B9491A46BD4BFFF7AEFC03463B64786C396CFFF74CF9CD
S32D0000DB580346BB65786C396CFFF744F903467B65B86D396DFFF73EF903464FF0010214461846B149FFF7FCFB2F
S32D0000DB800346002B02D14FF000031C46E3B2002B06D0386DAA49FFF72BF90346BB651AE0B86D396DFFF722F905
S32D0000DBA803464FF0010214461846A449FFF7C2FB0346002B02D14FF000031C46E3B2002B05D0386D9C49FFF76C
S32D0000DBD00DF90346BB65786DF96CFFF707F903464FF00102144618469549FFF7C5FB0346002B02D14FF0000318
S32D0000DBF81C46E3B2002B06D0F86C8F49FFF7F4F803467B651AE0786DF96CFFF7EBF803464FF001021446184660
S32D0000DC208849FFF78BFB0346002B02D14FF000031C46E3B2002B05D0F86C8149FFF7D6F803467B65B86D784908
S32D0000DC48FFF76EFB0346002B48D1B86DFFF7C0FB03464FF00102144618467949FFF76AFB0346002B02D14FF006
S32D0000DC7000031C46E3B2002B10D0B86D7249FFF7BFF903461C46B86DFFF7A6FB034620461946FFF769FA0346DC
S32D0000DC98BB6523E0B86DFFF79BFB03464FF00102144618466749FFF763FB0346002B02D14FF000031C46E3B2C3
S32D0000DCC0002B0FD0B86D6149FFF79AF903461C46B86DFFF781FB034620461946FFF744FA0346BB65786D504969
S32D0000DCE8FFF71EFB0346002B48D1786DFFF770FB03464FF00102144618465149FFF71AFB0346002B02D14FF0BE
S32D0000DD1000031C46E3B2002B10D0786D4A49FFF76FF903461C46786DFFF756FB034620461946FFF719FA0346D3
S32D0000DD387B6523E0786DFFF74BFB03464FF00102144618463F49FFF713FB0346002B02D14FF000031C46E3B26A
S32D0000DD60002B0FD0786D3949FFF74AF903461C46786DFFF731FB034620461946FFF7F4F903467B6541F22810B4
S32D0000DD88C1F6FF70B96D02F06BFC7B6D83F0004341F23010C1F6FF70194602F061FCBB6D3B657B6DFB641CA117
S32D0000DDB0D1E9000104F06CFF7868B96CFFF716F803464FF00102144618461749FFF7B6FA0346002B02D14FF053
S32D0000DDD800031C46E3B2002B03D04FF0010387F85F3097F85F3083F00103DBB2002B7FF478AE41F22810C1F6CC
S32D0000DE00FF70094902F030FC41F23010C1F6FF70054902F029FC07F16407BD4690BD00BF7B14AE47E17A943FF3
S32D0000DE2800000000CDCCCC3E0AD7233C0000803F0000E04100401C460000E0400000E0C00000004100007042B4
S32D0000DE5090B59BB002AF786007F12403E84A00921846E849E84AE64BFFF7C4FA07F10803E34A00921846E549B4
S32D0000DE78E14AE14BFFF7BAFA4FF0000387F85F30DD4B3B65DC4BFB647868DF49FFF7B4F803467B6007F12403F0
S32D0000DEA01846FFF7D5FA07F108031846FFF7D0FA41F23C10C1F6FF7005F03CFB41F23810C1F6FF7005F036FB78
S32D0000DEC87CE141F23810C1F6FF7005F01BFB03461846FFF73DF80346BB6407F1240318467968BA6CC94BFFF75B
S32D0000DEF0DBFA03467B6441F23C10C1F6FF7005F005FB044641F23810C1F6FF7005F0FEFA0346E31A1846FFF7FB
S32D0000DF181FF8034607F108021046B7491A46BB4BFFF7BEFA03463B64786C396CFEF75CFF0346BB65786C396C5C
S32D0000DF40FEF754FF03467B65B86D396DFEF74EFF03464FF0010214461846AF49FFF70CFA0346002B02D14FF078
S32D0000DF6800031C46E3B2002B06D0386DA849FEF73BFF0346BB651AE0B86D396DFEF732FF03464FF00102144692
S32D0000DF901846A249FFF7D2F90346002B02D14FF000031C46E3B2002B05D0386D9A49FEF71DFF0346BB65786DF2
S32D0000DFB8F96CFEF717FF03464FF00102144618469349FFF7D5F90346002B02D14FF000031C46E3B2002B06D067
S32D0000DFE0F86C8D49FEF704FF03467B651AE0786DF96CFEF7FBFE03464FF00102144618468649FFF79BF90346A1
S32D0000E008002B02D14FF000031C46E3B2002B05D0F86C7F49FEF7E6FE03467B65B86D7649FFF77EF90346002BC0
S32D0000E03048D1B86DFFF7D0F903464FF00102144618467749FFF77AF90346002B02D14FF000031C46E3B2002BAE
S32D0000E05810D0B86D7049FEF7CFFF03461C46B86DFFF7B6F9034620461946FFF779F80346BB6523E0B86DFFF7A8
S32D0000E080ABF903464FF00102144618466549FFF773F90346002B02D14FF000031C46E3B2002B0FD0B86D5F4924
S32D0000E0A8FEF7AAFF03461C46B86DFFF791F9034620461946FFF754F80346BB65786D4E49FFF72EF90346002B96
S32D0000E0D048D1786DFFF780F903464FF00102144618464F49FFF72AF90346002B02D14FF000031C46E3B2002B16
S32D0000E0F810D0786D4849FEF77FFF03461C46786DFFF766F9034620461946FFF729F803467B6523E0786DFFF720
S32D0000E1205BF903464FF00102144618463D49FFF723F90346002B02D14FF000031C46E3B2002B0FD0786D3749B3
S32D0000E148FEF75AFF03461C46786DFFF741F9034620461946FFF704F803467B6541F22810C1F6FF70B96D02F0C9
S32D0000E1707BFA41F23010C1F6FF70796D02F074FABB6D3B657B6DFB641BA1D1E9000104F07FFD7868B96CFEF73D
S32D0000E19829FE03464FF00102144618461649FFF7C9F80346002B02D14FF000031C46E3B2002B03D04FF0010318
S32D0000E1C087F85F3097F85F3083F00103DBB2002B7FF47BAE41F22810C1F6FF70084902F043FA41F23010C1F6FF
S32D0000E1E8FF70054902F03CFA07F16407BD4690BD7B14AE47E17A943F00000000CDCCCC3E0AD7233C0000803F1D
S32D0000E2100000E04100401C460000E0400000E0C0000050410000704290B59BB002AF786007F12403EC4A00921A
S32D0000E2381846EC49EC4AEA4BFFF7D8F807F10803E74A00921846E949E54AE54BFFF7CEF84FF0000387F85F3033
S32D0000E260E14B3B65E04BFB647868E349FEF7C8FE03467B6007F124031846FFF7E9F807F108031846FFF7E4F8C8
S32D0000E28841F23C10C1F6FF7005F050F941F23810C1F6FF7005F04AF982E141F23810C1F6FF7005F02FF9034642
S32D0000E2B01846FEF751FE0346BB6407F1240318467968BA6CCD4BFFF7EFF803467B6441F23C10C1F6FF7005F0FB
S32D0000E2D819F9044641F23810C1F6FF7005F012F90346E31A1846FEF733FE034607F108021046BB491A46BF4B42
S32D0000E300FFF7D2F803463B64786C396CFEF770FD0346BB65786C396CFEF768FD03467B65B86D396DFEF762FDC8
S32D0000E32803464FF0010214461846B349FFF720F80346002B02D14FF000031C46E3B2002B06D0386DAC49FEF76A
S32D0000E3504FFD0346BB651AE0B86D396DFEF746FD03464FF0010214461846A649FEF7E6FF0346002B02D14FF05B
S32D0000E37800031C46E3B2002B05D0386D9E49FEF731FD0346BB65786DF96CFEF72BFD03464FF0010214461846BB
S32D0000E3A09749FEF7E9FF0346002B02D14FF000031C46E3B2002B06D0F86C9149FEF718FD03467B651AE0786DC1
S32D0000E3C8F96CFEF70FFD03464FF00102144618468A49FEF7AFFF0346002B02D14FF000031C46E3B2002B05D088
S32D0000E3F0F86C8349FEF7FAFC03467B65B86D7A49FEF792FF0346002B48D1B86DFEF7E4FF03464FF001021446DE
S32D0000E41818467B49FEF78EFF0346002B02D14FF000031C46E3B2002B10D0B86D7449FEF7E3FD03461C46B86D20
S32D0000E440FEF7CAFF034620461946FEF78DFE0346BB6523E0B86DFEF7BFFF03464FF00102144618466949FEF734
S32D0000E46887FF0346002B02D14FF000031C46E3B2002B0FD0B86D6349FEF7BEFD03461C46B86DFEF7A5FF034643
S32D0000E49020461946FEF768FE0346BB65786D5249FEF742FF0346002B48D1786DFEF794FF03464FF00102144640
S32D0000E4B818465349FEF73EFF0346002B02D14FF000031C46E3B2002B10D0786D4C49FEF793FD03461C46786DF0
S32D0000E4E0FEF77AFF034620461946FEF73DFE03467B6523E0786DFEF76FFF03464FF00102144618464149FEF72C
S32D0000E50837FF0346002B02D14FF000031C46E3B2002B0FD0786D3B49FEF76EFD03461C46786DFEF755FF03463A
S32D0000E53020461946FEF718FE03467B65BB6D83F0004341F22810C1F6FF70194602F08CF87B6D83F0004341F2AF
S32D0000E5583010C1F6FF70194602F082F8BB6D3B657B6DFB641CA1D1E9000104F08DFB7868B96CFEF737FC0346EB
S32D0000E5804FF00102144618461749FEF7D7FE0346002B02D14FF000031C46E3B2002B03D04FF0010387F85F307A
S32D0000E5A897F85F3083F00103DBB2002B7FF475AE41F22810C1F6FF70094902F051F841F23010C1F6FF7006495C
S32D0000E5D002F04AF807F16407BD4690BDAFF300807B14AE47E17A943F00000000CDCCCC3E0AD7233C0000803FC0
S32D0000E5F80000E04100401C460000E0400000E0C0000050410000704290B591B002AF786007F10C03804A0092BD
S32D0000E62018468049804A7E4BFEF7E4FE4FF0000387F837307A4BFB6278687C49FEF7E0FC03467B6007F10C0350
S32D0000E6481846FEF701FF41F23810C1F6FF7004F06DFFC3E041F23810C1F6FF7004F052FF03461846FEF774FCBB
S32D0000E6700346BB6207F10C0318467968BA6A6C4BFEF712FF03463B63386BF96AFEF7AEFB03464FF0010214467F
S32D0000E69818466649FEF76CFE0346002B02D14FF000031C46E3B2002B06D0F86A5F49FEF79BFB03463B631AE0F1
S32D0000E6C0386BF96AFEF792FB03464FF00102144618465949FEF732FE0346002B02D14FF000031C46E3B2002BEF
S32D0000E6E805D0F86A5149FEF77DFB03463B63386B4949FEF715FE0346002B48D1386BFEF767FE03464FF001028D
S32D0000E710144618464949FEF711FE0346002B02D14FF000031C46E3B2002B10D0386B4349FEF766FC03461C46D1
S32D0000E738386BFEF74DFE034620461946FEF710FD03463B6323E0386BFEF742FE03464FF001021446184638493A
S32D0000E760FEF70AFE0346002B02D14FF000031C46E3B2002B0FD0386B3149FEF741FC03461C46386BFEF728FE4C
S32D0000E788034620461946FEF7EBFC03463B6341F23010C1F6FF70396B01F062FF3B6BFB621BA1D1E9000104F095
S32D0000E7B06FFA7868B96AFEF719FB03464FF00102144618461649FEF7B9FD0346002B02D14FF000031C46E3B2F9
S32D0000E7D8002B03D04FF0010387F8373097F8373083F00103DBB2002B7FF434AF41F22810C1F6FF70084901F09E
S32D0000E80033FF41F23010C1F6FF70054901F02CFF07F13C07BD4690BD7B14AE47E17A943F000000009A99193FED
S32D0000E8280AD7233C0000E04100401C460000E0400000E0C00000704100007042AFF3008090B591B002AF78606B
S32D0000E85007F10C03804A009218468049804A7E4BFEF7C8FD4FF0000387F837307A4BFB6278687C49FEF7C4FB20
S32D0000E87803467B6007F10C031846FEF7E5FD41F23C10C1F6FF7004F051FEC3E041F23C10C1F6FF7004F036FEBA
S32D0000E8A003461846FEF758FB0346BB6207F10C0318467968BA6A6C4BFEF7F6FD03463B63386BF96AFEF792FA7E
S32D0000E8C803464FF00102144618466649FEF750FD0346002B02D14FF000031C46E3B2002B06D0F86A5F49FEF76E
S32D0000E8F07FFA03463B631AE0386BF96AFEF776FA03464FF00102144618465949FEF716FD0346002B02D14FF0C2
S32D0000E91800031C46E3B2002B05D0F86A5149FEF761FA03463B63386B4949FEF7F9FC0346002B48D1386BFEF760
S32D0000E9404BFD03464FF00102144618464949FEF7F5FC0346002B02D14FF000031C46E3B2002B10D0386B4349EC
S32D0000E968FEF74AFB03461C46386BFEF731FD034620461946FEF7F4FB03463B6323E0386BFEF726FD03464FF0B7
S32D0000E9900102144618463849FEF7EEFC0346002B02D14FF000031C46E3B2002B0FD0386B3149FEF725FB034639
S32D0000E9B81C46386BFEF70CFD034620461946FEF7CFFB03463B6341F22810C1F6FF70396B01F046FE3B6BFB620D
S32D0000E9E01BA1D1E9000104F053F97868B96AFEF7FDF903464FF00102144618461649FEF79DFC0346002B02D1ED
S32D0000EA084FF000031C46E3B2002B03D04FF0010387F8373097F8373083F00103DBB2002B7FF434AF41F228109A
S32D0000EA30C1F6FF70084901F017FE41F23010C1F6FF70054901F010FE07F13C07BD4690BD7B14AE47E17A943F18
S32D0000EA58000000009A99193F0AD7233C0000E04100401C460000E0400000E0C0000070410000C841AFF3008066
S32D0000EA8090B59BB002AF786007F12403EA4A00921846EA49EA4AE84BFEF7ACFC07F10803E54A00921846E74983
S32D0000EAA8E34AE34BFEF7A2FC4FF0000387F85F30DF4B3B65DE4BFB647868E149FEF79CFA03467B6007F12403D8
S32D0000EAD01846FEF7BDFC07F108031846FEF7B8FC41F23C10C1F6FF7004F024FD41F23810C1F6FF7004F01EFD98
S32D0000EAF87FE141F23810C1F6FF7004F003FD03461846FEF725FA0346BB6407F1240318467968BA6CCB4BFEF749
S32D0000EB20C3FC03467B6441F23C10C1F6FF7004F0EDFC044641F23810C1F6FF7004F0E6FC0346E31A1846FEF704
S32D0000EB4807FA034607F108021046B9491A46BD4BFEF7A6FC03463B64786C396CFEF744F90346BB65786C396C67
S32D0000EB70FEF73CF903467B65B86D396DFEF736F903464FF0010214461846B149FEF7F4FB0346002B02D14FF08E
S32D0000EB9800031C46E3B2002B06D0386DAA49FEF723F90346BB651AE0B86D396DFEF71AF903464FF00102144690
S32D0000EBC01846A449FEF7BAFB0346002B02D14FF000031C46E3B2002B05D0386D9C49FEF705F90346BB65786DE7
S32D0000EBE8F96CFEF7FFF803464FF00102144618469549FEF7BDFB0346002B02D14FF000031C46E3B2002B06D05F
S32D0000EC10F86C8F49FEF7ECF803467B651AE0786DF96CFEF7E3F803464FF00102144618468849FEF783FB0346B4
S32D0000EC38002B02D14FF000031C46E3B2002B05D0F86C8149FEF7CEF803467B65B86D7849FEF766FB0346002BB5
S32D0000EC6048D1B86DFEF7B8FB03464FF00102144618467949FEF762FB0346002B02D14FF000031C46E3B2002B9E
S32D0000EC8810D0B86D7249FEF7B7F903461C46B86DFEF79EFB034620461946FEF761FA0346BB6523E0B86DFEF7B7
S32D0000ECB093FB03464FF00102144618466749FEF75BFB0346002B02D14FF000031C46E3B2002B0FD0B86D614911
S32D0000ECD8FEF792F903461C46B86DFEF779FB034620461946FEF73CFA0346BB65786D5049FEF716FB0346002BBB
S32D0000ED0048D1786DFEF768FB03464FF00102144618465149FEF712FB0346002B02D14FF000031C46E3B2002B05
S32D0000ED2810D0786D4A49FEF767F903461C46786DFEF74EFB034620461946FEF711FA03467B6523E0786DFEF72E
S32D0000ED5043FB03464FF00102144618463F49FEF70BFB0346002B02D14FF000031C46E3B2002B0FD0786D3949A0
S32D0000ED78FEF742F903461C46786DFEF729FB034620461946FEF7ECF903467B6541F22810C1F6FF70B96D01F0DB
S32D0000EDA063FC7B6D83F0004341F23010C1F6FF70194601F059FCBB6D3B657B6DFB641CA1D1E9000103F064FF2D
S32D0000EDC87868B96CFEF70EF803464FF00102144618461749FEF7AEFA0346002B02D14FF000031C46E3B2002B32
S32D0000EDF003D04FF0010387F85F3097F85F3083F00103DBB2002B7FF478AE41F22810C1F6FF70094901F028FCF3
S32D0000EE1841F23010C1F6FF70054901F021FC07F16407BD4690BD00BF7B14AE47E17A943F00000000CDCCCC3E10
S32D0000EE400AD7233C0000803F0000E04100401C460000E0400000E0C0000000410000A042B0B59CB002AF7860C5
S32D0000EE6807F12803DFF8202400921846DFF81C14DFF81C24DFF81034FEF7B8FA07F10C03DFF804240092184678
S32D0000EE90DFF80814FE4AFE4BFEF7ACFA4FF0000387F86730FA4BBB65F94B7B6503F01CFF02460B4610461946F8
S32D0000EEB8FDF744FF03463B657868F749FEF79CF803467B6007F128031846FEF7BDFA07F10C031846FEF7B8FA06
S32D0000EEE041F23C10C1F6FF7004F024FB41F23810C1F6FF7004F01EFBABE141F23810C1F6FF7004F003FB034636
S32D0000EF081846FEF725F80346FB6407F1280318467968FA6CE14BFEF7C3FA0346BB6441F23C10C1F6FF7004F01C
S32D0000EF30EDFA044641F23810C1F6FF7004F0E6FA0346E31A1846FEF707F8034607F10C021046CF491A46D34B3A
S32D0000EF58FEF7A6FA03467B64B86C796CFDF744FF03463B66B86C796CFDF73CFF0346FB65386EB96DFDF736FFCE
S32D0000EF8003464FF0010214461846C749FEF7F4F90346002B02D14FF000031C46E3B2002B06D0B86DC049FDF78B
S32D0000EFA823FF03463B661AE0386EB96DFDF71AFF03464FF0010214461846BA49FEF7BAF90346002B02D14FF0E8
S32D0000EFD000031C46E3B2002B05D0B86DB249FDF705FF03463B66F86D796DFDF7FFFE03464FF001021446184698
S32D0000EFF8AB49FEF7BDF90346002B02D14FF000031C46E3B2002B06D0786DA549FDF7ECFE0346FB651AE0F86D12
S32D0000F020796DFDF7E3FE03464FF00102144618469E49FEF783F90346002B02D14FF000031C46E3B2002B05D0EC
S32D0000F048786D9749FDF7CEFE0346FB65386E8E49FEF766F90346002B48D1386EFEF7B8F903464FF001021446DD
S32D0000F07018468F49FEF762F90346002B02D14FF000031C46E3B2002B10D0386E8849FDF7B7FF03461C46386EEF
S32D0000F098FEF79EF9034620461946FEF761F803463B6623E0386EFEF793F903464FF00102144618467D49FEF750
S32D0000F0C05BF90346002B02D14FF000031C46E3B2002B0FD0386E7749FDF792FF03461C46386EFEF779F9034658
S32D0000F0E820461946FEF73CF803463B66F86D6649FEF716F90346002B48D1F86DFEF768F903464FF001021446DD
S32D0000F11018466749FEF712F90346002B02D14FF000031C46E3B2002B10D0F86D6049FDF767FF03461C46F86DC0
S32D0000F138FEF74EF9034620461946FEF711F80346FB6523E0F86DFEF743F903464FF00102144618465549FEF749
S32D0000F1600BF90346002B02D14FF000031C46E3B2002B0FD0F86D4F49FDF742FF03461C46F86DFEF729F9034651
S32D0000F18820461946FDF7ECFF0346FB653B6E83F0004341F22810C1F6FF70194601F060FA41F23010C1F6FF70D9
S32D0000F1B0F96D01F059FA3B6EBB65FB6D7B6532A1D1E9000103F064FD7868F96CFDF70EFE03464FF0010214466A
S32D0000F1D818462D49FEF7AEF80346002B02D14FF000031C46E3B2002B24D103F079FD04460D46386DFDF76CFAF5
S32D0000F20002460B4620462946FDF706F902460B464FF001010C46104619464FF000024FF07E5303F5F003FDF76E
S32D0000F2283BFD0346002B02D14FF000031C46E3B2002B02D04FF0010301E04FF00003002B03D04FF0010387F8DD
S32D0000F250673097F8673083F00103DBB2002B7FF44CAE41F22810C1F6FF70094901F0FCF941F23010C1F6FF70D5
S32D0000F278054901F0F5F907F16807BD46B0BD00BF7B14AE47E17A943F000000000000003F0AD7233C0000803FB5
S32D0000F2A00000E04100401C460000E0400000E0C00000A0410000F04190B59BB002AF786007F12403EA4A0092AD
S32D0000F2C81846EA49EA4AE84BFEF790F807F10803E54A00921846E749E34AE34BFEF786F84FF0000387F85F3033
S32D0000F2F0DF4B3B65DE4BFB647868E149FDF780FE03467B6007F124031846FEF7A1F807F108031846FEF79CF809
S32D0000F31841F23C10C1F6FF7004F008F941F23810C1F6FF7004F002F97FE141F23810C1F6FF7004F0E7F8034680
S32D0000F3401846FDF709FE0346BB6407F1240318467968BA6CCB4BFEF7A7F803467B6441F23C10C1F6FF7004F0EF
S32D0000F368D1F8044641F23810C1F6FF7004F0CAF80346E31A1846FDF7EBFD034607F108021046B9491A46BD4B82
S32D0000F390FEF78AF803463B64786C396CFDF728FD0346BB65786C396CFDF720FD03467B65B86D396DFDF71AFD4C
S32D0000F3B803464FF0010214461846B149FDF7D8FF0346002B02D14FF000031C46E3B2002B06D0386DAA49FDF712
S32D0000F3E007FD0346BB651AE0B86D396DFDF7FEFC03464FF0010214461846A449FDF79EFF0346002B02D14FF098
S32D0000F40800031C46E3B2002B05D0386D9C49FDF7E9FC0346BB65786DF96CFDF7E3FC03464FF0010214461846B0
S32D0000F4309549FDF7A1FF0346002B02D14FF000031C46E3B2002B06D0F86C8F49FDF7D0FC03467B651AE0786DB7
S32D0000F458F96CFDF7C7FC03464FF00102144618468849FDF767FF0346002B02D14FF000031C46E3B2002B05D07C
S32D0000F480F86C8149FDF7B2FC03467B65B86D7849FDF74AFF0346002B48D1B86DFDF79CFF03464FF0010214461C
S32D0000F4A818467949FDF746FF0346002B02D14FF000031C46E3B2002B10D0B86D7249FDF79BFD03461C46B86D16
S32D0000F4D0FDF782FF034620461946FDF745FE0346BB6523E0B86DFDF777FF03464FF00102144618466749FDF772
S32D0000F4F83FFF0346002B02D14FF000031C46E3B2002B0FD0B86D6149FDF776FD03461C46B86DFDF75DFF03467F
S32D0000F52020461946FDF720FE0346BB65786D5049FDF7FAFE0346002B48D1786DFDF74CFF03464FF0010214467D
S32D0000F54818465149FDF7F6FE0346002B02D14FF000031C46E3B2002B10D0786D4A49FDF74BFD03461C46786DE6
S32D0000F570FDF732FF034620461946FDF7F5FD03467B6523E0786DFDF727FF03464FF00102144618463F49FDF76A
S32D0000F598EFFE0346002B02D14FF000031C46E3B2002B0FD0786D3949FDF726FD03461C46786DFDF70DFF034677
S32D0000F5C020461946FDF7D0FD03467B6541F22810C1F6FF70B96D01F047F87B6D83F0004341F23010C1F6FF7050
S32D0000F5E8194601F03DF8BB6D3B657B6DFB641CA1D1E9000103F048FB7868B96CFDF7F2FB03464FF001021446E8
S32D0000F61018461749FDF792FE0346002B02D14FF000031C46E3B2002B03D04FF0010387F85F3097F85F3083F02A
S32D0000F6380103DBB2002B7FF478AE41F22810C1F6FF70094901F00CF841F23010C1F6FF70054901F005F807F1AA
S32D0000F6606407BD4690BD00BF7B14AE47E17A943F000000000000003F0AD7233C0000803F0000E04100401C464F
S32D0000F6880000E0400000E0C0000000410000C84180B582B000AF78607B68C3F100031846FDF756FC034641F2A2
S32D0000F6B02810C1F6FF70194600F0D6FF7868FDF74BFC034641F23010C1F6FF70194600F0CBFF07F10807BD468A
S32D0000F6D880BD00BF80B582B000AF786039607B68C3F100031846FDF733FC034641F22810C1F6FF70194600F03D
S32D0000F700B3FF3868FDF728FC034641F23010C1F6FF70194600F0A8FF07F10807BD4680BD80B582B000AF786064
S32D0000F7287B68C3F100031846FDF712FC034641F22810C1F6FF70194600F092FF7B68C3F100031846FDF704FC13
S32D0000F750034641F23010C1F6FF70194600F084FF07F10807BD4680BD80B582B000AF786039607868FFF790FFA4
S32D0000F778386803F06DFA4FF00000FFF789FF07F10807BD4680BD00BF80B582B000AF786039607B6803F10A033B
S32D0000F7A018467968FFF79AFF386803F055FA4FF00000FFF771FF07F10807BD4680BD00BF80B500AF0448FFF7BA
S32D0000F7C877FD0448FFF73CF80348FFF755F980BD666696406666AE409A99394190B585B000AF78604FF0000311
S32D0000F7F0FB735FE041F29040C1F6FF7008F0E8FE034618467968FDF7F1FA0346BB604FF001031C46B8682C4932
S32D0000F818FDF7AEFD0346002B02D14FF000031C46E3B2002B05D0B8682649FDF7DBFA0346BB60B868FDF7CCFD0A
S32D0000F84003464FF00102144618462149FDF776FD0346002B02D14FF000031C46E3B2002B03D04FF00103FB7357
S32D0000F86820E04FF001031C46B8681849FDF780FD0346002B02D14FF000031C46E3B2002B04D04FF00F00FFF718
S32D0000F89047FF03E06FF00E00FFF742FF4FF0190003F0DAF94FF00000FFF73AFF4FF0640003F0D2F9FB7B83F0A7
S32D0000F8B80103DBB2002B99D107F11407BD4690BD000034430000B4430000003F0000000090B583B000AF4FF086
S32D0000F8E00003FB7149E041F29040C1F6FF7008F06FFE034618462649FDF778FA03463B603868FDF769FD034631
S32D0000F9084FF00102144618462049FDF713FD0346002B02D14FF000031C46E3B2002B03D04FF00103FB7120E03D
S32D0000F9304FF001031C4638681749FDF71DFD0346002B02D14FF000031C46E3B2002B04D04FF00F00FFF7E4FE51
S32D0000F95803E06FF00E00FFF7DFFE4FF0190003F077F94FF00000FFF7D7FE4FF0640003F06FF9FB7983F00103B0
S32D0000F980DBB2002BAFD107F10C07BD4690BD00BF000034430000003F0000000098B500AF4FF03200FFF778FE78
S32D0000F9A840F2726003F054F94FF00000FFF770FE3A48FFF713FF4FF019004FF4C871FFF7CFFE4FF00F0040F2A9
S32D0000F9D0EE21FFF7C9FE4FF0FA0003F03DF90FE04FF00F00FFF758FE4FF04B0003F034F94FF00000FFF750FE25
S32D0000F9F84FF04B0003F02CF941F29040C1F6FF7008F0D2FD03464FF00102144618462449FDF790FC0346002BAB
S32D0000FA2002D14FF000031C46E3B2002BD8D14FF4C87003F011F90FE04FF00F00FFF72CFE4FF04B0003F008F985
S32D0000FA484FF00000FFF724FE4FF04B0003F000F941F29040C1F6FF7008F0A6FD03464FF00102144618460E4965
S32D0000FA70FDF764FC0346002B02D14FF000031C46E3B2002BD8D14FF0FA0003F0E5F86FF00E0040F2EE21FFF713
S32D0000FA9867FE0448FFF7A2FE98BD00BF000000C0000050420000000098B500AF41F24010C1F6FF7003F060FD9E
S32D0000FAC003461846FCF708FE02460B464FF001010C46104619461CA3D3E90023FDF7E0F80346002B02D14FF0A7
S32D0000FAE800031C46E3B2002B02D04FF0000323E041F24010C1F6FF7003F03EFD03461846FCF7E6FD02460B46C7
S32D0000FB104FF001010C46104619460DA3D3E90023FDF7BEF80346002B02D14FF000031C46E3B2002B02D04FF08A
S32D0000FB38010301E04FF00203184698BDAFF300809A9999999999F93F9A9999999999E93FB0B584B000AF41F298
S32D0000FB601C10C1F6FF7040F2E22104F0CFF841F21C10C1F6FF7040F6C41104F0E5F841F21C10C1F6FF70DFF878
S32D0000FB88901404F0FDF841F29040C1F6FF7008F02BF841F22840C1F6FF704FF0000104F051FE41F22840C1F6E8
S32D0000FBB0FF704FF0010104F0A7FE4FF0FA0003F04BF84FF00003FB73FEE007F104023B4641F22840C1F6FF70A1
S32D0000FBD811461A4604F0D8FF0346002B1DD07B684FF0010214461846DFF82814FDF7C0FB0346002B02D14FF0F7
S32D0000FC0000031C46E3B2002B02D0FFF7D9FD08E04FF00103FB7304E04FF00A0003F01CF800E000BF07F10402A9
S32D0000FC283B4641F22840C1F6FF7011461A4604F0ABFF0346002BEBD141F22840C1F6FF7049F61021C0F2010102
S32D0000FC504FF000024FF0000305F0CEF841F29040C1F6FF7008F094FC034641F22840C1F6FF7019464FF00002ED
S32D0000FC784FF0020305F0FCF841F22840C1F6FF7049F61C21C0F201014FF002024FF0000305F0AEF841F290401D
S32D0000FCA0C1F6FF7008F084FC034641F22840C1F6FF7019464FF002024FF0020305F0DCF841F22840C1F6FF701E
S32D0000FCC849F62821C0F201014FF004024FF0000305F08EF841F29040C1F6FF7008F074FC034641F22840C1F6A4
S32D0000FCF0FF7019464FF004024FF0020305F0BCF841F22840C1F6FF7049F63421C0F201014FF008024FF0000352
S32D0000FD1805F06EF841F23C10C1F6FF7003F0F2FB034641F22840C1F6FF7019464FF008024FF0020305F07CF87E
S32D0000FD4041F22840C1F6FF7049F64021C0F201014FF00A024FF0000305F04EF841F23810C1F6FF7003F0D2FB57
S32D0000FD68034641F22840C1F6FF7019464FF00A024FF0020305F05CF841F22840C1F6FF7049F64C21C0F201010B
S32D0000FD904FF00C024FF0000305F02EF841F24010C1F6FF7003F0ECFB034641F22840C1F6FF7019464FF00C0262
S32D0000FDB84FF0020305F05CF84FF0320002F048FFFB7B83F00103DBB2002B7FF4FAAE41F22840C1F6FF704FF026
S32D0000FDE0000104F033FD41F22840C1F6FF704FF0010104F089FD41F22840C1F6FF7049F65821C0F201014FF0E8
S32D0000FE080D024FF0000304F0F3FF02F069FF02460B4610461946FCF791FF0346BB6003E04FF0320002F014FFAD
S32D0000FE3002F05AFF04460D46B868FCF74DFC02460B4620462946FCF7E7FA02460B464FF001010C46104619463D
S32D0000FE584FF000024FF0804303F57813FCF7FEFE0346002B02D14FF000031C46E3B2002B21D041F24010C1F6F1
S32D0000FE80FF7003F07DFB03461846FCF725FC02460B464FF001010C46104619465CA3D3E90023FCF7FDFE0346C9
S32D0000FEA8002B02D14FF000031C46E3B2002B02D04FF0010301E04FF00003002BB0D1FFF77BFC5548FDF7E0FB0D
S32D0000FED0FFF702FD5348FDF7BBFF5348FDF7D8FBFFF7E6FD0346022B18D15048FDF7C0FD4F48FEF78DFB6FF070
S32D0000FEF8130041F66A01FFF733FC4C48FDF7C4FB4B48FEF78DF94B48FDF7BEFB4A48FDF79BFF0FE04948FDF7D9
S32D0000FF20A7FD4348FEF774FB6FF0130041F66A01FFF71AFC4448FDF7ABFB00BF4348FFF751FCFFF72BFD3D48AA
S32D0000FF48FDF7A2FB4048FDF77FFF4048FDF79CFB3F48FDF779FF41F21C10C1F6FF703D4903F00EFF4FF0FA00B6
S32D0000FF7002F072FE3A48FEF773FF41F21C10C1F6FF70254903F000FF4FF0FA0002F064FE2848FDF77DFB33484F
S32D0000FF98FEF73AFB2348FDF777FB41F21C10C1F6FF702C4903F0ECFE4FF0FA0002F050FE41F21C10C1F6FF706B
S32D0000FFC0154903F0E1FE2848FEF722FB2748FDF75FFBFFF781FC4FF00F0040F2E241FFF7C3FB4FF0FA0002F0AF
S32D0000FFE837FE4FF032004FF4FA71FFF7B9FB4FF0500040F6B831FFF7C7FB4FF00003184607F11007BD46B0BD68
S32D000100109A9999999999F93F0000B44200002043000038413333AB40000068410000D040333333410000803F7D
S32D000100389A9939400000C04033333340000000409A99E940000000C0CDCCEC3F00000C419A9969400000324356
S32D00010060000018410000B0409A99C9400000404180B582B000AF786039607B68012B36D13A684FF6FF739A4299
S32D0001008831D141F21C10C1F6FF704FF0000103F01BFE41F22810C1F6FF704FF00001144A00F056FA41F2301094
S32D000100B0C1F6FF704FF001010F4A00F04DFA41F23810C1F6FF704FF0000102F067FE41F23C10C1F6FF704FF00E
S32D000100D8080102F05FFE41F24010C1F6FF704FF0070103F037FA07F10807BD4680BD00BF0000104180B500AF52
S32D000101004FF001004FF6FF71FFF7B2FF80BD00BF80B500AF41F2F462C1F6FF7241F21C13C1F6FF73D31A1946CC
S32D0001012841F21C13C1F6FF731A460B4610464FF000011A4608F0DDFB80BD00BF09F052FC00F0B0F9FFF7E0FFF5
S32D0001015009F024FC09F0C0FB09F058FC00F00CF84FF0000041F24411C1F6FF71FFF7F4FC0346184608F09CFB68
S32D0001017880B500AF4FF4E043C4F204034FF4E042C4F2040202F5805202F13802126842F4785203F5805303F101
S32D000101A038031A6000F02EF900F094F841F27433C1F6FF734FF058021A6041F27433C1F6FF731B684FF47A721D
S32D000101C802FB03F241F27033C1F6FF731A6041F27033C1F6FF731B681A464FF4E043C4F2040303F5825303F1D7
S32D000101F004031B6803F070634FEA136303F10103B2FBF3F31A4641F27833C1F6FF731A604FF4E043C4F2040352
S32D000102184FF4E042C4F2040202F5805202F13C02126842F0225203F5805303F13C031A604FF4E043C4F20403E1
S32D000102404FF4E042C4F2040202F5805202F13002126842F0006203F5805303F130031A604FF45043C4F2030374
S32D000102684FF480721A614FF0640002F085FB4FF45043C4F203034FF45042C4F20302526922F010025A614FF4A3
S32D000102905043C4F203034FF000021A604FF45043C4F203034FF010025A6103F09BFA03F043FB41F26C30C1F658
S32D000102B8FF7002F0E5FB41F22840C1F6FF7004F023F941F2883002F0C3FC80BD80B400AF4FF48043C4F2060384
S32D000102E04FF000025A704FF48043C4F206034FF098021A704FF48043C4F206039B79DBB203F01003002B0CBF5A
S32D0001030800230123DBB2002BF0D14FF48043C4F206039B79DBB203F00C034FEA9303022B0CBF00230123DBB203
S32D00010330002BEED14FF48043C4F206034FF018021A714FF48043C4F206034FF000025A714FF4E043C4F2040317
S32D0001035803F5825303F104034FF00002C0F213121A604FF48043C4F206034FF054025A7100BF4FF48043C4F27C
S32D0001038006039B79DBB203F02003002B14BF00230123DBB2002BF0D100BF4FF48043C4F206039B79DBB203F0B8
S32D000103A84003002B14BF00230123DBB2002BF0D14FF48043C4F206034FF48042C4F206021278D2B202F03F025C
S32D000103D0D2B21A704FF48043C4F206039B79DBB203F00C034FEA9303032B0CBF00230123DBB2002BEED14FF0C3
S32D000103F800031846BD4680BC704700BF80B400AF4FF44043C4F204034FF480725A634FF2C003C4F20F034FF25B
S32D00010420C002C4F20F02526942F400525A614FF2C003C4F20F034FF2C002C4F20F02126842F400521A604FF4D1
S32D000104484043C4F2040340F20312C0F20A021A634FF46143CEF200034FF46142CEF20002D2F8882142F08062EA
S32D00010470C3F888214FF46143CEF200034FF46142CEF20002926842F080629A60BD4680BC704700BF80B483B083
S32D0001049800AF7860FEE700BF80B400AF00BEBD4680BC704780B400AF4FF0E0224CF20003C0F20003C2F8083D5A
S32D000104C04FF40053C4F205034CF22052DA814FF40053C4F205034DF62812DA814FF40053C4F205034FF0D2021B
S32D000104E81A80BD4680BC704780B500AF4FF44043C4F20403D3F8A03003F48053002B0CBF00230123DBB2002B94
S32D000105101FD04FF44043C4F204034FF44042C4F20402D2F8A02022F48052C3F8A02041F2B040C1F6FF7008F09B
S32D0001053841F94FF2C003C4F20F034FF2C002C4F20F02126822F400521A6080BD0000000090B585B000AFF860AA
S32D000105600B467A60FB72FB68FA7A1A71FB684FF000025A714FF001031C4678682049FCF7FBFE0346002B02D1E2
S32D000105884FF000031C46E3B2002B02D01A4B7B6011E04FF001031C4678681849FCF7D4FE0346002B02D14FF0AC
S32D000105B000031C46E3B2002B01D0124B7B607868FCF78AF802460B46104619460AA3D3E90023FCF7D5F80246B7
S32D000105D80B4610461946FCF7B1FB0246FB681A60FB68184607F11407BD4690BDAFF30080ABAAAAAAAAAA204087
S32D00010600000040410000803F80B584B000AF786039603B687F2B03DD4FF07F03FB7309E03B6813F1800F03DAAA
S32D000106284FF08003FB7301E03B68FB737B685B79FA7B9A420FD07B68FA7B5A717B681A79FB7B41F26C30C1F605
S32D00010650FF7011461A464FF01E0302F05FFA07F11007BD4680BD00BFB0B584B000AF786039604FF001031C463E
S32D0001067838684D49FCF75EFE0346002B02D14FF000031C46E3B2002B02D0474B3B6011E04FF001031C463868EE
S32D000106A04449FCF769FE0346002B02D14FF000031C46E3B2002B01D03E4B3B603868FCF70BF804460D467B688E
S32D000106C81B681846FCF704F802460B46104619464FF000024FF0804303F5B203FCF776F902460B462046294625
S32D000106F0FCF746F802460B4610461946FCF722FB03463B604FF001031C4638682A49FCF729FE0346002B02D14F
S32D000107184FF000031C46E3B2002B14D03868FBF7D7FF02460B46104619461DA3D3E90023FCF722F802460B466F
S32D0001074010461946FCF7B6FA0346FB6022E03868FBF7C2FF02460B46104619464FF000024FF0804303F5C003ED
S32D00010768FCF70AF802460B46104619464FF000024FF0804303F5B203FCF728F902460B4610461946FCF792FA4E
S32D000107900346FB607868F968FFF736FF07F11007BD46B0BDAFF3008052B81E85EB51F43F0000C8C20000C842D9
S32D000107B800000000AFF3008080B485B000AF02460B46FA71BB71BB79002B07D141F24813C1F6FF734FF0000279
S32D000107E01A7006E041F24813C1F6FF734FF001021A704FF03803FB7341F24813C1F6FF731A78FB7B1343FB738C
S32D000108084FF4C043C4F206034FF4C042C4F206029278D2B242F01002D2B29A704FF4C043C4F206034FF4C0420F
S32D00010830C4F206029278D2B242F02002D2B29A704FF4C043C4F20603FA7B1A7107F11407BD4680BC704700BF9E
S32D0001085880B483B000AF4FF001037B6004E000BF7B6803F101037B607B68312BCCBF00230123DBB2002BF2D158
S32D0001088007F10C07BD4680BC704700BF80B582B000AF02460B46FA71BB7141F24913C1F6FF731B7818464FF05B
S32D000108A80001FFF789FF4FF4C043C4F20603DB78DBB203F00203002B14BF00230123DBB2002BF0D14FF4C043C1
S32D000108D0C4F206034FF4C042C4F20602D278D2B242F00202D2B2DA704FF4C043C4F20603FA791A714FF4C0431C
S32D000108F8C4F20603DB78DBB203F00203002B14BF00230123DBB2002BF0D14FF4C043C4F206034FF4C042C4F27C
S32D000109200602D278D2B242F00202D2B2DA704FF4C043C4F20603BA791A714FF4C043C4F20603DB78DBB203F033
S32D000109480203002B14BF00230123DBB2002BF0D14FF4C043C4F206034FF4C042C4F20602D278D2B242F00202B1
S32D00010970D2B2DA704FF4C043C4F206034FF4C042C4F206029278D2B222F02002D2B29A704FF4C043C4F206032D
S32D000109984FF4C042C4F206029278D2B222F01002D2B29A70FFF754FF07F10807BD4680BD80B582B000AF0346FE
S32D000109C0FB71FB79184600F06BF807F10807BD4680BD00BF80B582B000AF02460B46FA71BB7100F039F8FB7996
S32D000109E84FEA4303DBB21846FFF7E2FFBB791846FFF7DEFF00F03EF807F10807BD4680BD80B500AF4FF0FF00AB
S32D00010A1000F046F80346184680BD00BF80B584B000AF0346FB7100F017F8FB794FEA4303DBB243F00103DBB2D6
S32D00010A38DBB21846FFF7BCFFFFF7E2FF0346FB7300F018F8FB7B184607F11007BD4680BD80B400AF4FF24003DB
S32D00010A60C4F20F034FF24002C4F20F02926842F480129A60BD4680BC704700BF80B400AF4FF24003C4F20F03B5
S32D00010A884FF24002C4F20F02526842F480125A60BD4680BC704700BF80B485B000AF0346FB714FF00003BB73C7
S32D00010AB003E0FB7B03F10103FB734FF44043C4F20A03DB6A4FF00003002BF2D14FF44043C4F20A034FF440420C
S32D00010AD8C4F20A02D26A42F00042DA624FF44043C4F20A03FA795A6300BF4FF44043C4F20A03DB6A03F40033D1
S32D00010B00002B14BF00230123DBB2002BF1D14FF44043C4F20A039B6BBB73BB7B184607F11407BD4680BC7047AD
S32D00010B2880B582B000AF4FF4E043C4F204034FF4E042C4F2040202F5805202F13002126842F4805203F5805309
S32D00010B5003F130031A604FF42043C4F204034FF480721A654FF24003C4F20F034FF24002C4F20F02526942F437
S32D00010B7880125A61FFF77EFF4FF42043C4F204034FF400725A654FF42043C4F204034FF400729A654FF42043FA
S32D00010BA0C4F204034FF40072DA654FF44043C4F20A034FF44062C8F200021A604FF44043C4F20A034FF0050202
S32D00010BC8C3F60062DA604FF000037B6007E04FF0FF00FFF7EDFE7B6803F101037B607B68092BCCBF00230123E7
S32D00010BF0DBB2002BEFD104A1D1E9000102F048F807F10807BD4680BD9A9999999999B93F90B486B000AFF86075
S32D00010C18B9607A60FA684FF42043C4F206039A4214D14FF4E043C4F204034FF4E042C4F2040202F5805202F132
S32D00010C403402126842F4806203F5805303F134031A6083E0FA684FF43043C4F206039A4214D14FF4E043C4F236
S32D00010C6804034FF4E042C4F2040202F5805202F13402126842F4006203F5805303F134031A6067E0FA684FF4D5
S32D00010C904043C4F206039A4214D14FF4E043C4F204034FF4E042C4F2040202F5805202F13402126842F480527A
S32D00010CB803F5805303F134031A604BE0FA684FF45043C4F206039A4214D14FF4E043C4F204034FF4E042C4F27C
S32D00010CE0040202F5805202F13402126842F4005203F5805303F134031A602FE0FA684FF42043C4F20E039A42C1
S32D00010D0814D14FF4E043C4F204034FF4E042C4F2040202F5805202F12802126842F4806203F5805303F1280331
S32D00010D301A6013E04FF4E043C4F204034FF4E042C4F2040202F5805202F12802126842F4006203F5805303F12C
S32D00010D5828031A60FB68DB78DBB223F00C03DAB2FB68DA70FB684FF000029A70BB684FF47A7202FB03F27B6854
S32D00010D804FEA031392FBF3F39CB2FB681B78DBB223F01F03FB75234603F4F8534FEA2323DBB203F01F03DAB2B4
S32D00010DA8FB7D1343DAB2FB681A70E2B2FB685A70BB684FF4FA4202FB03F27B684FEA031392FBF3F39AB2234626
S32D00010DD019464FEAC121CB1A4FEA43139BB2D3189CB2FB689B7ADBB223F01F03FB75E3B203F01F03DAB2FB7D28
S32D00010DF81343DAB2FB689A72FB68DB78DBB243F00C03DAB2FB68DA7007F11807BD4690BC704700BF80B483B07A
S32D00010E2000AF786000BF7B681B79DBB203F02003002B14BF00230123DBB2002BF3D17B68DB79DBB2184607F168
S32D00010E480C07BD4680BC704780B483B000AF78600B46FB7000BF7B681B79DBB2DBB26FEA0303DBB24FEAD3136D
S32D00010E70DBB2002BF3D17B68FA78DA7107F10C07BD4680BC704700BF80B487B000AFF860B9607A60FB687B61D3
S32D00010E9807E0BB68DAB27B691A707B6903F101037B617B68002B0CBF00230123DBB27A6802F1FF327A60002BB7
S32D00010EC0EBD107F11C07BD4680BC704780B584B000AF786039607B681B6BFB60FA683B689A4264D07B681B795D
S32D00010EE8002B43D07B685A787B6803F1340310461946FA684FF0010301F0ACFB0346002B0CBF00230123DBB2D5
S32D00010F10002B02D04FF001034BE07B684FF000021A717B685A6A7B681B6AD218FB689A4220D97B68DB78FB72C4
S32D00010F3814E07B681B6AFA68D318FB607B685A787B6803F1340310461946FA684FF0010301F080FBFB7A03F194
S32D00010F60FF33FB72FB7A012B94BF00230123DBB2002BE2D13B68002B19D07B685A787B6803F1340310461946EE
S32D00010F883A684FF0010301F057FA0346002B0CBF00230123DBB2002B02D04FF0010304E07B683A681A634FF09B
S32D00010FB00003184607F11007BD4680BD80B584B000AF786078684FF00001FFF77FFF0346FB73FB7B002B40F056
S32D00010FD8AE807B681B78032B40F095807B685B79002B00F090807B684FF000021A637B6803F1340318464FF0A5
S32D0001100000014FF40072FFF73FFF7B684FF0550283F832227B684FF0AA0283F833227B684FF0520283F83420AC
S32D000110287B684FF0520283F835207B684FF0610283F836207B684FF0410283F837207B684FF0720283F818227B
S32D000110507B684FF0720283F819227B684FF0410283F81A227B684FF0610283F81B227B681B69DAB27B6883F87B
S32D000110781C227B681B699BB24FEA2323DAB27B6883F81D227B681B694FEA1343DAB27B6883F81E227B681B6928
S32D000110A04FEA1363DAB27B6883F81F227B68DB68DAB27B6883F820227B68DB689BB24FEA2323DAB27B6883F819
S32D000110C821227B68DB684FEA1343DAB27B6883F822227B68DB684FEA1363DAB27B6883F823227B6859787B6838
S32D000110F003F134027B685B69084611461A464FF0010301F0ABFA7B684FF000025A717B685B7818464FF00001DF
S32D000111184FF0000201F084FB0346002B0CBF00230123DBB2002B02D04FF00103FB73FB7B184607F11007BD4650
S32D0001114080BD00BF80B582B000AF78600B467B807B68002B08D07B681B78002B04D07B68DB887A889A4202D0F9
S32D000111684FF009030FE07B685B78184601F0ECFB034603F00103DBB2002B02D04FF0030301E04FF000031846A2
S32D0001119007F10807BD4680BD80B586B000AF78607B681A687B689B8810461946FFF7CAFF0346FB75FB7D002BBC
S32D000111B840F0C8807B689B7903F02003002B00F0C1807B689B7903F04003002B20D07B681B6859787B6803F1D1
S32D000111E028027B689B69084611461A464FF0010301F034FA0346002B0CBF00230123DBB2002B02D04FF0010315
S32D00011208A1E07B689B7923F04003DAB27B689A717B681A687B68DB6910461946FFF752FE0346FB75FB7D002B8C
S32D0001123040F08C807B681B6A3B613B6903F10B033A6902F10B02127842F02002D2B21A703B6903F11C037A6881
S32D00011258D268D2B21A703B6903F11D037A68D26892B24FEA2222D2B21A703B6903F11E037A68D2684FEA12421A
S32D00011280D2B21A703B6903F11F037A68D2684FEA1262D2B21A703B6903F11A037A681269D2B21A703B6903F1E8
S32D000112A81B037A68126992B24FEA2222D2B21A703B6903F114037A6812694FEA1242D2B21A703B6903F1150376
S32D000112D07A6812694FEA124292B24FEA2222D2B21A704FF00003FB603B6903F11603FA68D2B21A703B6903F1E0
S32D000112F81703FA6892B24FEA2222D2B21A703B6903F11803FA684FEA1242D2B21A703B6903F11903FA684FEA7D
S32D000113201262D2B21A707B689B7923F02003DAB27B689A717B681B684FF001021A717B681B681846FFF73AFE50
S32D000113480346FB75FB7D184607F11807BD4680BD80B584B000AF78607868FFF719FF0346FB73FB7B002B03D186
S32D000113707B684FF000021A60FB7B184607F11007BD4680BD80B588B000AF786039604FF080033B614FF00F0351
S32D00011398FB604FF0FF337B614FF00203FB612AE04FF00103BB611AE0FB69BA6902FB03F33A6802FB03F27B688A
S32D000113C0D31ABB60BB68002B09DBBA687B699A4205D2BB687B61FB693B61BB69FB60BB6903F10103BB61BB6931
S32D000113E8102B8CBF00230123DBB2002BDCD1FB694FEA4303FB61FB69B3F5807F8CBF00230123DBB2002BCBD174
S32D000114104FF48053C4F20B034FF48052C4F20B02D26A22F00802DA624FF48053C4F20B03DB6A1A464FF00F0397
S32D00011438CFF6F0731340BB614FF48053C4F20B033A694FEA52024FEA02224FEA02424FEA1242F96801F1FF31FA
S32D000114604FEA0111C9B21143BA690A4342F46022DA6203E04FF00A0001F0EEFB4FF48053C4F20B035B6A03F047
S32D000114880803002B14BF00230123DBB2002BEDD14FF48053C4F20B034FF48052C4F20B02D26A42F00802DA6209
S32D000114B04FF48053C4F20B034FF48052C4F20B02126B42F480121A6307F12007BD4680BD80B582B000AF78604C
S32D000114D839607B684FF000021A604FF48053C4F20B034FF40042C0F20012DA624FF48053C4F20B03DB6A03F03D
S32D000115008073002B0CBF00230123DBB2002BF1D14FF48053C4F20B034FF00002C3F8C0204FF48053C4F20B0382
S32D000115284FF481325A604FF48053C4F20B034FF028029A624FF48053C4F20B034FF001125A643B689B681846B7
S32D000115504CF66041C0F20501FFF714FF4FF48053C4F20B035B6A03F00303002B0CBF00230123DBB2002BF1D179
S32D000115784FF45043C4F2040340F243421A604FF45043C4F2040340F243425A604FF45043C4F204034FF48862BC
S32D000115A09A604FF45043C4F2040340F24342DA604FF45043C4F2040340F243421A614FF45043C4F2040340F214
S32D000115C843425A614FF4E043C4F204034FF4E042C4F2040202F5805202F13002126842F4003203F5805303F1E1
S32D000115F030031A604FF48053C4F20B034FF6FF721A634FF48053C4F20B034FF0B302C0F27F025A634FF480533E
S32D00011618C4F20B034FF48052C4F20B02D26A42F00062DA624FF48053C4F20B03DB6A03F00063002B0CBF00236D
S32D000116400123DBB2002BF1D14FF48053C4F20B035B6A03F48033002B0CBF00230123DBB2002B03D07B684FF0AA
S32D0001166801021A604FF48053C4F20B034FF48052C4F20B02126B42F080021A634FF00003184607F10807BD46CC
S32D0001169080BD00BF80B400AF4FF48053C4F20B035B6A1A4640F207331340002B0CBF00230123DBB21846BD4663
S32D000116B880BC704780B485B000AF78604FF48053C4F20B031B6B1A467B681340FB60FB68002B14BF0023012327
S32D000116E0DBB2002BEED1FB68184607F11407BD4680BC704780B584B000AF78607B681B7803F03F0249F654531A
S32D00011708C0F2010353F82230FB60FB68002B06D17B681B78002B02D04FF0010330E14FF48053C4F20B034FF4BB
S32D000117308052C4F20B02126B42F080021A634FF48053C4F20B035B6A03F00103DBB2002BF5D14FF48053C4F267
S32D000117580B037A6852689A60FB6823F44003FB607B685B784FEA835303F44003FA681343FB607B685B78022BB1
S32D0001178003D1FB6843F40013FB607B685B78042B16D1FB6803F44033B3F5003F08D1FB6823F44033FB60FB685A
S32D000117A843F44033FB6007E0FB6823F44033FB60FB6843F40033FB604FF48053C4F20B034FF48052C4F20B0204
S32D000117D052684FEA02424FEA12425A607B68DB68002B32D0FB6803F44033B3F5403F03D0FB6843F40013FB604A
S32D000117F87B681B7A002B03D0FB6843F01003FB607B68DB68012B03D9FB6843F02003FB607B68DB68B3F1FF3FFE
S32D0001182013D04FF48053C4F20B034FF48052C4F20B02526811467A68D2684FEA02420A435A60FB6843F00203B8
S32D00011848FB604FF48053C4F20B034FF000021A604FF48053C4F20B03FA68DA604FF00100C0F20E00FFF726FFF0
S32D000118700346012B0CBF00230123DBB2002B10D04FF48053C4F20B034FF48052C4F20B02126B42F4702242F001
S32D0001189801021A634FF0010372E04FF48053C4F20B031B6B03F08003002B0CBF00230123DBB2002B0ED04FF420
S32D000118C08053C4F20B034FF48052C4F20B02126B42F001121A634FF0010355E04FF48053C4F20B031B6B03F47C
S32D000118E88033002B0CBF00230123DBB2002B0ED04FF48053C4F20B034FF48052C4F20B02126B42F001121A635A
S32D000119104FF0FF3338E0FB6803F44033002B25D04FF48053C4F20B031B691A467B681A61FB6803F44033B3F5A1
S32D00011938803F17D14FF48053C4F20B035B691A467B685A614FF48053C4F20B039B691A467B689A614FF480530B
S32D00011960C4F20B03DB691A467B68DA614FF48053C4F20B034FF48052C4F20B02126B42F001021A634FF00003AF
S32D00011988184607F11007BD4680BD00BF80B592B000AF786039604FF00003FB633B68BB6341F26013C1F6FF73FD
S32D000119B07B637B6B002B03D140F6012300F0A0BC41F26433C1F6FF733B633B6B002B03D140F60B2300F094BCC5
S32D000119D83B6B1B68FB62FB6A002B03D140F60B2300F08ABC7B6841F20432934200F0388241F2043293421BD860
S32D00011A0041F20132934238D041F20132934207D8032B00F03D84092B00F0298400F066BC41F20232934200F06C
S32D00011A28128241F20332934200F0BE8300F05ABC41F20732934200F04B8341F2073293420BD841F20532934225
S32D00011A5000F0348241F20632934200F0108300F045BC41F20832934200F0B68241F20932934200F0C48200F03A
S32D00011A7839BC786B49F64851C0F20101FFF724FD0346FB63FB6B002B40F030844FF0000387F847304FF000032E
S32D00011AA087F82B304FF0000387F82A304FF0000387F829304FF0000387F846304FF0000387F828304FF0000376
S32D00011AC83B724FF000037B724FF00003FB604FF000033B744FF000037B6107F108031846FFF704FE0346002B9A
S32D00011AF00CBF00230123DBB2002B03D04FF00103FB63FCE340F24C4001F0A6F84FF008033B724FF000037B7237
S32D00011B184FF4D573FB604FF000033B744FF000037B6107F108031846FFF7E0FD03463B643B6C002B0BD1BA69BC
S32D00011B40FB689A4203D04FF00103FB63D7E34FF0010387F846304FF0010387F8283097F82830002B00F0C6806F
S32D00011B684FF037033B724FF000037B724FF00003FB604FF000033B744FF000037B6107F108031846FFF7B2FD47
S32D00011B9003463B643B6C002B03D04FF00103FB63ADE34FF069033B724FF000037B724FF00003FB604FF0000302
S32D00011BB83B744FF000037B6107F108031846FFF795FD0346002B0CBF00230123DBB2002B03D04FF00103FB6396
S32D00011BE08DE3BB6903F44013002B00F083804FF000033B644FF00A0001F02EF83B6C03F101033B644FF03703E2
S32D00011C083B724FF000037B724FF00003FB604FF000033B744FF000037B6107F108031846FFF764FD0346002BF9
S32D00011C300CBF00230123DBB2002B03D04FF00103FB6336E04FF069033B724FF000037B7297F84630002B05D0A5
S32D00011C584FF00003C4F23003FB6002E04FF44013FB604FF000033B744FF000037B6107F108031846FFF73AFD67
S32D00011C800346002B0CBF00230123DBB2002B03D04FF00103FB630CE0BB69002B05DB3B6C632B02D84FF0010316
S32D00011CA801E04FF00003002BA0D1FB6B002B40F01F833B6C632B04D94FF0000387F8463014E04FF0010387F8EC
S32D00011CD0473097F84630002B0CD04FF0000387F84630BB6903F08043002B03D04FF0010387F8463097F82A3032
S32D00011CF8002B03D07B6B4FF007021A6097F82930002B03D07B6B4FF008021A6097F82B30002B03D07B6B4FF07B
S32D00011D2004021A6097F84730002B0BD07B6B4FF002021A6097F84630002B03D07B6B4FF003021A6097F82B30D4
S32D00011D48002B0FD097F84730002B0BD07B6B4FF005021A6097F84630002B03D07B6B4FF006021A604FF4504330
S32D00011D70C4F204034FF000021A604FF45043C4F204034FF000025A604FF45043C4F204034FF000029A604FF42D
S32D00011D985043C4F204034FF00002DA604FF45043C4F204034FF000021A614FF45043C4F204034FF000025A6173
S32D00011DC0FB6A9A68FB6A5B6810461946FFF7DAFA4FF45043C4F2040340F243421A604FF45043C4F2040340F25D
S32D00011DE843425A604FF45043C4F204034FF488629A604FF45043C4F2040340F24342DA604FF45043C4F20403BC
S32D00011E1040F243421A614FF45043C4F2040340F243425A614FF4E043C4F204034FF4E042C4F2040202F580525F
S32D00011E3802F13002126842F4003203F5805303F130031A6057E2B86BFFF750FC03463B643B6C002B00F04E82F0
S32D00011E604FF00203FB6349E2BB6B002B03D14FF00C03FB6343E24FF48053C4F20B03DB6A03F47F434FEA132349
S32D00011E884FEA43033B644FF48053C4F20B03DB6A03F0F0034FEA131303F101023B6C02FB03F33B64FB6A9A6812
S32D00011EB03B6CB2FBF3F2BB6B1A6020E2BB6B002B03D14FF00C03FB6319E2BB6B1B68002B03D14FF00C03FB6308
S32D00011ED811E2FFF7DBFB0346002B14BF00230123DBB2002B70D04FF45043C4F204034FF000021A604FF4504372
S32D00011F00C4F204034FF000025A604FF45043C4F204034FF000029A604FF45043C4F204034FF00002DA604FF4DB
S32D00011F285043C4F204034FF000021A614FF45043C4F204034FF000025A61FB6A9A68BB6B1B6810461946FFF734
S32D00011F5019FA4FF45043C4F2040340F243421A604FF45043C4F2040340F243425A604FF45043C4F204034FF4B1
S32D00011F7888629A604FF45043C4F2040340F24342DA604FF45043C4F2040340F243421A614FF45043C4F204037A
S32D00011FA040F243425A614FF4E043C4F204034FF4E042C4F2040202F5805202F13002126842F4003203F58053C1
S32D00011FC803F130031A6096E140F60A23FB6392E1BB6B002B03D14FF00C03FB638BE14FF48053C4F20B035B68C4
S32D00011FF04FEAC3434FEAD343BA6B13607FE1BB6B002B03D14FF00C03FB6378E1FFF742FB0346002B14BF002375
S32D000120180123DBB2002B2AD0BB6B1A6840F6FF739A4203D94FF00C03FB6364E14FF48053C4F20B034FF48052DB
S32D00012040C4F20B02526822F4FE5222F03F025A604FF48053C4F20B034FF48052C4F20B0252681146BA6B12681F
S32D000120684FEAC2424FEAD2420A435A6043E140F60A23FB633FE1BB6B002B03D14FF00C03FB6338E14FF48053B3
S32D00012090C4F20B039B6A03F006034FEA53033B643B6C002B04D1BB6B4FF000021A6026E13B6C012B04D1BB6BD1
S32D000120B84FF001021A601EE13B6C102B04D1BB6B4FF002021A6016E14FF00503FB6312E1BB6B002B03D14FF0B1
S32D000120E00C03FB630BE1FFF7D5FA0346002B14BF00230123DBB2002B56D0BB6B1B68002B16D14FF48053C4F2C0
S32D000121080B034FF48052C4F20B02926A22F006029A624FF48053C4F20B034FF48052C4F20B02926A9A62E6E040
S32D00012130BB6B1B68012B18D14FF48053C4F20B034FF48052C4F20B02926A22F006029A624FF48053C4F20B0324
S32D000121584FF48052C4F20B02926A42F002029A62C9E0BB6B1B68022B16D14FF48053C4F20B034FF48052C4F247
S32D000121800B02926A22F006029A624FF48053C4F20B034FF48052C4F20B02926A9A62AEE04FF00503FB63AAE0AA
S32D000121A840F60A23FB63A6E0BB6B002B03D14FF00C03FB639FE04FF48053C4F20B034FF48052C4F20B02D26A83
S32D000121D042F00062DA624FF48053C4F20B03DB6A03F00063002B0CBF00230123DBB2002BF1D14FF48053C4F218
S32D000121F80B031B6B03F08003002B0CBF00230123DBB2002B0FD04FF48053C4F20B034FF48052C4F20B02126BAB
S32D0001222042F080021A637B6B4FF000021A604FF48053C4F20B035B6A03F48033002B0CBF00230123DBB2002B7F
S32D0001224808D07B6B1B68002B08D17B6B4FF001021A6003E07B6B4FF000021A607B6B1A68BB6B1A6047E0BB6BA7
S32D000122704FF01C021A60BB6B03F104034FF004021A60BB6B03F108034FF41E721A6036E04FF00200FFF712FABD
S32D000122984FF48053C4F20B031B6B03F4E003002B0CBF00230123DBB2002B0ED04FF48053C4F20B034FF480521B
S32D000122C0C4F20B02126B42F4E0021A634FF00403FB634FF48053C4F20B034FF48052C4F20B02126B42F03202E1
S32D000122E81A6308E040F60923FB6304E000BF02E000BF00E000BFFB6B184607F14807BD4680BD00BF80B489B048
S32D0001231000AF786039607B687B6141F26013C1F6FF733B613B69002B02D14FF0000381E03B691B68022B0BD0E0
S32D000123383B691B68032B07D03B691B68072B03D03B691B68082B0DD14FF48053C4F20B035B6A03F00403002B22
S32D000123600CBF00230123DBB2002BF1D13B68FB6156E0FB69B3F5007F28BF4FF40073FB60FB6803F103034FEA74
S32D000123889303BB613CE04FF48053C4F20B031B6B03F4E003002B0CBF00230123DBB2002B10D04FF48053C4F27D
S32D000123B00B034FF48052C4F20B02126B42F4E00242F020021A634FF0000333E04FF48053C4F20B035B6A03F4C7
S32D000123D80063002B14BF00230123DBB2002BF1D14FF48053C4F20B031B6A1A467B691A607B6903F104037B61DC
S32D00012400BB6903F1FF33BB61BB69002B0CBF00230123DBB2002BBAD1FA69FB68D31AFB61FB69002B0CBF002317
S32D000124280123DBB2002BA0D14FF00103184607F12407BD4680BC704780B58EB000AFB9607A600246FA73BB7386
S32D0001245041F24C13C1F6FF737B63FB7B002B02D1BB7B002B02D14FF0040381E040F20043C1F6FF731B78DBB2B7
S32D0001247803F00103DBB2002B02D04FF0030373E0BB68002B02D14FF000036DE07B6B1B7B002B03D17B684FEAD5
S32D000124A043237B60BB7B012B2CD14FF011033B754FF000037B757B68BB614FF001033B77BB7B3B6207F1140362
S32D000124C841F202301946FFF761FA0346002B14BF00230123DBB2002B3ED0B8684FF40071FFF710FF0346002B2F
S32D000124F00CBF00230123DBB2002B31D04FF00003BB732DE04FF012033B754FF000037B757B68BB614FF00103FD
S32D000125183B77BB7B3B6207F1140341F202301946FFF734FA0346002B14BF00230123DBB2002B11D0BB7B4FEA82
S32D000125404323B8681946FFF7E1FE0346002B0CBF00230123DBB2002B02D04FF00003BB73BB7B002B02D04FF0C0
S32D00012568010301E04FF00003184607F13807BD4680BD00BF80B487B000AF786039607B68FB603B687B6155E00C
S32D000125907B69B3F5007F28BF4FF400733B617A693B69D31A7B613B6903F103034FEA93033B613BE04FF480534E
S32D000125B8C4F20B031B6B03F4E003002B0CBF00230123DBB2002B10D04FF48053C4F20B034FF48052C4F20B0249
S32D000125E0126B42F4E00242F010021A634FF0FF332EE04FF48053C4F20B035B6A03F48063002B14BF0023012339
S32D00012608DBB2002BF1D14FF48053C4F20B03FA6812681A62FB6803F10403FB603B6903F1FF333B613B69002B09
S32D000126300CBF00230123DBB2002BBBD17B69002B0CBF00230123DBB2002BA1D14FF00103184607F11C07BD461B
S32D0001265880BC704780B58EB000AFB9607A600246FA73BB7341F24C13C1F6FF737B63FB7B002B02D1BB7B002BFA
S32D0001268002D14FF00403CAE040F20043C1F6FF731B78DBB203F00103DBB2002B02D04FF00303BCE040F20043D3
S32D000126A8C1F6FF731B78DBB203F00403002B0CBF00230123DBB2002B02D04FF00203AAE0BB68002B02D14FF0CB
S32D000126D00003A4E07B6B1B7B002B03D17B684FEA43237B60BB7B012B2CD14FF018033B754FF000037B757B68FE
S32D000126F8BB614FF000033B77BB7B3B6207F1140341F202301946FFF741F90346002B14BF00230123DBB2002B87
S32D000127203ED0B8684FF40071FFF728FF0346002B0CBF00230123DBB2002B31D04FF00003BB732DE04FF0190374
S32D000127483B754FF000037B757B68BB614FF000033B77BB7B3B6207F1140341F202301946FFF714F90346002B70
S32D0001277014BF00230123DBB2002B11D0BB7B4FEA4323B8681946FFF7F9FE0346002B0CBF00230123DBB2002B08
S32D0001279802D04FF00003BB734FF00D033B754FF000037B757B6B1B69BB614FF000033B774FF000033B6207F14E
S32D000127C0140341F202301946FFF7E4F80346002B0CBF00230123DBB2002B02D04FF001031DE07A6A48F20803C4
S32D000127E8CFF6D9731340002B02D04FF0010312E07B6A03F4F853B3F5106F0CBF00230123DBB2002BC8D1BB7B45
S32D00012810002B02D04FF0010301E04FF00003184607F13807BD4680BD80B58CB000AF0B463A600246FA71BB7177
S32D0001283841F24C13C1F6FF73BB62FB79002B02D04FF004037AE04FF0010387F82F3040F20043C1F6FF731B7836
S32D00012860DBB203F00103DBB2002B02D04FF0030368E0BB79032B5FD801A252F823F000BF912801009B280100D8
S32D00012888AD280100BF2801004FF0000387F82F3052E0BB6A9A683B681A604FF0000387F82F3049E03B684FF49E
S32D000128B000721A804FF0000387F82F3040E04FF009033B724FF000037B72BB6A1B69FB604FF000033B744FF052
S32D000128D800037B6107F1080341F202301946FFF755F80346002B0CBF00230123DBB2002B02D04FF0010321E094
S32D000129007B6A03F44003002B11D13B6A4FEA934303F07F0303F101027B6A4FEA132303F0030303F1FF3302FAED
S32D0001292803F23B681A604FF0000387F82F3003E04FF0040387F82F3097F82F30184607F13007BD4680BD00BFCD
S32D0001295080B483B000AF0346FB71FB79002B02D04FF0010305E040F20043C1F6FF731B78DBB2184607F10C07CD
S32D00012978BD4680BC704700BF80B483B000AF78604FF4E043C4F204034FF4E042C4F2040202F5805202F1380253
S32D000129A0126842F0010203F5805303F138031A604FF00003C4F204037A689A604FF00003C4F204034FF00502C5
S32D000129C85A604FF00003C4F204034FF00002C4F20402126842F001021A6000BF4FF00003C4F204031B6803F0CD
S32D000129F08003002B14BF00230123DBB2002BF1D14FF00003C4F204034FF00002C4F20402126822F001021A6071
S32D00012A1807F10C07BD4680BC704700BF80B582B000AF786039607B68012B0AD13A684FF6FF739A4205D141F220
S32D00012A406C30C1F6FF7000F00FF807F10807BD4680BD00BF80B500AF4FF001004FF6FF71FFF7E0FF80BD00BFFE
S32D00012A6880B483B000AF78607B684FF000021A707B68184607F10C07BD4680BC704700BF80B582B000AF7860B4
S32D00012A907B681B7883F00103DBB2002B36D04FF4E043C4F2040303F5805303F128034FF400621A604FF450436A
S32D00012AB8C4F204034FF440721A624FF45043C4F204034FF440725A6241F27033C1F6FF731B684FEAD372D31892
S32D00012AE04FEA63034FF43040C4F20E0019464FF46142FEF78DF84FF0640000F0ADF87B684FF001021A704FF0CC
S32D00012B08010301E04FF00003184607F10807BD4680BD00BF80B582B000AF7860F970BA707B704FF43040C4F23E
S32D00012B300E004FF07F01FEF78BF94FF43040C4F20E004FF00801FEF783F9FB784FF43040C4F20E001946FEF7C2
