S01200002E2E2F464548526F626F742E7331397E
S32D0000C00000000020A503010001070100010701000107010001070100010701000000000000000000000000001C
S32D0000C02800000000010701000107010000000000010701000107010001070100010701000107010001070100A2
S32D0000C0500107010001070100010701000107010001070100010701000107010001070100010701000107010068
S32D0000C0780107010001070100010701000107010001070100010701000107010001070100010701000107010040
S32D0000C0A00107010001070100010701000107010001070100010701000107010001070100010701000107010018
S32D0000C0C801070100010701000107010001070100010701000107010001070100010701000107010001070100F0
S32D0000C0F001070100797301000107010001070100010701000107010001070100010701000107010001070100E4
S32D0000C118010701000107010001070100010701000107010001070100010701000107010001070100010701009F
S32D0000C14001070100010701000107010001070100653B01000107010001070100010701000107010001070100DF
S32D0000C168010701000107010001070100010701000107010001070100010701000107010001070100010701004F
S32D0000C190010701000107010001070100C535010019340100ED340100510701009D3601000107010001070100BC
S32D0000C1B801070100010701000107010001070100010701000107010001070100010701000107010001070100FF
S32D0000C41081F0004102E000BF83F0004330B54FEA41044FEA430594EA050F08BF90EA020F1FBF54EA000C55EAC6
S32D0000C438020C7FEA645C7FEA655C00F0E2804FEA5454D4EB5555B8BF6D420CDD2C4480EA020281EA030382EA0F
S32D0000C460000083EA010180EA020281EA0303362D88BF30BD11F0004F4FEA01314FF4801C4CEA113102D0404263
S32D0000C48861EB410113F0004F4FEA03334CEA133302D0524263EB430394EA050F00F0A780A4F10104D5F1200E8A
S32D0000C4B00DDB02FA0EFC22FA05F2801841F1000103FA0EF2801843FA05F359410EE0A5F120050EF1200E012A2D
S32D0000C4D803FA0EFC28BF4CF0020C43FA05F3C01851EBE37101F0004507D54FF0000EDCF1000C7EEB00006EEB67
S32D0000C5000101B1F5801F1BD3B1F5001F0CD349085FEA30004FEA3C0C04F101044FEA445212F5800F80F09A8000
S32D0000C528BCF1004F08BF5FEA500C50F1000041EB045141EA050130BD5FEA4C0C404141EB010111F4801FA4F114
S32D0000C5500104E9D191F0000F04BF01460020B1FA81F308BF2033A3F10B03B3F120020CDA0C3208DD02F1140C87
S32D0000C578C2F10C0201FA0CF021FA02F10CE002F11402D8BFC2F1200C01FA02F120FA0CFCDCBF41EA0C019040B1
S32D0000C5A0E41AA2BF01EB0451294330BD6FEA04041F3C1CDA0C340EDC04F11404C4F1200220FA04F001FA02F3B6
S32D0000C5C840EA030021FA04F345EA030130BDC4F10C04C4F1200220FA02F001FA04F340EA0300294630BD21FAA8
S32D0000C5F004F0294630BD94F0000F83F4801306BF81F480110134013D4EE77FEA645C18BF7FEA655C29D094EA1C
S32D0000C618050F08BF90EA020F05D054EA000C04BF1946104630BD91EA030F1EBF0021002030BD5FEA545C05D1A3
S32D0000C6404000494128BF41F0004130BD14F580043CBF01F5801130BD01F0004545F0FE4141F470014FF0000031
S32D0000C66830BD7FEA645C1ABF194610467FEA655C1CBF0B46024650EA013406BF52EA033591EA030F41F40021D7
S32D0000C69030BD00BF90F0000F04BF0021704730B54FF4806404F132044FF000054FF0000150E700BF90F0000F66
S32D0000C6B804BF0021704730B54FF4806404F1320410F0004548BF40424FF000013EE700BF42004FEAE2014FEAF9
S32D0000C6E031014FEA02701FBF12F07F4393F07F4F81F06051704792F0000F14BF93F07F4F704730B54FF460741B
S32D0000C70801F0004521F0004120E700BF50EA010208BF704730B54FF000050AE050EA010208BF704730B511F046
S32D0000C730004502D5404261EB41014FF4806404F132045FEA915C3FF4DCAE4FF003025FEADC0C18BF03325FEAA0
S32D0000C758DC0C18BF033202EBDC02C2F1200300FA03FC20FA02F001FA03FE40EA0E0021FA02F11444C1E600BF19
S32D0000C78070B54FF0FF0C4CF4E06C1CEA11541DBF1CEA135594EA0C0F95EA0C0F00F0DEF82C4481EA030621EAF3
S32D0000C7A84C5123EA4C5350EA013518BF52EA033541F4801143F4801338D0A0FB02CE4FF00005E1FB02E506F05F
S32D0000C7D00042E0FB03E54FF00006E1FB03569CF0000F18BF4EF0010EA4F1FF04B6F5007F64F5407404D25FEA0F
S32D0000C7F84E0E6D4146EB060642EAC62141EA55514FEAC52040EA5E504FEACE2EB4F1FD0C88BFBCF5E06F1ED8D2
S32D0000C820BEF1004F08BF5FEA500E50F1000041EB045170BD06F0004646EA010140EA020081EA0301B4EB5C0487
S32D0000C848C2BFD4EB0C0541EA045170BD41F480114FF0000E013C00F3AB8014F1360FDEBF002001F0004170BDF0
S32D0000C870C4F10004203C35DA0C341BDC04F11404C4F1200500FA05F320FA04F001FA05F240EA020001F0004207
S32D0000C89821F0004110EBD37021FA04F642EB06015EEA430E08BF20EAD37070BDC4F10C04C4F1200500FA04F32F
S32D0000C8C020FA05F001FA04F240EA020001F0004110EBD37041F100015EEA430E08BF20EAD37070BDC4F12005C7
S32D0000C8E800FA05F24EEA020E20FA04F301FA05F243EA020321FA04F001F0004121FA04F220EA020000EBD37028
S32D0000C9105EEA430E08BF20EAD37070BD94F0000F0FD101F00046400041EB010111F4801F08BF013CF7D041EA6D
S32D0000C938060195F0000F18BF704703F00046520043EB030313F4801F08BF013DF7D043EA0603704794EA0C0FF1
S32D0000C9600CEA135518BF95EA0C0F0CD050EA410618BF52EA4306D1D181EA030101F000414FF0000070BD50EA38
S32D0000C988410606BF1046194652EA430619D094EA0C0F02D150EA013613D195EA0C0F05D152EA03361CBF10467B
S32D0000C9B019460AD181EA030101F0004141F0FE4141F470014FF0000070BD41F0FE4141F4780170BD70B54FF04D
S32D0000C9D8FF0C4CF4E06C1CEA11541DBF1CEA135594EA0C0F95EA0C0F00F0A7F8A4EB050481EA030E52EA03359B
S32D0000CA004FEA013100F088804FEA03334FF0805545EA131343EA12634FEA022245EA111545EA10654FEA002676
S32D0000CA280EF000419D4208BF964244F1FD0404F5407402D25B084FEA3202B61A65EB03055B084FEA32024FF461
S32D0000CA5080104FF4002CB6EB020E75EB030E22BFB61A754640EA0C005B084FEA3202B6EB020E75EB030E22BF22
S32D0000CA78B61A754640EA5C005B084FEA3202B6EB020E75EB030E22BFB61A754640EA9C005B084FEA3202B6EBEA
S32D0000CAA0020E75EB030E22BFB61A754640EADC0055EA060E18D04FEA051545EA16754FEA06164FEAC30343EAAC
S32D0000CAC852734FEAC2025FEA1C1CC0D111F4801F0BD141EA00014FF000004FF0004CB6E711F4801F04BF0143AE
S32D0000CAF00020B4F1FD0C88BFBCF5E06F3FF6AFAEB5EB030C04BFB6EB020C5FEA500C50F1000041EB045170BDBC
S32D0000CB180EF0004E4EEA113114EB5C04C2BFD4EB0C0541EA045170BD41F480114FF0000E013C90E645EA060EC3
S32D0000CB408DE60CEA135594EA0C0F08BF95EA0C0F3FF43BAF94EA0C0F0AD150EA01347FF434AF95EA0C0F7FF499
S32D0000CB6825AF104619462CE795EA0C0F06D152EA03353FF4FDAE1046194622E750EA410618BF52EA43067FF432
S32D0000CB90C5AE50EA41047FF40DAF52EA43057FF4EBAE12E74FF0FF3C06E000BF4FF0010C02E000BF4FF0010C75
S32D0000CBB84DF804CD4FEA410C7FEA6C5C4FEA430C18BF7FEA6C5C1BD001B050EA410C0CBF52EA430C91EA030FEC
S32D0000CBE002BF90EA020F0020704710F1000F91EA030F58BF994208BF90422CBFD8176FEAE37040F0010070476E
S32D0000CC084FEA410C7FEA6C5C02D150EA013C07D14FEA430C7FEA6C5CD6D152EA033CD3D05DF8040B704700BFCD
S32D0000CC308446104662468C461946634600E000BF01B5FFF7B7FF002848BF10F1000F01BD4DF808EDFFF7F4FF13
S32D0000CC580CBF012000205DF808FB00BF4DF808EDFFF7EAFF34BF012000205DF808FB00BF4DF808EDFFF7E0FF18
S32D0000CC8094BF012000205DF808FB00BF4DF808EDFFF7CEFF94BF012000205DF808FB00BF4DF808EDFFF7C4FF40
S32D0000CCA834BF012000205DF808FB00BF4FEA410212F5001215D211D56FF47873B3EB625212D94FEAC12343F0D6
S32D0000CCD0004343EA505311F0004F23FA02F018BF404270474FF00000704750EA013005D111F0004008BF6FF016
S32D0000CCF8004070474FF00000704700BF4A0011D212F5001211D20DD56FF47873B3EB62520ED44FEAC12343F085
S32D0000CD20004343EA505323FA02F070474FF00000704750EA013002D14FF0FF3070474FF0000070474FEA410241
S32D0000CD48B2F1E04324BFB3F5001CDCF1FE5C0DD901F0004C4FEAC0024CEA5070B2F1004F40EB830008BF20F09E
S32D0000CD700100704711F0804F21D113F13872BCBF01F00040704741F480114FEA5252C2F11802C2F1200C10FAB1
S32D0000CD980CF320FA02F018BF40F001004FEAC1234FEAD32303FA0CFC40EA0C0023FA02F34FEA4303CCE77FEA26
S32D0000CDC0625307D150EA01331EBF4FF0FE4040F44000704701F0004040F0FE4040F40000704700BF80F00040CC
S32D0000CDE802E000BF81F0004142001FBF5FEA410392EA030F7FEA226C7FEA236C6AD04FEA1262D2EB1363C1BF06
S32D0000CE10D218414048404140B8BF5B42192B88BF704710F0004F40F4000020F07F4018BF404211F0004F41F4FA
S32D0000CE38000121F07F4118BF494292EA030F3FD0A2F1010241FA03FC10EB0C00C3F1200301FA03F100F000432B
S32D0000CE6002D5494260EB4000B0F5000F13D3B0F1807F06D340084FEA310102F10102FE2A51D2B1F1004F40EB94
S32D0000CE88C25008BF20F0010040EA03007047490040EB000010F4000FA2F10102EDD1B0FA80FCACF1080CB2EB5F
S32D0000CEB00C0200FA0CF0AABF00EBC25052421843BCBFD0401843704792F0000F81F4000106BF80F400000132EB
S32D0000CED8013BB5E74FEA41037FEA226C18BF7FEA236C21D092EA030F04D092F0000F08BF0846704790EA010FD7
S32D0000CF001CBF0020704712F07F4F04D1400028BF40F00040704712F100723CBF00F50000704700F0004343F0DC
S32D0000CF28FE4040F4000070477FEA226216BF08467FEA23630146420206BF5FEA412390EA010F40F480007047C1
S32D0000CF504FF0000304E000BF10F0004348BF40425FEA000C08BF704743F0964301464FF000001CE050EA010264
S32D0000CF7808BF70474FF000030AE000BF50EA010208BF704711F0004302D5404261EB41015FEA010C02BF84465B
S32D0000CFA00146002043F0B64308BFA3F18053A3F50003BCFA8CF2083AA3EBC25310DB01FA02FC634400FA02FC6B
S32D0000CFC8C2F12002BCF1004F20FA02F243EB020008BF20F00100704702F1200201FA02FCC2F1200250EA4C0034
S32D0000CFF021FA02F243EB020008BF20EADC7070474FF0FF0C1CEAD0521EBF1CEAD15392EA0C0F93EA0C0F6FD019
S32D0000D0181A4480EA010C400218BF5FEA41211ED04FF0006343EA501043EA5111A0FB01310CF00040B1F5000FE7
S32D0000D0403EBF490041EAD3715B0040EA010062F17F02FD2A1DD8B3F1004F40EBC25008BF20F00100704790F058
S32D0000D068000F0CF0004C08BF49024CEA502040EA51207F3AC2BFD2F1FF0340EAC250704740F400004FF0000388
S32D0000D090013A5DDC12F1190FDCBF00F000407047C2F10002410021FA02F1C2F1200200FA02FC5FEA310040F1D5
S32D0000D0B8000053EA4C0308BF20EADC70704792F0000F00F0004C02BF400010F4000F013AF9D040EA0C0093F04C
S32D0000D0E0000F01F0004C02BF490011F4000F013BF9D041EA0C018FE70CEAD15392EA0C0F18BF93EA0C0F0AD00B
S32D0000D10830F0004C18BF31F0004CD8D180EA010000F00040704790F0000F17BF90F0004F084691F0000F91F0BB
S32D0000D130004F14D092EA0C0F01D142020FD193EA0C0F03D14B0218BF084608D180EA010000F0004040F0FE4051
S32D0000D15840F40000704740F0FE4040F4400070474FF0FF0C1CEAD0521EBF1CEAD15392EA0C0F93EA0C0F69D044
S32D0000D180A2EB030280EA010C49024FEA402037D04FF0805343EA111143EA10130CF000408B4238BF5B0042F14E
S32D0000D1A87D024FF4000C8B4224BF5B1A40EA0C00B3EB510F24BFA3EB510340EA5C00B3EB910F24BFA3EB9103A4
S32D0000D1D040EA9C00B3EBD10F24BFA3EBD10340EADC001B0118BF5FEA1C1CE0D1FD2A3FF650AF8B4240EBC25018
S32D0000D1F808BF20F0010070470CF0004C4CEA50207F32C2BFD2F1FF0340EAC250704740F400004FF00003013AF1
S32D0000D22037E792F0000F00F0004C02BF400010F4000F013AF9D040EA0C0093F0000F01F0004C02BF490011F4C9
S32D0000D248000F013BF9D041EA0C0195E70CEAD15392EA0C0F08D142027FF47DAF93EA0C0F7FF470AF084676E7AE
S32D0000D27093EA0C0F04D14B023FF44CAF08466EE730F0004C18BF31F0004CCAD130F000427FF45CAF31F0004376
S32D0000D2987FF43CAF5FE700BF4FF0FF3C06E000BF4FF0010C02E000BF4FF0010C4DF804CD4FEA40024FEA41039F
S32D0000D2C07FEA226C18BF7FEA236C11D001B052EA530C18BF90EA010F58BFB2EB030088BFC81738BF6FEAE1706E
S32D0000D2E818BF40F0010070477FEA226C02D15FEA402C05D17FEA236CE4D15FEA412CE1D05DF8040B704700BF16
S32D0000D310844608466146FFE70FB5FFF7C9FF002848BF10F1000F0FBD4DF808EDFFF7F4FF0CBF012000205DF839
S32D0000D33808FB00BF4DF808EDFFF7EAFF34BF012000205DF808FB00BF4DF808EDFFF7E0FF94BF012000205DF8A9
S32D0000D36008FB00BF4DF808EDFFF7D2FF94BF012000205DF808FB00BF4DF808EDFFF7C8FF34BF012000205DF8B1
S32D0000D38808FB00BF4FEA4002B2F1FE4F0FD34FF09E03B3EB12620DD94FEA002343F0004310F0004F23FA02F060
S32D0000D3B018BF404270474FF00000704712F1610F01D1420205D110F0004008BF6FF0004070474FF00000704797
S32D0000D3D880B483B000AF78607B6823F00043184607F10C07BD4680BC704700BF80B584B000AFF860B9607A607F
S32D0000D4003B6005F0A1FD02460B4610461946FFF799FC0246FB681A60FB68BA685A60FB687A689A60FB683A684F
S32D0000D428DA60FB68BA691A61FB68054A5A61FB68034A9A61FB68184607F11007BD4680BD000000000000000073
S32D0000D45080B582B000AF786005F076FD02460B46104619460CA3D3E90023FEF7D5FF02460B4610461946FFF76F
S32D0000D47865FC02467B681A607B68074A5A617B68054A9A6107F10807BD4680BDAFF300807B14AE47E17A943F49
S32D0000D4A000000000AFF3008090B58BB000AFF860B9607A603B6005F047FD02460B4610461946FFF73FFC034626
S32D0000D4C8FB61FB681B68F8691946FFF78BFC03467B62FB68FA691A60786AFFF7F9F802460B464FF001010C465C
S32D0000D4F01046194660A3D3E90023FFF7B3FB0346002B02D14FF000031C46E3B2002B01D05B4B7B62B8687968D3
S32D0000D518FFF768FC0346BB61FB689C69B869796AFFF76AFD034620461946FFF75DFC03461A46FB689A61B869D8
S32D0000D540FFF74AFF03464FF00102144618463968FFF712FF0346002B02D14FF000031C46E3B2002B1CD14FF0BC
S32D0000D56801031C46B8684549FFF702FF0346002B02D14FF000031C46E3B2002B06D0B8693E49FFF7D7FE03464D
S32D0000D590002B05E0B8693B49FFF7EEFE0346002BFB685B6978681946FFF720FC03461846796AFFF7D9FD03464B
S32D0000D5B87B61FB687A685A61FB685B681846B969FFF71AFD03461C46FB689A68FB689B6910461946FFF710FD87
S32D0000D5E0034620461946FFF703FC03461C46FB68DB6818467969FFF703FD034620461946FFF7F6FB03461C46F3
S32D0000D608FB681B691846B968FFF7F6FC034620461946FFF7E9FB03463B62386AFFF7D8FE03464FF00102144685
S32D0000D63018461549FFF7A0FE0346002B02D14FF000031C46E3B2002B0FD0386A0E49FFF7D7FC03461C46386AE3
S32D0000D658FFF7BEFE034620461946FFF781FD03463B623B6A184607F12C07BD4690BD00BF7B14AE47E17A843FAB
S32D0000D6800AD7A33C000000000000C842AFF3008090B59BB002AF786007F12403EA4A00921846EA49E84AE84B9C
S32D0000D6A8FFF7A4FE07F10803E54A00921846E649E34AE34BFFF79AFE4FF0000387F85F30DF4B3B65DE4BFB64E0
S32D0000D6D07868E049FFF794FC03467B6007F124031846FFF7B5FE07F108031846FFF7B0FE41F23C10C1F6FF70A9
S32D0000D6F806F04CF841F23810C1F6FF7006F046F87FE141F23810C1F6FF7006F02BF803461846FFF71DFC0346DC
S32D0000D720BB6407F1240318467968BA6CCA4BFFF7BBFE03467B6441F23C10C1F6FF7006F015F8044641F23810DF
S32D0000D748C1F6FF7006F00EF80346E31A1846FFF7FFFB034607F108021046B9491A46BC4BFFF79EFE03463B6479
S32D0000D770786C396CFFF73CFB0346BB65786C396CFFF734FB03467B65B86D396DFFF72EFB03464FF001021446C6
S32D0000D7981846B049FFF7ECFD0346002B02D14FF000031C46E3B2002B06D0386DA949FFF71BFB0346BB651AE0A6
S32D0000D7C0B86D396DFFF712FB03464FF0010214461846A349FFF7B2FD0346002B02D14FF000031C46E3B2002BEE
S32D0000D7E805D0386D9B49FFF7FDFA0346BB65786DF96CFFF7F7FA03464FF00102144618469449FFF7B5FD03461D
S32D0000D810002B02D14FF000031C46E3B2002B06D0F86C8E49FFF7E4FA03467B651AE0786DF96CFFF7DBFA034622
S32D0000D8384FF00102144618468749FFF77BFD0346002B02D14FF000031C46E3B2002B05D0F86C8049FFF7C6FA27
S32D0000D86003467B65B86D7849FFF75EFD0346002B48D1B86DFFF7B0FD03464FF00102144618467849FFF75AFD94
S32D0000D8880346002B02D14FF000031C46E3B2002B10D0B86D7149FFF7AFFB03461C46B86DFFF796FD0346204660
S32D0000D8B01946FFF759FC0346BB6523E0B86DFFF78BFD03464FF00102144618466649FFF753FD0346002B02D112
S32D0000D8D84FF000031C46E3B2002B0FD0B86D6049FFF78AFB03461C46B86DFFF771FD034620461946FFF734FC2E
S32D0000D9000346BB65786D5049FFF70EFD0346002B48D1786DFFF760FD03464FF00102144618465049FFF70AFD73
S32D0000D9280346002B02D14FF000031C46E3B2002B10D0786D4949FFF75FFB03461C46786DFFF746FD0346204607
S32D0000D9501946FFF709FC03467B6523E0786DFFF73BFD03464FF00102144618463E49FFF703FD0346002B02D109
S32D0000D9784FF000031C46E3B2002B0FD0786D3849FFF73AFB03461C46786DFFF721FD034620461946FFF7E4FB26
S32D0000D9A003467B65BB6D83F0004341F22810C1F6FF70194602F088FF41F23010C1F6FF70796D02F081FFBB6DD0
S32D0000D9C83B657B6DFB641CA1D1E9000105F08CFA7868B96CFFF706FA03464FF00102144618461749FFF7A6FC21
S32D0000D9F00346002B02D14FF000031C46E3B2002B03D04FF0010387F85F3097F85F3083F00103DBB2002B7FF47A
S32D0000DA1878AE41F22810C1F6FF70094902F050FF41F23010C1F6FF70054902F049FF07F16407BD4690BD00BF03
S32D0000DA407B14AE47E17A943F00000000CDCCCC3E0000803F0000E04100401C460000E0400000E0C000001041D0
S32D0000DA6800007042AFF3008090B59BB002AF786007F12403EA4A00921846EA49E84AE84BFFF7B4FC07F108031F
S32D0000DA90E54A00921846E649E34AE34BFFF7AAFC4FF0000387F85F30DF4B3B65DE4BFB647868E049FFF7A4FAE4
S32D0000DAB803467B6007F124031846FFF7C5FC07F108031846FFF7C0FC41F23C10C1F6FF7005F05CFE41F2381066
S32D0000DAE0C1F6FF7005F056FE7FE141F23810C1F6FF7005F03BFE03461846FFF72DFA0346BB6407F124031846D1
S32D0000DB087968BA6CCA4BFFF7CBFC03467B6441F23C10C1F6FF7005F025FE044641F23810C1F6FF7005F01EFE35
S32D0000DB300346E31A1846FFF70FFA034607F108021046B9491A46BC4BFFF7AEFC03463B64786C396CFFF74CF9CE
S32D0000DB580346BB65786C396CFFF744F903467B65B86D396DFFF73EF903464FF0010214461846B049FFF7FCFB30
S32D0000DB800346002B02D14FF000031C46E3B2002B06D0386DA949FFF72BF90346BB651AE0B86D396DFFF722F906
S32D0000DBA803464FF0010214461846A349FFF7C2FB0346002B02D14FF000031C46E3B2002B05D0386D9B49FFF76E
S32D0000DBD00DF90346BB65786DF96CFFF707F903464FF00102144618469449FFF7C5FB0346002B02D14FF0000319
S32D0000DBF81C46E3B2002B06D0F86C8E49FFF7F4F803467B651AE0786DF96CFFF7EBF803464FF001021446184661
S32D0000DC208749FFF78BFB0346002B02D14FF000031C46E3B2002B05D0F86C8049FFF7D6F803467B65B86D78490A
S32D0000DC48FFF76EFB0346002B48D1B86DFFF7C0FB03464FF00102144618467849FFF76AFB0346002B02D14FF007
S32D0000DC7000031C46E3B2002B10D0B86D7149FFF7BFF903461C46B86DFFF7A6FB034620461946FFF769FA0346DD
S32D0000DC98BB6523E0B86DFFF79BFB03464FF00102144618466649FFF763FB0346002B02D14FF000031C46E3B2C4
S32D0000DCC0002B0FD0B86D6049FFF79AF903461C46B86DFFF781FB034620461946FFF744FA0346BB65786D50496A
S32D0000DCE8FFF71EFB0346002B48D1786DFFF770FB03464FF00102144618465049FFF71AFB0346002B02D14FF0BF
S32D0000DD1000031C46E3B2002B10D0786D4949FFF76FF903461C46786DFFF756FB034620461946FFF719FA0346D4
S32D0000DD387B6523E0786DFFF74BFB03464FF00102144618463E49FFF713FB0346002B02D14FF000031C46E3B26B
S32D0000DD60002B0FD0786D3849FFF74AF903461C46786DFFF731FB034620461946FFF7F4F903467B6541F22810B5
S32D0000DD88C1F6FF70B96D02F09BFD7B6D83F0004341F23010C1F6FF70194602F091FDBB6D3B657B6DFB641CA1B5
S32D0000DDB0D1E9000105F09CF87868B96CFFF716F803464FF00102144618461749FFF7B6FA0346002B02D14FF029
S32D0000DDD800031C46E3B2002B03D04FF0010387F85F3097F85F3083F00103DBB2002B7FF478AE41F22810C1F6CC
S32D0000DE00FF70094902F060FD41F23010C1F6FF70054902F059FD07F16407BD4690BD00BF7B14AE47E17A943F91
S32D0000DE2800000000CDCCCC3E0000803F0000E04100401C460000E0400000E0C00000104100007042AFF30080C2
S32D0000DE5090B59BB002AF786007F12403E84A00921846E849E64AE64BFFF7C4FA07F10803E34A00921846E449B7
S32D0000DE78E14AE14BFFF7BAFA4FF0000387F85F30DD4B3B65DC4BFB647868DE49FFF7B4F803467B6007F12403F1
S32D0000DEA01846FFF7D5FA07F108031846FFF7D0FA41F23C10C1F6FF7005F06CFC41F23810C1F6FF7005F066FC16
S32D0000DEC87CE141F23810C1F6FF7005F04BFC03461846FFF73DF80346BB6407F1240318467968BA6CC84BFFF72B
S32D0000DEF0DBFA03467B6441F23C10C1F6FF7005F035FC044641F23810C1F6FF7005F02EFC0346E31A1846FFF798
S32D0000DF181FF8034607F108021046B7491A46BA4BFFF7BEFA03463B64786C396CFEF75CFF0346BB65786C396C5D
S32D0000DF40FEF754FF03467B65B86D396DFEF74EFF03464FF0010214461846AE49FFF70CFA0346002B02D14FF079
S32D0000DF6800031C46E3B2002B06D0386DA749FEF73BFF0346BB651AE0B86D396DFEF732FF03464FF00102144693
S32D0000DF901846A149FFF7D2F90346002B02D14FF000031C46E3B2002B05D0386D9949FEF71DFF0346BB65786DF4
S32D0000DFB8F96CFEF717FF03464FF00102144618469249FFF7D5F90346002B02D14FF000031C46E3B2002B06D068
S32D0000DFE0F86C8C49FEF704FF03467B651AE0786DF96CFEF7FBFE03464FF00102144618468549FFF79BF90346A3
S32D0000E008002B02D14FF000031C46E3B2002B05D0F86C7E49FEF7E6FE03467B65B86D7649FFF77EF90346002BC1
S32D0000E03048D1B86DFFF7D0F903464FF00102144618467649FFF77AF90346002B02D14FF000031C46E3B2002BAF
S32D0000E05810D0B86D6F49FEF7CFFF03461C46B86DFFF7B6F9034620461946FFF779F80346BB6523E0B86DFFF7A9
S32D0000E080ABF903464FF00102144618466449FFF773F90346002B02D14FF000031C46E3B2002B0FD0B86D5E4926
S32D0000E0A8FEF7AAFF03461C46B86DFFF791F9034620461946FFF754F80346BB65786D4E49FFF72EF90346002B96
S32D0000E0D048D1786DFFF780F903464FF00102144618464E49FFF72AF90346002B02D14FF000031C46E3B2002B17
S32D0000E0F810D0786D4749FEF77FFF03461C46786DFFF766F9034620461946FFF729F803467B6523E0786DFFF721
S32D0000E1205BF903464FF00102144618463C49FFF723F90346002B02D14FF000031C46E3B2002B0FD0786D3649B5
S32D0000E148FEF75AFF03461C46786DFFF741F9034620461946FFF704F803467B6541F22810C1F6FF70B96D02F0C9
S32D0000E170ABFB41F23010C1F6FF70796D02F0A4FBBB6D3B657B6DFB641BA1D1E9000104F0AFFE7868B96CFEF7AA
S32D0000E19829FE03464FF00102144618461649FFF7C9F80346002B02D14FF000031C46E3B2002B03D04FF0010318
S32D0000E1C087F85F3097F85F3083F00103DBB2002B7FF47BAE41F22810C1F6FF70084902F073FB41F23010C1F6CE
S32D0000E1E8FF70054902F06CFB07F16407BD4690BD7B14AE47E17A943F00000000CDCCCC3E0000803F0000E0410B
S32D0000E21000401C460000E0400000E0C00000604100007042AFF3008090B59BB002AF786007F12403EC4A009209
S32D0000E2381846EC49EA4AEA4BFFF7D8F807F10803E74A00921846E849E54AE54BFFF7CEF84FF0000387F85F3036
S32D0000E260E14B3B65E04BFB647868E249FEF7C8FE03467B6007F124031846FFF7E9F807F108031846FFF7E4F8C9
S32D0000E28841F23C10C1F6FF7005F080FA41F23810C1F6FF7005F07AFA82E141F23810C1F6FF7005F05FFA0346AF
S32D0000E2B01846FEF751FE0346BB6407F1240318467968BA6CCC4BFFF7EFF803467B6441F23C10C1F6FF7005F0FC
S32D0000E2D849FA044641F23810C1F6FF7005F042FA0346E31A1846FEF733FE034607F108021046BB491A46BE4BE1
S32D0000E300FFF7D2F803463B64786C396CFEF770FD0346BB65786C396CFEF768FD03467B65B86D396DFEF762FDC8
S32D0000E32803464FF0010214461846B249FFF720F80346002B02D14FF000031C46E3B2002B06D0386DAB49FEF76C
S32D0000E3504FFD0346BB651AE0B86D396DFEF746FD03464FF0010214461846A549FEF7E6FF0346002B02D14FF05C
S32D0000E37800031C46E3B2002B05D0386D9D49FEF731FD0346BB65786DF96CFEF72BFD03464FF0010214461846BC
S32D0000E3A09649FEF7E9FF0346002B02D14FF000031C46E3B2002B06D0F86C9049FEF718FD03467B651AE0786DC3
S32D0000E3C8F96CFEF70FFD03464FF00102144618468949FEF7AFFF0346002B02D14FF000031C46E3B2002B05D089
S32D0000E3F0F86C8249FEF7FAFC03467B65B86D7A49FEF792FF0346002B48D1B86DFEF7E4FF03464FF001021446DF
S32D0000E41818467A49FEF78EFF0346002B02D14FF000031C46E3B2002B10D0B86D7349FEF7E3FD03461C46B86D22
S32D0000E440FEF7CAFF034620461946FEF78DFE0346BB6523E0B86DFEF7BFFF03464FF00102144618466849FEF735
S32D0000E46887FF0346002B02D14FF000031C46E3B2002B0FD0B86D6249FEF7BEFD03461C46B86DFEF7A5FF034644
S32D0000E49020461946FEF768FE0346BB65786D5249FEF742FF0346002B48D1786DFEF794FF03464FF00102144640
S32D0000E4B818465249FEF73EFF0346002B02D14FF000031C46E3B2002B10D0786D4B49FEF793FD03461C46786DF2
S32D0000E4E0FEF77AFF034620461946FEF73DFE03467B6523E0786DFEF76FFF03464FF00102144618464049FEF72D
S32D0000E50837FF0346002B02D14FF000031C46E3B2002B0FD0786D3A49FEF76EFD03461C46786DFEF755FF03463B
S32D0000E53020461946FEF718FE03467B65BB6D83F0004341F22810C1F6FF70194602F0BCF97B6D83F0004341F27E
S32D0000E5583010C1F6FF70194602F0B2F9BB6D3B657B6DFB641CA1D1E9000104F0BDFC7868B96CFEF737FC034689
S32D0000E5804FF00102144618461749FEF7D7FE0346002B02D14FF000031C46E3B2002B03D04FF0010387F85F307A
S32D0000E5A897F85F3083F00103DBB2002B7FF475AE41F22810C1F6FF70094902F081F941F23010C1F6FF7006492B
S32D0000E5D002F07AF907F16407BD4690BDAFF300807B14AE47E17A943F00000000CDCCCC3E0000803F0000E041AE
S32D0000E5F800401C460000E0400000E0C00000604100007042AFF3008090B591B002AF786007F10C03804A0092AC
S32D0000E620184680497E4A7E4BFEF7E4FE4FF0000387F837307A4BFB6278687B49FEF7E0FC03467B6007F10C0353
S32D0000E6481846FEF701FF41F23810C1F6FF7005F09DF8C3E041F23810C1F6FF7005F082F803461846FEF774FC67
S32D0000E6700346BB6207F10C0318467968BA6A6B4BFEF712FF03463B63386BF96AFEF7AEFB03464FF00102144680
S32D0000E69818466549FEF76CFE0346002B02D14FF000031C46E3B2002B06D0F86A5E49FEF79BFB03463B631AE0F3
S32D0000E6C0386BF96AFEF792FB03464FF00102144618465849FEF732FE0346002B02D14FF000031C46E3B2002BF0
S32D0000E6E805D0F86A5049FEF77DFB03463B63386B4949FEF715FE0346002B48D1386BFEF767FE03464FF001028E
S32D0000E710144618464849FEF711FE0346002B02D14FF000031C46E3B2002B10D0386B4249FEF766FC03461C46D3
S32D0000E738386BFEF74DFE034620461946FEF710FD03463B6323E0386BFEF742FE03464FF001021446184637493B
S32D0000E760FEF70AFE0346002B02D14FF000031C46E3B2002B0FD0386B3049FEF741FC03461C46386BFEF728FE4D
S32D0000E788034620461946FEF7EBFC03463B6341F23010C1F6FF70396B02F092F83B6BFB621BA1D1E9000104F06B
S32D0000E7B09FFB7868B96AFEF719FB03464FF00102144618461649FEF7B9FD0346002B02D14FF000031C46E3B2C8
S32D0000E7D8002B03D04FF0010387F8373097F8373083F00103DBB2002B7FF434AF41F22810C1F6FF70084902F09D
S32D0000E80063F841F23010C1F6FF70054902F05CF807F13C07BD4690BD7B14AE47E17A943F000000009A99193F9A
S32D0000E8280000E04100401C460000E0400000E0C0000080410000704290B591B002AF786007F10C03804A00925A
S32D0000E850184680497E4A7E4BFEF7CCFD4FF0000387F837307A4BFB6278687B49FEF7C8FB03467B6007F10C0353
S32D0000E8781846FEF7E9FD41F23C10C1F6FF7004F085FFC3E041F23C10C1F6FF7004F06AFF03461846FEF75CFB84
S32D0000E8A00346BB6207F10C0318467968BA6A6B4BFEF7FAFD03463B63386BF96AFEF796FA03464FF00102144681
S32D0000E8C818466549FEF754FD0346002B02D14FF000031C46E3B2002B06D0F86A5E49FEF783FA03463B631AE0F3
S32D0000E8F0386BF96AFEF77AFA03464FF00102144618465849FEF71AFD0346002B02D14FF000031C46E3B2002BF0
S32D0000E91805D0F86A5049FEF765FA03463B63386B4949FEF7FDFC0346002B48D1386BFEF74FFD03464FF00102A7
S32D0000E940144618464849FEF7F9FC0346002B02D14FF000031C46E3B2002B10D0386B4249FEF74EFB03461C46D4
S32D0000E968386BFEF735FD034620461946FEF7F8FB03463B6323E0386BFEF72AFD03464FF0010214461846374955
S32D0000E990FEF7F2FC0346002B02D14FF000031C46E3B2002B0FD0386B3049FEF729FB03461C46386BFEF710FD67
S32D0000E9B8034620461946FEF7D3FB03463B6341F22810C1F6FF70396B01F07AFF3B6BFB621BA1D1E9000104F06C
S32D0000E9E087FA7868B96AFEF701FA03464FF00102144618461649FEF7A1FC0346002B02D14FF000031C46E3B2E1
S32D0000EA08002B03D04FF0010387F8373097F8373083F00103DBB2002B7FF434AF41F22810C1F6FF70084901F06B
S32D0000EA304BFF41F23010C1F6FF70054901F044FF07F13C07BD4690BD7B14AE47E17A943F000000009A99193F8B
S32D0000EA580000E04100401C460000E0400000E0C0000080410000C84190B59BB002AF786007F12403EA4A009245
S32D0000EA801846EA49E84AE84BFEF7B4FC07F10803E54A00921846E649E34AE34BFEF7AAFC4FF0000387F85F3036
S32D0000EAA8DF4B3B65DE4BFB647868E049FEF7A4FA03467B6007F124031846FEF7C5FC07F108031846FEF7C0FCE9
S32D0000EAD041F23C10C1F6FF7004F05CFE41F23810C1F6FF7004F056FE7FE141F23810C1F6FF7004F03BFE0346C5
S32D0000EAF81846FEF72DFA0346BB6407F1240318467968BA6CCA4BFEF7CBFC03467B6441F23C10C1F6FF7004F0F8
S32D0000EB2025FE044641F23810C1F6FF7004F01EFE0346E31A1846FEF70FFA034607F108021046B9491A46BC4BFD
S32D0000EB48FEF7AEFC03463B64786C396CFEF74CF90346BB65786C396CFEF744F903467B65B86D396DFEF73EF911
S32D0000EB7003464FF0010214461846B049FEF7FCFB0346002B02D14FF000031C46E3B2002B06D0386DA949FEF742
S32D0000EB982BF90346BB651AE0B86D396DFEF722F903464FF0010214461846A349FEF7C2FB0346002B02D14FF086
S32D0000EBC000031C46E3B2002B05D0386D9B49FEF70DF90346BB65786DF96CFEF707F903464FF0010214461846BE
S32D0000EBE89449FEF7C5FB0346002B02D14FF000031C46E3B2002B06D0F86C8E49FEF7F4F803467B651AE0786DC8
S32D0000EC10F96CFEF7EBF803464FF00102144618468749FEF78BFB0346002B02D14FF000031C46E3B2002B05D08B
S32D0000EC38F86C8049FEF7D6F803467B65B86D7849FEF76EFB0346002B48D1B86DFEF7C0FB03464FF0010214460A
S32D0000EC6018467849FEF76AFB0346002B02D14FF000031C46E3B2002B10D0B86D7149FEF7BFF903461C46B86D26
S32D0000EC88FEF7A6FB034620461946FEF769FA0346BB6523E0B86DFEF79BFB03464FF00102144618466649FEF75F
S32D0000ECB063FB0346002B02D14FF000031C46E3B2002B0FD0B86D6049FEF79AF903461C46B86DFEF781FB03466E
S32D0000ECD820461946FEF744FA0346BB65786D5049FEF71EFB0346002B48D1786DFEF770FB03464FF0010214466A
S32D0000ED0018465049FEF71AFB0346002B02D14FF000031C46E3B2002B10D0786D4949FEF76FF903461C46786DF5
S32D0000ED28FEF756FB034620461946FEF719FA03467B6523E0786DFEF74BFB03464FF00102144618463E49FEF756
S32D0000ED5013FB0346002B02D14FF000031C46E3B2002B0FD0786D3849FEF74AF903461C46786DFEF731FB034665
S32D0000ED7820461946FEF7F4F903467B6541F22810C1F6FF70B96D01F09BFD7B6D83F0004341F23010C1F6FF7026
S32D0000EDA0194601F091FDBB6D3B657B6DFB641CA1D1E9000104F09CF87868B96CFEF716F803464FF0010214466B
S32D0000EDC818461749FEF7B6FA0346002B02D14FF000031C46E3B2002B03D04FF0010387F85F3097F85F3083F05A
S32D0000EDF00103DBB2002B7FF478AE41F22810C1F6FF70094901F060FD41F23010C1F6FF70054901F059FD07F149
S32D0000EE186407BD4690BD00BF7B14AE47E17A943F00000000CDCCCC3E0000803F0000E04100401C460000E0405B
S32D0000EE400000E0C0000010410000B442AFF30080B0B59CB002AF786007F12803DFF8202400921846DFF81C142C
S32D0000EE68DFF81424DFF81034FEF7C0FA07F10C03DFF8042400921846DFF80414FE4AFE4BFEF7B4FA4FF0000348
S32D0000EE9087F86730FA4BBB65F94B7B6504F054F802460B4610461946FDF74CFF03463B657868F649FEF7A4F84F
S32D0000EEB803467B6007F128031846FEF7C5FA07F10C031846FEF7C0FA41F23C10C1F6FF7004F05CFC41F2381053
S32D0000EEE0C1F6FF7004F056FCABE141F23810C1F6FF7004F03BFC03461846FEF72DF80346FB6407F12803184656
S32D0000EF087968FA6CE04BFEF7CBFA0346BB6441F23C10C1F6FF7004F025FC044641F23810C1F6FF7004F01EFC94
S32D0000EF300346E31A1846FEF70FF8034607F10C021046CF491A46D24BFEF7AEFA03467B64B86C796CFDF74CFFCC
S32D0000EF5803463B66B86C796CFDF744FF0346FB65386EB96DFDF73EFF03464FF0010214461846C649FEF7FCF97F
S32D0000EF800346002B02D14FF000031C46E3B2002B06D0B86DBF49FDF72BFF03463B661AE0386EB96DFDF722FFD2
S32D0000EFA803464FF0010214461846B949FEF7C2F90346002B02D14FF000031C46E3B2002B05D0B86DB149FDF7B3
S32D0000EFD00DFF03463B66F86D796DFDF707FF03464FF0010214461846AA49FEF7C5F90346002B02D14FF0000366
S32D0000EFF81C46E3B2002B06D0786DA449FDF7F4FE0346FB651AE0F86D796DFDF7EBFE03464FF00102144618462D
S32D0000F0209D49FEF78BF90346002B02D14FF000031C46E3B2002B05D0786D9649FDF7D6FE0346FB65386E8E4931
S32D0000F048FEF76EF90346002B48D1386EFEF7C0F903464FF00102144618468E49FEF76AF90346002B02D14FF065
S32D0000F07000031C46E3B2002B10D0386E8749FDF7BFFF03461C46386EFEF7A6F9034620461946FEF769F80346B3
S32D0000F0983B6623E0386EFEF79BF903464FF00102144618467C49FEF763F90346002B02D14FF000031C46E3B29E
S32D0000F0C0002B0FD0386E7649FDF79AFF03461C46386EFEF781F9034620461946FEF744F803463B66F86D664929
S32D0000F0E8FEF71EF90346002B48D1F86DFEF770F903464FF00102144618466649FEF71AF90346002B02D14FF01E
S32D0000F11000031C46E3B2002B10D0F86D5F49FDF76FFF03461C46F86DFEF756F9034620461946FEF719F80346AC
S32D0000F138FB6523E0F86DFEF74BF903464FF00102144618465449FEF713F90346002B02D14FF000031C46E3B247
S32D0000F160002B0FD0F86D4E49FDF74AFF03461C46F86DFEF731F9034620461946FDF7F4FF0346FB653B6E83F055
S32D0000F188004341F22810C1F6FF70194601F098FB41F23010C1F6FF70F96D01F091FB3B6EBB65FB6D7B6532A142
S32D0000F1B0D1E9000103F09CFE7868F96CFDF716FE03464FF00102144618462D49FEF7B6F80346002B02D14FF0BA
S32D0000F1D800031C46E3B2002B24D103F0B1FE04460D46386DFDF774FA02460B4620462946FDF70EF902460B46A7
S32D0000F2004FF001010C46104619464FF000024FF07E5303F5F003FDF743FD0346002B02D14FF000031C46E3B2A8
S32D0000F228002B02D04FF0010301E04FF00003002B03D04FF0010387F8673097F8673083F00103DBB2002B7FF436
S32D0000F2504CAE41F22810C1F6FF70094901F034FB41F23010C1F6FF70054901F02DFB07F16807BD46B0BD00BFFD
S32D0000F2787B14AE47E17A943F000000000000003F0000803F0000E04100401C460000E0400000E0C00000704184
S32D0000F2A00000F041AFF3008090B59BB002AF786007F12403EA4A00921846EA49E84AE84BFEF798F807F1080371
S32D0000F2C8E54A00921846E649E34AE34BFEF78EF84FF0000387F85F30DF4B3B65DE4BFB647868E049FDF788FECF
S32D0000F2F003467B6007F124031846FEF7A9F807F108031846FEF7A4F841F23C10C1F6FF7004F040FA41F2381079
S32D0000F318C1F6FF7004F03AFA7FE141F23810C1F6FF7004F01FFA03461846FDF711FE0346BB6407F124031846DC
S32D0000F3407968BA6CCA4BFEF7AFF803467B6441F23C10C1F6FF7004F009FA044641F23810C1F6FF7004F002FA48
S32D0000F3680346E31A1846FDF7F3FD034607F108021046B9491A46BC4BFEF792F803463B64786C396CFDF730FDD4
S32D0000F3900346BB65786C396CFDF728FD03467B65B86D396DFDF722FD03464FF0010214461846B049FDF7E0FF2E
S32D0000F3B80346002B02D14FF000031C46E3B2002B06D0386DA949FDF70FFD0346BB651AE0B86D396DFDF706FDEA
S32D0000F3E003464FF0010214461846A349FDF7A6FF0346002B02D14FF000031C46E3B2002B05D0386D9B49FDF73A
S32D0000F408F1FC0346BB65786DF96CFDF7EBFC03464FF00102144618469449FDF7A9FF0346002B02D14FF0000316
S32D0000F4301C46E3B2002B06D0F86C8E49FDF7D8FC03467B651AE0786DF96CFDF7CFFC03464FF001021446184644
S32D0000F4588749FDF76FFF0346002B02D14FF000031C46E3B2002B05D0F86C8049FDF7BAFC03467B65B86D7849EE
S32D0000F480FDF752FF0346002B48D1B86DFDF7A4FF03464FF00102144618467849FDF74EFF0346002B02D14FF005
S32D0000F4A800031C46E3B2002B10D0B86D7149FDF7A3FD03461C46B86DFDF78AFF034620461946FDF74DFE0346DB
S32D0000F4D0BB6523E0B86DFDF77FFF03464FF00102144618466649FDF747FF0346002B02D14FF000031C46E3B2A8
S32D0000F4F8002B0FD0B86D6049FDF77EFD03461C46B86DFDF765FF034620461946FDF728FE0346BB65786D504968
S32D0000F520FDF702FF0346002B48D1786DFDF754FF03464FF00102144618465049FDF7FEFE0346002B02D14FF0BD
S32D0000F54800031C46E3B2002B10D0786D4949FDF753FD03461C46786DFDF73AFF034620461946FDF7FDFD0346D3
S32D0000F5707B6523E0786DFDF72FFF03464FF00102144618463E49FDF7F7FE0346002B02D14FF000031C46E3B250
S32D0000F598002B0FD0786D3849FDF72EFD03461C46786DFDF715FF034620461946FDF7D8FD03467B6541F22810B3
S32D0000F5C0C1F6FF70B96D01F07FF97B6D83F0004341F23010C1F6FF70194601F075F9BB6D3B657B6DFB641CA1A7
S32D0000F5E8D1E9000103F080FC7868B96CFDF7FAFB03464FF00102144618461749FDF79AFE0346002B02D14FF028
S32D0000F61000031C46E3B2002B03D04FF0010387F85F3097F85F3083F00103DBB2002B7FF478AE41F22810C1F67B
S32D0000F638FF70094901F044F941F23010C1F6FF70054901F03DF907F16407BD4690BD00BF7B14AE47E17A943F83
S32D0000F660000000000000003F0000803F0000E04100401C460000E0400000E0C0000010410000C841AFF300807F
S32D0000F68880B582B000AF78607B68C3F100031846FDF75EFC034641F22810C1F6FF70194601F00EF97868FDF71B
S32D0000F6B053FC034641F23010C1F6FF70194601F003F907F10807BD4680BD00BF80B582B000AF786039607B683F
S32D0000F6D8C3F100031846FDF73BFC034641F22810C1F6FF70194601F0EBF83868FDF730FC034641F23010C1F684
S32D0000F700FF70194601F0E0F807F10807BD4680BD80B582B000AF78607B68C3F100031846FDF71AFC034641F291
S32D0000F7282810C1F6FF70194601F0CAF87B68C3F100031846FDF70CFC034641F23010C1F6FF70194601F0BCF869
S32D0000F75007F10807BD4680BD80B582B000AF786039607868FFF790FF386803F0A5FB4FF00000FFF789FF07F170
S32D0000F7780807BD4680BD00BF80B582B000AF786039607B6803F10A0318467968FFF79AFF386803F08DFB4FF0C2
S32D0000F7A00000FFF771FF07F10807BD4680BD00BF80B500AF0448FFF777FD0448FFF740F80348FFF755F980BDEF
S32D0000F7C89A9989406666AE400000404190B585B000AF78604FF00003FB735FE041F29440C1F6FF7009F0A2F82C
S32D0000F7F0034618467968FDF7F9FA0346BB604FF001031C46B8682C49FDF7B6FD0346002B02D14FF000031C464C
S32D0000F818E3B2002B05D0B8682649FDF7E3FA0346BB60B868FDF7D4FD03464FF00102144618462149FDF77EFD68
S32D0000F8400346002B02D14FF000031C46E3B2002B03D04FF00103FB7320E04FF001031C46B8681849FDF788FDCC
S32D0000F8680346002B02D14FF000031C46E3B2002B04D04FF00F00FFF747FF03E06FF00E00FFF742FF4FF019008A
S32D0000F89003F012FB4FF00000FFF73AFF4FF0640003F00AFBFB7B83F00103DBB2002B99D107F11407BD4690BDCF
S32D0000F8B8000034430000B4430000003F0000000090B583B000AF4FF00003FB7149E041F29440C1F6FF7009F051
S32D0000F8E029F8034618462649FDF780FA03463B603868FDF771FD03464FF00102144618462049FDF71BFD03466E
S32D0000F908002B02D14FF000031C46E3B2002B03D04FF00103FB7120E04FF001031C4638681749FDF725FD0346E9
S32D0000F930002B02D14FF000031C46E3B2002B04D04FF00F00FFF7E4FE03E06FF00E00FFF7DFFE4FF0190003F0DF
S32D0000F958AFFA4FF00000FFF7D7FE4FF0640003F0A7FAFB7983F00103DBB2002BAFD107F10C07BD4690BD00BF5A
S32D0000F980000034430000003F000000000000000098B500AF4FF03200FFF776FE40F2726003F08AFA4FF0000012
S32D0000F9A8FFF76EFE4A48FFF711FF4FF019004FF4C871FFF7CDFE4FF00F0040F2EE21FFF7C7FE4FF0FA0003F02C
S32D0000F9D073FA0FE04FF00F00FFF756FE4FF04B0003F06AFA4FF00000FFF74EFE4FF04B0003F062FA41F29440D3
S32D0000F9F8C1F6FF7008F08AFF03464FF00102144618463449FDF796FC0346002B02D14FF000031C46E3B2002B49
S32D0000FA20D8D14FF4C87003F047FA0FE04FF00F00FFF72AFE4FF04B0003F03EFA4FF00000FFF722FE4FF04B0071
S32D0000FA4803F036FA41F29440C1F6FF7008F05EFF03464FF00102144618461E49FDF76AFC0346002B02D14FF061
S32D0000FA7000031C46E3B2002BD8D141F29440C1F6FF7008F037FF03461846FCF725FE02460B46104619460EA383
S32D0000FA98D3E90023FCF7BCFC02460B4610461946FDF74CF9024641F24413C1F6FF731A606FF00E0040F2EE210C
S32D0000FAC0FFF74AFE0648FFF785FE98BDAFF300806666666666E63D40000000C00000504200000000AFF30080C7
S32D0000FAE898B500AF41F24010C1F6FF7003F074FE03461846FCF7ECFD02460B464FF001010C46104619461CA3C3
S32D0000FB10D3E90023FDF7C4F80346002B02D14FF000031C46E3B2002B02D04FF0000323E041F24010C1F6FF70CD
S32D0000FB3803F052FE03461846FCF7CAFD02460B464FF001010C46104619460DA3D3E90023FDF7A2F80346002B89
S32D0000FB6002D14FF000031C46E3B2002B02D04FF0010301E04FF00203184698BDAFF300809A9999999999F93F62
S32D0000FB889A9999999999E93FB0B586B000AF41F21C10C1F6FF7040F2E22104F0E3F941F21C10C1F6FF7040F601
S32D0000FBB0C41104F0F9F941F21C10C1F6FF70DFF8B01404F011FA41F29440C1F6FF7008F0C1F9DFF8A0347B61E7
S32D0000FBD841F22C40C1F6FF704FF0000104F062FF41F22C40C1F6FF704FF0010104F0B8FF4FF0FA0003F05CF973
S32D0000FC004FF00003FB744FF00003BB74ABE107F104023B4641F22C40C1F6FF7011461A4605F0E6F80346002BE6
S32D0000FC2818D07B684FF0010214461846DFF84014FDF79EFB0346002B02D14FF000031C46E3B2002B03D04FF074
S32D0000FC500103BB7402E04FF00103FB74BB7C002B00F0958041F22C40C1F6FF704FF0000104F01CFF41F22C40A5
S32D0000FC78C1F6FF7049F67451C0F2010105F0FCFA4FF000037B746FE041F22C40C1F6FF7049F68051C0F201018C
S32D0000FCA04FF004024FF0000305F0D6F941F29440C1F6FF7008F01EFE034641F22C40C1F6FF7019464FF00002FC
S32D0000FCC84FF0020305F004FA41F22C40C1F6FF7049F68C51C0F201014FF006024FF0000305F0B6F941F294400E
S32D0000FCF0C1F6FF7008F00EFE034641F22C40C1F6FF7019464FF002024FF0020305F0E4F907F104023B4641F244
S32D0000FD182C40C1F6FF7011461A4605F065F80346002B1DD04FF001037B7441F29440C1F6FF7008F0DBFD034649
S32D0000FD401846FCF7C9FC02460B4610461946C4A3D3E90023FCF760FB02460B4610461946FCF7F0FF03467B6148
S32D0000FD684FF0640003F0A4F87B7C83F00103DBB2002B89D14FF00003BB7404E04FF00A0003F096F800E000BFFD
S32D0000FD9007F104023B4641F22C40C1F6FF7011461A4605F025F80346002BEBD141F22C40C1F6FF7049F6805133
S32D0000FDB8C0F201014FF000024FF0000305F048F941F29440C1F6FF7008F090FD034641F22C40C1F6FF70194691
S32D0000FDE04FF000024FF0020305F076F941F22C40C1F6FF7049F68C51C0F201014FF002024FF0000305F028F9DC
S32D0000FE0841F29440C1F6FF7008F080FD034641F22C40C1F6FF7019464FF002024FF0020305F056F941F22C4053
S32D0000FE30C1F6FF7049F69851C0F201014FF004024FF0000305F008F941F29440C1F6FF7008F070FD034641F217
S32D0000FE582C40C1F6FF7019464FF004024FF0020305F036F941F22C40C1F6FF7049F6A451C0F201014FF00802E8
S32D0000FE804FF0000305F0E8F841F23C10C1F6FF7003F06CFC034641F22C40C1F6FF7019464FF008024FF0020343
S32D0000FEA805F0F6F841F22C40C1F6FF7049F6B051C0F201014FF00A024FF0000305F0C8F841F23810C1F6FF70AD
S32D0000FED003F04CFC034641F22C40C1F6FF7019464FF00A024FF0020305F0D6F841F22C40C1F6FF7049F6BC51F9
S32D0000FEF8C0F201014FF00C024FF0000305F0A8F841F24010C1F6FF7003F066FC034641F22C40C1F6FF70194699
S32D0000FF204FF00C024FF0020305F0D6F841F22C40C1F6FF7049F6C851C0F201014FF00C024FF00C0305F088F87E
S32D0000FF4841F22C40C1F6FF7079694FF00C024FF00C0305F0BDF84FF0320002F0A9FFFB7C83F00103DBB2002BEE
S32D0000FF707FF44DAE41F22C40C1F6FF704FF0000104F094FD41F22C40C1F6FF704FF0010104F0EAFD41F22C40EB
S32D0000FF98C1F6FF7049F6D451C0F201014FF00D024FF0000305F054F802F0CAFF02460B4610461946FCF7C2FE70
S32D0000FFC00346FB6003E04FF0320002F075FF02F0BBFF04460D46F868FCF77EFB02460B4620462946FCF718FA2D
S32D0000FFE802460B464FF001010C46104619464FF000024FF0804303F57813FCF72FFE0346002B02D14FF000039B
S32D000100101C46E3B2002B31D041F24010C1F6FF7003F0DEFB03461846FCF756FB02460B464FF001010C461046BC
S32D0001003819460BA3D3E90023FCF72EFE0346002B02D14FF000031C46E3B2002B12D04FF0010311E0AFF30080AB
S32D000100609A999999991940409A9999999999F93F0000B44200000000000020434FF00003002BA0D1FFF794FB4F
S32D000100887948FDF701FBFFF71BFC7848FDF7DCFE7748FDF7F9FAFFF723FD0346022B18D17448FDF7E1FC744899
S32D000100B0FEF7AEFA6FF0130041F66A01FFF74CFB7048FDF7E5FA7048FEF7AEF86F48FDF7DFFA6F48FEF79CFA8F
S32D000100D80FE06E48FDF7C8FC6748FEF795FA6FF0130041F66A01FFF733FB6948FDF7CCFA00BF6848FFF76AFBFC
S32D00010100FFF746FC6648FDF7C3FA6648FDF7A0FE6548FDF7BDFA6548FDF79AFE41F24413C1F6FF731B681846D4
S32D000101287969FCF75FFE0346BB604FF0190002F0BFFE4FF001031C46B8685B49FDF718F90346002B02D14FF017
S32D0001015000031C46E3B2002B18D041F22C40C1F6FF7049F6E051C0F2010105F089F841F22C40C1F6FF70B9682E
S32D0001017805F096F8B868FDF787FA4FF0190002F097FE17E041F22C40C1F6FF7049F6E851C0F2010105F070F81C
S32D000101A041F22C40C1F6FF70B96805F07DF8B868FDF75EFC4FF0190002F07EFE41F21C10C1F6FF703B4903F0B0
S32D000101C80FFF4FF0FA0002F073FE3948FEF73CFE41F21C10C1F6FF70364903F001FF4FF0FA0002F065FE2548BC
S32D000101F0FDF74EFA3248FEF70BFA2048FDF748FA41F21C10C1F6FF702A4903F0EDFE4FF0FA0002F051FE41F20F
S32D000102181C10C1F6FF70274903F0E2FE2748FEF7F3F92748FDF730FAFFF74AFB4FF00F0040F2E241FFF78CFAEB
S32D000102404FF0FA0002F038FE4FF032004FF4FA71FFF782FA4FF0500040F6B831FFF790FA4FF00003184607F1D7
S32D000102681807BD46B0BD00BF66663A413333AB40000068410000D040333333410000803F666646400000A040FD
S32D000102909A99B940000000406666E640000000C00000C040CDCCEC3F33330B41666666400000000000003243C4
S32D000102B800001C410000B4426666B6409A99C94000004041AFF3008080B582B000AF786039607B68012B36D186
S32D000102E03A684FF6FF739A4231D141F21C10C1F6FF704FF0000103F01BFE41F22810C1F6FF704FF00001144AB8
S32D0001030800F056FA41F23010C1F6FF704FF001010F4A00F04DFA41F23810C1F6FF704FF0000102F067FE41F2B1
S32D000103303C10C1F6FF704FF0080102F05FFE41F24010C1F6FF704FF0070103F037FA07F10807BD4680BD00BF7B
S32D000103580000104180B500AF4FF001004FF6FF71FFF7B2FF80BD00BF80B500AF41F2F862C1F6FF7241F21C13AE
S32D00010380C1F6FF73D31A194641F21C13C1F6FF731A460B4610464FF000011A4608F05FFC80BD00BF09F0D4FC8F
S32D000103A800F0B0F9FFF7E0FF09F0A6FC09F042FC09F0DAFC00F00CF84FF0000041F24811C1F6FF71FFF7E0FB60
S32D000103D00346184608F01EFC80B500AF4FF4E043C4F204034FF4E042C4F2040202F5805202F13802126842F477
S32D000103F8785203F5805303F138031A6000F02EF900F094F841F27833C1F6FF734FF058021A6041F27833C1F656
S32D00010420FF731B684FF47A7202FB03F241F27433C1F6FF731A6041F27433C1F6FF731B681A464FF4E043C4F218
S32D00010448040303F5825303F104031B6803F070634FEA136303F10103B2FBF3F31A4641F27C33C1F6FF731A604E
S32D000104704FF4E043C4F204034FF4E042C4F2040202F5805202F13C02126842F0225203F5805303F13C031A6087
S32D000104984FF4E043C4F204034FF4E042C4F2040202F5805202F13002126842F0006203F5805303F130031A6089
S32D000104C04FF45043C4F203034FF480721A614FF0640002F085FB4FF45043C4F203034FF45042C4F203025269D9
S32D000104E822F010025A614FF45043C4F203034FF000021A604FF45043C4F203034FF010025A6103F09BFA03F0A0
S32D0001051043FB41F27030C1F6FF7002F0E5FB41F22C40C1F6FF7004F023F941F2883002F0C3FC80BD80B400AF22
S32D000105384FF48043C4F206034FF000025A704FF48043C4F206034FF098021A704FF48043C4F206039B79DBB236
S32D0001056003F01003002B0CBF00230123DBB2002BF0D14FF48043C4F206039B79DBB203F00C034FEA9303022B4C
S32D000105880CBF00230123DBB2002BEED14FF48043C4F206034FF018021A714FF48043C4F206034FF000025A7141
S32D000105B04FF4E043C4F2040303F5825303F104034FF00002C0F213121A604FF48043C4F206034FF054025A717A
S32D000105D800BF4FF48043C4F206039B79DBB203F02003002B14BF00230123DBB2002BF0D100BF4FF48043C4F280
S32D0001060006039B79DBB203F04003002B14BF00230123DBB2002BF0D14FF48043C4F206034FF48042C4F20602A5
S32D000106281278D2B202F03F02D2B21A704FF48043C4F206039B79DBB203F00C034FEA9303032B0CBF00230123DD
S32D00010650DBB2002BEED14FF000031846BD4680BC704700BF80B400AF4FF44043C4F204034FF480725A634FF216
S32D00010678C003C4F20F034FF2C002C4F20F02526942F400525A614FF2C003C4F20F034FF2C002C4F20F021268F0
S32D000106A042F400521A604FF44043C4F2040340F20312C0F20A021A634FF46143CEF200034FF46142CEF20002D2
S32D000106C8D2F8882142F08062C3F888214FF46143CEF200034FF46142CEF20002926842F080629A60BD4680BC7F
S32D000106F0704700BF80B483B000AF7860FEE700BF80B400AF00BEBD4680BC704780B400AF4FF0E0224CF20003D7
S32D00010718C0F20003C2F8083D4FF40053C4F205034CF22052DA814FF40053C4F205034DF62812DA814FF40053DD
S32D00010740C4F205034FF0D2021A80BD4680BC704780B500AF4FF44043C4F20403D3F8A03003F48053002B0CBF67
S32D0001076800230123DBB2002B1FD04FF44043C4F204034FF44042C4F20402D2F8A02022F48052C3F8A02041F250
S32D00010790B440C1F6FF7008F0C3F94FF2C003C4F20F034FF2C002C4F20F02126822F400521A6080BD000000003D
S32D000107B890B585B000AFF8600B467A60FB72FB68FA7A1A71FB684FF000025A714FF001031C4678682049FCF747
S32D000107E0CBFD0346002B02D14FF000031C46E3B2002B02D01A4B7B6011E04FF001031C4678681849FCF7A4FDFA
S32D000108080346002B02D14FF000031C46E3B2002B01D0124B7B607868FBF75AFF02460B46104619460AA3D3E92B
S32D000108300023FBF7A5FF02460B4610461946FCF781FA0246FB681A60FB68184607F11407BD4690BDAFF30080B9
S32D00010858ABAAAAAAAAAA2040000040410000803F80B584B000AF786039603B687F2B03DD4FF07F03FB7309E006
S32D000108803B6813F1800F03DA4FF08003FB7301E03B68FB737B685B79FA7B9A420FD07B68FA7B5A717B681A7994
S32D000108A8FB7B41F27030C1F6FF7011461A464FF01E0302F05FFA07F11007BD4680BD00BFB0B584B000AF786022
S32D000108D039604FF001031C4638684D49FCF72EFD0346002B02D14FF000031C46E3B2002B02D0474B3B6011E0CC
S32D000108F84FF001031C4638684449FCF739FD0346002B02D14FF000031C46E3B2002B01D03E4B3B603868FBF7A4
S32D00010920DBFE04460D467B681B681846FBF7D4FE02460B46104619464FF000024FF0804303F5B203FCF746F83B
S32D0001094802460B4620462946FBF716FF02460B4610461946FCF7F2F903463B604FF001031C4638682A49FCF750
S32D00010970F9FC0346002B02D14FF000031C46E3B2002B14D03868FBF7A7FE02460B46104619461DA3D3E90023B0
S32D00010998FBF7F2FE02460B4610461946FCF786F90346FB6022E03868FBF792FE02460B46104619464FF0000237
S32D000109C04FF0804303F5C003FBF7DAFE02460B46104619464FF000024FF0804303F5B203FBF7F8FF02460B46C1
S32D000109E810461946FCF762F90346FB607868F968FFF736FF07F11007BD46B0BDAFF3008052B81E85EB51F43F10
S32D00010A100000C8C20000C84200000000AFF3008080B485B000AF02460B46FA71BB71BB79002B07D141F24C13F0
S32D00010A38C1F6FF734FF000021A7006E041F24C13C1F6FF734FF001021A704FF03803FB7341F24C13C1F6FF738B
S32D00010A601A78FB7B1343FB734FF4C043C4F206034FF4C042C4F206029278D2B242F01002D2B29A704FF4C043ED
S32D00010A88C4F206034FF4C042C4F206029278D2B242F02002D2B29A704FF4C043C4F20603FA7B1A7107F11407F5
S32D00010AB0BD4680BC704700BF80B483B000AF4FF001037B6004E000BF7B6803F101037B607B68312BCCBF0023E8
S32D00010AD80123DBB2002BF2D107F10C07BD4680BC704700BF80B582B000AF02460B46FA71BB7141F24D13C1F600
S32D00010B00FF731B7818464FF00001FFF789FF4FF4C043C4F20603DB78DBB203F00203002B14BF00230123DBB2F6
S32D00010B28002BF0D14FF4C043C4F206034FF4C042C4F20602D278D2B242F00202D2B2DA704FF4C043C4F20603D3
S32D00010B50FA791A714FF4C043C4F20603DB78DBB203F00203002B14BF00230123DBB2002BF0D14FF4C043C4F2E1
S32D00010B7806034FF4C042C4F20602D278D2B242F00202D2B2DA704FF4C043C4F20603BA791A714FF4C043C4F2B1
S32D00010BA00603DB78DBB203F00203002B14BF00230123DBB2002BF0D14FF4C043C4F206034FF4C042C4F206027F
S32D00010BC8D278D2B242F00202D2B2DA704FF4C043C4F206034FF4C042C4F206029278D2B222F02002D2B29A70D4
S32D00010BF04FF4C043C4F206034FF4C042C4F206029278D2B222F01002D2B29A70FFF754FF07F10807BD4680BDFE
S32D00010C1880B582B000AF0346FB71FB79184600F06BF807F10807BD4680BD00BF80B582B000AF02460B46FA719D
S32D00010C40BB7100F039F8FB794FEA4303DBB21846FFF7E2FFBB791846FFF7DEFF00F03EF807F10807BD4680BDB1
S32D00010C6880B500AF4FF0FF0000F046F80346184680BD00BF80B584B000AF0346FB7100F017F8FB794FEA4303AB
S32D00010C90DBB243F00103DBB2DBB21846FFF7BCFFFFF7E2FF0346FB7300F018F8FB7B184607F11007BD4680BD97
S32D00010CB880B400AF4FF24003C4F20F034FF24002C4F20F02926842F480129A60BD4680BC704700BF80B400AF40
S32D00010CE04FF24003C4F20F034FF24002C4F20F02526842F480125A60BD4680BC704700BF80B485B000AF0346FD
S32D00010D08FB714FF00003BB7303E0FB7B03F10103FB734FF44043C4F20A03DB6A4FF00003002BF2D14FF440435D
S32D00010D30C4F20A034FF44042C4F20A02D26A42F00042DA624FF44043C4F20A03FA795A6300BF4FF44043C4F26A
S32D00010D580A03DB6A03F40033002B14BF00230123DBB2002BF1D14FF44043C4F20A039B6BBB73BB7B184607F1E8
S32D00010D801407BD4680BC704780B582B000AF4FF4E043C4F204034FF4E042C4F2040202F5805202F13002126871
S32D00010DA842F4805203F5805303F130031A604FF42043C4F204034FF480721A654FF24003C4F20F034FF24002C2
S32D00010DD0C4F20F02526942F480125A61FFF77EFF4FF42043C4F204034FF400725A654FF42043C4F204034FF4FF
S32D00010DF800729A654FF42043C4F204034FF40072DA654FF44043C4F20A034FF44062C8F200021A604FF440439A
S32D00010E20C4F20A034FF00502C3F60062DA604FF000037B6007E04FF0FF00FFF7EDFE7B6803F101037B607B6889
S32D00010E48092BCCBF00230123DBB2002BEFD104A1D1E9000102F048F807F10807BD4680BD9A9999999999B93F95
S32D00010E7090B486B000AFF860B9607A60FA684FF42043C4F206039A4214D14FF4E043C4F204034FF4E042C4F219
S32D00010E98040202F5805202F13402126842F4806203F5805303F134031A6083E0FA684FF43043C4F206039A421B
S32D00010EC014D14FF4E043C4F204034FF4E042C4F2040202F5805202F13402126842F4006203F5805303F13403E0
S32D00010EE81A6067E0FA684FF44043C4F206039A4214D14FF4E043C4F204034FF4E042C4F2040202F5805202F172
S32D00010F103402126842F4805203F5805303F134031A604BE0FA684FF45043C4F206039A4214D14FF4E043C4F28B
S32D00010F3804034FF4E042C4F2040202F5805202F13402126842F4005203F5805303F134031A602FE0FA684FF44A
S32D00010F602043C4F20E039A4214D14FF4E043C4F204034FF4E042C4F2040202F5805202F12802126842F48062BB
S32D00010F8803F5805303F128031A6013E04FF4E043C4F204034FF4E042C4F2040202F5805202F12802126842F409
S32D00010FB0006203F5805303F128031A60FB68DB78DBB223F00C03DAB2FB68DA70FB684FF000029A70BB684FF49A
S32D00010FD87A7202FB03F27B684FEA031392FBF3F39CB2FB681B78DBB223F01F03FB75234603F4F8534FEA2323C7
S32D00011000DBB203F01F03DAB2FB7D1343DAB2FB681A70E2B2FB685A70BB684FF4FA4202FB03F27B684FEA0313C5
S32D0001102892FBF3F39AB2234619464FEAC121CB1A4FEA43139BB2D3189CB2FB689B7ADBB223F01F03FB75E3B2BE
S32D0001105003F01F03DAB2FB7D1343DAB2FB689A72FB68DB78DBB243F00C03DAB2FB68DA7007F11807BD4690BCE3
S32D00011078704700BF80B483B000AF786000BF7B681B79DBB203F02003002B14BF00230123DBB2002BF3D17B6868
S32D000110A0DB79DBB2184607F10C07BD4680BC704780B483B000AF78600B46FB7000BF7B681B79DBB2DBB26FEA8E
S32D000110C80303DBB24FEAD313DBB2002BF3D17B68FA78DA7107F10C07BD4680BC704700BF80B487B000AFF860F9
S32D000110F0B9607A60FB687B6107E0BB68DAB27B691A707B6903F101037B617B68002B0CBF00230123DBB27A6854
S32D0001111802F1FF327A60002BEBD107F11C07BD4680BC704780B584B000AF786039607B681B6BFB60FA683B6860
S32D000111409A4264D07B681B79002B43D07B685A787B6803F1340310461946FA684FF0010301F0ACFB0346002B92
S32D000111680CBF00230123DBB2002B02D04FF001034BE07B684FF000021A717B685A6A7B681B6AD218FB689A4267
S32D0001119020D97B68DB78FB7214E07B681B6AFA68D318FB607B685A787B6803F1340310461946FA684FF0010373
S32D000111B801F080FBFB7A03F1FF33FB72FB7A012B94BF00230123DBB2002BE2D13B68002B19D07B685A787B689F
S32D000111E003F13403104619463A684FF0010301F057FA0346002B0CBF00230123DBB2002B02D04FF0010304E0A2
S32D000112087B683A681A634FF00003184607F11007BD4680BD80B584B000AF786078684FF00001FFF77FFF0346F9
S32D00011230FB73FB7B002B40F0AE807B681B78032B40F095807B685B79002B00F090807B684FF000021A637B68D3
S32D0001125803F1340318464FF000014FF40072FFF73FFF7B684FF0550283F832227B684FF0AA0283F833227B68EC
S32D000112804FF0520283F834207B684FF0520283F835207B684FF0610283F836207B684FF0410283F837207B6827
S32D000112A84FF0720283F818227B684FF0720283F819227B684FF0410283F81A227B684FF0610283F81B227B6827
S32D000112D01B69DAB27B6883F81C227B681B699BB24FEA2323DAB27B6883F81D227B681B694FEA1343DAB27B6882
S32D000112F883F81E227B681B694FEA1363DAB27B6883F81F227B68DB68DAB27B6883F820227B68DB689BB24FEACD
S32D000113202323DAB27B6883F821227B68DB684FEA1343DAB27B6883F822227B68DB684FEA1363DAB27B6883F889
S32D0001134823227B6859787B6803F134027B685B69084611461A464FF0010301F0ABFA7B684FF000025A717B6819
S32D000113705B7818464FF000014FF0000201F084FB0346002B0CBF00230123DBB2002B02D04FF00103FB73FB7BF5
S32D00011398184607F11007BD4680BD00BF80B582B000AF78600B467B807B68002B08D07B681B78002B04D07B6842
S32D000113C0DB887A889A4202D04FF009030FE07B685B78184601F0ECFB034603F00103DBB2002B02D04FF00303B6
S32D000113E801E04FF00003184607F10807BD4680BD80B586B000AF78607B681A687B689B8810461946FFF7CAFF3D
S32D000114100346FB75FB7D002B40F0C8807B689B7903F02003002B00F0C1807B689B7903F04003002B20D07B6845
S32D000114381B6859787B6803F128027B689B69084611461A464FF0010301F034FA0346002B0CBF00230123DBB2CF
S32D00011460002B02D04FF00103A1E07B689B7923F04003DAB27B689A717B681A687B68DB6910461946FFF752FE4E
S32D000114880346FB75FB7D002B40F08C807B681B6A3B613B6903F10B033A6902F10B02127842F02002D2B21A7064
S32D000114B03B6903F11C037A68D268D2B21A703B6903F11D037A68D26892B24FEA2222D2B21A703B6903F11E03D0
S32D000114D87A68D2684FEA1242D2B21A703B6903F11F037A68D2684FEA1262D2B21A703B6903F11A037A6812698B
S32D00011500D2B21A703B6903F11B037A68126992B24FEA2222D2B21A703B6903F114037A6812694FEA1242D2B2AF
S32D000115281A703B6903F115037A6812694FEA124292B24FEA2222D2B21A704FF00003FB603B6903F11603FA68F1
S32D00011550D2B21A703B6903F11703FA6892B24FEA2222D2B21A703B6903F11803FA684FEA1242D2B21A703B6927
S32D0001157803F11903FA684FEA1262D2B21A707B689B7923F02003DAB27B689A717B681B684FF001021A717B685A
S32D000115A01B681846FFF73AFE0346FB75FB7D184607F11807BD4680BD80B584B000AF78607868FFF719FF034600
S32D000115C8FB73FB7B002B03D17B684FF000021A60FB7B184607F11007BD4680BD80B588B000AF786039604FF084
S32D000115F080033B614FF00F03FB604FF0FF337B614FF00203FB612AE04FF00103BB611AE0FB69BA6902FB03F337
S32D000116183A6802FB03F27B68D31ABB60BB68002B09DBBA687B699A4205D2BB687B61FB693B61BB69FB60BB6997
S32D0001164003F10103BB61BB69102B8CBF00230123DBB2002BDCD1FB694FEA4303FB61FB69B3F5807F8CBF002359
S32D000116680123DBB2002BCBD14FF48053C4F20B034FF48052C4F20B02D26A22F00802DA624FF48053C4F20B03BB
S32D00011690DB6A1A464FF00F03CFF6F0731340BB614FF48053C4F20B033A694FEA52024FEA02224FEA02424FEA81
S32D000116B81242F96801F1FF314FEA0111C9B21143BA690A4342F46022DA6203E04FF00A0001F0EEFB4FF4805392
S32D000116E0C4F20B035B6A03F00803002B14BF00230123DBB2002BEDD14FF48053C4F20B034FF48052C4F20B02E7
S32D00011708D26A42F00802DA624FF48053C4F20B034FF48052C4F20B02126B42F480121A6307F12007BD4680BD2B
S32D0001173080B582B000AF786039607B684FF000021A604FF48053C4F20B034FF40042C0F20012DA624FF48053F0
S32D00011758C4F20B03DB6A03F08073002B0CBF00230123DBB2002BF1D14FF48053C4F20B034FF00002C3F8C02006
S32D000117804FF48053C4F20B034FF481325A604FF48053C4F20B034FF028029A624FF48053C4F20B034FF0011245
S32D000117A85A643B689B6818464CF66041C0F20501FFF714FF4FF48053C4F20B035B6A03F00303002B0CBF0023FB
S32D000117D00123DBB2002BF1D14FF45043C4F2040340F243421A604FF45043C4F2040340F243425A604FF45043AE
S32D000117F8C4F204034FF488629A604FF45043C4F2040340F24342DA604FF45043C4F2040340F243421A614FF452
S32D000118205043C4F2040340F243425A614FF4E043C4F204034FF4E042C4F2040202F5805202F13002126842F4F5
S32D00011848003203F5805303F130031A604FF48053C4F20B034FF6FF721A634FF48053C4F20B034FF0B302C0F246
S32D000118707F025A634FF48053C4F20B034FF48052C4F20B02D26A42F00062DA624FF48053C4F20B03DB6A03F03B
S32D000118980063002B0CBF00230123DBB2002BF1D14FF48053C4F20B035B6A03F48033002B0CBF00230123DBB2F4
S32D000118C0002B03D07B684FF001021A604FF48053C4F20B034FF48052C4F20B02126B42F080021A634FF00003BA
S32D000118E8184607F10807BD4680BD00BF80B400AF4FF48053C4F20B035B6A1A4640F207331340002B0CBF0023B3
S32D000119100123DBB21846BD4680BC704780B485B000AF78604FF48053C4F20B031B6B1A467B681340FB60FB68FF
S32D00011938002B14BF00230123DBB2002BEED1FB68184607F11407BD4680BC704780B584B000AF78607B681B7894
S32D0001196003F03F024AF2E403C0F2010353F82230FB60FB68002B06D17B681B78002B02D04FF0010330E14FF4E4
S32D000119888053C4F20B034FF48052C4F20B02126B42F080021A634FF48053C4F20B035B6A03F00103DBB2002BC5
S32D000119B0F5D14FF48053C4F20B037A6852689A60FB6823F44003FB607B685B784FEA835303F44003FA68134303
S32D000119D8FB607B685B78022B03D1FB6843F40013FB607B685B78042B16D1FB6803F44033B3F5003F08D1FB680A
S32D00011A0023F44033FB60FB6843F44033FB6007E0FB6823F44033FB60FB6843F40033FB604FF48053C4F20B0339
S32D00011A284FF48052C4F20B0252684FEA02424FEA12425A607B68DB68002B32D0FB6803F44033B3F5403F03D01F
S32D00011A50FB6843F40013FB607B681B7A002B03D0FB6843F01003FB607B68DB68012B03D9FB6843F02003FB60A3
S32D00011A787B68DB68B3F1FF3F13D04FF48053C4F20B034FF48052C4F20B02526811467A68D2684FEA02420A43AB
S32D00011AA05A60FB6843F00203FB604FF48053C4F20B034FF000021A604FF48053C4F20B03FA68DA604FF001001C
S32D00011AC8C0F20E00FFF726FF0346012B0CBF00230123DBB2002B10D04FF48053C4F20B034FF48052C4F20B0243
S32D00011AF0126B42F4702242F001021A634FF0010372E04FF48053C4F20B031B6B03F08003002B0CBF0023012328
S32D00011B18DBB2002B0ED04FF48053C4F20B034FF48052C4F20B02126B42F001121A634FF0010355E04FF4805389
S32D00011B40C4F20B031B6B03F48033002B0CBF00230123DBB2002B0ED04FF48053C4F20B034FF48052C4F20B02FD
S32D00011B68126B42F001121A634FF0FF3338E0FB6803F44033002B25D04FF48053C4F20B031B691A467B681A617D
S32D00011B90FB6803F44033B3F5803F17D14FF48053C4F20B035B691A467B685A614FF48053C4F20B039B691A4630
S32D00011BB87B689A614FF48053C4F20B03DB691A467B68DA614FF48053C4F20B034FF48052C4F20B02126B42F023
S32D00011BE001021A634FF00003184607F11007BD4680BD00BF80B592B000AF786039604FF00003FB633B68BB63B0
S32D00011C0841F26413C1F6FF737B637B6B002B03D140F6012300F0A0BC41F26833C1F6FF733B633B6B002B03D137
S32D00011C3040F60B2300F094BC3B6B1B68FB62FB6A002B03D140F60B2300F08ABC7B6841F20432934200F0388292
S32D00011C5841F2043293421BD841F20132934238D041F20132934207D8032B00F03D84092B00F0298400F066BC0D
S32D00011C8041F20232934200F0128241F20332934200F0BE8300F05ABC41F20732934200F04B8341F207329342C1
S32D00011CA80BD841F20532934200F0348241F20632934200F0108300F045BC41F20832934200F0B68241F20932B9
S32D00011CD0934200F0C48200F039BC786B4AF2D801C0F20101FFF724FD0346FB63FB6B002B40F030844FF00003D4
S32D00011CF887F847304FF0000387F82B304FF0000387F82A304FF0000387F829304FF0000387F846304FF00003FD
S32D00011D2087F828304FF000033B724FF000037B724FF00003FB604FF000033B744FF000037B6107F10803184692
S32D00011D48FFF704FE0346002B0CBF00230123DBB2002B03D04FF00103FB63FCE340F24C4001F0A6F84FF008034C
S32D00011D703B724FF000037B724FF4D573FB604FF000033B744FF000037B6107F108031846FFF7E0FD03463B6457
S32D00011D983B6C002B0BD1BA69FB689A4203D04FF00103FB63D7E34FF0010387F846304FF0010387F8283097F8FD
S32D00011DC02830002B00F0C6804FF037033B724FF000037B724FF00003FB604FF000033B744FF000037B6107F142
S32D00011DE808031846FFF7B2FD03463B643B6C002B03D04FF00103FB63ADE34FF069033B724FF000037B724FF03A
S32D00011E100003FB604FF000033B744FF000037B6107F108031846FFF795FD0346002B0CBF00230123DBB2002B0F
S32D00011E3803D04FF00103FB638DE3BB6903F44013002B00F083804FF000033B644FF00A0001F02EF83B6C03F12F
S32D00011E6001033B644FF037033B724FF000037B724FF00003FB604FF000033B744FF000037B6107F1080318464E
S32D00011E88FFF764FD0346002B0CBF00230123DBB2002B03D04FF00103FB6336E04FF069033B724FF000037B7285
S32D00011EB097F84630002B05D04FF00003C4F23003FB6002E04FF44013FB604FF000033B744FF000037B6107F19E
S32D00011ED808031846FFF73AFD0346002B0CBF00230123DBB2002B03D04FF00103FB630CE0BB69002B05DB3B6CD1
S32D00011F00632B02D84FF0010301E04FF00003002BA0D1FB6B002B40F01F833B6C632B04D94FF0000387F846309C
S32D00011F2814E04FF0010387F8473097F84630002B0CD04FF0000387F84630BB6903F08043002B03D04FF00103FF
S32D00011F5087F8463097F82A30002B03D07B6B4FF007021A6097F82930002B03D07B6B4FF008021A6097F82B3065
S32D00011F78002B03D07B6B4FF004021A6097F84730002B0BD07B6B4FF002021A6097F84630002B03D07B6B4FF0C0
S32D00011FA003021A6097F82B30002B0FD097F84730002B0BD07B6B4FF005021A6097F84630002B03D07B6B4FF0C5
S32D00011FC806021A604FF45043C4F204034FF000021A604FF45043C4F204034FF000025A604FF45043C4F20403F9
S32D00011FF04FF000029A604FF45043C4F204034FF00002DA604FF45043C4F204034FF000021A614FF45043C4F29E
S32D0001201804034FF000025A61FB6A9A68FB6A5B6810461946FFF7DAFA4FF45043C4F2040340F243421A604FF481
S32D000120405043C4F2040340F243425A604FF45043C4F204034FF488629A604FF45043C4F2040340F24342DA6072
S32D000120684FF45043C4F2040340F243421A614FF45043C4F2040340F243425A614FF4E043C4F204034FF4E042F7
S32D00012090C4F2040202F5805202F13002126842F4003203F5805303F130031A6057E2B86BFFF750FC03463B64A3
S32D000120B83B6C002B00F04E824FF00203FB6349E2BB6B002B03D14FF00C03FB6343E24FF48053C4F20B03DB6A85
S32D000120E003F47F434FEA13234FEA43033B644FF48053C4F20B03DB6A03F0F0034FEA131303F101023B6C02FB8C
S32D0001210803F33B64FB6A9A683B6CB2FBF3F2BB6B1A6020E2BB6B002B03D14FF00C03FB6319E2BB6B1B68002B31
S32D0001213003D14FF00C03FB6311E2FFF7DBFB0346002B14BF00230123DBB2002B70D04FF45043C4F204034FF0E9
S32D0001215800021A604FF45043C4F204034FF000025A604FF45043C4F204034FF000029A604FF45043C4F20403ED
S32D000121804FF00002DA604FF45043C4F204034FF000021A614FF45043C4F204034FF000025A61FB6A9A68BB6B4A
S32D000121A81B6810461946FFF719FA4FF45043C4F2040340F243421A604FF45043C4F2040340F243425A604FF4BC
S32D000121D05043C4F204034FF488629A604FF45043C4F2040340F24342DA604FF45043C4F2040340F243421A6120
S32D000121F84FF45043C4F2040340F243425A614FF4E043C4F204034FF4E042C4F2040202F5805202F13002126807
S32D0001222042F4003203F5805303F130031A6096E140F60A23FB6392E1BB6B002B03D14FF00C03FB638BE14FF490
S32D000122488053C4F20B035B684FEAC3434FEAD343BA6B13607FE1BB6B002B03D14FF00C03FB6378E1FFF742FB2A
S32D000122700346002B14BF00230123DBB2002B2AD0BB6B1A6840F6FF739A4203D94FF00C03FB6364E14FF48053F0
S32D00012298C4F20B034FF48052C4F20B02526822F4FE5222F03F025A604FF48053C4F20B034FF48052C4F20B029C
S32D000122C052681146BA6B12684FEAC2424FEAD2420A435A6043E140F60A23FB633FE1BB6B002B03D14FF00C0336
S32D000122E8FB6338E14FF48053C4F20B039B6A03F006034FEA53033B643B6C002B04D1BB6B4FF000021A6026E1B8
S32D000123103B6C012B04D1BB6B4FF001021A601EE13B6C102B04D1BB6B4FF002021A6016E14FF00503FB6312E1EC
S32D00012338BB6B002B03D14FF00C03FB630BE1FFF7D5FA0346002B14BF00230123DBB2002B56D0BB6B1B68002BB4
S32D0001236016D14FF48053C4F20B034FF48052C4F20B02926A22F006029A624FF48053C4F20B034FF48052C4F2FE
S32D000123880B02926A9A62E6E0BB6B1B68012B18D14FF48053C4F20B034FF48052C4F20B02926A22F006029A62D9
S32D000123B04FF48053C4F20B034FF48052C4F20B02926A42F002029A62C9E0BB6B1B68022B16D14FF48053C4F2EC
S32D000123D80B034FF48052C4F20B02926A22F006029A624FF48053C4F20B034FF48052C4F20B02926A9A62AEE0A6
S32D000124004FF00503FB63AAE040F60A23FB63A6E0BB6B002B03D14FF00C03FB639FE04FF48053C4F20B034FF4CA
S32D000124288052C4F20B02D26A42F00062DA624FF48053C4F20B03DB6A03F00063002B0CBF00230123DBB2002B7A
S32D00012450F1D14FF48053C4F20B031B6B03F08003002B0CBF00230123DBB2002B0FD04FF48053C4F20B034FF4D4
S32D000124788052C4F20B02126B42F080021A637B6B4FF000021A604FF48053C4F20B035B6A03F48033002B0CBF12
S32D000124A000230123DBB2002B08D07B6B1B68002B08D17B6B4FF001021A6003E07B6B4FF000021A607B6B1A683B
S32D000124C8BB6B1A6047E0BB6B4FF01C021A60BB6B03F104034FF004021A60BB6B03F108034FF41E721A6036E0B9
S32D000124F04FF00200FFF712FA4FF48053C4F20B031B6B03F4E003002B0CBF00230123DBB2002B0ED04FF4805357
S32D00012518C4F20B034FF48052C4F20B02126B42F4E0021A634FF00403FB634FF48053C4F20B034FF48052C4F29D
S32D000125400B02126B42F032021A6308E040F60923FB6304E000BF02E000BF00E000BFFB6B184607F14807BD4666
S32D0001256880BD00BF80B489B000AF786039607B687B6141F26413C1F6FF733B613B69002B02D14FF0000381E048
S32D000125903B691B68022B0BD03B691B68032B07D03B691B68072B03D03B691B68082B0DD14FF48053C4F20B0383
S32D000125B85B6A03F00403002B0CBF00230123DBB2002BF1D13B68FB6156E0FB69B3F5007F28BF4FF40073FB60C6
S32D000125E0FB6803F103034FEA9303BB613CE04FF48053C4F20B031B6B03F4E003002B0CBF00230123DBB2002B39
S32D0001260810D04FF48053C4F20B034FF48052C4F20B02126B42F4E00242F020021A634FF0000333E04FF4805340
S32D00012630C4F20B035B6A03F40063002B14BF00230123DBB2002BF1D14FF48053C4F20B031B6A1A467B691A60BC
S32D000126587B6903F104037B61BB6903F1FF33BB61BB69002B0CBF00230123DBB2002BBAD1FA69FB68D31AFB617F
S32D00012680FB69002B0CBF00230123DBB2002BA0D14FF00103184607F12407BD4680BC704780B58EB000AFB9606C
S32D000126A87A600246FA73BB7341F25013C1F6FF737B63FB7B002B02D1BB7B002B02D14FF0040381E040F20043E5
S32D000126D0C1F6FF731B78DBB203F00103DBB2002B02D04FF0030373E0BB68002B02D14FF000036DE07B6B1B7B4D
S32D000126F8002B03D17B684FEA43237B60BB7B012B2CD14FF011033B754FF000037B757B68BB614FF001033B77CF
S32D00012720BB7B3B6207F1140341F202301946FFF761FA0346002B14BF00230123DBB2002B3ED0B8684FF400716B
S32D00012748FFF710FF0346002B0CBF00230123DBB2002B31D04FF00003BB732DE04FF012033B754FF000037B756B
S32D000127707B68BB614FF001033B77BB7B3B6207F1140341F202301946FFF734FA0346002B14BF00230123DBB261
S32D00012798002B11D0BB7B4FEA4323B8681946FFF7E1FE0346002B0CBF00230123DBB2002B02D04FF00003BB735D
S32D000127C0BB7B002B02D04FF0010301E04FF00003184607F13807BD4680BD00BF80B487B000AF786039607B684F
S32D000127E8FB603B687B6155E07B69B3F5007F28BF4FF400733B617A693B69D31A7B613B6903F103034FEA9303B2
S32D000128103B613BE04FF48053C4F20B031B6B03F4E003002B0CBF00230123DBB2002B10D04FF48053C4F20B03F9
S32D000128384FF48052C4F20B02126B42F4E00242F010021A634FF0FF332EE04FF48053C4F20B035B6A03F480634B
S32D00012860002B14BF00230123DBB2002BF1D14FF48053C4F20B03FA6812681A62FB6803F10403FB603B6903F107
S32D00012888FF333B613B69002B0CBF00230123DBB2002BBBD17B69002B0CBF00230123DBB2002BA1D14FF00103A0
S32D000128B0184607F11C07BD4680BC704780B58EB000AFB9607A600246FA73BB7341F25013C1F6FF737B63FB7B7F
S32D000128D8002B02D1BB7B002B02D14FF00403CAE040F20043C1F6FF731B78DBB203F00103DBB2002B02D04FF031
S32D000129000303BCE040F20043C1F6FF731B78DBB203F00403002B0CBF00230123DBB2002B02D04FF00203AAE0B9
S32D00012928BB68002B02D14FF00003A4E07B6B1B7B002B03D17B684FEA43237B60BB7B012B2CD14FF018033B7558
S32D000129504FF000037B757B68BB614FF000033B77BB7B3B6207F1140341F202301946FFF741F90346002B14BF16
S32D0001297800230123DBB2002B3ED0B8684FF40071FFF728FF0346002B0CBF00230123DBB2002B31D04FF00003B1
S32D000129A0BB732DE04FF019033B754FF000037B757B68BB614FF000033B77BB7B3B6207F1140341F202301946F7
S32D000129C8FFF714F90346002B14BF00230123DBB2002B11D0BB7B4FEA4323B8681946FFF7F9FE0346002B0CBF36
S32D000129F000230123DBB2002B02D04FF00003BB734FF00D033B754FF000037B757B6B1B69BB614FF000033B77CC
S32D00012A184FF000033B6207F1140341F202301946FFF7E4F80346002B0CBF00230123DBB2002B02D04FF00103B8
S32D00012A401DE07A6A48F20803CFF6D9731340002B02D04FF0010312E07B6A03F4F853B3F5106F0CBF002301234B
S32D00012A68DBB2002BC8D1BB7B002B02D04FF0010301E04FF00003184607F13807BD4680BD80B58CB000AF0B460F
S32D00012A903A600246FA71BB7141F25013C1F6FF73BB62FB79002B02D04FF004037AE04FF0010387F82F3040F25E
S32D00012AB80043C1F6FF731B78DBB203F00103DBB2002B02D04FF0030368E0BB79032B5FD801A252F823F000BFFD
S32D00012AE0F12A0100FB2A01000D2B01001F2B01004FF0000387F82F3052E0BB6A9A683B681A604FF0000387F8AA
S32D00012B082F3049E03B684FF400721A804FF0000387F82F3040E04FF009033B724FF000037B72BB6A1B69FB60B9
S32D00012B304FF000033B744FF000037B6107F1080341F202301946FFF755F80346002B0CBF00230123DBB2002B1F
