S01300002E2E2F50494474756E696E672E733139E4
S32D0000C0000000002045060100A1090100A1090100A1090100A1090100A10901000000000000000000000000004F
S32D0000C02800000000A1090100A109010000000000A1090100A1090100A1090100A1090100A1090100A109010092
S32D0000C050A1090100A1090100A1090100A1090100A1090100A1090100A1090100A1090100A1090100A109010014
S32D0000C078A1090100A1090100A1090100A1090100A1090100A1090100A1090100A1090100A1090100A1090100EC
S32D0000C0A0A1090100A1090100A1090100A1090100A1090100A1090100A1090100A1090100A1090100A1090100C4
S32D0000C0C8A1090100A1090100A1090100A1090100A1090100A1090100A1090100A1090100A1090100A10901009C
S32D0000C0F0A1090100216D0100A1090100A1090100A1090100A1090100A1090100A1090100A1090100A109010090
S32D0000C118A1090100A1090100A1090100A1090100A1090100A1090100A1090100A1090100A1090100A10901004B
S32D0000C140A1090100A1090100A1090100A1090100B53F0100A1090100A1090100A1090100A1090100A1090100D9
S32D0000C168A1090100A1090100A1090100A1090100A1090100A1090100A1090100A1090100A1090100A1090100FB
S32D0000C190A1090100A1090100A1090100193A01006D38010041390100F1090100F13A0100A1090100A10901008E
S32D0000C1B8A1090100A1090100A1090100A1090100A1090100A1090100A1090100A1090100A1090100A1090100AB
S32D0000C41081F0004102E000BF83F0004330B54FEA41044FEA430594EA050F08BF90EA020F1FBF54EA000C55EAC6
S32D0000C438020C7FEA645C7FEA655C00F0E2804FEA5454D4EB5555B8BF6D420CDD2C4480EA020281EA030382EA0F
S32D0000C460000083EA010180EA020281EA0303362D88BF30BD11F0004F4FEA01314FF4801C4CEA113102D0404263
S32D0000C48861EB410113F0004F4FEA03334CEA133302D0524263EB430394EA050F00F0A780A4F10104D5F1200E8A
S32D0000C4B00DDB02FA0EFC22FA05F2801841F1000103FA0EF2801843FA05F359410EE0A5F120050EF1200E012A2D
S32D0000C4D803FA0EFC28BF4CF0020C43FA05F3C01851EBE37101F0004507D54FF0000EDCF1000C7EEB00006EEB67
S32D0000C5000101B1F5801F1BD3B1F5001F0CD349085FEA30004FEA3C0C04F101044FEA445212F5800F80F09A8000
S32D0000C528BCF1004F08BF5FEA500C50F1000041EB045141EA050130BD5FEA4C0C404141EB010111F4801FA4F114
S32D0000C5500104E9D191F0000F04BF01460020B1FA81F308BF2033A3F10B03B3F120020CDA0C3208DD02F1140C87
S32D0000C578C2F10C0201FA0CF021FA02F10CE002F11402D8BFC2F1200C01FA02F120FA0CFCDCBF41EA0C019040B1
S32D0000C5A0E41AA2BF01EB0451294330BD6FEA04041F3C1CDA0C340EDC04F11404C4F1200220FA04F001FA02F3B6
S32D0000C5C840EA030021FA04F345EA030130BDC4F10C04C4F1200220FA02F001FA04F340EA0300294630BD21FAA8
S32D0000C5F004F0294630BD94F0000F83F4801306BF81F480110134013D4EE77FEA645C18BF7FEA655C29D094EA1C
S32D0000C618050F08BF90EA020F05D054EA000C04BF1946104630BD91EA030F1EBF0021002030BD5FEA545C05D1A3
S32D0000C6404000494128BF41F0004130BD14F580043CBF01F5801130BD01F0004545F0FE4141F470014FF0000031
S32D0000C66830BD7FEA645C1ABF194610467FEA655C1CBF0B46024650EA013406BF52EA033591EA030F41F40021D7
S32D0000C69030BD00BF90F0000F04BF0021704730B54FF4806404F132044FF000054FF0000150E700BF90F0000F66
S32D0000C6B804BF0021704730B54FF4806404F1320410F0004548BF40424FF000013EE700BF42004FEAE2014FEAF9
S32D0000C6E031014FEA02701FBF12F07F4393F07F4F81F06051704792F0000F14BF93F07F4F704730B54FF460741B
S32D0000C70801F0004521F0004120E700BF50EA010208BF704730B54FF000050AE050EA010208BF704730B511F046
S32D0000C730004502D5404261EB41014FF4806404F132045FEA915C3FF4DCAE4FF003025FEADC0C18BF03325FEAA0
S32D0000C758DC0C18BF033202EBDC02C2F1200300FA03FC20FA02F001FA03FE40EA0E0021FA02F11444C1E600BF19
S32D0000C78070B54FF0FF0C4CF4E06C1CEA11541DBF1CEA135594EA0C0F95EA0C0F00F0DEF82C4481EA030621EAF3
S32D0000C7A84C5123EA4C5350EA013518BF52EA033541F4801143F4801338D0A0FB02CE4FF00005E1FB02E506F05F
S32D0000C7D00042E0FB03E54FF00006E1FB03569CF0000F18BF4EF0010EA4F1FF04B6F5007F64F5407404D25FEA0F
S32D0000C7F84E0E6D4146EB060642EAC62141EA55514FEAC52040EA5E504FEACE2EB4F1FD0C88BFBCF5E06F1ED8D2
S32D0000C820BEF1004F08BF5FEA500E50F1000041EB045170BD06F0004646EA010140EA020081EA0301B4EB5C0487
S32D0000C848C2BFD4EB0C0541EA045170BD41F480114FF0000E013C00F3AB8014F1360FDEBF002001F0004170BDF0
S32D0000C870C4F10004203C35DA0C341BDC04F11404C4F1200500FA05F320FA04F001FA05F240EA020001F0004207
S32D0000C89821F0004110EBD37021FA04F642EB06015EEA430E08BF20EAD37070BDC4F10C04C4F1200500FA04F32F
S32D0000C8C020FA05F001FA04F240EA020001F0004110EBD37041F100015EEA430E08BF20EAD37070BDC4F12005C7
S32D0000C8E800FA05F24EEA020E20FA04F301FA05F243EA020321FA04F001F0004121FA04F220EA020000EBD37028
S32D0000C9105EEA430E08BF20EAD37070BD94F0000F0FD101F00046400041EB010111F4801F08BF013CF7D041EA6D
S32D0000C938060195F0000F18BF704703F00046520043EB030313F4801F08BF013DF7D043EA0603704794EA0C0FF1
S32D0000C9600CEA135518BF95EA0C0F0CD050EA410618BF52EA4306D1D181EA030101F000414FF0000070BD50EA38
S32D0000C988410606BF1046194652EA430619D094EA0C0F02D150EA013613D195EA0C0F05D152EA03361CBF10467B
S32D0000C9B019460AD181EA030101F0004141F0FE4141F470014FF0000070BD41F0FE4141F4780170BD70B54FF04D
S32D0000C9D8FF0C4CF4E06C1CEA11541DBF1CEA135594EA0C0F95EA0C0F00F0A7F8A4EB050481EA030E52EA03359B
S32D0000CA004FEA013100F088804FEA03334FF0805545EA131343EA12634FEA022245EA111545EA10654FEA002676
S32D0000CA280EF000419D4208BF964244F1FD0404F5407402D25B084FEA3202B61A65EB03055B084FEA32024FF461
S32D0000CA5080104FF4002CB6EB020E75EB030E22BFB61A754640EA0C005B084FEA3202B6EB020E75EB030E22BF22
S32D0000CA78B61A754640EA5C005B084FEA3202B6EB020E75EB030E22BFB61A754640EA9C005B084FEA3202B6EBEA
S32D0000CAA0020E75EB030E22BFB61A754640EADC0055EA060E18D04FEA051545EA16754FEA06164FEAC30343EAAC
S32D0000CAC852734FEAC2025FEA1C1CC0D111F4801F0BD141EA00014FF000004FF0004CB6E711F4801F04BF0143AE
S32D0000CAF00020B4F1FD0C88BFBCF5E06F3FF6AFAEB5EB030C04BFB6EB020C5FEA500C50F1000041EB045170BDBC
S32D0000CB180EF0004E4EEA113114EB5C04C2BFD4EB0C0541EA045170BD41F480114FF0000E013C90E645EA060EC3
S32D0000CB408DE60CEA135594EA0C0F08BF95EA0C0F3FF43BAF94EA0C0F0AD150EA01347FF434AF95EA0C0F7FF499
S32D0000CB6825AF104619462CE795EA0C0F06D152EA03353FF4FDAE1046194622E750EA410618BF52EA43067FF432
S32D0000CB90C5AE50EA41047FF40DAF52EA43057FF4EBAE12E74FF0FF3C06E000BF4FF0010C02E000BF4FF0010C75
S32D0000CBB84DF804CD4FEA410C7FEA6C5C4FEA430C18BF7FEA6C5C1BD001B050EA410C0CBF52EA430C91EA030FEC
S32D0000CBE002BF90EA020F0020704710F1000F91EA030F58BF994208BF90422CBFD8176FEAE37040F0010070476E
S32D0000CC084FEA410C7FEA6C5C02D150EA013C07D14FEA430C7FEA6C5CD6D152EA033CD3D05DF8040B704700BFCD
S32D0000CC308446104662468C461946634600E000BF01B5FFF7B7FF002848BF10F1000F01BD4DF808EDFFF7F4FF13
S32D0000CC580CBF012000205DF808FB00BF4DF808EDFFF7EAFF34BF012000205DF808FB00BF4DF808EDFFF7E0FF18
S32D0000CC8094BF012000205DF808FB00BF4DF808EDFFF7CEFF94BF012000205DF808FB00BF4DF808EDFFF7C4FF40
S32D0000CCA834BF012000205DF808FB00BF4FEA410212F5001215D211D56FF47873B3EB625212D94FEAC12343F0D6
S32D0000CCD0004343EA505311F0004F23FA02F018BF404270474FF00000704750EA013005D111F0004008BF6FF016
S32D0000CCF8004070474FF00000704700BF4A0011D212F5001211D20DD56FF47873B3EB62520ED44FEAC12343F085
S32D0000CD20004343EA505323FA02F070474FF00000704750EA013002D14FF0FF3070474FF0000070474FEA410241
S32D0000CD48B2F1E04324BFB3F5001CDCF1FE5C0DD901F0004C4FEAC0024CEA5070B2F1004F40EB830008BF20F09E
S32D0000CD700100704711F0804F21D113F13872BCBF01F00040704741F480114FEA5252C2F11802C2F1200C10FAB1
S32D0000CD980CF320FA02F018BF40F001004FEAC1234FEAD32303FA0CFC40EA0C0023FA02F34FEA4303CCE77FEA26
S32D0000CDC0625307D150EA01331EBF4FF0FE4040F44000704701F0004040F0FE4040F40000704700BF80F00040CC
S32D0000CDE802E000BF81F0004142001FBF5FEA410392EA030F7FEA226C7FEA236C6AD04FEA1262D2EB1363C1BF06
S32D0000CE10D218414048404140B8BF5B42192B88BF704710F0004F40F4000020F07F4018BF404211F0004F41F4FA
S32D0000CE38000121F07F4118BF494292EA030F3FD0A2F1010241FA03FC10EB0C00C3F1200301FA03F100F000432B
S32D0000CE6002D5494260EB4000B0F5000F13D3B0F1807F06D340084FEA310102F10102FE2A51D2B1F1004F40EB94
S32D0000CE88C25008BF20F0010040EA03007047490040EB000010F4000FA2F10102EDD1B0FA80FCACF1080CB2EB5F
S32D0000CEB00C0200FA0CF0AABF00EBC25052421843BCBFD0401843704792F0000F81F4000106BF80F400000132EB
S32D0000CED8013BB5E74FEA41037FEA226C18BF7FEA236C21D092EA030F04D092F0000F08BF0846704790EA010FD7
S32D0000CF001CBF0020704712F07F4F04D1400028BF40F00040704712F100723CBF00F50000704700F0004343F0DC
S32D0000CF28FE4040F4000070477FEA226216BF08467FEA23630146420206BF5FEA412390EA010F40F480007047C1
S32D0000CF504FF0000304E000BF10F0004348BF40425FEA000C08BF704743F0964301464FF000001CE050EA010264
S32D0000CF7808BF70474FF000030AE000BF50EA010208BF704711F0004302D5404261EB41015FEA010C02BF84465B
S32D0000CFA00146002043F0B64308BFA3F18053A3F50003BCFA8CF2083AA3EBC25310DB01FA02FC634400FA02FC6B
S32D0000CFC8C2F12002BCF1004F20FA02F243EB020008BF20F00100704702F1200201FA02FCC2F1200250EA4C0034
S32D0000CFF021FA02F243EB020008BF20EADC7070474FF0FF0C1CEAD0521EBF1CEAD15392EA0C0F93EA0C0F6FD019
S32D0000D0181A4480EA010C400218BF5FEA41211ED04FF0006343EA501043EA5111A0FB01310CF00040B1F5000FE7
S32D0000D0403EBF490041EAD3715B0040EA010062F17F02FD2A1DD8B3F1004F40EBC25008BF20F00100704790F058
S32D0000D068000F0CF0004C08BF49024CEA502040EA51207F3AC2BFD2F1FF0340EAC250704740F400004FF0000388
S32D0000D090013A5DDC12F1190FDCBF00F000407047C2F10002410021FA02F1C2F1200200FA02FC5FEA310040F1D5
S32D0000D0B8000053EA4C0308BF20EADC70704792F0000F00F0004C02BF400010F4000F013AF9D040EA0C0093F04C
S32D0000D0E0000F01F0004C02BF490011F4000F013BF9D041EA0C018FE70CEAD15392EA0C0F18BF93EA0C0F0AD00B
S32D0000D10830F0004C18BF31F0004CD8D180EA010000F00040704790F0000F17BF90F0004F084691F0000F91F0BB
S32D0000D130004F14D092EA0C0F01D142020FD193EA0C0F03D14B0218BF084608D180EA010000F0004040F0FE4051
S32D0000D15840F40000704740F0FE4040F4400070474FF0FF0C1CEAD0521EBF1CEAD15392EA0C0F93EA0C0F69D044
S32D0000D180A2EB030280EA010C49024FEA402037D04FF0805343EA111143EA10130CF000408B4238BF5B0042F14E
S32D0000D1A87D024FF4000C8B4224BF5B1A40EA0C00B3EB510F24BFA3EB510340EA5C00B3EB910F24BFA3EB9103A4
S32D0000D1D040EA9C00B3EBD10F24BFA3EBD10340EADC001B0118BF5FEA1C1CE0D1FD2A3FF650AF8B4240EBC25018
S32D0000D1F808BF20F0010070470CF0004C4CEA50207F32C2BFD2F1FF0340EAC250704740F400004FF00003013AF1
S32D0000D22037E792F0000F00F0004C02BF400010F4000F013AF9D040EA0C0093F0000F01F0004C02BF490011F4C9
S32D0000D248000F013BF9D041EA0C0195E70CEAD15392EA0C0F08D142027FF47DAF93EA0C0F7FF470AF084676E7AE
S32D0000D27093EA0C0F04D14B023FF44CAF08466EE730F0004C18BF31F0004CCAD130F000427FF45CAF31F0004376
S32D0000D2987FF43CAF5FE700BF4FF0FF3C06E000BF4FF0010C02E000BF4FF0010C4DF804CD4FEA40024FEA41039F
S32D0000D2C07FEA226C18BF7FEA236C11D001B052EA530C18BF90EA010F58BFB2EB030088BFC81738BF6FEAE1706E
S32D0000D2E818BF40F0010070477FEA226C02D15FEA402C05D17FEA236CE4D15FEA412CE1D05DF8040B704700BF16
S32D0000D310844608466146FFE70FB5FFF7C9FF002848BF10F1000F0FBD4DF808EDFFF7F4FF0CBF012000205DF839
S32D0000D33808FB00BF4DF808EDFFF7EAFF34BF012000205DF808FB00BF4DF808EDFFF7E0FF94BF012000205DF8A9
S32D0000D36008FB00BF4DF808EDFFF7D2FF94BF012000205DF808FB00BF4DF808EDFFF7C8FF34BF012000205DF8B1
S32D0000D38808FB00BF4FEA4002B2F1FE4F0FD34FF09E03B3EB12620DD94FEA002343F0004310F0004F23FA02F060
S32D0000D3B018BF404270474FF00000704712F1610F01D1420205D110F0004008BF6FF0004070474FF00000704797
S32D0000D3D880B483B000AF78607B6823F00043184607F10C07BD4680BC704700BF80B584B000AFF860B9607A607F
S32D0000D4003B6005F0EDFF02460B4610461946FFF799FC0246FB681A60FB68BA685A60FB687A689A60FB683A6801
S32D0000D428DA60FB68BA691A61FB68054A5A61FB68034A9A61FB68184607F11007BD4680BD000000000000000073
S32D0000D45080B582B000AF786005F0C2FF02460B46104619460CA3D3E90023FEF7D5FF02460B4610461946FFF721
S32D0000D47865FC02467B681A607B68074A5A617B68054A9A6107F10807BD4680BDAFF300807B14AE47E17A943F49
S32D0000D4A000000000AFF3008090B58BB000AFF860B9607A603B6005F093FF02460B4610461946FFF73FFC0346D8
S32D0000D4C8FB61FB681B68F8691946FFF78BFC03467B62FB68FA691A60786AFFF7F9F802460B464FF001010C465C
S32D0000D4F01046194660A3D3E90023FFF7B3FB0346002B02D14FF000031C46E3B2002B01D05B4B7B62B8687968D3
S32D0000D518FFF768FC0346BB61FB689C69B869796AFFF76AFD034620461946FFF75DFC03461A46FB689A61B869D8
S32D0000D540FFF74AFF03464FF00102144618463968FFF712FF0346002B02D14FF000031C46E3B2002B1CD14FF0BC
S32D0000D56801031C46B8684549FFF702FF0346002B02D14FF000031C46E3B2002B06D0B8693E49FFF7D7FE03464D
S32D0000D590002B05E0B8693B49FFF7EEFE0346002BFB685B6978681946FFF720FC03461846796AFFF7D9FD03464B
S32D0000D5B87B61FB687A685A61FB685B681846B969FFF71AFD03461C46FB689A68FB689B6910461946FFF710FD87
S32D0000D5E0034620461946FFF703FC03461C46FB68DB6818467969FFF703FD034620461946FFF7F6FB03461C46F3
S32D0000D608FB681B691846B968FFF7F6FC034620461946FFF7E9FB03463B62386AFFF7D8FE03464FF00102144685
S32D0000D63018461549FFF7A0FE0346002B02D14FF000031C46E3B2002B0FD0386A0E49FFF7D7FC03461C46386AE3
S32D0000D658FFF7BEFE034620461946FFF781FD03463B623B6A184607F12C07BD4690BD00BF7B14AE47E17A843FAB
S32D0000D6800AD7A33C000000000000C842AFF3008090B59BB002AF7860396007F12403EA4A009218463968E94AC7
S32D0000D6A8E74BFFF7A3FE07F10803E54A00921846E549E34AE24BFFF799FE4FF0000387F85F30DF4B3B65DE4B11
S32D0000D6D0FB647868DF49FFF793FC03467B6007F124031846FFF7B4FE07F108031846FFF7AFFE41F23010C1F6C9
S32D0000D6F8FF7006F075FA41F22C10C1F6FF7006F06FFA7FE141F22C10C1F6FF7006F054FA03461846FFF71CFC4E
S32D0000D7200346BB6407F1240318467968BA6CCA4BFFF7BAFE03467B6441F23010C1F6FF7006F03EFA044641F2C0
S32D0000D7482C10C1F6FF7006F037FA0346E31A1846FFF7FEFB034607F108021046B8491A46BB4BFFF79DFE0346B5
S32D0000D7703B64786C396CFFF73BFB0346BB65786C396CFFF733FB03467B65B86D396DFFF72DFB03464FF0010284
S32D0000D79814461846AF49FFF7EBFD0346002B02D14FF000031C46E3B2002B06D0386DA949FFF71AFB0346BB6549
S32D0000D7C01AE0B86D396DFFF711FB03464FF0010214461846A249FFF7B1FD0346002B02D14FF000031C46E3B222
S32D0000D7E8002B05D0386D9B49FFF7FCFA0346BB65786DF96CFFF7F6FA03464FF00102144618469449FFF7B4FD3E
S32D0000D8100346002B02D14FF000031C46E3B2002B06D0F86C8D49FFF7E3FA03467B651AE0786DF96CFFF7DAFA25
S32D0000D83803464FF00102144618468749FFF77AFD0346002B02D14FF000031C46E3B2002B05D0F86C7F49FFF7A0
S32D0000D860C5FA03467B65B86D7749FFF75DFD0346002B48D1B86DFFF7AFFD03464FF00102144618467749FFF730
S32D0000D88859FD0346002B02D14FF000031C46E3B2002B10D0B86D7149FFF7AEFB03461C46B86DFFF795FD034672
S32D0000D8B020461946FFF758FC0346BB6523E0B86DFFF78AFD03464FF00102144618466649FFF752FD0346002B82
S32D0000D8D802D14FF000031C46E3B2002B0FD0B86D5F49FFF789FB03461C46B86DFFF770FD034620461946FFF78E
S32D0000D90033FC0346BB65786D4F49FFF70DFD0346002B48D1786DFFF75FFD03464FF00102144618464F49FFF74F
S32D0000D92809FD0346002B02D14FF000031C46E3B2002B10D0786D4949FFF75EFB03461C46786DFFF745FD034669
S32D0000D95020461946FFF708FC03467B6523E0786DFFF73AFD03464FF00102144618463E49FFF702FD0346002B79
S32D0000D97802D14FF000031C46E3B2002B0FD0786D3749FFF739FB03461C46786DFFF720FD034620461946FFF735
S32D0000D9A0E3FB03467B65BB6D83F0004341F21C10C1F6FF70194603F0D7F841F22410C1F6FF70796D03F0D0F8A0
S32D0000D9C8BB6D3B657B6DFB641BA1D1E9000105F0D7FC7868B96CFFF705FA03464FF00102144618461649FFF751
S32D0000D9F0A5FC0346002B02D14FF000031C46E3B2002B03D04FF0010387F85F3097F85F3083F00103DBB2002B4C
S32D0000DA187FF478AE41F21C10C1F6FF70084903F09FF841F22410C1F6FF70054903F098F807F16407BD4690BDD6
S32D0000DA407B14AE47E17A943F000000000AD7233C000000400000E04100401C460000E0400000E0C000000041C2
S32D0000DA680000A042AFF3008090B59BB002AF7860396007F12403EA4A009218463968E94AE74BFFF7B3FC07F1F4
S32D0000DA900803E54A00921846E549E34AE24BFFF7A9FC4FF0000387F85F30DF4B3B65DE4BFB647868DF49FFF77B
S32D0000DAB8A3FA03467B6007F124031846FFF7C4FC07F108031846FFF7BFFC41F23010C1F6FF7006F085F841F2FB
S32D0000DAE02C10C1F6FF7006F07FF87FE141F22C10C1F6FF7006F064F803461846FFF72CFA0346BB6407F12403B8
S32D0000DB0818467968BA6CCA4BFFF7CAFC03467B6441F23010C1F6FF7006F04EF8044641F22C10C1F6FF7006F0E7
S32D0000DB3047F80346E31A1846FFF70EFA034607F108021046B8491A46BB4BFFF7ADFC03463B64786C396CFFF7D8
S32D0000DB584BF90346BB65786C396CFFF743F903467B65B86D396DFFF73DF903464FF0010214461846AF49FFF7E6
S32D0000DB80FBFB0346002B02D14FF000031C46E3B2002B06D0386DA949FFF72AF90346BB651AE0B86D396DFFF72C
S32D0000DBA821F903464FF0010214461846A249FFF7C1FB0346002B02D14FF000031C46E3B2002B05D0386D9B494C
S32D0000DBD0FFF70CF90346BB65786DF96CFFF706F903464FF00102144618469449FFF7C4FB0346002B02D14FF029
S32D0000DBF800031C46E3B2002B06D0F86C8D49FFF7F3F803467B651AE0786DF96CFFF7EAF803464FF001021446BF
S32D0000DC2018468749FFF78AFB0346002B02D14FF000031C46E3B2002B05D0F86C7F49FFF7D5F803467B65B86D70
S32D0000DC487749FFF76DFB0346002B48D1B86DFFF7BFFB03464FF00102144618467749FFF769FB0346002B02D18A
S32D0000DC704FF000031C46E3B2002B10D0B86D7149FFF7BEF903461C46B86DFFF7A5FB034620461946FFF768FAEA
S32D0000DC980346BB6523E0B86DFFF79AFB03464FF00102144618466649FFF762FB0346002B02D14FF000031C4612
S32D0000DCC0E3B2002B0FD0B86D5F49FFF799F903461C46B86DFFF780FB034620461946FFF743FA0346BB65786D72
S32D0000DCE84F49FFF71DFB0346002B48D1786DFFF76FFB03464FF00102144618464F49FFF719FB0346002B02D16A
S32D0000DD104FF000031C46E3B2002B10D0786D4949FFF76EF903461C46786DFFF755FB034620461946FFF718FAE1
S32D0000DD3803467B6523E0786DFFF74AFB03464FF00102144618463E49FFF712FB0346002B02D14FF000031C46B9
S32D0000DD60E3B2002B0FD0786D3749FFF749F903461C46786DFFF730FB034620461946FFF7F3F903467B6541F25C
S32D0000DD881C10C1F6FF70B96D02F0EAFE7B6D83F0004341F22410C1F6FF70194602F0E0FEBB6D3B657B6DFB64B2
S32D0000DDB01BA1D1E9000105F0E7FA7868B96CFFF715F803464FF00102144618461649FFF7B5FA0346002B02D162
S32D0000DDD84FF000031C46E3B2002B03D04FF0010387F85F3097F85F3083F00103DBB2002B7FF478AE41F21C1050
S32D0000DE00C1F6FF70084902F0AFFE41F22410C1F6FF70054902F0A8FE07F16407BD4690BD7B14AE47E17A943F06
S32D0000DE28000000000AD7233C000000400000E04100401C460000E0400000E0C0000000410000A042AFF3008084
S32D0000DE5090B59BB002AF7860396007F12403EA4A009218463968E94AE74BFFF7C3FA07F10803E54A00921846D4
S32D0000DE78E549E34AE24BFFF7B9FA4FF0000387F85F30DF4B3B65DE4BFB647868DF49FFF7B3F803467B6007F1E4
S32D0000DEA024031846FFF7D4FA07F108031846FFF7CFFA41F23010C1F6FF7005F095FE41F22C10C1F6FF7005F040
S32D0000DEC88FFE7CE141F22C10C1F6FF7005F074FE03461846FFF73CF80346BB6407F1240318467968BA6CCA4B74
S32D0000DEF0FFF7DAFA03467B6441F23010C1F6FF7005F05EFE044641F22C10C1F6FF7005F057FE0346E31A18465B
S32D0000DF18FFF71EF8034607F108021046B8491A46BB4BFFF7BDFA03463B64786C396CFEF75BFF0346BB65786C0D
S32D0000DF40396CFEF753FF03467B65B86D396DFEF74DFF03464FF0010214461846AF49FFF70BFA0346002B02D115
S32D0000DF684FF000031C46E3B2002B06D0386DA949FEF73AFF0346BB651AE0B86D396DFEF731FF03464FF00102AE
S32D0000DF9014461846A249FFF7D1F90346002B02D14FF000031C46E3B2002B05D0386D9B49FEF71CFF0346BB657E
S32D0000DFB8786DF96CFEF716FF03464FF00102144618469449FFF7D4F90346002B02D14FF000031C46E3B2002B59
S32D0000DFE006D0F86C8D49FEF703FF03467B651AE0786DF96CFEF7FAFE03464FF00102144618468749FFF79AF916
S32D0000E0080346002B02D14FF000031C46E3B2002B05D0F86C7F49FEF7E5FE03467B65B86D7749FFF77DF90346A3
S32D0000E030002B48D1B86DFFF7CFF903464FF00102144618467749FFF779F90346002B02D14FF000031C46E3B2B0
S32D0000E058002B10D0B86D7149FEF7CEFF03461C46B86DFFF7B5F9034620461946FFF778F80346BB6523E0B86D75
S32D0000E080FFF7AAF903464FF00102144618466649FFF772F90346002B02D14FF000031C46E3B2002B0FD0B86DD7
S32D0000E0A85F49FEF7A9FF03461C46B86DFFF790F9034620461946FFF753F80346BB65786D4F49FFF72DF903461C
S32D0000E0D0002B48D1786DFFF77FF903464FF00102144618464F49FFF729F90346002B02D14FF000031C46E3B218
S32D0000E0F8002B10D0786D4949FEF77EFF03461C46786DFFF765F9034620461946FFF728F803467B6523E0786DED
S32D0000E120FFF75AF903464FF00102144618463E49FFF722F90346002B02D14FF000031C46E3B2002B0FD0786D3E
S32D0000E1483749FEF759FF03461C46786DFFF740F9034620461946FFF703F803467B6541F21C10C1F6FF70B96D4A
S32D0000E17002F0FAFC41F22410C1F6FF70796D02F0F3FCBB6D3B657B6DFB641DA1D1E9000105F0FAF87868B96CD1
S32D0000E198FEF728FE03464FF00102144618461849FFF7C8F80346002B02D14FF000031C46E3B2002B03D04FF027
S32D0000E1C0010387F85F3097F85F3083F00103DBB2002B7FF47BAE41F21C10C1F6FF700A4902F0C2FC41F2241047
S32D0000E1E8C1F6FF70064902F0BBFC07F16407BD4690BD00BFAFF300807B14AE47E17A943F000000000AD7233C65
S32D0000E210000000400000E04100401C460000E0400000E0C0000040410000A042AFF3008090B59BB002AF78607F
S32D0000E238396007F12403EC4A009218463968EB4AE94BFFF7D3F807F10803E74A00921846E749E54AE44BFFF767
S32D0000E260C9F84FF0000387F85F30E14B3B65E04BFB647868E149FEF7C3FE03467B6007F124031846FFF7E4F8F6
S32D0000E28807F108031846FFF7DFF841F23010C1F6FF7005F0A5FC41F22C10C1F6FF7005F09FFC82E141F22C1014
S32D0000E2B0C1F6FF7005F084FC03461846FEF74CFE0346BB6407F1240318467968BA6CCC4BFFF7EAF803467B64BC
S32D0000E2D841F23010C1F6FF7005F06EFC044641F22C10C1F6FF7005F067FC0346E31A1846FEF72EFE034607F1E3
S32D0000E30008021046BA491A46BD4BFFF7CDF803463B64786C396CFEF76BFD0346BB65786C396CFEF763FD03460B
S32D0000E3287B65B86D396DFEF75DFD03464FF0010214461846B149FFF71BF80346002B02D14FF000031C46E3B207
S32D0000E350002B06D0386DAB49FEF74AFD0346BB651AE0B86D396DFEF741FD03464FF0010214461846A449FEF743
S32D0000E378E1FF0346002B02D14FF000031C46E3B2002B05D0386D9D49FEF72CFD0346BB65786DF96CFEF726FDA3
S32D0000E3A003464FF00102144618469649FEF7E4FF0346002B02D14FF000031C46E3B2002B06D0F86C8F49FEF7A3
S32D0000E3C813FD03467B651AE0786DF96CFEF70AFD03464FF00102144618468949FEF7AAFF0346002B02D14FF075
S32D0000E3F000031C46E3B2002B05D0F86C8149FEF7F5FC03467B65B86D7949FEF78DFF0346002B48D1B86DFEF7B9
S32D0000E418DFFF03464FF00102144618467949FEF789FF0346002B02D14FF000031C46E3B2002B10D0B86D73490A
S32D0000E440FEF7DEFD03461C46B86DFEF7C5FF034620461946FEF788FE0346BB6523E0B86DFEF7BAFF03464FF005
S32D0000E4680102144618466849FEF782FF0346002B02D14FF000031C46E3B2002B0FD0B86D6149FEF7B9FD034657
S32D0000E4901C46B86DFEF7A0FF034620461946FEF763FE0346BB65786D5149FEF73DFF0346002B48D1786DFEF75F
S32D0000E4B88FFF03464FF00102144618465149FEF739FF0346002B02D14FF000031C46E3B2002B10D0786D4B499A
S32D0000E4E0FEF78EFD03461C46786DFEF775FF034620461946FEF738FE03467B6523E0786DFEF76AFF03464FF065
S32D0000E5080102144618464049FEF732FF0346002B02D14FF000031C46E3B2002B0FD0786D3949FEF769FD0346E6
S32D0000E5301C46786DFEF750FF034620461946FEF713FE03467B65BB6D83F0004341F21C10C1F6FF70194602F041
S32D0000E55807FB7B6D83F0004341F22410C1F6FF70194602F0FDFABB6D3B657B6DFB641CA1D1E9000104F004FFA2
S32D0000E5807868B96CFEF732FC03464FF00102144618461749FEF7D2FE0346002B02D14FF000031C46E3B2002B32
S32D0000E5A803D04FF0010387F85F3097F85F3083F00103DBB2002B7FF475AE41F21C10C1F6FF70094902F0CCFAAF
S32D0000E5D041F22410C1F6FF70054902F0C5FA07F16407BD4690BD00BF7B14AE47E17A943F000000000AD7233C2D
S32D0000E5F8000000400000E04100401C460000E0400000E0C0000040410000A042AFF3008090B591B002AF78609E
S32D0000E620396007F10C03824A009218463968814A7F4BFEF7DFFE4FF0000387F837307C4BFB6278687C49FEF782
S32D0000E648DBFC03467B6007F10C031846FEF7FCFE41F23010C1F6FF7005F0C2FAC6E041F23010C1F6FF7005F0D7
S32D0000E670A7FA03461846FEF76FFC0346BB6207F10C0318467968BA6A6C4BFEF70DFF03463B63386BF96AFEF76A
S32D0000E698A9FB03464FF00102144618466649FEF767FE0346002B02D14FF000031C46E3B2002B06D0F86A6049D8
S32D0000E6C0FEF796FB03463B631AE0386BF96AFEF78DFB03464FF00102144618465949FEF72DFE0346002B02D1F6
S32D0000E6E84FF000031C46E3B2002B05D0F86A5249FEF778FB03463B63386B4B49FEF710FE0346002B48D1386B15
S32D0000E710FEF762FE03464FF00102144618464A49FEF70CFE0346002B02D14FF000031C46E3B2002B10D0386B83
S32D0000E7384349FEF761FC03461C46386BFEF748FE034620461946FEF70BFD03463B6323E0386BFEF73DFE03463B
S32D0000E7604FF00102144618463849FEF705FE0346002B02D14FF000031C46E3B2002B0FD0386B3249FEF73CFC43
S32D0000E78803461C46386BFEF723FE034620461946FEF7E6FC03463B633B6B83F0004341F21C10C1F6FF701946F3
S32D0000E7B002F0DAF93B6BFB621BA1D1E9000104F0E3FD7868B96AFEF711FB03464FF00102144618461649FEF78D
S32D0000E7D8B1FD0346002B02D14FF000031C46E3B2002B03D04FF0010387F8373097F8373083F00103DBB2002B99
S32D0000E8007FF431AF41F21C10C1F6FF70084902F0ABF941F22410C1F6FF70054902F0A4F907F13C07BD4690BD36
S32D0000E8287B14AE47E17A943F000000000AD7233C0000E04100401C460000E0400000E0C0000040410000A042EA
S32D0000E85090B591B002AF7860396007F10C03824A009218463968814A7F4BFEF7C3FD4FF0000387F837307C4B55
S32D0000E878FB6278687C49FEF7BFFB03467B6007F10C031846FEF7E0FD41F22C10C1F6FF7005F0A6F9C3E041F267
S32D0000E8A02C10C1F6FF7005F08BF903461846FEF753FB0346BB6207F10C0318467968BA6A6C4BFEF7F1FD0346D2
S32D0000E8C83B63386BF96AFEF78DFA03464FF00102144618466649FEF74BFD0346002B02D14FF000031C46E3B253
S32D0000E8F0002B06D0F86A6049FEF77AFA03463B631AE0386BF96AFEF771FA03464FF00102144618465949FEF764
S32D0000E91811FD0346002B02D14FF000031C46E3B2002B05D0F86A5249FEF75CFA03463B63386B4B49FEF7F4FCF8
S32D0000E9400346002B48D1386BFEF746FD03464FF00102144618464A49FEF7F0FC0346002B02D14FF000031C469F
S32D0000E968E3B2002B10D0386B4349FEF745FB03461C46386BFEF72CFD034620461946FEF7EFFB03463B6323E03A
S32D0000E990386BFEF721FD03464FF00102144618463849FEF7E9FC0346002B02D14FF000031C46E3B2002B0FD07B
S32D0000E9B8386B3249FEF720FB03461C46386BFEF707FD034620461946FEF7CAFB03463B6341F22410C1F6FF7080
S32D0000E9E0396B02F0C1F83B6BFB621DA1D1E9000104F0CAFC7868B96AFEF7F8F903464FF00102144618461849F7
S32D0000EA08FEF798FC0346002B02D14FF000031C46E3B2002B03D04FF0010387F8373097F8373083F00103DBB2B6
S32D0000EA30002B7FF434AF41F21C10C1F6FF700A4902F092F841F22410C1F6FF70064902F08BF807F13C07BD4654
S32D0000EA5890BD00BFAFF300807B14AE47E17A943F000000000AD7233C0000E04100401C460000E0400000E0C0ED
S32D0000EA80000040410000A04280B582B000AF78607B68C3F100031846FEF75EFA034641F21C10C1F6FF701946A5
S32D0000EAA802F05EF87868FEF753FA034641F22410C1F6FF70194602F053F807F10807BD4680BD00BF000000005E
S32D0000EAD090B5A7B002AF786007F14003DFF81025009218467968DFF80C25DFF80435FEF781FC07F12403DFF85B
S32D0000EAF8F824009218467968DFF8F024DFF8E834FEF774FC07F10803DFF8DC2400921846DFF8DC14DFF8D02464
S32D0000EB20DFF8CC34FEF766FC4FF0000387F88F30DFF8BC34C7F88030DFF8B434FB67DFF8BC347B67DFF8B83456
S32D0000EB483B67DFF8A434BB6741F23010C1F6FF7005F046F841F22C10C1F6FF7005F040F807F140031846FEF710
S32D0000EB706FFC07F124031846FEF76AFC07F108031846FEF765FCE4E141F23010C1F6FF7005F016F80346FB6672
S32D0000EB9841F22C10C1F6FF7005F00EF80346BB66FA6E13464FEA83039B184FEA43134DF2B932CBF21F1282FBFE
S32D0000EBC00312D2184FEA22224FEAE373D31A1846FEF7C2F90346BB674FF001031C46B86FDFF82014FEF7C8FB27
S32D0000EBE80346002B02D14FF000031C46E3B2002B02D0DFF80834BB67F86EFEF7A9F9034607F140021046396FCF
S32D0000EC101A46FD4BFEF748FC03467B66B86EFEF79BF9034607F124021046796F1A46F64BFEF73AFC03463B66C1
S32D0000EC38FA6EBB6ED31A1846FEF78AF9034607F108021046B96F1A46ED4BFEF729FC0346FB65786EF96DFEF7F5
S32D0000EC60C7F80346C7F88830386EF96DFEF7BEF80346C7F88430D7F88800D7F88010FEF7B5F803464FF00102B1
S32D0000EC8814461846DF49FEF773FB0346002B02D14FF000031C46E3B2002B08D0D7F88000D849FEF7A1F8034651
S32D0000ECB0C7F888301EE0D7F88800D7F88010FEF795F803464FF0010214461846D049FEF735FB0346002B02D1C1
S32D0000ECD84FF000031C46E3B2002B07D0D7F88000C849FEF77FF80346C7F88830D7F88400F96FFEF777F80346DF
S32D0000ED004FF0010214461846C049FEF735FB0346002B02D14FF000031C46E3B2002B07D0F86FBA49FEF764F880
S32D0000ED280346C7F884301CE0D7F88400F96FFEF759F803464FF0010214461846B249FEF7F9FA0346002B02D197
S32D0000ED504FF000031C46E3B2002B06D0F86FAB49FEF744F80346C7F88430D7F88800A049FEF7DAFA0346002B96
S32D0000ED7850D1D7F88800FEF72BFB03464FF0010214461846A149FEF7D5FA0346002B02D14FF000031C46E3B269
S32D0000EDA0002B13D0D7F888009A49FEF729F903461C46D7F88800FEF70FFB034620461946FEF7D2F90346C7F80F
S32D0000EDC8883027E0D7F88800FEF702FB03464FF00102144618468E49FEF7CAFA0346002B02D14FF000031C4657
S32D0000EDF0E3B2002B12D0D7F888008749FEF700F903461C46D7F88800FEF7E6FA034620461946FEF7A9F9034679
S32D0000EE18C7F88830D7F884007349FEF781FA0346002B4FD1D7F88400FEF7D2FA03464FF001021446184675492D
S32D0000EE40FEF77CFA0346002B02D14FF000031C46E3B2002B13D0D7F884006E49FEF7D0F803461C46D7F88400E6
S32D0000EE68FEF7B6FA034620461946FEF779F90346C7F8843026E0386EFEF7AAFA03464FF0010214461846634972
S32D0000EE90FEF772FA0346002B02D14FF000031C46E3B2002B12D0D7F884005C49FEF7A8F803461C46D7F88400DB
S32D0000EEB8FEF78EFA034620461946FEF751F90346C7F8843041F21C10C1F6FF70D7F8881001F046FED7F8843002
S32D0000EEE083F0004341F22410C1F6FF70194601F03BFED7F88830C7F88030D7F88430FB6739A1D1E9000104F0D4
S32D0000EF083FFA41F23010C1F6FF7004F055FE03461846FEF71DF80346386F1946FDF762FF03464FF00102144688
S32D0000EF3018462F49FEF702FA0346002B02D14FF000031C46E3B2002B03D04FF0010387F88F3097F88F3083F02C
S32D0000EF580103DBB2002B7FF413AE41F21C10C1F6FF70214901F0FCFD41F22410C1F6FF701D4901F0F5FD41F2B9
S32D0000EF803010C1F6FF7004F01BFE03461846FDF7E3FF0346386F1946FDF728FF034641F22440C1F6FF701946A4
S32D0000EFA806F082FB41F22C10C1F6FF7004F004FE03461846FDF7CCFF0346786F1946FDF711FF034641F2244064
S32D0000EFD0C1F6FF70194606F06BFB07F19407BD4690BD00BFAFF300807B14AE47E17A943F000000000AD7233C7C
S32D0000EFF8000020410000FC43000028440000204300401C460000E0400000E0C0000000410000A0420000704245
S32D0000F02090B59BB002AF7860396007F12403DFF80824009218463968DFF80024FE4BFEF7D9F907F10803FC4A09
S32D0000F04800921846FC49FA4AF94BFEF7CFF94FF0000387F85F30F64B3B65F54BFB647868F649FDF7C9FF03462C
S32D0000F0707B6007F124031846FEF7EAF907F108031846FEF7E5F941F23010C1F6FF7004F0ABFD41F22C10C1F6B3
S32D0000F098FF7004F0A5FDADE141F22C10C1F6FF7004F08AFD03461846FDF752FF0346BB6407F1240318467968F5
S32D0000F0C0BA6CE14BFEF7F0F903467B6441F23010C1F6FF7004F074FD044641F22C10C1F6FF7004F06DFD034646
S32D0000F0E8E31A1846FDF734FF034607F108021046CF491A46D24BFEF7D3F903463B64786C396CFDF771FE034664
S32D0000F110BB65786C396CFDF769FE03467B65B86D396DFDF763FE03464FF0010214461846C649FEF721F90346DA
S32D0000F138002B02D14FF000031C46E3B2002B06D0386DC049FDF750FE0346BB651AE0B86D396DFDF747FE0346D1
S32D0000F1604FF0010214461846B949FEF7E7F80346002B02D14FF000031C46E3B2002B05D0386DB249FDF732FE6D
S32D0000F1880346BB65786DF96CFDF72CFE03464FF0010214461846AB49FEF7EAF80346002B02D14FF000031C468F
S32D0000F1B0E3B2002B06D0F86CA449FDF719FE03467B651AE0786DF96CFDF710FE03464FF00102144618469E49A6
S32D0000F1D8FEF7B0F80346002B02D14FF000031C46E3B2002B05D0F86C9649FDF7FBFD03467B65B86D8E49FEF7A3
S32D0000F20093F80346002B48D1B86DFEF7E5F803464FF00102144618468E49FEF78FF80346002B02D14FF00003B2
S32D0000F2281C46E3B2002B10D0B86D8849FDF7E4FE03461C46B86DFEF7CBF8034620461946FDF78EFF0346BB656A
S32D0000F25023E0B86DFEF7C0F803464FF00102144618467D49FEF788F80346002B02D14FF000031C46E3B2002B92
S32D0000F2780FD0B86D7649FDF7BFFE03461C46B86DFEF7A6F8034620461946FDF769FF0346BB65786D6649FEF735
S32D0000F2A043F80346002B48D1786DFEF795F803464FF00102144618466649FEF73FF80346002B02D14FF000036A
S32D0000F2C81C46E3B2002B10D0786D6049FDF794FE03461C46786DFEF77BF8034620461946FDF73EFF03467B65A2
S32D0000F2F023E0786DFEF770F803464FF00102144618465649FEF738F80346002B02D14FF000031C46E3B2002BF9
S32D0000F3180FD0786D4F49FDF76FFE03461C46786DFEF756F8034620461946FDF719FF03467B65BB6D83F0004316
S32D0000F34041F21C10C1F6FF70194601F00DFC41F22410C1F6FF70796D01F006FCBB6D3B657B6DFB6432A1D1E9BF
S32D0000F368000104F00DF87868B96CFDF73BFD03464FF00102144618462D49FDF7DBFF0346002B02D14FF000033C
S32D0000F3901C46E3B2002B03D04FF0010387F85F3041F23010C1F6FF7004F00AFC03461846FDF7D2FD03467868E3
S32D0000F3B81946FDF717FD034641F22440C1F6FF70194606F071F941F22C10C1F6FF7004F0F3FB03461846FDF7E9
S32D0000F3E0BBFD034678681946FDF700FD034641F22440C1F6FF70194606F05AF997F85F3083F00103DBB2002BD3
S32D0000F4087FF44AAE41F21C10C1F6FF70084901F0A7FB41F22410C1F6FF70054901F0A0FB07F16407BD4690BDE8
S32D0000F4307B14AE47E17A943F000000000AD7233C000000400000E04100401C460000E0400000E0C000000041B8
S32D0000F4580000C8410000A04190B59BB002AF7860396007F12403DFF80824009218463968DFF80024FE4BFDF7FF
S32D0000F480B9FF07F10803FC4A00921846FC49FA4AF94BFDF7AFFF4FF0000387F85F30F64B3B65F54BFB6478684E
S32D0000F4A8F649FDF7A9FD03467B6007F124031846FDF7CAFF07F108031846FDF7C5FF41F23010C1F6FF7004F059
S32D0000F4D08BFB41F22C10C1F6FF7004F085FBADE141F22C10C1F6FF7004F06AFB03461846FDF732FD0346BB64D1
S32D0000F4F807F1240318467968BA6CE14BFDF7D0FF03467B6441F23010C1F6FF7004F054FB044641F22C10C1F6FF
S32D0000F520FF7004F04DFB0346E31A1846FDF714FD034607F108021046CF491A46D24BFDF7B3FF03463B64786CC1
S32D0000F548396CFDF751FC0346BB65786C396CFDF749FC03467B65B86D396DFDF743FC03464FF00102144618461A
S32D0000F570C649FDF701FF0346002B02D14FF000031C46E3B2002B06D0386DC049FDF730FC0346BB651AE0B86D93
S32D0000F598396DFDF727FC03464FF0010214461846B949FDF7C7FE0346002B02D14FF000031C46E3B2002B05D00A
S32D0000F5C0386DB249FDF712FC0346BB65786DF96CFDF70CFC03464FF0010214461846AB49FDF7CAFE0346002B65
S32D0000F5E802D14FF000031C46E3B2002B06D0F86CA449FDF7F9FB03467B651AE0786DF96CFDF7F0FB03464FF0DB
S32D0000F6100102144618469E49FDF790FE0346002B02D14FF000031C46E3B2002B05D0F86C9649FDF7DBFB0346D2
S32D0000F6387B65B86D8E49FDF773FE0346002B48D1B86DFDF7C5FE03464FF00102144618468E49FDF76FFE034636
S32D0000F660002B02D14FF000031C46E3B2002B10D0B86D8849FDF7C4FC03461C46B86DFDF7ABFE03462046194615
S32D0000F688FDF76EFD0346BB6523E0B86DFDF7A0FE03464FF00102144618467D49FDF768FE0346002B02D14FF0E9
S32D0000F6B000031C46E3B2002B0FD0B86D7649FDF79FFC03461C46B86DFDF786FE034620461946FDF749FD0346DC
S32D0000F6D8BB65786D6649FDF723FE0346002B48D1786DFDF775FE03464FF00102144618466649FDF71FFE034616
S32D0000F700002B02D14FF000031C46E3B2002B10D0786D6049FDF774FC03461C46786DFDF75BFE034620461946BC
S32D0000F728FDF71EFD03467B6523E0786DFDF750FE03464FF00102144618465649FDF718FE0346002B02D14FF0DF
S32D0000F75000031C46E3B2002B0FD0786D4F49FDF74FFC03461C46786DFDF736FE034620461946FDF7F9FC0346D3
S32D0000F7787B6541F21C10C1F6FF70B96D01F0F0F97B6D83F0004341F22410C1F6FF70194601F0E6F9BB6D3B65DC
S32D0000F7A07B6DFB6432A1D1E9000103F0EDFD7868B96CFDF71BFB03464FF00102144618462D49FDF7BBFD0346CC
S32D0000F7C8002B02D14FF000031C46E3B2002B03D04FF0010387F85F3041F23010C1F6FF7004F0EAF90346184676
S32D0000F7F0FDF7B2FB034678681946FDF7F7FA034641F22440C1F6FF70194605F051FF41F22C10C1F6FF7004F0AA
S32D0000F818D3F903461846FDF79BFB034678681946FDF7E0FA034641F22440C1F6FF70194605F03AFF97F85F30BE
S32D0000F84083F00103DBB2002B7FF44AAE41F21C10C1F6FF70084901F087F941F22410C1F6FF70054901F080F974
S32D0000F86807F16407BD4690BD7B14AE47E17A943F000000000AD7233C000000400000E04100401C460000E040AA
S32D0000F8900000E0C0000000410000C8410000A04190B591B002AF7860396007F10C03824A009218463968814AA8
S32D0000F8B87F4BFDF79BFD4FF0000387F837307C4BFB6278687C49FDF797FB03467B6007F10C031846FDF7B8FD23
S32D0000F8E041F23010C1F6FF7004F07EF9C3E041F23010C1F6FF7004F063F903461846FDF72BFB0346BB6207F14B
S32D0000F9080C0318467968BA6A6C4BFDF7C9FD03463B63386BF96AFDF765FA03464FF00102144618466649FDF7C8
S32D0000F93023FD0346002B02D14FF000031C46E3B2002B06D0F86A6049FDF752FA03463B631AE0386BF96AFDF7E2
S32D0000F95849FA03464FF00102144618465949FDF7E9FC0346002B02D14FF000031C46E3B2002B05D0F86A524903
S32D0000F980FDF734FA03463B63386B4B49FDF7CCFC0346002B48D1386BFDF71EFD03464FF00102144618464A4948
S32D0000F9A8FDF7C8FC0346002B02D14FF000031C46E3B2002B10D0386B4349FDF71DFB03461C46386BFDF704FD70
S32D0000F9D0034620461946FDF7C7FB03463B6323E0386BFDF7F9FC03464FF00102144618463849FDF7C1FC034611
S32D0000F9F8002B02D14FF000031C46E3B2002B0FD0386B3249FDF7F8FA03461C46386BFDF7DFFC03462046194671
S32D0000FA20FDF7A2FB03463B6341F21C10C1F6FF70396B01F099F83B6BFB621DA1D1E9000103F0A2FC7868B96A85
S32D0000FA48FDF7D0F903464FF00102144618461849FDF770FC0346002B02D14FF000031C46E3B2002B03D04FF012
S32D0000FA70010387F8373097F8373083F00103DBB2002B7FF434AF41F21C10C1F6FF700A4901F06AF841F2241071
S32D0000FA98C1F6FF70064901F063F807F13C07BD4690BD00BFAFF300807B14AE47E17A943F000000000AD7233C21
S32D0000FAC00000E04100401C460000E0400000E0C0000040410000C84180B582B000AF786007487968FFF7BCFC3F
S32D0000FAE806487968FFF7D8FE05487968FDF7BCFF07F10807BD4680BD666696400000B0400000504198B500AFB2
S32D0000FB104FF03200FEF7B8FF03E04FF0640003F017FC41F26C40C1F6FF7007F045F802460B464FF001010C46B9
S32D0000FB38104619464FF000024FF07E5303F5A003FDF78CF80346002B02D14FF000031C46E3B2002BDDD100BF6E
S32D0000FB6041F26C40C1F6FF7007F026F802460B464FF001010C46104619464FF000024FF07E5303F5A003FDF79C
S32D0000FB888BF80346002B02D14FF000031C46E3B2002BE1D14FF4FA7003F0D6FB4FF00000FEF76EFF98BD00BF49
S32D0000FBB090B58BB000AF41F22440C1F6FF704FF0000105F09BF941F22440C1F6FF704FF0010105F0E5F907F1A9
S32D0000FBD8040318464FF0070104F016F8D64B7B624FF00C033B624FF00003FB614FF00003BB614FF00003FB75BA
S32D0000FC004FF000033B6141F23410C1F6FF7040F2E22104F0D3FB41F23410C1F6FF7040F6C41104F0E9FB41F2B1
S32D0000FC286C40C1F6FF7006F087FF02460B464FF001010C4610461946BBA3D3E90023FDF72BF80346002B02D1E4
S32D0000FC504FF000031C46E3B2002B09D03B69032B7ED04FF00003FB754FF003033B6177E041F26C40C1F6FF703A
S32D0000FC7806F062FF02460B464FF001010C4610461946ABA3D3E90023FCF7E8FF0346002B02D14FF000031C4634
S32D0000FCA0E3B2002B09D03B69042B59D04FF00003FB754FF004033B6152E041F26C40C1F6FF7006F079FF024620
S32D0000FCC80B464FF001010C461046194698A3D3E90023FCF7C3FF0346002B02D14FF000031C46E3B2002B09D022
S32D0000FCF03B69012B34D04FF00003FB754FF001033B612DE041F26C40C1F6FF7006F054FF02460B464FF001014C
S32D0000FD180C461046194684A3D3E90023FCF7BCFF0346002B02D14FF000031C46E3B2002B09D03B69022B0FD0CE
S32D0000FD404FF00003FB754FF002033B6108E03B69002B05D04FF00003FB754FF000033B61FB7D83F00103DBB26B
S32D0000FD68002B00F087833B69042B00F2068101A252F823F093FE0000F5FE0000B9FE000091FD000045FF0000EF
S32D0000FD9041F22440C1F6FF704FF0000105F0AEF841F22440C1F6FF7048F22431C0F2010105F06AFCFB69052BBE
S32D0000FDB800F2E28001A252F823F000BFDDFD0000FBFD000019FE000037FE000055FE000073FE000041F2244091
S32D0000FDE0C1F6FF7048F23431C0F201014FF002024FF0000305F04CFB4AE041F22440C1F6FF7048F24031C0F277
S32D0000FE0801014FF002024FF0000305F03DFB3BE041F22440C1F6FF7048F24C31C0F201014FF002024FF0000350
S32D0000FE3005F02EFB2CE041F22440C1F6FF7048F25831C0F201014FF002024FF0000305F01FFB1DE041F224401E
S32D0000FE58C1F6FF7048F26431C0F201014FF002024FF0000305F010FB0EE041F22440C1F6FF7048F27031C0F216
S32D0000FE8001014FF002024FF0000305F001FB77E076E041F22440C1F6FF704FF0000105F02DF841F22440C1F6CA
S32D0000FEA8FF7048F27C31C0F2010105F0E9FB64E041F22440C1F6FF704FF0000105F01AF841F22440C1F6FF7044
S32D0000FED048F28C31C0F2010105F0D6FB41F22440C1F6FF70396A4FF002024FF0000305F0EFFA46E041F2244013
S32D0000FEF8C1F6FF704FF0000104F0FCFF41F22440C1F6FF7048F2A031C0F2010105F0B8FB41F22440C1F6FF70A6
S32D0000FF20796A4FF002024FF0000305F0F1FA28E0333333333333D33F333333333333D3BF0000003F41F2244085
S32D0000FF48C1F6FF704FF0000104F0D4FF41F22440C1F6FF7048F2B031C0F2010105F090FB41F22440C1F6FF7095
S32D0000FF70B9694FF002024FF0000305F0A9FA00E000BF4FF00103FB7578E23B69042B00F2808201A252F823F0B1
S32D0000FF98BB000100BF010100D5020100ADFF000065030100FB6903F10103FB61FB69052B02DD4FF00003FB6108
S32D0000FFC0FB69052B68D801A252F823F0E5FF000003000100210001003F0001005D0001007B00010041F2244084
S32D0000FFE8C1F6FF7048F23431C0F201014FF002024FF0000305F048FA4AE041F22440C1F6FF7048F24031C0F272
S32D0001001001014FF002024FF0000305F039FA3BE041F22440C1F6FF7048F24C31C0F201014FF002024FF000034A
S32D0001003805F02AFA2CE041F22440C1F6FF7048F25831C0F201014FF002024FF0000305F01BFA1DE041F224401D
S32D00010060C1F6FF7048F26431C0F201014FF002024FF0000305F00CFA0EE041F22440C1F6FF7048F27031C0F210
S32D0001008801014FF002024FF0000305F0FDF900BF00BF07F10C0207F1080341F22440C1F6FF7011461A4605F0E7
S32D000100B0BBF80346002BF0D1EBE1FB69052B00F2E78101A252F823F0E1000100110101004101010071010100D4
S32D000100D8870101008D0101003B6A002B08DD386AFCF736FF03461846796AFDF7CDFA61E03B6AC3F10003184622
S32D00010100FCF72AFF03461846796AFDF7B1FC55E03B6A002B08DD386AFCF71EFF03461846796AFEF785F849E0C8
S32D000101283B6AC3F100031846FCF712FF03461846796AFDF789FE3DE03B6A002B08DD386AFCF706FF03461846D2
S32D00010150796AFEF77DFB31E03B6AC3F100031846FCF7FAFE03461846796AFEF755FA25E03B6A002B03DD786A15
S32D00010178FEF7AAFC1EE0786AFFF7AAFC1AE0FFF7C1FC17E03B6A002B08DD386AFCF7E0FE03461846796AFEF7F6
S32D000101A03FFF0AE03B6AC3F100031846FCF7D4FE03461846796AFFF753F900BF68E1FB684FF001021446184658
S32D000101C8AF49FDF7D5F80346002B02D14FF000031C46E3B2002B33D0786AFCF779FA02460B4610461946A4A3C4
S32D000101F0D3E90023FCF712F902460B4610461946FCF7A0FD03467B6241F22440C1F6FF70796A4FF002024FF0DD
S32D00010218000305F079F900BF07F10C0207F1080341F22440C1F6FF7011461A4604F0F8FF0346002BF0D14FF0B2
S32D00010240640003F085F824E1786AFCF745FA02460B46104619468AA3D3E90023FCF7DCF802460B461046194633
S32D00010268FCF76CFD03467B624FF001031C46786A8449FDF75FF80346002B02D14FF000031C46E3B2002B01D0CA
S32D000102907E4B7B6241F22440C1F6FF70796A4FF002024FF0000305F033F900BF07F10C0207F1080341F22440F4
S32D000102B8C1F6FF7011461A4604F0B2FF0346002BF0D14FF0640003F03FF8DEE0FB684FF00102144618466A49C5
S32D000102E0FDF74AF80346002B02D14FF000031C46E3B2002B04D03B6A03F101033B6203E03B6A03F1FF333B62B5
S32D0001030841F22440C1F6FF7048F2B831C0F201014FF002024FF0000305F0B6F841F22440C1F6FF70396A4FF06B
S32D0001033002024FF0000305F0CBF800BF07F10C0207F1080341F22440C1F6FF7011461A4604F06AFF0346002B93
S32D00010358F0D14FF0640002F0F7FF96E0FB684FF00102144618464649FDF702F80346002B02D14FF000031C46EF
S32D00010380E3B2002B37D0BB6903F10A03BB61BB69B42B02DD4FF0B403BB6141F22440C1F6FF7048F2BC31C0F2BC
S32D000103A801014FF002024FF0000305F06DF841F22440C1F6FF70B9694FF002024FF0000305F082F800BF07F1BB
S32D000103D00C0207F1080341F22440C1F6FF7011461A4604F021FF0346002BF0D14FF0640002F0AEFF36E0BB69B4
S32D000103F8A3F10A03BB61BB69002B02DA4FF00003BB6141F22440C1F6FF7048F2BC31C0F201014FF002024FF076
S32D00010420000305F035F841F22440C1F6FF70B9694FF002024FF0000305F04AF800BF07F10C0207F1080341F2F2
S32D000104482440C1F6FF7011461A4604F0E9FE0346002BF0D14FF0640002F076FFB869FCF777FD034641F23410E2
S32D00010470C1F6FF70194603F0DFFF0AE000BF08E09A9999999999B93F000020430000000000BF07F10C0207F1C7
S32D00010498080341F22440C1F6FF7011461A4604F0BFFE0346002B7FF46CAD41F22440C1F6FF7048F2C431C0F267
S32D000104C001014FF004024FF0000304F0E1FF07F10403184603F0ACFB034641F22440C1F6FF7019464FF004020F
S32D000104E84FF0000305F010F841F22440C1F6FF7048F2C431C0F201014FF006024FF0000304F0C2FF41F2301055
S32D00010510C1F6FF7003F054FB034641F22440C1F6FF7019464FF006024FF0000304F0D0FF41F22440C1F6FF70E6
S32D0001053848F2C431C0F201014FF008024FF0000304F0A2FF41F22C10C1F6FF7003F034FB034641F22440C1F643
S32D00010560FF7019464FF008024FF0000304F0B0FF4FF0640002F0ECFEFFF755BBAFF3008080B582B000AF7860DB
S32D0001058839607B68012B2ED13A684FF6FF739A4229D141F21C10C1F6FF704FF00001144A00F056FA41F22410A4
S32D000105B0C1F6FF704FF001010F4A00F04DFA41F22C10C1F6FF704FF0000102F041FF41F23010C1F6FF704FF046
S32D000105D8080102F039FF41F23410C1F6FF704FF0000103F0C9FE07F10807BD4680BD00BF0000104180B500AFEF
S32D000106004FF001004FF6FF71FFF7BAFF80BD00BF80B500AF41F2F062C1F6FF7241F21C13C1F6FF73D31A1946C3
S32D0001062841F21C13C1F6FF731A460B4610464FF000011A4606F0F3FD80BD00BF07F05CFE00F0B0F9FFF7E0FFD0
S32D0001065007F02EFE07F0CAFD07F062FE00F00CF84FF0000041F24011C1F6FF71FFF7A0FA0346184606F0B2FD89
S32D0001067880B500AF4FF4E043C4F204034FF4E042C4F2040202F5805202F13802126842F4785203F5805303F1FC
S32D000106A038031A6000F02EF900F094F841F27033C1F6FF734FF058021A6041F27033C1F6FF731B684FF47A7220
S32D000106C802FB03F241F26C33C1F6FF731A6041F26C33C1F6FF731B681A464FF4E043C4F2040303F5825303F1DA
S32D000106F004031B6803F070634FEA136303F10103B2FBF3F31A4641F27433C1F6FF731A604FF4E043C4F2040351
S32D000107184FF4E042C4F2040202F5805202F13C02126842F0225203F5805303F13C031A604FF4E043C4F20403DC
S32D000107404FF4E042C4F2040202F5805202F13002126842F0006203F5805303F130031A604FF45043C4F203036F
S32D000107684FF480721A614FF0640002F081FC4FF45043C4F203034FF45042C4F20302526922F010025A614FF4A1
S32D000107905043C4F203034FF000021A604FF45043C4F203034FF010025A6103F073FB03F01BFC41F26830C1F6A5
S32D000107B8FF7002F0E1FC41F22440C1F6FF7004F0FBF941F2883002F0BFFD80BD80B400AF4FF48043C4F20603B1
S32D000107E04FF000025A704FF48043C4F206034FF098021A704FF48043C4F206039B79DBB203F01003002B0CBF55
S32D0001080800230123DBB2002BF0D14FF48043C4F206039B79DBB203F00C034FEA9303022B0CBF00230123DBB2FE
S32D00010830002BEED14FF48043C4F206034FF018021A714FF48043C4F206034FF000025A714FF4E043C4F2040312
S32D0001085803F5825303F104034FF00002C0F213121A604FF48043C4F206034FF054025A7100BF4FF48043C4F277
S32D0001088006039B79DBB203F02003002B14BF00230123DBB2002BF0D100BF4FF48043C4F206039B79DBB203F0B3
S32D000108A84003002B14BF00230123DBB2002BF0D14FF48043C4F206034FF48042C4F206021278D2B202F03F0257
S32D000108D0D2B21A704FF48043C4F206039B79DBB203F00C034FEA9303032B0CBF00230123DBB2002BEED14FF0BE
S32D000108F800031846BD4680BC704700BF80B400AF4FF44043C4F204034FF480725A634FF2C003C4F20F034FF256
S32D00010920C002C4F20F02526942F400525A614FF2C003C4F20F034FF2C002C4F20F02126842F400521A604FF4CC
S32D000109484043C4F2040340F20312C0F20A021A634FF46143CEF200034FF46142CEF20002D2F8882142F08062E5
S32D00010970C3F888214FF46143CEF200034FF46142CEF20002926842F080629A60BD4680BC704700BF80B483B07E
S32D0001099800AF7860FEE700BF80B400AF00BEBD4680BC704780B400AF4FF0E0224CF20003C0F20003C2F8083D55
S32D000109C04FF40053C4F205034CF22052DA814FF40053C4F205034DF62812DA814FF40053C4F205034FF0D20216
S32D000109E81A80BD4680BC704780B500AF4FF44043C4F20403D3F8A03003F48053002B0CBF00230123DBB2002B8F
S32D00010A101FD04FF44043C4F204034FF44042C4F20402D2F8A02022F48052C3F8A02041F2AC40C1F6FF7006F09C
S32D00010A3857FB4FF2C003C4F20F034FF2C002C4F20F02126822F400521A6080BD0000000090B585B000AFF8608D
S32D00010A600B467A60FB72FB68FA7A1A71FB684FF000025A714FF001031C4678682049FCF77BFC0346002B02D15F
S32D00010A884FF000031C46E3B2002B02D01A4B7B6011E04FF001031C4678681849FCF754FC0346002B02D14FF029
S32D00010AB000031C46E3B2002B01D0124B7B607868FBF70AFE02460B46104619460AA3D3E90023FBF755FE0246A8
S32D00010AD80B4610461946FCF731F90246FB681A60FB68184607F11407BD4690BDAFF30080ABAAAAAAAAAA204004
S32D00010B00000040410000803F80B584B000AF786039603B687F2B03DD4FF07F03FB7309E03B6813F1800F03DAA5
S32D00010B284FF08003FB7301E03B68FB737B685B79FA7B9A420FD07B68FA7B5A717B681A79FB7B41F26830C1F604
S32D00010B50FF7011461A464FF01E0302F05BFB07F11007BD4680BD00BFB0B584B000AF786039604FF001031C463C
S32D00010B7838684D49FCF7DEFB0346002B02D14FF000031C46E3B2002B02D0474B3B6011E04FF001031C4638686C
S32D00010BA04449FCF7E9FB0346002B02D14FF000031C46E3B2002B01D03E4B3B603868FBF78BFD04460D467B6888
S32D00010BC81B681846FBF784FD02460B46104619464FF000024FF0804303F5B203FBF7F6FE02460B462046294618
S32D00010BF0FBF7C6FD02460B4610461946FCF7A2F803463B604FF001031C4638682A49FCF7A9FB0346002B02D1CC
S32D00010C184FF000031C46E3B2002B14D03868FBF757FD02460B46104619461DA3D3E90023FBF7A2FD02460B4668
S32D00010C4010461946FCF736F80346FB6022E03868FBF742FD02460B46104619464FF000024FF0804303F5C003EC
S32D00010C68FBF78AFD02460B46104619464FF000024FF0804303F5B203FBF7A8FE02460B4610461946FCF712F8C3
S32D00010C900346FB607868F968FFF736FF07F11007BD46B0BDAFF3008052B81E85EB51F43F0000C8C20000C842D4
S32D00010CB800000000AFF3008080B485B000AF02460B46FA71BB71BB79002B07D141F24413C1F6FF734FF0000278
S32D00010CE01A7006E041F24413C1F6FF734FF001021A704FF03803FB7341F24413C1F6FF731A78FB7B1343FB738F
S32D00010D084FF4C043C4F206034FF4C042C4F206029278D2B242F01002D2B29A704FF4C043C4F206034FF4C0420A
S32D00010D30C4F206029278D2B242F02002D2B29A704FF4C043C4F20603FA7B1A7107F11407BD4680BC704700BF99
S32D00010D5880B483B000AF4FF001037B6004E000BF7B6803F101037B607B68312BCCBF00230123DBB2002BF2D153
S32D00010D8007F10C07BD4680BC704700BF80B584B000AF0346FB7141F24513C1F6FF731B7818464FF00001FFF7DC
S32D00010DA88BFF4FF4C043C4F20603DB78DBB203F00203002B14BF00230123DBB2002BF0D14FF4C043C4F20603F2
S32D00010DD04FF4C042C4F20602D278D2B242F00202D2B2DA704FF4C043C4F20603FA791A714FF4C043C4F2060317
S32D00010DF8DB78DBB203F00203002B14BF00230123DBB2002BF0D14FF4C043C4F206034FF4C042C4F20602D278E4
S32D00010E20D2B242F00202D2B2DA704FF4C043C4F206034FF4C042C4F206029278D2B242F00402D2B29A704FF47C
S32D00010E48C043C4F206034FF039021A714FF4C043C4F20603DB78DBB203F00203002B14BF00230123DBB2002BDA
S32D00010E70F0D14FF4C043C4F206034FF4C042C4F20602D278D2B242F00202D2B2DA704FF4C043C4F206034FF470
S32D00010E98C042C4F206029278D2B222F01002D2B29A704FF4C043C4F206034FF4C042C4F206029278D2B242F063
S32D00010EC00802D2B29A704FF4C043C4F206031B79FB724FF00003FB6003E0FB6803F10103FB60FA6841F28733E0
S32D00010EE89A428CBF00230123DBB2002BF1D14FF4C043C4F20603DB78DBB203F00203002B14BF00230123DBB244
S32D00010F10002BF0D14FF4C043C4F206034FF4C042C4F20602D278D2B242F00202D2B2DA704FF4C043C4F20603E7
S32D00010F384FF4C042C4F206029278D2B222F02002D2B29A704FF4C043C4F206034FF4C042C4F206029278D2B2A1
S32D00010F6022F01002D2B29A704FF4C043C4F206031B79FB72FFF7F0FEFB7A184607F11007BD4680BD80B582B03D
S32D00010F8800AF02460B46FA71BB7141F24513C1F6FF731B7818464FF00001FFF78DFE4FF4C043C4F20603DB789D
S32D00010FB0DBB203F00203002B14BF00230123DBB2002BF0D14FF4C043C4F206034FF4C042C4F20602D278D2B2F9
S32D00010FD842F00202D2B2DA704FF4C043C4F20603FA791A714FF4C043C4F20603DB78DBB203F00203002B14BF08
S32D0001100000230123DBB2002BF0D14FF4C043C4F206034FF4C042C4F20602D278D2B242F00202D2B2DA704FF4E4
S32D00011028C043C4F20603BA791A714FF4C043C4F20603DB78DBB203F00203002B14BF00230123DBB2002BF0D17E
S32D000110504FF4C043C4F206034FF4C042C4F20602D278D2B242F00202D2B2DA704FF4C043C4F206034FF4C0424D
S32D00011078C4F206029278D2B222F02002D2B29A704FF4C043C4F206034FF4C042C4F206029278D2B222F0100281
S32D000110A0D2B29A70FFF758FE07F10807BD4680BD80B582B000AF0346FB71FB79184600F06BF807F10807BD4606
S32D000110C880BD00BF80B582B000AF02460B46FA71BB7100F039F8FB794FEA4303DBB21846FFF7E2FFBB7918464F
S32D000110F0FFF7DEFF00F03EF807F10807BD4680BD80B500AF4FF0FF0000F046F80346184680BD00BF80B584B035
S32D0001111800AF0346FB7100F017F8FB794FEA4303DBB243F00103DBB2DBB21846FFF7BCFFFFF7E2FF0346FB73D7
S32D0001114000F018F8FB7B184607F11007BD4680BD80B400AF4FF24003C4F20F034FF24002C4F20F02926842F4B4
S32D0001116880129A60BD4680BC704700BF80B400AF4FF24003C4F20F034FF24002C4F20F02526842F480125A6062
S32D00011190BD4680BC704700BF80B485B000AF0346FB714FF00003BB7303E0FB7B03F10103FB734FF44043C4F203
S32D000111B80A03DB6A4FF00003002BF2D14FF44043C4F20A034FF44042C4F20A02D26A42F00042DA624FF44043C4
S32D000111E0C4F20A03FA795A6300BF4FF44043C4F20A03DB6A03F40033002B14BF00230123DBB2002BF1D14FF434
S32D000112084043C4F20A039B6BBB73BB7B184607F11407BD4680BC704780B582B000AF4FF4E043C4F204034FF424
S32D00011230E042C4F2040202F5805202F13002126842F4805203F5805303F130031A604FF42043C4F204034FF42F
S32D0001125880721A654FF24003C4F20F034FF24002C4F20F02526942F480125A61FFF77EFF4FF42043C4F204034C
S32D000112804FF400725A654FF42043C4F204034FF400729A654FF42043C4F204034FF40072DA654FF44043C4F2E1
S32D000112A80A034FF44062C8F200021A604FF44043C4F20A034FF00502C3F60062DA604FF000037B6007E04FF088
S32D000112D0FF00FFF7EDFE7B6803F101037B607B68092BCCBF00230123DBB2002BEFD104A1D1E9000102F048F866
S32D000112F807F10807BD4680BD9A9999999999B93F90B486B000AFF860B9607A60FA684FF42043C4F206039A42DA
S32D0001132014D14FF4E043C4F204034FF4E042C4F2040202F5805202F13402126842F4806203F5805303F13403FB
S32D000113481A6083E0FA684FF43043C4F206039A4214D14FF4E043C4F204034FF4E042C4F2040202F5805202F101
S32D000113703402126842F4006203F5805303F134031A6067E0FA684FF44043C4F206039A4214D14FF4E043C4F28B
S32D0001139804034FF4E042C4F2040202F5805202F13402126842F4805203F5805303F134031A604BE0FA684FF44A
S32D000113C05043C4F206039A4214D14FF4E043C4F204034FF4E042C4F2040202F5805202F13402126842F40052B3
S32D000113E803F5805303F134031A602FE0FA684FF42043C4F20E039A4214D14FF4E043C4F204034FF4E042C4F289
S32D00011410040202F5805202F12802126842F4806203F5805303F128031A6013E04FF4E043C4F204034FF4E04250
S32D00011438C4F2040202F5805202F12802126842F4006203F5805303F128031A60FB68DB78DBB223F00C03DAB27C
S32D00011460FB68DA70FB684FF000029A70BB684FF47A7202FB03F27B684FEA031392FBF3F39CB2FB681B78DBB248
S32D0001148823F01F03FB75234603F4F8534FEA2323DBB203F01F03DAB2FB7D1343DAB2FB681A70E2B2FB685A7030
S32D000114B0BB684FF4FA4202FB03F27B684FEA031392FBF3F39AB2234619464FEAC121CB1A4FEA43139BB2D318F9
S32D000114D89CB2FB689B7ADBB223F01F03FB75E3B203F01F03DAB2FB7D1343DAB2FB689A72FB68DB78DBB243F078
S32D000115000C03DAB2FB68DA7007F11807BD4690BC704700BF80B483B000AF786000BF7B681B79DBB203F02003D1
S32D00011528002B14BF00230123DBB2002BF3D17B68DB79DBB2184607F10C07BD4680BC704780B483B000AF7860C2
S32D000115500B46FB7000BF7B681B79DBB2DBB26FEA0303DBB24FEAD313DBB2002BF3D17B68FA78DA7107F10C072E
S32D00011578BD4680BC704700BF80B487B000AFF860B9607A60FB687B6107E0BB68DAB27B691A707B6903F101030B
S32D000115A07B617B68002B0CBF00230123DBB27A6802F1FF327A60002BEBD107F11C07BD4680BC704780B584B052
S32D000115C800AF786039607B681B6BFB60FA683B689A4264D07B681B79002B43D07B685A787B6803F1340310462D
S32D000115F01946FA684FF0010301F0ACFB0346002B0CBF00230123DBB2002B02D04FF001034BE07B684FF000028E
S32D000116181A717B685A6A7B681B6AD218FB689A4220D97B68DB78FB7214E07B681B6AFA68D318FB607B685A788B
S32D000116407B6803F1340310461946FA684FF0010301F080FBFB7A03F1FF33FB72FB7A012B94BF00230123DBB2D7
S32D00011668002BE2D13B68002B19D07B685A787B6803F13403104619463A684FF0010301F057FA0346002B0CBFE0
S32D0001169000230123DBB2002B02D04FF0010304E07B683A681A634FF00003184607F11007BD4680BD80B584B0D9
S32D000116B800AF786078684FF00001FFF77FFF0346FB73FB7B002B40F0AE807B681B78032B40F095807B685B7992
S32D000116E0002B00F090807B684FF000021A637B6803F1340318464FF000014FF40072FFF73FFF7B684FF0550201
S32D0001170883F832227B684FF0AA0283F833227B684FF0520283F834207B684FF0520283F835207B684FF0610235
S32D0001173083F836207B684FF0410283F837207B684FF0720283F818227B684FF0720283F819227B684FF0410286
S32D0001175883F81A227B684FF0610283F81B227B681B69DAB27B6883F81C227B681B699BB24FEA2323DAB27B683D
S32D0001178083F81D227B681B694FEA1343DAB27B6883F81E227B681B694FEA1363DAB27B6883F81F227B68DB68F9
S32D000117A8DAB27B6883F820227B68DB689BB24FEA2323DAB27B6883F821227B68DB684FEA1343DAB27B6883F828
S32D000117D022227B68DB684FEA1363DAB27B6883F823227B6859787B6803F134027B685B69084611461A464FF0F6
S32D000117F8010301F0ABFA7B684FF000025A717B685B7818464FF000014FF0000201F084FB0346002B0CBF0023D2
S32D000118200123DBB2002B02D04FF00103FB73FB7B184607F11007BD4680BD00BF80B582B000AF78600B467B801E
S32D000118487B68002B08D07B681B78002B04D07B68DB887A889A4202D04FF009030FE07B685B78184601F0ECFBFA
S32D00011870034603F00103DBB2002B02D04FF0030301E04FF00003184607F10807BD4680BD80B586B000AF786080
S32D000118987B681A687B689B8810461946FFF7CAFF0346FB75FB7D002B40F0C8807B689B7903F02003002B00F046
S32D000118C0C1807B689B7903F04003002B20D07B681B6859787B6803F128027B689B69084611461A464FF0010309
S32D000118E801F034FA0346002B0CBF00230123DBB2002B02D04FF00103A1E07B689B7923F04003DAB27B689A7117
S32D000119107B681A687B68DB6910461946FFF752FE0346FB75FB7D002B40F08C807B681B6A3B613B6903F10B03DF
S32D000119383A6902F10B02127842F02002D2B21A703B6903F11C037A68D268D2B21A703B6903F11D037A68D2683C
S32D0001196092B24FEA2222D2B21A703B6903F11E037A68D2684FEA1242D2B21A703B6903F11F037A68D2684FEA0A
S32D000119881262D2B21A703B6903F11A037A681269D2B21A703B6903F11B037A68126992B24FEA2222D2B21A70AC
S32D000119B03B6903F114037A6812694FEA1242D2B21A703B6903F115037A6812694FEA124292B24FEA2222D2B282
S32D000119D81A704FF00003FB603B6903F11603FA68D2B21A703B6903F11703FA6892B24FEA2222D2B21A703B6911
S32D00011A0003F11803FA684FEA1242D2B21A703B6903F11903FA684FEA1262D2B21A707B689B7923F02003DAB221
S32D00011A287B689A717B681B684FF001021A717B681B681846FFF73AFE0346FB75FB7D184607F11807BD4680BD96
S32D00011A5080B584B000AF78607868FFF719FF0346FB73FB7B002B03D17B684FF000021A60FB7B184607F11007DC
S32D00011A78BD4680BD80B588B000AF786039604FF080033B614FF00F03FB604FF0FF337B614FF00203FB612AE071
S32D00011AA04FF00103BB611AE0FB69BA6902FB03F33A6802FB03F27B68D31ABB60BB68002B09DBBA687B699A42B1
S32D00011AC805D2BB687B61FB693B61BB69FB60BB6903F10103BB61BB69102B8CBF00230123DBB2002BDCD1FB69A8
S32D00011AF04FEA4303FB61FB69B3F5807F8CBF00230123DBB2002BCBD14FF48053C4F20B034FF48052C4F20B0249
S32D00011B18D26A22F00802DA624FF48053C4F20B03DB6A1A464FF00F03CFF6F0731340BB614FF48053C4F20B03C9
S32D00011B403A694FEA52024FEA02224FEA02424FEA1242F96801F1FF314FEA0111C9B21143BA690A4342F460221A
S32D00011B68DA6203E04FF00A0001F0EEFB4FF48053C4F20B035B6A03F00803002B14BF00230123DBB2002BEDD1B4
S32D00011B904FF48053C4F20B034FF48052C4F20B02D26A42F00802DA624FF48053C4F20B034FF48052C4F20B020E
S32D00011BB8126B42F480121A6307F12007BD4680BD80B582B000AF786039607B684FF000021A604FF48053C4F2EC
S32D00011BE00B034FF40042C0F20012DA624FF48053C4F20B03DB6A03F08073002B0CBF00230123DBB2002BF1D187
S32D00011C084FF48053C4F20B034FF00002C3F8C0204FF48053C4F20B034FF481325A604FF48053C4F20B034FF054
S32D00011C3028029A624FF48053C4F20B034FF001125A643B689B6818464CF66041C0F20501FFF714FF4FF48053B7
S32D00011C58C4F20B035B6A03F00303002B0CBF00230123DBB2002BF1D14FF45043C4F2040340F243421A604FF41D
S32D00011C805043C4F2040340F243425A604FF45043C4F204034FF488629A604FF45043C4F2040340F24342DA6036
S32D00011CA84FF45043C4F2040340F243421A614FF45043C4F2040340F243425A614FF4E043C4F204034FF4E042BB
S32D00011CD0C4F2040202F5805202F13002126842F4003203F5805303F130031A604FF48053C4F20B034FF6FF725D
S32D00011CF81A634FF48053C4F20B034FF0B302C0F27F025A634FF48053C4F20B034FF48052C4F20B02D26A42F062
S32D00011D200062DA624FF48053C4F20B03DB6A03F00063002B0CBF00230123DBB2002BF1D14FF48053C4F20B03F0
S32D00011D485B6A03F48033002B0CBF00230123DBB2002B03D07B684FF001021A604FF48053C4F20B034FF48052A7
S32D00011D70C4F20B02126B42F080021A634FF00003184607F10807BD4680BD00BF80B400AF4FF48053C4F20B0370
S32D00011D985B6A1A4640F207331340002B0CBF00230123DBB21846BD4680BC704780B485B000AF78604FF4805314
S32D00011DC0C4F20B031B6B1A467B681340FB60FB68002B14BF00230123DBB2002BEED1FB68184607F11407BD46C3
S32D00011DE880BC704780B584B000AF78607B681B7803F03F0248F28843C0F2010353F82230FB60FB68002B06D127
S32D00011E107B681B78002B02D04FF0010330E14FF48053C4F20B034FF48052C4F20B02126B42F080021A634FF439
S32D00011E388053C4F20B035B6A03F00103DBB2002BF5D14FF48053C4F20B037A6852689A60FB6823F44003FB6022
S32D00011E607B685B784FEA835303F44003FA681343FB607B685B78022B03D1FB6843F40013FB607B685B78042B9D
S32D00011E8816D1FB6803F44033B3F5003F08D1FB6823F44033FB60FB6843F44033FB6007E0FB6823F44033FB60D8
S32D00011EB0FB6843F40033FB604FF48053C4F20B034FF48052C4F20B0252684FEA02424FEA12425A607B68DB6885
S32D00011ED8002B32D0FB6803F44033B3F5403F03D0FB6843F40013FB607B681B7A002B03D0FB6843F01003FB6065
S32D00011F007B68DB68012B03D9FB6843F02003FB607B68DB68B3F1FF3F13D04FF48053C4F20B034FF48052C4F2E0
S32D00011F280B02526811467A68D2684FEA02420A435A60FB6843F00203FB604FF48053C4F20B034FF000021A6041
S32D00011F504FF48053C4F20B03FA68DA604FF00100C0F20E00FFF726FF0346012B0CBF00230123DBB2002B10D0B2
S32D00011F784FF48053C4F20B034FF48052C4F20B02126B42F4702242F001021A634FF0010372E04FF48053C4F230
S32D00011FA00B031B6B03F08003002B0CBF00230123DBB2002B0ED04FF48053C4F20B034FF48052C4F20B02126B06
S32D00011FC842F001121A634FF0010355E04FF48053C4F20B031B6B03F48033002B0CBF00230123DBB2002B0ED0D3
S32D00011FF04FF48053C4F20B034FF48052C4F20B02126B42F001121A634FF0FF3338E0FB6803F44033002B25D05B
S32D000120184FF48053C4F20B031B691A467B681A61FB6803F44033B3F5803F17D14FF48053C4F20B035B691A4663
S32D000120407B685A614FF48053C4F20B039B691A467B689A614FF48053C4F20B03DB691A467B68DA614FF4805305
S32D00012068C4F20B034FF48052C4F20B02126B42F001021A634FF00003184607F11007BD4680BD00BF80B592B059
S32D0001209000AF786039604FF00003FB633B68BB6341F25C13C1F6FF737B637B6B002B03D140F6012300F0A0BC6C
S32D000120B841F26033C1F6FF733B633B6B002B03D140F60B2300F094BC3B6B1B68FB62FB6A002B03D140F60B23D5
S32D000120E000F08ABC7B6841F20432934200F0388241F2043293421BD841F20132934238D041F20132934207D842
S32D00012108032B00F03D84092B00F0298400F066BC41F20232934200F0128241F20332934200F0BE8300F05ABCB2
S32D0001213041F20732934200F04B8341F2073293420BD841F20532934200F0348241F20632934200F0108300F0C5
S32D0001215845BC41F20832934200F0B68241F20932934200F0C48200F039BC786B48F27C41C0F20101FFF724FDEA
S32D000121800346FB63FB6B002B40F030844FF0000387F847304FF0000387F82B304FF0000387F82A304FF0000363
S32D000121A887F829304FF0000387F846304FF0000387F828304FF000033B724FF000037B724FF00003FB604FF0E6
S32D000121D000033B744FF000037B6107F108031846FFF704FE0346002B0CBF00230123DBB2002B03D04FF0010363
S32D000121F8FB63FCE340F24C4001F0A6F84FF008033B724FF000037B724FF4D573FB604FF000033B744FF00003EF
S32D000122207B6107F108031846FFF7E0FD03463B643B6C002B0BD1BA69FB689A4203D04FF00103FB63D7E34FF01A
S32D00012248010387F846304FF0010387F8283097F82830002B00F0C6804FF037033B724FF000037B724FF0000375
S32D00012270FB604FF000033B744FF000037B6107F108031846FFF7B2FD03463B643B6C002B03D04FF00103FB63A1
S32D00012298ADE34FF069033B724FF000037B724FF00003FB604FF000033B744FF000037B6107F108031846FFF7FD
S32D000122C095FD0346002B0CBF00230123DBB2002B03D04FF00103FB638DE3BB6903F44013002B00F083804FF070
S32D000122E800033B644FF00A0001F02EF83B6C03F101033B644FF037033B724FF000037B724FF00003FB604FF056
S32D0001231000033B744FF000037B6107F108031846FFF764FD0346002B0CBF00230123DBB2002B03D04FF00103C2
S32D00012338FB6336E04FF069033B724FF000037B7297F84630002B05D04FF00003C4F23003FB6002E04FF4401378
S32D00012360FB604FF000033B744FF000037B6107F108031846FFF73AFD0346002B0CBF00230123DBB2002B03D045
S32D000123884FF00103FB630CE0BB69002B05DB3B6C632B02D84FF0010301E04FF00003002BA0D1FB6B002B40F098
S32D000123B01F833B6C632B04D94FF0000387F8463014E04FF0010387F8473097F84630002B0CD04FF0000387F819
S32D000123D84630BB6903F08043002B03D04FF0010387F8463097F82A30002B03D07B6B4FF007021A6097F82930D9
S32D00012400002B03D07B6B4FF008021A6097F82B30002B03D07B6B4FF004021A6097F84730002B0BD07B6B4FF048
S32D0001242802021A6097F84630002B03D07B6B4FF003021A6097F82B30002B0FD097F84730002B0BD07B6B4FF03B
S32D0001245005021A6097F84630002B03D07B6B4FF006021A604FF45043C4F204034FF000021A604FF45043C4F258
S32D0001247804034FF000025A604FF45043C4F204034FF000029A604FF45043C4F204034FF00002DA604FF4504381
S32D000124A0C4F204034FF000021A614FF45043C4F204034FF000025A61FB6A9A68FB6A5B6810461946FFF7DAFAF7
S32D000124C84FF45043C4F2040340F243421A604FF45043C4F2040340F243425A604FF45043C4F204034FF488625D
S32D000124F09A604FF45043C4F2040340F24342DA604FF45043C4F2040340F243421A614FF45043C4F2040340F2B5
S32D0001251843425A614FF4E043C4F204034FF4E042C4F2040202F5805202F13002126842F4003203F5805303F181
S32D0001254030031A6057E2B86BFFF750FC03463B643B6C002B00F04E824FF00203FB6349E2BB6B002B03D14FF076
S32D000125680C03FB6343E24FF48053C4F20B03DB6A03F47F434FEA13234FEA43033B644FF48053C4F20B03DB6A2E
S32D0001259003F0F0034FEA131303F101023B6C02FB03F33B64FB6A9A683B6CB2FBF3F2BB6B1A6020E2BB6B002B14
S32D000125B803D14FF00C03FB6319E2BB6B1B68002B03D14FF00C03FB6311E2FFF7DBFB0346002B14BF00230123D8
S32D000125E0DBB2002B70D04FF45043C4F204034FF000021A604FF45043C4F204034FF000025A604FF45043C4F26C
S32D0001260804034FF000029A604FF45043C4F204034FF00002DA604FF45043C4F204034FF000021A614FF450432E
S32D00012630C4F204034FF000025A61FB6A9A68BB6B1B6810461946FFF719FA4FF45043C4F2040340F243421A6030
S32D000126584FF45043C4F2040340F243425A604FF45043C4F204034FF488629A604FF45043C4F2040340F243424B
S32D00012680DA604FF45043C4F2040340F243421A614FF45043C4F2040340F243425A614FF4E043C4F204034FF4C1
S32D000126A8E042C4F2040202F5805202F13002126842F4003203F5805303F130031A6096E140F60A23FB6392E13E
S32D000126D0BB6B002B03D14FF00C03FB638BE14FF48053C4F20B035B684FEAC3434FEAD343BA6B13607FE1BB6B55
S32D000126F8002B03D14FF00C03FB6378E1FFF742FB0346002B14BF00230123DBB2002B2AD0BB6B1A6840F6FF73EC
S32D000127209A4203D94FF00C03FB6364E14FF48053C4F20B034FF48052C4F20B02526822F4FE5222F03F025A6002
S32D000127484FF48053C4F20B034FF48052C4F20B0252681146BA6B12684FEAC2424FEAD2420A435A6043E140F615
S32D000127700A23FB633FE1BB6B002B03D14FF00C03FB6338E14FF48053C4F20B039B6A03F006034FEA53033B649C
S32D000127983B6C002B04D1BB6B4FF000021A6026E13B6C012B04D1BB6B4FF001021A601EE13B6C102B04D1BB6B1D
S32D000127C04FF002021A6016E14FF00503FB6312E1BB6B002B03D14FF00C03FB630BE1FFF7D5FA0346002B14BFD5
S32D000127E800230123DBB2002B56D0BB6B1B68002B16D14FF48053C4F20B034FF48052C4F20B02926A22F006021A
S32D000128109A624FF48053C4F20B034FF48052C4F20B02926A9A62E6E0BB6B1B68012B18D14FF48053C4F20B0395
S32D000128384FF48052C4F20B02926A22F006029A624FF48053C4F20B034FF48052C4F20B02926A42F002029A62A7
S32D00012860C9E0BB6B1B68022B16D14FF48053C4F20B034FF48052C4F20B02926A22F006029A624FF48053C4F253
S32D000128880B034FF48052C4F20B02926A9A62AEE04FF00503FB63AAE040F60A23FB63A6E0BB6B002B03D14FF0DB
S32D000128B00C03FB639FE04FF48053C4F20B034FF48052C4F20B02D26A42F00062DA624FF48053C4F20B03DB6A30
S32D000128D803F00063002B0CBF00230123DBB2002BF1D14FF48053C4F20B031B6B03F08003002B0CBF00230123B1
S32D00012900DBB2002B0FD04FF48053C4F20B034FF48052C4F20B02126B42F080021A637B6B4FF000021A604FF4CD
S32D000129288053C4F20B035B6A03F48033002B0CBF00230123DBB2002B08D07B6B1B68002B08D17B6B4FF0010218
S32D000129501A6003E07B6B4FF000021A607B6B1A68BB6B1A6047E0BB6B4FF01C021A60BB6B03F104034FF00402C8
S32D000129781A60BB6B03F108034FF41E721A6036E04FF00200FFF712FA4FF48053C4F20B031B6B03F4E003002B86
S32D000129A00CBF00230123DBB2002B0ED04FF48053C4F20B034FF48052C4F20B02126B42F4E0021A634FF0040356
S32D000129C8FB634FF48053C4F20B034FF48052C4F20B02126B42F032021A6308E040F60923FB6304E000BF02E043
S32D000129F000BF00E000BFFB6B184607F14807BD4680BD00BF80B489B000AF786039607B687B6141F25C13C1F6AB
S32D00012A18FF733B613B69002B02D14FF0000381E03B691B68022B0BD03B691B68032B07D03B691B68072B03D0B5
S32D00012A403B691B68082B0DD14FF48053C4F20B035B6A03F00403002B0CBF00230123DBB2002BF1D13B68FB61E0
S32D00012A6856E0FB69B3F5007F28BF4FF40073FB60FB6803F103034FEA9303BB613CE04FF48053C4F20B031B6BC2
S32D00012A9003F4E003002B0CBF00230123DBB2002B10D04FF48053C4F20B034FF48052C4F20B02126B42F4E00221
S32D00012AB842F020021A634FF0000333E04FF48053C4F20B035B6A03F40063002B14BF00230123DBB2002BF1D111
S32D00012AE04FF48053C4F20B031B6A1A467B691A607B6903F104037B61BB6903F1FF33BB61BB69002B0CBF00234C
S32D00012B080123DBB2002BBAD1FA69FB68D31AFB61FB69002B0CBF00230123DBB2002BA0D14FF00103184607F1C5
S32D00012B302407BD4680BC704780B58EB000AFB9607A600246FA73BB7341F24813C1F6FF737B63FB7B002B02D154
